{
	"20.发送ETH/SendEthTest.sol": {
		"SendAndReceive": {
			"abi": [
				{
					"inputs": [],
					"name": "CallFailed",
					"type": "error"
				},
				{
					"anonymous": false,
					"inputs": [
						{
							"indexed": false,
							"internalType": "uint256",
							"name": "amount",
							"type": "uint256"
						},
						{
							"indexed": false,
							"internalType": "uint256",
							"name": "gas",
							"type": "uint256"
						}
					],
					"name": "Log",
					"type": "event"
				},
				{
					"inputs": [
						{
							"internalType": "address payable",
							"name": "_to",
							"type": "address"
						},
						{
							"internalType": "uint256",
							"name": "amount",
							"type": "uint256"
						}
					],
					"name": "callETH",
					"outputs": [],
					"stateMutability": "payable",
					"type": "function"
				},
				{
					"inputs": [],
					"name": "getBalance",
					"outputs": [
						{
							"internalType": "uint256",
							"name": "",
							"type": "uint256"
						}
					],
					"stateMutability": "view",
					"type": "function"
				},
				{
					"stateMutability": "payable",
					"type": "receive"
				}
			],
			"devdoc": {
				"kind": "dev",
				"methods": {},
				"version": 1
			},
			"evm": {
				"assembly": "    /* \"20.\\xe5\\x8f\\x91\\xe9\\x80\\x81ETH/SendEthTest.sol\":83:902  contract SendAndReceive {... */\n  mstore(0x40, 0x80)\n  callvalue\n  dup1\n  iszero\n  tag_1\n  jumpi\n  0x00\n  dup1\n  revert\ntag_1:\n  pop\n  dataSize(sub_0)\n  dup1\n  dataOffset(sub_0)\n  0x00\n  codecopy\n  0x00\n  return\nstop\n\nsub_0: assembly {\n        /* \"20.\\xe5\\x8f\\x91\\xe9\\x80\\x81ETH/SendEthTest.sol\":83:902  contract SendAndReceive {... */\n      mstore(0x40, 0x80)\n      jumpi(tag_1, lt(calldatasize, 0x04))\n      shr(0xe0, calldataload(0x00))\n      dup1\n      0x12065fe0\n      eq\n      tag_3\n      jumpi\n      dup1\n      0x8419cf50\n      eq\n      tag_4\n      jumpi\n      jump(tag_2)\n    tag_1:\n      jumpi(tag_2, calldatasize)\n        /* \"20.\\xe5\\x8f\\x91\\xe9\\x80\\x81ETH/SendEthTest.sol\":410:435  Log(msg.value, gasleft()) */\n      0xbd0faddf87043dd749c1b9d4dca8a12589b8cb5e2106832111ce23f219b14367\n        /* \"20.\\xe5\\x8f\\x91\\xe9\\x80\\x81ETH/SendEthTest.sol\":414:423  msg.value */\n      callvalue\n        /* \"20.\\xe5\\x8f\\x91\\xe9\\x80\\x81ETH/SendEthTest.sol\":425:434  gasleft() */\n      gas\n        /* \"20.\\xe5\\x8f\\x91\\xe9\\x80\\x81ETH/SendEthTest.sol\":410:435  Log(msg.value, gasleft()) */\n      mload(0x40)\n      tag_7\n      swap3\n      swap2\n      swap1\n      tag_8\n      jump\t// in\n    tag_7:\n      mload(0x40)\n      dup1\n      swap2\n      sub\n      swap1\n      log1\n        /* \"20.\\xe5\\x8f\\x91\\xe9\\x80\\x81ETH/SendEthTest.sol\":83:902  contract SendAndReceive {... */\n      stop\n    tag_2:\n      0x00\n      dup1\n      revert\n        /* \"20.\\xe5\\x8f\\x91\\xe9\\x80\\x81ETH/SendEthTest.sol\":801:897  function getBalance() public view returns (uint) {... */\n    tag_3:\n      callvalue\n      dup1\n      iszero\n      tag_9\n      jumpi\n      0x00\n      dup1\n      revert\n    tag_9:\n      pop\n      tag_10\n      tag_11\n      jump\t// in\n    tag_10:\n      mload(0x40)\n      tag_12\n      swap2\n      swap1\n      tag_13\n      jump\t// in\n    tag_12:\n      mload(0x40)\n      dup1\n      swap2\n      sub\n      swap1\n      return\n        /* \"20.\\xe5\\x8f\\x91\\xe9\\x80\\x81ETH/SendEthTest.sol\":476:763  function callETH(address payable _to, uint256 amount) external payable {... */\n    tag_4:\n      tag_14\n      0x04\n      dup1\n      calldatasize\n      sub\n      dup2\n      add\n      swap1\n      tag_15\n      swap2\n      swap1\n      tag_16\n      jump\t// in\n    tag_15:\n      tag_17\n      jump\t// in\n    tag_14:\n      stop\n        /* \"20.\\xe5\\x8f\\x91\\xe9\\x80\\x81ETH/SendEthTest.sol\":801:897  function getBalance() public view returns (uint) {... */\n    tag_11:\n        /* \"20.\\xe5\\x8f\\x91\\xe9\\x80\\x81ETH/SendEthTest.sol\":844:848  uint */\n      0x00\n        /* \"20.\\xe5\\x8f\\x91\\xe9\\x80\\x81ETH/SendEthTest.sol\":868:889  address(this).balance */\n      selfbalance\n        /* \"20.\\xe5\\x8f\\x91\\xe9\\x80\\x81ETH/SendEthTest.sol\":861:889  return address(this).balance */\n      swap1\n      pop\n        /* \"20.\\xe5\\x8f\\x91\\xe9\\x80\\x81ETH/SendEthTest.sol\":801:897  function getBalance() public view returns (uint) {... */\n      swap1\n      jump\t// out\n        /* \"20.\\xe5\\x8f\\x91\\xe9\\x80\\x81ETH/SendEthTest.sol\":476:763  function callETH(address payable _to, uint256 amount) external payable {... */\n    tag_17:\n        /* \"20.\\xe5\\x8f\\x91\\xe9\\x80\\x81ETH/SendEthTest.sol\":642:654  bool success */\n      0x00\n        /* \"20.\\xe5\\x8f\\x91\\xe9\\x80\\x81ETH/SendEthTest.sol\":659:662  _to */\n      dup3\n        /* \"20.\\xe5\\x8f\\x91\\xe9\\x80\\x81ETH/SendEthTest.sol\":659:667  _to.call */\n      0xffffffffffffffffffffffffffffffffffffffff\n      and\n        /* \"20.\\xe5\\x8f\\x91\\xe9\\x80\\x81ETH/SendEthTest.sol\":675:681  amount */\n      dup3\n        /* \"20.\\xe5\\x8f\\x91\\xe9\\x80\\x81ETH/SendEthTest.sol\":659:686  _to.call{value: amount}(\"\") */\n      mload(0x40)\n      tag_20\n      swap1\n      tag_21\n      jump\t// in\n    tag_20:\n      0x00\n      mload(0x40)\n      dup1\n      dup4\n      sub\n      dup2\n      dup6\n      dup8\n      gas\n      call\n      swap3\n      pop\n      pop\n      pop\n      returndatasize\n      dup1\n      0x00\n      dup2\n      eq\n      tag_24\n      jumpi\n      mload(0x40)\n      swap2\n      pop\n      and(add(returndatasize, 0x3f), not(0x1f))\n      dup3\n      add\n      0x40\n      mstore\n      returndatasize\n      dup3\n      mstore\n      returndatasize\n      0x00\n      0x20\n      dup5\n      add\n      returndatacopy\n      jump(tag_23)\n    tag_24:\n      0x60\n      swap2\n      pop\n    tag_23:\n      pop\n        /* \"20.\\xe5\\x8f\\x91\\xe9\\x80\\x81ETH/SendEthTest.sol\":641:686  (bool success,) = _to.call{value: amount}(\"\") */\n      pop\n      swap1\n      pop\n        /* \"20.\\xe5\\x8f\\x91\\xe9\\x80\\x81ETH/SendEthTest.sol\":701:708  success */\n      dup1\n        /* \"20.\\xe5\\x8f\\x91\\xe9\\x80\\x81ETH/SendEthTest.sol\":697:756  if(!success) {... */\n      tag_25\n      jumpi\n        /* \"20.\\xe5\\x8f\\x91\\xe9\\x80\\x81ETH/SendEthTest.sol\":732:744  CallFailed() */\n      mload(0x40)\n      0x3204506f00000000000000000000000000000000000000000000000000000000\n      dup2\n      mstore\n      0x04\n      add\n      mload(0x40)\n      dup1\n      swap2\n      sub\n      swap1\n      revert\n        /* \"20.\\xe5\\x8f\\x91\\xe9\\x80\\x81ETH/SendEthTest.sol\":697:756  if(!success) {... */\n    tag_25:\n        /* \"20.\\xe5\\x8f\\x91\\xe9\\x80\\x81ETH/SendEthTest.sol\":547:763  {... */\n      pop\n        /* \"20.\\xe5\\x8f\\x91\\xe9\\x80\\x81ETH/SendEthTest.sol\":476:763  function callETH(address payable _to, uint256 amount) external payable {... */\n      pop\n      pop\n      jump\t// out\n        /* \"#utility.yul\":7:84   */\n    tag_26:\n        /* \"#utility.yul\":44:51   */\n      0x00\n        /* \"#utility.yul\":73:78   */\n      dup2\n        /* \"#utility.yul\":62:78   */\n      swap1\n      pop\n        /* \"#utility.yul\":7:84   */\n      swap2\n      swap1\n      pop\n      jump\t// out\n        /* \"#utility.yul\":90:208   */\n    tag_27:\n        /* \"#utility.yul\":177:201   */\n      tag_43\n        /* \"#utility.yul\":195:200   */\n      dup2\n        /* \"#utility.yul\":177:201   */\n      tag_26\n      jump\t// in\n    tag_43:\n        /* \"#utility.yul\":172:175   */\n      dup3\n        /* \"#utility.yul\":165:202   */\n      mstore\n        /* \"#utility.yul\":90:208   */\n      pop\n      pop\n      jump\t// out\n        /* \"#utility.yul\":214:546   */\n    tag_8:\n        /* \"#utility.yul\":335:339   */\n      0x00\n        /* \"#utility.yul\":373:375   */\n      0x40\n        /* \"#utility.yul\":362:371   */\n      dup3\n        /* \"#utility.yul\":358:376   */\n      add\n        /* \"#utility.yul\":350:376   */\n      swap1\n      pop\n        /* \"#utility.yul\":386:457   */\n      tag_45\n        /* \"#utility.yul\":454:455   */\n      0x00\n        /* \"#utility.yul\":443:452   */\n      dup4\n        /* \"#utility.yul\":439:456   */\n      add\n        /* \"#utility.yul\":430:436   */\n      dup6\n        /* \"#utility.yul\":386:457   */\n      tag_27\n      jump\t// in\n    tag_45:\n        /* \"#utility.yul\":467:539   */\n      tag_46\n        /* \"#utility.yul\":535:537   */\n      0x20\n        /* \"#utility.yul\":524:533   */\n      dup4\n        /* \"#utility.yul\":520:538   */\n      add\n        /* \"#utility.yul\":511:517   */\n      dup5\n        /* \"#utility.yul\":467:539   */\n      tag_27\n      jump\t// in\n    tag_46:\n        /* \"#utility.yul\":214:546   */\n      swap4\n      swap3\n      pop\n      pop\n      pop\n      jump\t// out\n        /* \"#utility.yul\":552:774   */\n    tag_13:\n        /* \"#utility.yul\":645:649   */\n      0x00\n        /* \"#utility.yul\":683:685   */\n      0x20\n        /* \"#utility.yul\":672:681   */\n      dup3\n        /* \"#utility.yul\":668:686   */\n      add\n        /* \"#utility.yul\":660:686   */\n      swap1\n      pop\n        /* \"#utility.yul\":696:767   */\n      tag_48\n        /* \"#utility.yul\":764:765   */\n      0x00\n        /* \"#utility.yul\":753:762   */\n      dup4\n        /* \"#utility.yul\":749:766   */\n      add\n        /* \"#utility.yul\":740:746   */\n      dup5\n        /* \"#utility.yul\":696:767   */\n      tag_27\n      jump\t// in\n    tag_48:\n        /* \"#utility.yul\":552:774   */\n      swap3\n      swap2\n      pop\n      pop\n      jump\t// out\n        /* \"#utility.yul\":861:978   */\n    tag_29:\n        /* \"#utility.yul\":970:971   */\n      0x00\n        /* \"#utility.yul\":967:968   */\n      dup1\n        /* \"#utility.yul\":960:972   */\n      revert\n        /* \"#utility.yul\":1107:1233   */\n    tag_31:\n        /* \"#utility.yul\":1144:1151   */\n      0x00\n        /* \"#utility.yul\":1184:1226   */\n      0xffffffffffffffffffffffffffffffffffffffff\n        /* \"#utility.yul\":1177:1182   */\n      dup3\n        /* \"#utility.yul\":1173:1227   */\n      and\n        /* \"#utility.yul\":1162:1227   */\n      swap1\n      pop\n        /* \"#utility.yul\":1107:1233   */\n      swap2\n      swap1\n      pop\n      jump\t// out\n        /* \"#utility.yul\":1239:1343   */\n    tag_32:\n        /* \"#utility.yul\":1284:1291   */\n      0x00\n        /* \"#utility.yul\":1313:1337   */\n      tag_54\n        /* \"#utility.yul\":1331:1336   */\n      dup3\n        /* \"#utility.yul\":1313:1337   */\n      tag_31\n      jump\t// in\n    tag_54:\n        /* \"#utility.yul\":1302:1337   */\n      swap1\n      pop\n        /* \"#utility.yul\":1239:1343   */\n      swap2\n      swap1\n      pop\n      jump\t// out\n        /* \"#utility.yul\":1349:1487   */\n    tag_33:\n        /* \"#utility.yul\":1430:1462   */\n      tag_56\n        /* \"#utility.yul\":1456:1461   */\n      dup2\n        /* \"#utility.yul\":1430:1462   */\n      tag_32\n      jump\t// in\n    tag_56:\n        /* \"#utility.yul\":1423:1428   */\n      dup2\n        /* \"#utility.yul\":1420:1463   */\n      eq\n        /* \"#utility.yul\":1410:1481   */\n      tag_57\n      jumpi\n        /* \"#utility.yul\":1477:1478   */\n      0x00\n        /* \"#utility.yul\":1474:1475   */\n      dup1\n        /* \"#utility.yul\":1467:1479   */\n      revert\n        /* \"#utility.yul\":1410:1481   */\n    tag_57:\n        /* \"#utility.yul\":1349:1487   */\n      pop\n      jump\t// out\n        /* \"#utility.yul\":1493:1648   */\n    tag_34:\n        /* \"#utility.yul\":1547:1552   */\n      0x00\n        /* \"#utility.yul\":1585:1591   */\n      dup2\n        /* \"#utility.yul\":1572:1592   */\n      calldataload\n        /* \"#utility.yul\":1563:1592   */\n      swap1\n      pop\n        /* \"#utility.yul\":1601:1642   */\n      tag_59\n        /* \"#utility.yul\":1636:1641   */\n      dup2\n        /* \"#utility.yul\":1601:1642   */\n      tag_33\n      jump\t// in\n    tag_59:\n        /* \"#utility.yul\":1493:1648   */\n      swap3\n      swap2\n      pop\n      pop\n      jump\t// out\n        /* \"#utility.yul\":1654:1776   */\n    tag_35:\n        /* \"#utility.yul\":1727:1751   */\n      tag_61\n        /* \"#utility.yul\":1745:1750   */\n      dup2\n        /* \"#utility.yul\":1727:1751   */\n      tag_26\n      jump\t// in\n    tag_61:\n        /* \"#utility.yul\":1720:1725   */\n      dup2\n        /* \"#utility.yul\":1717:1752   */\n      eq\n        /* \"#utility.yul\":1707:1770   */\n      tag_62\n      jumpi\n        /* \"#utility.yul\":1766:1767   */\n      0x00\n        /* \"#utility.yul\":1763:1764   */\n      dup1\n        /* \"#utility.yul\":1756:1768   */\n      revert\n        /* \"#utility.yul\":1707:1770   */\n    tag_62:\n        /* \"#utility.yul\":1654:1776   */\n      pop\n      jump\t// out\n        /* \"#utility.yul\":1782:1921   */\n    tag_36:\n        /* \"#utility.yul\":1828:1833   */\n      0x00\n        /* \"#utility.yul\":1866:1872   */\n      dup2\n        /* \"#utility.yul\":1853:1873   */\n      calldataload\n        /* \"#utility.yul\":1844:1873   */\n      swap1\n      pop\n        /* \"#utility.yul\":1882:1915   */\n      tag_64\n        /* \"#utility.yul\":1909:1914   */\n      dup2\n        /* \"#utility.yul\":1882:1915   */\n      tag_35\n      jump\t// in\n    tag_64:\n        /* \"#utility.yul\":1782:1921   */\n      swap3\n      swap2\n      pop\n      pop\n      jump\t// out\n        /* \"#utility.yul\":1927:2417   */\n    tag_16:\n        /* \"#utility.yul\":2003:2009   */\n      0x00\n        /* \"#utility.yul\":2011:2017   */\n      dup1\n        /* \"#utility.yul\":2060:2062   */\n      0x40\n        /* \"#utility.yul\":2048:2057   */\n      dup4\n        /* \"#utility.yul\":2039:2046   */\n      dup6\n        /* \"#utility.yul\":2035:2058   */\n      sub\n        /* \"#utility.yul\":2031:2063   */\n      slt\n        /* \"#utility.yul\":2028:2147   */\n      iszero\n      tag_66\n      jumpi\n        /* \"#utility.yul\":2066:2145   */\n      tag_67\n      tag_29\n      jump\t// in\n    tag_67:\n        /* \"#utility.yul\":2028:2147   */\n    tag_66:\n        /* \"#utility.yul\":2186:2187   */\n      0x00\n        /* \"#utility.yul\":2211:2272   */\n      tag_68\n        /* \"#utility.yul\":2264:2271   */\n      dup6\n        /* \"#utility.yul\":2255:2261   */\n      dup3\n        /* \"#utility.yul\":2244:2253   */\n      dup7\n        /* \"#utility.yul\":2240:2262   */\n      add\n        /* \"#utility.yul\":2211:2272   */\n      tag_34\n      jump\t// in\n    tag_68:\n        /* \"#utility.yul\":2201:2272   */\n      swap3\n      pop\n        /* \"#utility.yul\":2157:2282   */\n      pop\n        /* \"#utility.yul\":2321:2323   */\n      0x20\n        /* \"#utility.yul\":2347:2400   */\n      tag_69\n        /* \"#utility.yul\":2392:2399   */\n      dup6\n        /* \"#utility.yul\":2383:2389   */\n      dup3\n        /* \"#utility.yul\":2372:2381   */\n      dup7\n        /* \"#utility.yul\":2368:2390   */\n      add\n        /* \"#utility.yul\":2347:2400   */\n      tag_36\n      jump\t// in\n    tag_69:\n        /* \"#utility.yul\":2337:2400   */\n      swap2\n      pop\n        /* \"#utility.yul\":2292:2410   */\n      pop\n        /* \"#utility.yul\":1927:2417   */\n      swap3\n      pop\n      swap3\n      swap1\n      pop\n      jump\t// out\n        /* \"#utility.yul\":2423:2570   */\n    tag_37:\n        /* \"#utility.yul\":2524:2535   */\n      0x00\n        /* \"#utility.yul\":2561:2564   */\n      dup2\n        /* \"#utility.yul\":2546:2564   */\n      swap1\n      pop\n        /* \"#utility.yul\":2423:2570   */\n      swap3\n      swap2\n      pop\n      pop\n      jump\t// out\n        /* \"#utility.yul\":2576:2690   */\n    tag_38:\n      pop\n      jump\t// out\n        /* \"#utility.yul\":2696:3094   */\n    tag_39:\n        /* \"#utility.yul\":2855:2858   */\n      0x00\n        /* \"#utility.yul\":2876:2959   */\n      tag_73\n        /* \"#utility.yul\":2957:2958   */\n      0x00\n        /* \"#utility.yul\":2952:2955   */\n      dup4\n        /* \"#utility.yul\":2876:2959   */\n      tag_37\n      jump\t// in\n    tag_73:\n        /* \"#utility.yul\":2869:2959   */\n      swap2\n      pop\n        /* \"#utility.yul\":2968:3061   */\n      tag_74\n        /* \"#utility.yul\":3057:3060   */\n      dup3\n        /* \"#utility.yul\":2968:3061   */\n      tag_38\n      jump\t// in\n    tag_74:\n        /* \"#utility.yul\":3086:3087   */\n      0x00\n        /* \"#utility.yul\":3081:3084   */\n      dup3\n        /* \"#utility.yul\":3077:3088   */\n      add\n        /* \"#utility.yul\":3070:3088   */\n      swap1\n      pop\n        /* \"#utility.yul\":2696:3094   */\n      swap2\n      swap1\n      pop\n      jump\t// out\n        /* \"#utility.yul\":3100:3479   */\n    tag_21:\n        /* \"#utility.yul\":3284:3287   */\n      0x00\n        /* \"#utility.yul\":3306:3453   */\n      tag_76\n        /* \"#utility.yul\":3449:3452   */\n      dup3\n        /* \"#utility.yul\":3306:3453   */\n      tag_39\n      jump\t// in\n    tag_76:\n        /* \"#utility.yul\":3299:3453   */\n      swap2\n      pop\n        /* \"#utility.yul\":3470:3473   */\n      dup2\n        /* \"#utility.yul\":3463:3473   */\n      swap1\n      pop\n        /* \"#utility.yul\":3100:3479   */\n      swap2\n      swap1\n      pop\n      jump\t// out\n\n    auxdata: 0xa2646970667358221220f2211c277e5c527d8a3e8717258e96915ca9cc182441ef59232e041a088eab3e64736f6c63430008110033\n}\n",
				"bytecode": {
					"linkReferences": {},
					"object": "608060405234801561001057600080fd5b50610311806100206000396000f3fe60806040526004361061002d5760003560e01c806312065fe0146100725780638419cf501461009d5761006d565b3661006d577fbd0faddf87043dd749c1b9d4dca8a12589b8cb5e2106832111ce23f219b14367345a604051610063929190610182565b60405180910390a1005b600080fd5b34801561007e57600080fd5b506100876100b9565b60405161009491906101ab565b60405180910390f35b6100b760048036038101906100b29190610255565b6100c1565b005b600047905090565b60008273ffffffffffffffffffffffffffffffffffffffff16826040516100e7906102c6565b60006040518083038185875af1925050503d8060008114610124576040519150601f19603f3d011682016040523d82523d6000602084013e610129565b606091505b5050905080610164576040517f3204506f00000000000000000000000000000000000000000000000000000000815260040160405180910390fd5b505050565b6000819050919050565b61017c81610169565b82525050565b60006040820190506101976000830185610173565b6101a46020830184610173565b9392505050565b60006020820190506101c06000830184610173565b92915050565b600080fd5b600073ffffffffffffffffffffffffffffffffffffffff82169050919050565b60006101f6826101cb565b9050919050565b610206816101eb565b811461021157600080fd5b50565b600081359050610223816101fd565b92915050565b61023281610169565b811461023d57600080fd5b50565b60008135905061024f81610229565b92915050565b6000806040838503121561026c5761026b6101c6565b5b600061027a85828601610214565b925050602061028b85828601610240565b9150509250929050565b600081905092915050565b50565b60006102b0600083610295565b91506102bb826102a0565b600082019050919050565b60006102d1826102a3565b915081905091905056fea2646970667358221220f2211c277e5c527d8a3e8717258e96915ca9cc182441ef59232e041a088eab3e64736f6c63430008110033",
					"opcodes": "PUSH1 0x80 PUSH1 0x40 MSTORE CALLVALUE DUP1 ISZERO PUSH2 0x10 JUMPI PUSH1 0x0 DUP1 REVERT JUMPDEST POP PUSH2 0x311 DUP1 PUSH2 0x20 PUSH1 0x0 CODECOPY PUSH1 0x0 RETURN INVALID PUSH1 0x80 PUSH1 0x40 MSTORE PUSH1 0x4 CALLDATASIZE LT PUSH2 0x2D JUMPI PUSH1 0x0 CALLDATALOAD PUSH1 0xE0 SHR DUP1 PUSH4 0x12065FE0 EQ PUSH2 0x72 JUMPI DUP1 PUSH4 0x8419CF50 EQ PUSH2 0x9D JUMPI PUSH2 0x6D JUMP JUMPDEST CALLDATASIZE PUSH2 0x6D JUMPI PUSH32 0xBD0FADDF87043DD749C1B9D4DCA8A12589B8CB5E2106832111CE23F219B14367 CALLVALUE GAS PUSH1 0x40 MLOAD PUSH2 0x63 SWAP3 SWAP2 SWAP1 PUSH2 0x182 JUMP JUMPDEST PUSH1 0x40 MLOAD DUP1 SWAP2 SUB SWAP1 LOG1 STOP JUMPDEST PUSH1 0x0 DUP1 REVERT JUMPDEST CALLVALUE DUP1 ISZERO PUSH2 0x7E JUMPI PUSH1 0x0 DUP1 REVERT JUMPDEST POP PUSH2 0x87 PUSH2 0xB9 JUMP JUMPDEST PUSH1 0x40 MLOAD PUSH2 0x94 SWAP2 SWAP1 PUSH2 0x1AB JUMP JUMPDEST PUSH1 0x40 MLOAD DUP1 SWAP2 SUB SWAP1 RETURN JUMPDEST PUSH2 0xB7 PUSH1 0x4 DUP1 CALLDATASIZE SUB DUP2 ADD SWAP1 PUSH2 0xB2 SWAP2 SWAP1 PUSH2 0x255 JUMP JUMPDEST PUSH2 0xC1 JUMP JUMPDEST STOP JUMPDEST PUSH1 0x0 SELFBALANCE SWAP1 POP SWAP1 JUMP JUMPDEST PUSH1 0x0 DUP3 PUSH20 0xFFFFFFFFFFFFFFFFFFFFFFFFFFFFFFFFFFFFFFFF AND DUP3 PUSH1 0x40 MLOAD PUSH2 0xE7 SWAP1 PUSH2 0x2C6 JUMP JUMPDEST PUSH1 0x0 PUSH1 0x40 MLOAD DUP1 DUP4 SUB DUP2 DUP6 DUP8 GAS CALL SWAP3 POP POP POP RETURNDATASIZE DUP1 PUSH1 0x0 DUP2 EQ PUSH2 0x124 JUMPI PUSH1 0x40 MLOAD SWAP2 POP PUSH1 0x1F NOT PUSH1 0x3F RETURNDATASIZE ADD AND DUP3 ADD PUSH1 0x40 MSTORE RETURNDATASIZE DUP3 MSTORE RETURNDATASIZE PUSH1 0x0 PUSH1 0x20 DUP5 ADD RETURNDATACOPY PUSH2 0x129 JUMP JUMPDEST PUSH1 0x60 SWAP2 POP JUMPDEST POP POP SWAP1 POP DUP1 PUSH2 0x164 JUMPI PUSH1 0x40 MLOAD PUSH32 0x3204506F00000000000000000000000000000000000000000000000000000000 DUP2 MSTORE PUSH1 0x4 ADD PUSH1 0x40 MLOAD DUP1 SWAP2 SUB SWAP1 REVERT JUMPDEST POP POP POP JUMP JUMPDEST PUSH1 0x0 DUP2 SWAP1 POP SWAP2 SWAP1 POP JUMP JUMPDEST PUSH2 0x17C DUP2 PUSH2 0x169 JUMP JUMPDEST DUP3 MSTORE POP POP JUMP JUMPDEST PUSH1 0x0 PUSH1 0x40 DUP3 ADD SWAP1 POP PUSH2 0x197 PUSH1 0x0 DUP4 ADD DUP6 PUSH2 0x173 JUMP JUMPDEST PUSH2 0x1A4 PUSH1 0x20 DUP4 ADD DUP5 PUSH2 0x173 JUMP JUMPDEST SWAP4 SWAP3 POP POP POP JUMP JUMPDEST PUSH1 0x0 PUSH1 0x20 DUP3 ADD SWAP1 POP PUSH2 0x1C0 PUSH1 0x0 DUP4 ADD DUP5 PUSH2 0x173 JUMP JUMPDEST SWAP3 SWAP2 POP POP JUMP JUMPDEST PUSH1 0x0 DUP1 REVERT JUMPDEST PUSH1 0x0 PUSH20 0xFFFFFFFFFFFFFFFFFFFFFFFFFFFFFFFFFFFFFFFF DUP3 AND SWAP1 POP SWAP2 SWAP1 POP JUMP JUMPDEST PUSH1 0x0 PUSH2 0x1F6 DUP3 PUSH2 0x1CB JUMP JUMPDEST SWAP1 POP SWAP2 SWAP1 POP JUMP JUMPDEST PUSH2 0x206 DUP2 PUSH2 0x1EB JUMP JUMPDEST DUP2 EQ PUSH2 0x211 JUMPI PUSH1 0x0 DUP1 REVERT JUMPDEST POP JUMP JUMPDEST PUSH1 0x0 DUP2 CALLDATALOAD SWAP1 POP PUSH2 0x223 DUP2 PUSH2 0x1FD JUMP JUMPDEST SWAP3 SWAP2 POP POP JUMP JUMPDEST PUSH2 0x232 DUP2 PUSH2 0x169 JUMP JUMPDEST DUP2 EQ PUSH2 0x23D JUMPI PUSH1 0x0 DUP1 REVERT JUMPDEST POP JUMP JUMPDEST PUSH1 0x0 DUP2 CALLDATALOAD SWAP1 POP PUSH2 0x24F DUP2 PUSH2 0x229 JUMP JUMPDEST SWAP3 SWAP2 POP POP JUMP JUMPDEST PUSH1 0x0 DUP1 PUSH1 0x40 DUP4 DUP6 SUB SLT ISZERO PUSH2 0x26C JUMPI PUSH2 0x26B PUSH2 0x1C6 JUMP JUMPDEST JUMPDEST PUSH1 0x0 PUSH2 0x27A DUP6 DUP3 DUP7 ADD PUSH2 0x214 JUMP JUMPDEST SWAP3 POP POP PUSH1 0x20 PUSH2 0x28B DUP6 DUP3 DUP7 ADD PUSH2 0x240 JUMP JUMPDEST SWAP2 POP POP SWAP3 POP SWAP3 SWAP1 POP JUMP JUMPDEST PUSH1 0x0 DUP2 SWAP1 POP SWAP3 SWAP2 POP POP JUMP JUMPDEST POP JUMP JUMPDEST PUSH1 0x0 PUSH2 0x2B0 PUSH1 0x0 DUP4 PUSH2 0x295 JUMP JUMPDEST SWAP2 POP PUSH2 0x2BB DUP3 PUSH2 0x2A0 JUMP JUMPDEST PUSH1 0x0 DUP3 ADD SWAP1 POP SWAP2 SWAP1 POP JUMP JUMPDEST PUSH1 0x0 PUSH2 0x2D1 DUP3 PUSH2 0x2A3 JUMP JUMPDEST SWAP2 POP DUP2 SWAP1 POP SWAP2 SWAP1 POP JUMP INVALID LOG2 PUSH5 0x6970667358 0x22 SLT KECCAK256 CALLCODE 0x21 SHR 0x27 PUSH31 0x5C527D8A3E8717258E96915CA9CC182441EF59232E041A088EAB3E64736F6C PUSH4 0x43000811 STOP CALLER "
				},
				"gasEstimates": {
					"creation": {
						"codeDepositCost": "157000",
						"executionCost": "202",
						"totalCost": "157202"
					},
					"external": {
						"callETH(address,uint256)": "infinite",
						"getBalance()": "317"
					}
				},
				"methodIdentifiers": {
					"callETH(address,uint256)": "8419cf50",
					"getBalance()": "12065fe0"
				}
			},
			"storageLayout": {
				"storage": [],
				"types": null
			},
			"userdoc": {
				"kind": "user",
				"methods": {},
				"version": 1
			}
		}
	}
}