{
	"库合约/StringLibrary.sol": {
		"UseLibrary": {
			"abi": [
				{
					"inputs": [
						{
							"internalType": "uint256",
							"name": "_number",
							"type": "uint256"
						}
					],
					"name": "getString1",
					"outputs": [
						{
							"internalType": "string",
							"name": "",
							"type": "string"
						}
					],
					"stateMutability": "pure",
					"type": "function"
				},
				{
					"inputs": [
						{
							"internalType": "uint256",
							"name": "_number",
							"type": "uint256"
						}
					],
					"name": "getString2",
					"outputs": [
						{
							"internalType": "string",
							"name": "",
							"type": "string"
						}
					],
					"stateMutability": "pure",
					"type": "function"
				},
				{
					"inputs": [
						{
							"internalType": "uint256",
							"name": "_number",
							"type": "uint256"
						}
					],
					"name": "getToDecString",
					"outputs": [
						{
							"internalType": "string",
							"name": "",
							"type": "string"
						}
					],
					"stateMutability": "pure",
					"type": "function"
				},
				{
					"inputs": [
						{
							"internalType": "uint256",
							"name": "_number",
							"type": "uint256"
						},
						{
							"internalType": "uint256",
							"name": "_length",
							"type": "uint256"
						}
					],
					"name": "getToHexString",
					"outputs": [
						{
							"internalType": "string",
							"name": "",
							"type": "string"
						}
					],
					"stateMutability": "pure",
					"type": "function"
				}
			],
			"devdoc": {
				"kind": "dev",
				"methods": {},
				"version": 1
			},
			"evm": {
				"assembly": "    /* \"\\xe5\\xba\\x93\\xe5\\x90\\x88\\xe7\\xba\\xa6/StringLibrary.sol\":2023:2772  contract UseLibrary {... */\n  mstore(0x40, 0x80)\n  callvalue\n  dup1\n  iszero\n  tag_1\n  jumpi\n  0x00\n  dup1\n  revert\ntag_1:\n  pop\n  dataSize(sub_0)\n  dup1\n  dataOffset(sub_0)\n  0x00\n  codecopy\n  0x00\n  return\nstop\n\nsub_0: assembly {\n        /* \"\\xe5\\xba\\x93\\xe5\\x90\\x88\\xe7\\xba\\xa6/StringLibrary.sol\":2023:2772  contract UseLibrary {... */\n      mstore(0x40, 0x80)\n      callvalue\n      dup1\n      iszero\n      tag_1\n      jumpi\n      0x00\n      dup1\n      revert\n    tag_1:\n      pop\n      jumpi(tag_2, lt(calldatasize, 0x04))\n      shr(0xe0, calldataload(0x00))\n      dup1\n      0xb652573d\n      eq\n      tag_3\n      jumpi\n      dup1\n      0xd6ee0f32\n      eq\n      tag_4\n      jumpi\n      dup1\n      0xe65eac98\n      eq\n      tag_5\n      jumpi\n      dup1\n      0xeacbc0e6\n      eq\n      tag_6\n      jumpi\n    tag_2:\n      0x00\n      dup1\n      revert\n        /* \"\\xe5\\xba\\x93\\xe5\\x90\\x88\\xe7\\xba\\xa6/StringLibrary.sol\":2492:2640  function getToHexString(uint256 _number, uint256 _length) public pure returns (string memory) {... */\n    tag_3:\n      tag_7\n      0x04\n      dup1\n      calldatasize\n      sub\n      dup2\n      add\n      swap1\n      tag_8\n      swap2\n      swap1\n      tag_9\n      jump\t// in\n    tag_8:\n      tag_10\n      jump\t// in\n    tag_7:\n      mload(0x40)\n      tag_11\n      swap2\n      swap1\n      tag_12\n      jump\t// in\n    tag_11:\n      mload(0x40)\n      dup1\n      swap2\n      sub\n      swap1\n      return\n        /* \"\\xe5\\xba\\x93\\xe5\\x90\\x88\\xe7\\xba\\xa6/StringLibrary.sol\":2123:2312  function getString1(uint256 _number) public pure returns (string memory) {... */\n    tag_4:\n      tag_13\n      0x04\n      dup1\n      calldatasize\n      sub\n      dup2\n      add\n      swap1\n      tag_14\n      swap2\n      swap1\n      tag_15\n      jump\t// in\n    tag_14:\n      tag_16\n      jump\t// in\n    tag_13:\n      mload(0x40)\n      tag_17\n      swap2\n      swap1\n      tag_12\n      jump\t// in\n    tag_17:\n      mload(0x40)\n      dup1\n      swap2\n      sub\n      swap1\n      return\n        /* \"\\xe5\\xba\\x93\\xe5\\x90\\x88\\xe7\\xba\\xa6/StringLibrary.sol\":2360:2484  function getString2(uint _number) public pure returns (string memory) {... */\n    tag_5:\n      tag_18\n      0x04\n      dup1\n      calldatasize\n      sub\n      dup2\n      add\n      swap1\n      tag_19\n      swap2\n      swap1\n      tag_15\n      jump\t// in\n    tag_19:\n      tag_20\n      jump\t// in\n    tag_18:\n      mload(0x40)\n      tag_21\n      swap2\n      swap1\n      tag_12\n      jump\t// in\n    tag_21:\n      mload(0x40)\n      dup1\n      swap2\n      sub\n      swap1\n      return\n        /* \"\\xe5\\xba\\x93\\xe5\\x90\\x88\\xe7\\xba\\xa6/StringLibrary.sol\":2648:2769  function getToDecString(uint256 _number) public pure returns (string memory) {... */\n    tag_6:\n      tag_22\n      0x04\n      dup1\n      calldatasize\n      sub\n      dup2\n      add\n      swap1\n      tag_23\n      swap2\n      swap1\n      tag_15\n      jump\t// in\n    tag_23:\n      tag_24\n      jump\t// in\n    tag_22:\n      mload(0x40)\n      tag_25\n      swap2\n      swap1\n      tag_12\n      jump\t// in\n    tag_25:\n      mload(0x40)\n      dup1\n      swap2\n      sub\n      swap1\n      return\n        /* \"\\xe5\\xba\\x93\\xe5\\x90\\x88\\xe7\\xba\\xa6/StringLibrary.sol\":2492:2640  function getToHexString(uint256 _number, uint256 _length) public pure returns (string memory) {... */\n    tag_10:\n        /* \"\\xe5\\xba\\x93\\xe5\\x90\\x88\\xe7\\xba\\xa6/StringLibrary.sol\":2571:2584  string memory */\n      0x60\n        /* \"\\xe5\\xba\\x93\\xe5\\x90\\x88\\xe7\\xba\\xa6/StringLibrary.sol\":2604:2611  _number */\n      dup3\n        /* \"\\xe5\\xba\\x93\\xe5\\x90\\x88\\xe7\\xba\\xa6/StringLibrary.sol\":2604:2623  _number.toHexString */\n      linkerSymbol(\"32f5a954dfc1f09c89a766c74113ffc7bca560551fe0010b8d84622c2197ba0b\")\n      0x63e1cbea\n      swap1\n      swap2\n        /* \"\\xe5\\xba\\x93\\xe5\\x90\\x88\\xe7\\xba\\xa6/StringLibrary.sol\":2624:2631  _length */\n      dup5\n        /* \"\\xe5\\xba\\x93\\xe5\\x90\\x88\\xe7\\xba\\xa6/StringLibrary.sol\":2604:2632  _number.toHexString(_length) */\n      mload(0x40)\n      dup4\n      0xffffffff\n      and\n      0xe0\n      shl\n      dup2\n      mstore\n      0x04\n      add\n      tag_27\n      swap3\n      swap2\n      swap1\n      tag_28\n      jump\t// in\n    tag_27:\n      0x00\n      mload(0x40)\n      dup1\n      dup4\n      sub\n      dup2\n      dup7\n      gas\n      delegatecall\n      iszero\n      dup1\n      iszero\n      tag_30\n      jumpi\n      returndatasize\n      0x00\n      dup1\n      returndatacopy\n      revert(0x00, returndatasize)\n    tag_30:\n      pop\n      pop\n      pop\n      pop\n      mload(0x40)\n      returndatasize\n      0x00\n      dup3\n      returndatacopy\n      returndatasize\n      not(0x1f)\n      0x1f\n      dup3\n      add\n      and\n      dup3\n      add\n      dup1\n      0x40\n      mstore\n      pop\n      dup2\n      add\n      swap1\n      tag_31\n      swap2\n      swap1\n      tag_32\n      jump\t// in\n    tag_31:\n        /* \"\\xe5\\xba\\x93\\xe5\\x90\\x88\\xe7\\xba\\xa6/StringLibrary.sol\":2597:2632  return _number.toHexString(_length) */\n      swap1\n      pop\n        /* \"\\xe5\\xba\\x93\\xe5\\x90\\x88\\xe7\\xba\\xa6/StringLibrary.sol\":2492:2640  function getToHexString(uint256 _number, uint256 _length) public pure returns (string memory) {... */\n      swap3\n      swap2\n      pop\n      pop\n      jump\t// out\n        /* \"\\xe5\\xba\\x93\\xe5\\x90\\x88\\xe7\\xba\\xa6/StringLibrary.sol\":2123:2312  function getString1(uint256 _number) public pure returns (string memory) {... */\n    tag_16:\n        /* \"\\xe5\\xba\\x93\\xe5\\x90\\x88\\xe7\\xba\\xa6/StringLibrary.sol\":2181:2194  string memory */\n      0x60\n        /* \"\\xe5\\xba\\x93\\xe5\\x90\\x88\\xe7\\xba\\xa6/StringLibrary.sol\":2283:2290  _number */\n      dup2\n        /* \"\\xe5\\xba\\x93\\xe5\\x90\\x88\\xe7\\xba\\xa6/StringLibrary.sol\":2283:2302  _number.toHexString */\n      linkerSymbol(\"32f5a954dfc1f09c89a766c74113ffc7bca560551fe0010b8d84622c2197ba0b\")\n      0x8fba8d5c\n      swap1\n      swap2\n        /* \"\\xe5\\xba\\x93\\xe5\\x90\\x88\\xe7\\xba\\xa6/StringLibrary.sol\":2283:2304  _number.toHexString() */\n      mload(0x40)\n      dup3\n      0xffffffff\n      and\n      0xe0\n      shl\n      dup2\n      mstore\n      0x04\n      add\n      tag_34\n      swap2\n      swap1\n      tag_35\n      jump\t// in\n    tag_34:\n      0x00\n      mload(0x40)\n      dup1\n      dup4\n      sub\n      dup2\n      dup7\n      gas\n      delegatecall\n      iszero\n      dup1\n      iszero\n      tag_37\n      jumpi\n      returndatasize\n      0x00\n      dup1\n      returndatacopy\n      revert(0x00, returndatasize)\n    tag_37:\n      pop\n      pop\n      pop\n      pop\n      mload(0x40)\n      returndatasize\n      0x00\n      dup3\n      returndatacopy\n      returndatasize\n      not(0x1f)\n      0x1f\n      dup3\n      add\n      and\n      dup3\n      add\n      dup1\n      0x40\n      mstore\n      pop\n      dup2\n      add\n      swap1\n      tag_38\n      swap2\n      swap1\n      tag_32\n      jump\t// in\n    tag_38:\n        /* \"\\xe5\\xba\\x93\\xe5\\x90\\x88\\xe7\\xba\\xa6/StringLibrary.sol\":2276:2304  return _number.toHexString() */\n      swap1\n      pop\n        /* \"\\xe5\\xba\\x93\\xe5\\x90\\x88\\xe7\\xba\\xa6/StringLibrary.sol\":2123:2312  function getString1(uint256 _number) public pure returns (string memory) {... */\n      swap2\n      swap1\n      pop\n      jump\t// out\n        /* \"\\xe5\\xba\\x93\\xe5\\x90\\x88\\xe7\\xba\\xa6/StringLibrary.sol\":2360:2484  function getString2(uint _number) public pure returns (string memory) {... */\n    tag_20:\n        /* \"\\xe5\\xba\\x93\\xe5\\x90\\x88\\xe7\\xba\\xa6/StringLibrary.sol\":2415:2428  string memory */\n      0x60\n        /* \"\\xe5\\xba\\x93\\xe5\\x90\\x88\\xe7\\xba\\xa6/StringLibrary.sol\":2448:2455  Strings */\n      linkerSymbol(\"32f5a954dfc1f09c89a766c74113ffc7bca560551fe0010b8d84622c2197ba0b\")\n        /* \"\\xe5\\xba\\x93\\xe5\\x90\\x88\\xe7\\xba\\xa6/StringLibrary.sol\":2448:2467  Strings.toHexString */\n      0x8fba8d5c\n        /* \"\\xe5\\xba\\x93\\xe5\\x90\\x88\\xe7\\xba\\xa6/StringLibrary.sol\":2468:2475  _number */\n      dup4\n        /* \"\\xe5\\xba\\x93\\xe5\\x90\\x88\\xe7\\xba\\xa6/StringLibrary.sol\":2448:2476  Strings.toHexString(_number) */\n      mload(0x40)\n      dup3\n      0xffffffff\n      and\n      0xe0\n      shl\n      dup2\n      mstore\n      0x04\n      add\n      tag_40\n      swap2\n      swap1\n      tag_35\n      jump\t// in\n    tag_40:\n      0x00\n      mload(0x40)\n      dup1\n      dup4\n      sub\n      dup2\n      dup7\n      gas\n      delegatecall\n      iszero\n      dup1\n      iszero\n      tag_42\n      jumpi\n      returndatasize\n      0x00\n      dup1\n      returndatacopy\n      revert(0x00, returndatasize)\n    tag_42:\n      pop\n      pop\n      pop\n      pop\n      mload(0x40)\n      returndatasize\n      0x00\n      dup3\n      returndatacopy\n      returndatasize\n      not(0x1f)\n      0x1f\n      dup3\n      add\n      and\n      dup3\n      add\n      dup1\n      0x40\n      mstore\n      pop\n      dup2\n      add\n      swap1\n      tag_43\n      swap2\n      swap1\n      tag_32\n      jump\t// in\n    tag_43:\n        /* \"\\xe5\\xba\\x93\\xe5\\x90\\x88\\xe7\\xba\\xa6/StringLibrary.sol\":2441:2476  return Strings.toHexString(_number) */\n      swap1\n      pop\n        /* \"\\xe5\\xba\\x93\\xe5\\x90\\x88\\xe7\\xba\\xa6/StringLibrary.sol\":2360:2484  function getString2(uint _number) public pure returns (string memory) {... */\n      swap2\n      swap1\n      pop\n      jump\t// out\n        /* \"\\xe5\\xba\\x93\\xe5\\x90\\x88\\xe7\\xba\\xa6/StringLibrary.sol\":2648:2769  function getToDecString(uint256 _number) public pure returns (string memory) {... */\n    tag_24:\n        /* \"\\xe5\\xba\\x93\\xe5\\x90\\x88\\xe7\\xba\\xa6/StringLibrary.sol\":2710:2723  string memory */\n      0x60\n        /* \"\\xe5\\xba\\x93\\xe5\\x90\\x88\\xe7\\xba\\xa6/StringLibrary.sol\":2743:2750  _number */\n      dup2\n        /* \"\\xe5\\xba\\x93\\xe5\\x90\\x88\\xe7\\xba\\xa6/StringLibrary.sol\":2743:2759  _number.toString */\n      linkerSymbol(\"32f5a954dfc1f09c89a766c74113ffc7bca560551fe0010b8d84622c2197ba0b\")\n      0x6900a3ae\n      swap1\n      swap2\n        /* \"\\xe5\\xba\\x93\\xe5\\x90\\x88\\xe7\\xba\\xa6/StringLibrary.sol\":2743:2761  _number.toString() */\n      mload(0x40)\n      dup3\n      0xffffffff\n      and\n      0xe0\n      shl\n      dup2\n      mstore\n      0x04\n      add\n      tag_45\n      swap2\n      swap1\n      tag_35\n      jump\t// in\n    tag_45:\n      0x00\n      mload(0x40)\n      dup1\n      dup4\n      sub\n      dup2\n      dup7\n      gas\n      delegatecall\n      iszero\n      dup1\n      iszero\n      tag_47\n      jumpi\n      returndatasize\n      0x00\n      dup1\n      returndatacopy\n      revert(0x00, returndatasize)\n    tag_47:\n      pop\n      pop\n      pop\n      pop\n      mload(0x40)\n      returndatasize\n      0x00\n      dup3\n      returndatacopy\n      returndatasize\n      not(0x1f)\n      0x1f\n      dup3\n      add\n      and\n      dup3\n      add\n      dup1\n      0x40\n      mstore\n      pop\n      dup2\n      add\n      swap1\n      tag_48\n      swap2\n      swap1\n      tag_32\n      jump\t// in\n    tag_48:\n        /* \"\\xe5\\xba\\x93\\xe5\\x90\\x88\\xe7\\xba\\xa6/StringLibrary.sol\":2736:2761  return _number.toString() */\n      swap1\n      pop\n        /* \"\\xe5\\xba\\x93\\xe5\\x90\\x88\\xe7\\xba\\xa6/StringLibrary.sol\":2648:2769  function getToDecString(uint256 _number) public pure returns (string memory) {... */\n      swap2\n      swap1\n      pop\n      jump\t// out\n        /* \"#utility.yul\":7:82   */\n    tag_49:\n        /* \"#utility.yul\":40:46   */\n      0x00\n        /* \"#utility.yul\":73:75   */\n      0x40\n        /* \"#utility.yul\":67:76   */\n      mload\n        /* \"#utility.yul\":57:76   */\n      swap1\n      pop\n        /* \"#utility.yul\":7:82   */\n      swap1\n      jump\t// out\n        /* \"#utility.yul\":88:205   */\n    tag_50:\n        /* \"#utility.yul\":197:198   */\n      0x00\n        /* \"#utility.yul\":194:195   */\n      dup1\n        /* \"#utility.yul\":187:199   */\n      revert\n        /* \"#utility.yul\":211:328   */\n    tag_51:\n        /* \"#utility.yul\":320:321   */\n      0x00\n        /* \"#utility.yul\":317:318   */\n      dup1\n        /* \"#utility.yul\":310:322   */\n      revert\n        /* \"#utility.yul\":334:411   */\n    tag_52:\n        /* \"#utility.yul\":371:378   */\n      0x00\n        /* \"#utility.yul\":400:405   */\n      dup2\n        /* \"#utility.yul\":389:405   */\n      swap1\n      pop\n        /* \"#utility.yul\":334:411   */\n      swap2\n      swap1\n      pop\n      jump\t// out\n        /* \"#utility.yul\":417:539   */\n    tag_53:\n        /* \"#utility.yul\":490:514   */\n      tag_75\n        /* \"#utility.yul\":508:513   */\n      dup2\n        /* \"#utility.yul\":490:514   */\n      tag_52\n      jump\t// in\n    tag_75:\n        /* \"#utility.yul\":483:488   */\n      dup2\n        /* \"#utility.yul\":480:515   */\n      eq\n        /* \"#utility.yul\":470:533   */\n      tag_76\n      jumpi\n        /* \"#utility.yul\":529:530   */\n      0x00\n        /* \"#utility.yul\":526:527   */\n      dup1\n        /* \"#utility.yul\":519:531   */\n      revert\n        /* \"#utility.yul\":470:533   */\n    tag_76:\n        /* \"#utility.yul\":417:539   */\n      pop\n      jump\t// out\n        /* \"#utility.yul\":545:684   */\n    tag_54:\n        /* \"#utility.yul\":591:596   */\n      0x00\n        /* \"#utility.yul\":629:635   */\n      dup2\n        /* \"#utility.yul\":616:636   */\n      calldataload\n        /* \"#utility.yul\":607:636   */\n      swap1\n      pop\n        /* \"#utility.yul\":645:678   */\n      tag_78\n        /* \"#utility.yul\":672:677   */\n      dup2\n        /* \"#utility.yul\":645:678   */\n      tag_53\n      jump\t// in\n    tag_78:\n        /* \"#utility.yul\":545:684   */\n      swap3\n      swap2\n      pop\n      pop\n      jump\t// out\n        /* \"#utility.yul\":690:1164   */\n    tag_9:\n        /* \"#utility.yul\":758:764   */\n      0x00\n        /* \"#utility.yul\":766:772   */\n      dup1\n        /* \"#utility.yul\":815:817   */\n      0x40\n        /* \"#utility.yul\":803:812   */\n      dup4\n        /* \"#utility.yul\":794:801   */\n      dup6\n        /* \"#utility.yul\":790:813   */\n      sub\n        /* \"#utility.yul\":786:818   */\n      slt\n        /* \"#utility.yul\":783:902   */\n      iszero\n      tag_80\n      jumpi\n        /* \"#utility.yul\":821:900   */\n      tag_81\n      tag_50\n      jump\t// in\n    tag_81:\n        /* \"#utility.yul\":783:902   */\n    tag_80:\n        /* \"#utility.yul\":941:942   */\n      0x00\n        /* \"#utility.yul\":966:1019   */\n      tag_82\n        /* \"#utility.yul\":1011:1018   */\n      dup6\n        /* \"#utility.yul\":1002:1008   */\n      dup3\n        /* \"#utility.yul\":991:1000   */\n      dup7\n        /* \"#utility.yul\":987:1009   */\n      add\n        /* \"#utility.yul\":966:1019   */\n      tag_54\n      jump\t// in\n    tag_82:\n        /* \"#utility.yul\":956:1019   */\n      swap3\n      pop\n        /* \"#utility.yul\":912:1029   */\n      pop\n        /* \"#utility.yul\":1068:1070   */\n      0x20\n        /* \"#utility.yul\":1094:1147   */\n      tag_83\n        /* \"#utility.yul\":1139:1146   */\n      dup6\n        /* \"#utility.yul\":1130:1136   */\n      dup3\n        /* \"#utility.yul\":1119:1128   */\n      dup7\n        /* \"#utility.yul\":1115:1137   */\n      add\n        /* \"#utility.yul\":1094:1147   */\n      tag_54\n      jump\t// in\n    tag_83:\n        /* \"#utility.yul\":1084:1147   */\n      swap2\n      pop\n        /* \"#utility.yul\":1039:1157   */\n      pop\n        /* \"#utility.yul\":690:1164   */\n      swap3\n      pop\n      swap3\n      swap1\n      pop\n      jump\t// out\n        /* \"#utility.yul\":1170:1269   */\n    tag_55:\n        /* \"#utility.yul\":1222:1228   */\n      0x00\n        /* \"#utility.yul\":1256:1261   */\n      dup2\n        /* \"#utility.yul\":1250:1262   */\n      mload\n        /* \"#utility.yul\":1240:1262   */\n      swap1\n      pop\n        /* \"#utility.yul\":1170:1269   */\n      swap2\n      swap1\n      pop\n      jump\t// out\n        /* \"#utility.yul\":1275:1444   */\n    tag_56:\n        /* \"#utility.yul\":1359:1370   */\n      0x00\n        /* \"#utility.yul\":1393:1399   */\n      dup3\n        /* \"#utility.yul\":1388:1391   */\n      dup3\n        /* \"#utility.yul\":1381:1400   */\n      mstore\n        /* \"#utility.yul\":1433:1437   */\n      0x20\n        /* \"#utility.yul\":1428:1431   */\n      dup3\n        /* \"#utility.yul\":1424:1438   */\n      add\n        /* \"#utility.yul\":1409:1438   */\n      swap1\n      pop\n        /* \"#utility.yul\":1275:1444   */\n      swap3\n      swap2\n      pop\n      pop\n      jump\t// out\n        /* \"#utility.yul\":1450:1696   */\n    tag_57:\n        /* \"#utility.yul\":1531:1532   */\n      0x00\n        /* \"#utility.yul\":1541:1654   */\n    tag_87:\n        /* \"#utility.yul\":1555:1561   */\n      dup4\n        /* \"#utility.yul\":1552:1553   */\n      dup2\n        /* \"#utility.yul\":1549:1562   */\n      lt\n        /* \"#utility.yul\":1541:1654   */\n      iszero\n      tag_89\n      jumpi\n        /* \"#utility.yul\":1640:1641   */\n      dup1\n        /* \"#utility.yul\":1635:1638   */\n      dup3\n        /* \"#utility.yul\":1631:1642   */\n      add\n        /* \"#utility.yul\":1625:1643   */\n      mload\n        /* \"#utility.yul\":1621:1622   */\n      dup2\n        /* \"#utility.yul\":1616:1619   */\n      dup5\n        /* \"#utility.yul\":1612:1623   */\n      add\n        /* \"#utility.yul\":1605:1644   */\n      mstore\n        /* \"#utility.yul\":1577:1579   */\n      0x20\n        /* \"#utility.yul\":1574:1575   */\n      dup2\n        /* \"#utility.yul\":1570:1580   */\n      add\n        /* \"#utility.yul\":1565:1580   */\n      swap1\n      pop\n        /* \"#utility.yul\":1541:1654   */\n      jump(tag_87)\n    tag_89:\n        /* \"#utility.yul\":1688:1689   */\n      0x00\n        /* \"#utility.yul\":1679:1685   */\n      dup5\n        /* \"#utility.yul\":1674:1677   */\n      dup5\n        /* \"#utility.yul\":1670:1686   */\n      add\n        /* \"#utility.yul\":1663:1690   */\n      mstore\n        /* \"#utility.yul\":1512:1696   */\n      pop\n        /* \"#utility.yul\":1450:1696   */\n      pop\n      pop\n      pop\n      jump\t// out\n        /* \"#utility.yul\":1702:1804   */\n    tag_58:\n        /* \"#utility.yul\":1743:1749   */\n      0x00\n        /* \"#utility.yul\":1794:1796   */\n      0x1f\n        /* \"#utility.yul\":1790:1797   */\n      not\n        /* \"#utility.yul\":1785:1787   */\n      0x1f\n        /* \"#utility.yul\":1778:1783   */\n      dup4\n        /* \"#utility.yul\":1774:1788   */\n      add\n        /* \"#utility.yul\":1770:1798   */\n      and\n        /* \"#utility.yul\":1760:1798   */\n      swap1\n      pop\n        /* \"#utility.yul\":1702:1804   */\n      swap2\n      swap1\n      pop\n      jump\t// out\n        /* \"#utility.yul\":1810:2187   */\n    tag_59:\n        /* \"#utility.yul\":1898:1901   */\n      0x00\n        /* \"#utility.yul\":1926:1965   */\n      tag_92\n        /* \"#utility.yul\":1959:1964   */\n      dup3\n        /* \"#utility.yul\":1926:1965   */\n      tag_55\n      jump\t// in\n    tag_92:\n        /* \"#utility.yul\":1981:2052   */\n      tag_93\n        /* \"#utility.yul\":2045:2051   */\n      dup2\n        /* \"#utility.yul\":2040:2043   */\n      dup6\n        /* \"#utility.yul\":1981:2052   */\n      tag_56\n      jump\t// in\n    tag_93:\n        /* \"#utility.yul\":1974:2052   */\n      swap4\n      pop\n        /* \"#utility.yul\":2061:2126   */\n      tag_94\n        /* \"#utility.yul\":2119:2125   */\n      dup2\n        /* \"#utility.yul\":2114:2117   */\n      dup6\n        /* \"#utility.yul\":2107:2111   */\n      0x20\n        /* \"#utility.yul\":2100:2105   */\n      dup7\n        /* \"#utility.yul\":2096:2112   */\n      add\n        /* \"#utility.yul\":2061:2126   */\n      tag_57\n      jump\t// in\n    tag_94:\n        /* \"#utility.yul\":2151:2180   */\n      tag_95\n        /* \"#utility.yul\":2173:2179   */\n      dup2\n        /* \"#utility.yul\":2151:2180   */\n      tag_58\n      jump\t// in\n    tag_95:\n        /* \"#utility.yul\":2146:2149   */\n      dup5\n        /* \"#utility.yul\":2142:2181   */\n      add\n        /* \"#utility.yul\":2135:2181   */\n      swap2\n      pop\n        /* \"#utility.yul\":1902:2187   */\n      pop\n        /* \"#utility.yul\":1810:2187   */\n      swap3\n      swap2\n      pop\n      pop\n      jump\t// out\n        /* \"#utility.yul\":2193:2506   */\n    tag_12:\n        /* \"#utility.yul\":2306:2310   */\n      0x00\n        /* \"#utility.yul\":2344:2346   */\n      0x20\n        /* \"#utility.yul\":2333:2342   */\n      dup3\n        /* \"#utility.yul\":2329:2347   */\n      add\n        /* \"#utility.yul\":2321:2347   */\n      swap1\n      pop\n        /* \"#utility.yul\":2393:2402   */\n      dup2\n        /* \"#utility.yul\":2387:2391   */\n      dup2\n        /* \"#utility.yul\":2383:2403   */\n      sub\n        /* \"#utility.yul\":2379:2380   */\n      0x00\n        /* \"#utility.yul\":2368:2377   */\n      dup4\n        /* \"#utility.yul\":2364:2381   */\n      add\n        /* \"#utility.yul\":2357:2404   */\n      mstore\n        /* \"#utility.yul\":2421:2499   */\n      tag_97\n        /* \"#utility.yul\":2494:2498   */\n      dup2\n        /* \"#utility.yul\":2485:2491   */\n      dup5\n        /* \"#utility.yul\":2421:2499   */\n      tag_59\n      jump\t// in\n    tag_97:\n        /* \"#utility.yul\":2413:2499   */\n      swap1\n      pop\n        /* \"#utility.yul\":2193:2506   */\n      swap3\n      swap2\n      pop\n      pop\n      jump\t// out\n        /* \"#utility.yul\":2512:2841   */\n    tag_15:\n        /* \"#utility.yul\":2571:2577   */\n      0x00\n        /* \"#utility.yul\":2620:2622   */\n      0x20\n        /* \"#utility.yul\":2608:2617   */\n      dup3\n        /* \"#utility.yul\":2599:2606   */\n      dup5\n        /* \"#utility.yul\":2595:2618   */\n      sub\n        /* \"#utility.yul\":2591:2623   */\n      slt\n        /* \"#utility.yul\":2588:2707   */\n      iszero\n      tag_99\n      jumpi\n        /* \"#utility.yul\":2626:2705   */\n      tag_100\n      tag_50\n      jump\t// in\n    tag_100:\n        /* \"#utility.yul\":2588:2707   */\n    tag_99:\n        /* \"#utility.yul\":2746:2747   */\n      0x00\n        /* \"#utility.yul\":2771:2824   */\n      tag_101\n        /* \"#utility.yul\":2816:2823   */\n      dup5\n        /* \"#utility.yul\":2807:2813   */\n      dup3\n        /* \"#utility.yul\":2796:2805   */\n      dup6\n        /* \"#utility.yul\":2792:2814   */\n      add\n        /* \"#utility.yul\":2771:2824   */\n      tag_54\n      jump\t// in\n    tag_101:\n        /* \"#utility.yul\":2761:2824   */\n      swap2\n      pop\n        /* \"#utility.yul\":2717:2834   */\n      pop\n        /* \"#utility.yul\":2512:2841   */\n      swap3\n      swap2\n      pop\n      pop\n      jump\t// out\n        /* \"#utility.yul\":2847:2973   */\n    tag_60:\n        /* \"#utility.yul\":2942:2966   */\n      tag_103\n        /* \"#utility.yul\":2960:2965   */\n      dup2\n        /* \"#utility.yul\":2942:2966   */\n      tag_52\n      jump\t// in\n    tag_103:\n        /* \"#utility.yul\":2937:2940   */\n      dup3\n        /* \"#utility.yul\":2930:2967   */\n      mstore\n        /* \"#utility.yul\":2847:2973   */\n      pop\n      pop\n      jump\t// out\n        /* \"#utility.yul\":2979:3335   */\n    tag_28:\n        /* \"#utility.yul\":3108:3112   */\n      0x00\n        /* \"#utility.yul\":3146:3148   */\n      0x40\n        /* \"#utility.yul\":3135:3144   */\n      dup3\n        /* \"#utility.yul\":3131:3149   */\n      add\n        /* \"#utility.yul\":3123:3149   */\n      swap1\n      pop\n        /* \"#utility.yul\":3159:3238   */\n      tag_105\n        /* \"#utility.yul\":3235:3236   */\n      0x00\n        /* \"#utility.yul\":3224:3233   */\n      dup4\n        /* \"#utility.yul\":3220:3237   */\n      add\n        /* \"#utility.yul\":3211:3217   */\n      dup6\n        /* \"#utility.yul\":3159:3238   */\n      tag_60\n      jump\t// in\n    tag_105:\n        /* \"#utility.yul\":3248:3328   */\n      tag_106\n        /* \"#utility.yul\":3324:3326   */\n      0x20\n        /* \"#utility.yul\":3313:3322   */\n      dup4\n        /* \"#utility.yul\":3309:3327   */\n      add\n        /* \"#utility.yul\":3300:3306   */\n      dup5\n        /* \"#utility.yul\":3248:3328   */\n      tag_60\n      jump\t// in\n    tag_106:\n        /* \"#utility.yul\":2979:3335   */\n      swap4\n      swap3\n      pop\n      pop\n      pop\n      jump\t// out\n        /* \"#utility.yul\":3341:3458   */\n    tag_61:\n        /* \"#utility.yul\":3450:3451   */\n      0x00\n        /* \"#utility.yul\":3447:3448   */\n      dup1\n        /* \"#utility.yul\":3440:3452   */\n      revert\n        /* \"#utility.yul\":3464:3581   */\n    tag_62:\n        /* \"#utility.yul\":3573:3574   */\n      0x00\n        /* \"#utility.yul\":3570:3571   */\n      dup1\n        /* \"#utility.yul\":3563:3575   */\n      revert\n        /* \"#utility.yul\":3587:3767   */\n    tag_63:\n        /* \"#utility.yul\":3635:3712   */\n      0x4e487b7100000000000000000000000000000000000000000000000000000000\n        /* \"#utility.yul\":3632:3633   */\n      0x00\n        /* \"#utility.yul\":3625:3713   */\n      mstore\n        /* \"#utility.yul\":3732:3736   */\n      0x41\n        /* \"#utility.yul\":3729:3730   */\n      0x04\n        /* \"#utility.yul\":3722:3737   */\n      mstore\n        /* \"#utility.yul\":3756:3760   */\n      0x24\n        /* \"#utility.yul\":3753:3754   */\n      0x00\n        /* \"#utility.yul\":3746:3761   */\n      revert\n        /* \"#utility.yul\":3773:4054   */\n    tag_64:\n        /* \"#utility.yul\":3856:3883   */\n      tag_111\n        /* \"#utility.yul\":3878:3882   */\n      dup3\n        /* \"#utility.yul\":3856:3883   */\n      tag_58\n      jump\t// in\n    tag_111:\n        /* \"#utility.yul\":3848:3854   */\n      dup2\n        /* \"#utility.yul\":3844:3884   */\n      add\n        /* \"#utility.yul\":3986:3992   */\n      dup2\n        /* \"#utility.yul\":3974:3984   */\n      dup2\n        /* \"#utility.yul\":3971:3993   */\n      lt\n        /* \"#utility.yul\":3950:3968   */\n      0xffffffffffffffff\n        /* \"#utility.yul\":3938:3948   */\n      dup3\n        /* \"#utility.yul\":3935:3969   */\n      gt\n        /* \"#utility.yul\":3932:3994   */\n      or\n        /* \"#utility.yul\":3929:4017   */\n      iszero\n      tag_112\n      jumpi\n        /* \"#utility.yul\":3997:4015   */\n      tag_113\n      tag_63\n      jump\t// in\n    tag_113:\n        /* \"#utility.yul\":3929:4017   */\n    tag_112:\n        /* \"#utility.yul\":4037:4047   */\n      dup1\n        /* \"#utility.yul\":4033:4035   */\n      0x40\n        /* \"#utility.yul\":4026:4048   */\n      mstore\n        /* \"#utility.yul\":3816:4054   */\n      pop\n        /* \"#utility.yul\":3773:4054   */\n      pop\n      pop\n      jump\t// out\n        /* \"#utility.yul\":4060:4189   */\n    tag_65:\n        /* \"#utility.yul\":4094:4100   */\n      0x00\n        /* \"#utility.yul\":4121:4141   */\n      tag_115\n      tag_49\n      jump\t// in\n    tag_115:\n        /* \"#utility.yul\":4111:4141   */\n      swap1\n      pop\n        /* \"#utility.yul\":4150:4183   */\n      tag_116\n        /* \"#utility.yul\":4178:4182   */\n      dup3\n        /* \"#utility.yul\":4170:4176   */\n      dup3\n        /* \"#utility.yul\":4150:4183   */\n      tag_64\n      jump\t// in\n    tag_116:\n        /* \"#utility.yul\":4060:4189   */\n      swap2\n      swap1\n      pop\n      jump\t// out\n        /* \"#utility.yul\":4195:4503   */\n    tag_66:\n        /* \"#utility.yul\":4257:4261   */\n      0x00\n        /* \"#utility.yul\":4347:4365   */\n      0xffffffffffffffff\n        /* \"#utility.yul\":4339:4345   */\n      dup3\n        /* \"#utility.yul\":4336:4366   */\n      gt\n        /* \"#utility.yul\":4333:4389   */\n      iszero\n      tag_118\n      jumpi\n        /* \"#utility.yul\":4369:4387   */\n      tag_119\n      tag_63\n      jump\t// in\n    tag_119:\n        /* \"#utility.yul\":4333:4389   */\n    tag_118:\n        /* \"#utility.yul\":4407:4436   */\n      tag_120\n        /* \"#utility.yul\":4429:4435   */\n      dup3\n        /* \"#utility.yul\":4407:4436   */\n      tag_58\n      jump\t// in\n    tag_120:\n        /* \"#utility.yul\":4399:4436   */\n      swap1\n      pop\n        /* \"#utility.yul\":4491:4495   */\n      0x20\n        /* \"#utility.yul\":4485:4489   */\n      dup2\n        /* \"#utility.yul\":4481:4496   */\n      add\n        /* \"#utility.yul\":4473:4496   */\n      swap1\n      pop\n        /* \"#utility.yul\":4195:4503   */\n      swap2\n      swap1\n      pop\n      jump\t// out\n        /* \"#utility.yul\":4509:4943   */\n    tag_67:\n        /* \"#utility.yul\":4598:4603   */\n      0x00\n        /* \"#utility.yul\":4623:4689   */\n      tag_122\n        /* \"#utility.yul\":4639:4688   */\n      tag_123\n        /* \"#utility.yul\":4681:4687   */\n      dup5\n        /* \"#utility.yul\":4639:4688   */\n      tag_66\n      jump\t// in\n    tag_123:\n        /* \"#utility.yul\":4623:4689   */\n      tag_65\n      jump\t// in\n    tag_122:\n        /* \"#utility.yul\":4614:4689   */\n      swap1\n      pop\n        /* \"#utility.yul\":4712:4718   */\n      dup3\n        /* \"#utility.yul\":4705:4710   */\n      dup2\n        /* \"#utility.yul\":4698:4719   */\n      mstore\n        /* \"#utility.yul\":4750:4754   */\n      0x20\n        /* \"#utility.yul\":4743:4748   */\n      dup2\n        /* \"#utility.yul\":4739:4755   */\n      add\n        /* \"#utility.yul\":4788:4791   */\n      dup5\n        /* \"#utility.yul\":4779:4785   */\n      dup5\n        /* \"#utility.yul\":4774:4777   */\n      dup5\n        /* \"#utility.yul\":4770:4786   */\n      add\n        /* \"#utility.yul\":4767:4792   */\n      gt\n        /* \"#utility.yul\":4764:4876   */\n      iszero\n      tag_124\n      jumpi\n        /* \"#utility.yul\":4795:4874   */\n      tag_125\n      tag_62\n      jump\t// in\n    tag_125:\n        /* \"#utility.yul\":4764:4876   */\n    tag_124:\n        /* \"#utility.yul\":4885:4937   */\n      tag_126\n        /* \"#utility.yul\":4930:4936   */\n      dup5\n        /* \"#utility.yul\":4925:4928   */\n      dup3\n        /* \"#utility.yul\":4920:4923   */\n      dup6\n        /* \"#utility.yul\":4885:4937   */\n      tag_57\n      jump\t// in\n    tag_126:\n        /* \"#utility.yul\":4604:4943   */\n      pop\n        /* \"#utility.yul\":4509:4943   */\n      swap4\n      swap3\n      pop\n      pop\n      pop\n      jump\t// out\n        /* \"#utility.yul\":4963:5318   */\n    tag_68:\n        /* \"#utility.yul\":5030:5035   */\n      0x00\n        /* \"#utility.yul\":5079:5082   */\n      dup3\n        /* \"#utility.yul\":5072:5076   */\n      0x1f\n        /* \"#utility.yul\":5064:5070   */\n      dup4\n        /* \"#utility.yul\":5060:5077   */\n      add\n        /* \"#utility.yul\":5056:5083   */\n      slt\n        /* \"#utility.yul\":5046:5168   */\n      tag_128\n      jumpi\n        /* \"#utility.yul\":5087:5166   */\n      tag_129\n      tag_61\n      jump\t// in\n    tag_129:\n        /* \"#utility.yul\":5046:5168   */\n    tag_128:\n        /* \"#utility.yul\":5197:5203   */\n      dup2\n        /* \"#utility.yul\":5191:5204   */\n      mload\n        /* \"#utility.yul\":5222:5312   */\n      tag_130\n        /* \"#utility.yul\":5308:5311   */\n      dup5\n        /* \"#utility.yul\":5300:5306   */\n      dup3\n        /* \"#utility.yul\":5293:5297   */\n      0x20\n        /* \"#utility.yul\":5285:5291   */\n      dup7\n        /* \"#utility.yul\":5281:5298   */\n      add\n        /* \"#utility.yul\":5222:5312   */\n      tag_67\n      jump\t// in\n    tag_130:\n        /* \"#utility.yul\":5213:5312   */\n      swap2\n      pop\n        /* \"#utility.yul\":5036:5318   */\n      pop\n        /* \"#utility.yul\":4963:5318   */\n      swap3\n      swap2\n      pop\n      pop\n      jump\t// out\n        /* \"#utility.yul\":5324:5848   */\n    tag_32:\n        /* \"#utility.yul\":5404:5410   */\n      0x00\n        /* \"#utility.yul\":5453:5455   */\n      0x20\n        /* \"#utility.yul\":5441:5450   */\n      dup3\n        /* \"#utility.yul\":5432:5439   */\n      dup5\n        /* \"#utility.yul\":5428:5451   */\n      sub\n        /* \"#utility.yul\":5424:5456   */\n      slt\n        /* \"#utility.yul\":5421:5540   */\n      iszero\n      tag_132\n      jumpi\n        /* \"#utility.yul\":5459:5538   */\n      tag_133\n      tag_50\n      jump\t// in\n    tag_133:\n        /* \"#utility.yul\":5421:5540   */\n    tag_132:\n        /* \"#utility.yul\":5600:5601   */\n      0x00\n        /* \"#utility.yul\":5589:5598   */\n      dup3\n        /* \"#utility.yul\":5585:5602   */\n      add\n        /* \"#utility.yul\":5579:5603   */\n      mload\n        /* \"#utility.yul\":5630:5648   */\n      0xffffffffffffffff\n        /* \"#utility.yul\":5622:5628   */\n      dup2\n        /* \"#utility.yul\":5619:5649   */\n      gt\n        /* \"#utility.yul\":5616:5733   */\n      iszero\n      tag_134\n      jumpi\n        /* \"#utility.yul\":5652:5731   */\n      tag_135\n      tag_51\n      jump\t// in\n    tag_135:\n        /* \"#utility.yul\":5616:5733   */\n    tag_134:\n        /* \"#utility.yul\":5757:5831   */\n      tag_136\n        /* \"#utility.yul\":5823:5830   */\n      dup5\n        /* \"#utility.yul\":5814:5820   */\n      dup3\n        /* \"#utility.yul\":5803:5812   */\n      dup6\n        /* \"#utility.yul\":5799:5821   */\n      add\n        /* \"#utility.yul\":5757:5831   */\n      tag_68\n      jump\t// in\n    tag_136:\n        /* \"#utility.yul\":5747:5831   */\n      swap2\n      pop\n        /* \"#utility.yul\":5550:5841   */\n      pop\n        /* \"#utility.yul\":5324:5848   */\n      swap3\n      swap2\n      pop\n      pop\n      jump\t// out\n        /* \"#utility.yul\":5854:6092   */\n    tag_35:\n        /* \"#utility.yul\":5955:5959   */\n      0x00\n        /* \"#utility.yul\":5993:5995   */\n      0x20\n        /* \"#utility.yul\":5982:5991   */\n      dup3\n        /* \"#utility.yul\":5978:5996   */\n      add\n        /* \"#utility.yul\":5970:5996   */\n      swap1\n      pop\n        /* \"#utility.yul\":6006:6085   */\n      tag_138\n        /* \"#utility.yul\":6082:6083   */\n      0x00\n        /* \"#utility.yul\":6071:6080   */\n      dup4\n        /* \"#utility.yul\":6067:6084   */\n      add\n        /* \"#utility.yul\":6058:6064   */\n      dup5\n        /* \"#utility.yul\":6006:6085   */\n      tag_60\n      jump\t// in\n    tag_138:\n        /* \"#utility.yul\":5854:6092   */\n      swap3\n      swap2\n      pop\n      pop\n      jump\t// out\n\n    auxdata: 0xa264697066735822122065dfcd69ea45411594c25901072b4d0dd508543fdfce2872a0de39c5b7f5dd9864736f6c63430008110033\n}\n",
				"bytecode": {
					"linkReferences": {
						"库合约/StringLibrary.sol": {
							"Strings": [
								{
									"length": 20,
									"start": 310
								},
								{
									"length": 20,
									"start": 449
								},
								{
									"length": 20,
									"start": 584
								},
								{
									"length": 20,
									"start": 719
								}
							]
						}
					},
					"object": "608060405234801561001057600080fd5b50610693806100206000396000f3fe608060405234801561001057600080fd5b506004361061004c5760003560e01c8063b652573d14610051578063d6ee0f3214610081578063e65eac98146100b1578063eacbc0e6146100e1575b600080fd5b61006b6004803603810190610066919061037c565b610111565b604051610078919061044c565b60405180910390f35b61009b6004803603810190610096919061046e565b61019c565b6040516100a8919061044c565b60405180910390f35b6100cb60048036038101906100c6919061046e565b610224565b6040516100d8919061044c565b60405180910390f35b6100fb60048036038101906100f6919061046e565b6102aa565b604051610108919061044c565b60405180910390f35b60608273__$32f5a954dfc1f09c89a766c74113ffc7bc$__6363e1cbea9091846040518363ffffffff1660e01b815260040161014e9291906104aa565b600060405180830381865af415801561016b573d6000803e3d6000fd5b505050506040513d6000823e3d601f19601f8201168201806040525081019061019491906105f9565b905092915050565b60608173__$32f5a954dfc1f09c89a766c74113ffc7bc$__638fba8d5c90916040518263ffffffff1660e01b81526004016101d79190610642565b600060405180830381865af41580156101f4573d6000803e3d6000fd5b505050506040513d6000823e3d601f19601f8201168201806040525081019061021d91906105f9565b9050919050565b606073__$32f5a954dfc1f09c89a766c74113ffc7bc$__638fba8d5c836040518263ffffffff1660e01b815260040161025d9190610642565b600060405180830381865af415801561027a573d6000803e3d6000fd5b505050506040513d6000823e3d601f19601f820116820180604052508101906102a391906105f9565b9050919050565b60608173__$32f5a954dfc1f09c89a766c74113ffc7bc$__636900a3ae90916040518263ffffffff1660e01b81526004016102e59190610642565b600060405180830381865af4158015610302573d6000803e3d6000fd5b505050506040513d6000823e3d601f19601f8201168201806040525081019061032b91906105f9565b9050919050565b6000604051905090565b600080fd5b600080fd5b6000819050919050565b61035981610346565b811461036457600080fd5b50565b60008135905061037681610350565b92915050565b600080604083850312156103935761039261033c565b5b60006103a185828601610367565b92505060206103b285828601610367565b9150509250929050565b600081519050919050565b600082825260208201905092915050565b60005b838110156103f65780820151818401526020810190506103db565b60008484015250505050565b6000601f19601f8301169050919050565b600061041e826103bc565b61042881856103c7565b93506104388185602086016103d8565b61044181610402565b840191505092915050565b600060208201905081810360008301526104668184610413565b905092915050565b6000602082840312156104845761048361033c565b5b600061049284828501610367565b91505092915050565b6104a481610346565b82525050565b60006040820190506104bf600083018561049b565b6104cc602083018461049b565b9392505050565b600080fd5b600080fd5b7f4e487b7100000000000000000000000000000000000000000000000000000000600052604160045260246000fd5b61051582610402565b810181811067ffffffffffffffff82111715610534576105336104dd565b5b80604052505050565b6000610547610332565b9050610553828261050c565b919050565b600067ffffffffffffffff821115610573576105726104dd565b5b61057c82610402565b9050602081019050919050565b600061059c61059784610558565b61053d565b9050828152602081018484840111156105b8576105b76104d8565b5b6105c38482856103d8565b509392505050565b600082601f8301126105e0576105df6104d3565b5b81516105f0848260208601610589565b91505092915050565b60006020828403121561060f5761060e61033c565b5b600082015167ffffffffffffffff81111561062d5761062c610341565b5b610639848285016105cb565b91505092915050565b6000602082019050610657600083018461049b565b9291505056fea264697066735822122065dfcd69ea45411594c25901072b4d0dd508543fdfce2872a0de39c5b7f5dd9864736f6c63430008110033",
					"opcodes": "PUSH1 0x80 PUSH1 0x40 MSTORE CALLVALUE DUP1 ISZERO PUSH2 0x10 JUMPI PUSH1 0x0 DUP1 REVERT JUMPDEST POP PUSH2 0x693 DUP1 PUSH2 0x20 PUSH1 0x0 CODECOPY PUSH1 0x0 RETURN INVALID PUSH1 0x80 PUSH1 0x40 MSTORE CALLVALUE DUP1 ISZERO PUSH2 0x10 JUMPI PUSH1 0x0 DUP1 REVERT JUMPDEST POP PUSH1 0x4 CALLDATASIZE LT PUSH2 0x4C JUMPI PUSH1 0x0 CALLDATALOAD PUSH1 0xE0 SHR DUP1 PUSH4 0xB652573D EQ PUSH2 0x51 JUMPI DUP1 PUSH4 0xD6EE0F32 EQ PUSH2 0x81 JUMPI DUP1 PUSH4 0xE65EAC98 EQ PUSH2 0xB1 JUMPI DUP1 PUSH4 0xEACBC0E6 EQ PUSH2 0xE1 JUMPI JUMPDEST PUSH1 0x0 DUP1 REVERT JUMPDEST PUSH2 0x6B PUSH1 0x4 DUP1 CALLDATASIZE SUB DUP2 ADD SWAP1 PUSH2 0x66 SWAP2 SWAP1 PUSH2 0x37C JUMP JUMPDEST PUSH2 0x111 JUMP JUMPDEST PUSH1 0x40 MLOAD PUSH2 0x78 SWAP2 SWAP1 PUSH2 0x44C JUMP JUMPDEST PUSH1 0x40 MLOAD DUP1 SWAP2 SUB SWAP1 RETURN JUMPDEST PUSH2 0x9B PUSH1 0x4 DUP1 CALLDATASIZE SUB DUP2 ADD SWAP1 PUSH2 0x96 SWAP2 SWAP1 PUSH2 0x46E JUMP JUMPDEST PUSH2 0x19C JUMP JUMPDEST PUSH1 0x40 MLOAD PUSH2 0xA8 SWAP2 SWAP1 PUSH2 0x44C JUMP JUMPDEST PUSH1 0x40 MLOAD DUP1 SWAP2 SUB SWAP1 RETURN JUMPDEST PUSH2 0xCB PUSH1 0x4 DUP1 CALLDATASIZE SUB DUP2 ADD SWAP1 PUSH2 0xC6 SWAP2 SWAP1 PUSH2 0x46E JUMP JUMPDEST PUSH2 0x224 JUMP JUMPDEST PUSH1 0x40 MLOAD PUSH2 0xD8 SWAP2 SWAP1 PUSH2 0x44C JUMP JUMPDEST PUSH1 0x40 MLOAD DUP1 SWAP2 SUB SWAP1 RETURN JUMPDEST PUSH2 0xFB PUSH1 0x4 DUP1 CALLDATASIZE SUB DUP2 ADD SWAP1 PUSH2 0xF6 SWAP2 SWAP1 PUSH2 0x46E JUMP JUMPDEST PUSH2 0x2AA JUMP JUMPDEST PUSH1 0x40 MLOAD PUSH2 0x108 SWAP2 SWAP1 PUSH2 0x44C JUMP JUMPDEST PUSH1 0x40 MLOAD DUP1 SWAP2 SUB SWAP1 RETURN JUMPDEST PUSH1 0x60 DUP3 PUSH20 0x0 PUSH4 0x63E1CBEA SWAP1 SWAP2 DUP5 PUSH1 0x40 MLOAD DUP4 PUSH4 0xFFFFFFFF AND PUSH1 0xE0 SHL DUP2 MSTORE PUSH1 0x4 ADD PUSH2 0x14E SWAP3 SWAP2 SWAP1 PUSH2 0x4AA JUMP JUMPDEST PUSH1 0x0 PUSH1 0x40 MLOAD DUP1 DUP4 SUB DUP2 DUP7 GAS DELEGATECALL ISZERO DUP1 ISZERO PUSH2 0x16B JUMPI RETURNDATASIZE PUSH1 0x0 DUP1 RETURNDATACOPY RETURNDATASIZE PUSH1 0x0 REVERT JUMPDEST POP POP POP POP PUSH1 0x40 MLOAD RETURNDATASIZE PUSH1 0x0 DUP3 RETURNDATACOPY RETURNDATASIZE PUSH1 0x1F NOT PUSH1 0x1F DUP3 ADD AND DUP3 ADD DUP1 PUSH1 0x40 MSTORE POP DUP2 ADD SWAP1 PUSH2 0x194 SWAP2 SWAP1 PUSH2 0x5F9 JUMP JUMPDEST SWAP1 POP SWAP3 SWAP2 POP POP JUMP JUMPDEST PUSH1 0x60 DUP2 PUSH20 0x0 PUSH4 0x8FBA8D5C SWAP1 SWAP2 PUSH1 0x40 MLOAD DUP3 PUSH4 0xFFFFFFFF AND PUSH1 0xE0 SHL DUP2 MSTORE PUSH1 0x4 ADD PUSH2 0x1D7 SWAP2 SWAP1 PUSH2 0x642 JUMP JUMPDEST PUSH1 0x0 PUSH1 0x40 MLOAD DUP1 DUP4 SUB DUP2 DUP7 GAS DELEGATECALL ISZERO DUP1 ISZERO PUSH2 0x1F4 JUMPI RETURNDATASIZE PUSH1 0x0 DUP1 RETURNDATACOPY RETURNDATASIZE PUSH1 0x0 REVERT JUMPDEST POP POP POP POP PUSH1 0x40 MLOAD RETURNDATASIZE PUSH1 0x0 DUP3 RETURNDATACOPY RETURNDATASIZE PUSH1 0x1F NOT PUSH1 0x1F DUP3 ADD AND DUP3 ADD DUP1 PUSH1 0x40 MSTORE POP DUP2 ADD SWAP1 PUSH2 0x21D SWAP2 SWAP1 PUSH2 0x5F9 JUMP JUMPDEST SWAP1 POP SWAP2 SWAP1 POP JUMP JUMPDEST PUSH1 0x60 PUSH20 0x0 PUSH4 0x8FBA8D5C DUP4 PUSH1 0x40 MLOAD DUP3 PUSH4 0xFFFFFFFF AND PUSH1 0xE0 SHL DUP2 MSTORE PUSH1 0x4 ADD PUSH2 0x25D SWAP2 SWAP1 PUSH2 0x642 JUMP JUMPDEST PUSH1 0x0 PUSH1 0x40 MLOAD DUP1 DUP4 SUB DUP2 DUP7 GAS DELEGATECALL ISZERO DUP1 ISZERO PUSH2 0x27A JUMPI RETURNDATASIZE PUSH1 0x0 DUP1 RETURNDATACOPY RETURNDATASIZE PUSH1 0x0 REVERT JUMPDEST POP POP POP POP PUSH1 0x40 MLOAD RETURNDATASIZE PUSH1 0x0 DUP3 RETURNDATACOPY RETURNDATASIZE PUSH1 0x1F NOT PUSH1 0x1F DUP3 ADD AND DUP3 ADD DUP1 PUSH1 0x40 MSTORE POP DUP2 ADD SWAP1 PUSH2 0x2A3 SWAP2 SWAP1 PUSH2 0x5F9 JUMP JUMPDEST SWAP1 POP SWAP2 SWAP1 POP JUMP JUMPDEST PUSH1 0x60 DUP2 PUSH20 0x0 PUSH4 0x6900A3AE SWAP1 SWAP2 PUSH1 0x40 MLOAD DUP3 PUSH4 0xFFFFFFFF AND PUSH1 0xE0 SHL DUP2 MSTORE PUSH1 0x4 ADD PUSH2 0x2E5 SWAP2 SWAP1 PUSH2 0x642 JUMP JUMPDEST PUSH1 0x0 PUSH1 0x40 MLOAD DUP1 DUP4 SUB DUP2 DUP7 GAS DELEGATECALL ISZERO DUP1 ISZERO PUSH2 0x302 JUMPI RETURNDATASIZE PUSH1 0x0 DUP1 RETURNDATACOPY RETURNDATASIZE PUSH1 0x0 REVERT JUMPDEST POP POP POP POP PUSH1 0x40 MLOAD RETURNDATASIZE PUSH1 0x0 DUP3 RETURNDATACOPY RETURNDATASIZE PUSH1 0x1F NOT PUSH1 0x1F DUP3 ADD AND DUP3 ADD DUP1 PUSH1 0x40 MSTORE POP DUP2 ADD SWAP1 PUSH2 0x32B SWAP2 SWAP1 PUSH2 0x5F9 JUMP JUMPDEST SWAP1 POP SWAP2 SWAP1 POP JUMP JUMPDEST PUSH1 0x0 PUSH1 0x40 MLOAD SWAP1 POP SWAP1 JUMP JUMPDEST PUSH1 0x0 DUP1 REVERT JUMPDEST PUSH1 0x0 DUP1 REVERT JUMPDEST PUSH1 0x0 DUP2 SWAP1 POP SWAP2 SWAP1 POP JUMP JUMPDEST PUSH2 0x359 DUP2 PUSH2 0x346 JUMP JUMPDEST DUP2 EQ PUSH2 0x364 JUMPI PUSH1 0x0 DUP1 REVERT JUMPDEST POP JUMP JUMPDEST PUSH1 0x0 DUP2 CALLDATALOAD SWAP1 POP PUSH2 0x376 DUP2 PUSH2 0x350 JUMP JUMPDEST SWAP3 SWAP2 POP POP JUMP JUMPDEST PUSH1 0x0 DUP1 PUSH1 0x40 DUP4 DUP6 SUB SLT ISZERO PUSH2 0x393 JUMPI PUSH2 0x392 PUSH2 0x33C JUMP JUMPDEST JUMPDEST PUSH1 0x0 PUSH2 0x3A1 DUP6 DUP3 DUP7 ADD PUSH2 0x367 JUMP JUMPDEST SWAP3 POP POP PUSH1 0x20 PUSH2 0x3B2 DUP6 DUP3 DUP7 ADD PUSH2 0x367 JUMP JUMPDEST SWAP2 POP POP SWAP3 POP SWAP3 SWAP1 POP JUMP JUMPDEST PUSH1 0x0 DUP2 MLOAD SWAP1 POP SWAP2 SWAP1 POP JUMP JUMPDEST PUSH1 0x0 DUP3 DUP3 MSTORE PUSH1 0x20 DUP3 ADD SWAP1 POP SWAP3 SWAP2 POP POP JUMP JUMPDEST PUSH1 0x0 JUMPDEST DUP4 DUP2 LT ISZERO PUSH2 0x3F6 JUMPI DUP1 DUP3 ADD MLOAD DUP2 DUP5 ADD MSTORE PUSH1 0x20 DUP2 ADD SWAP1 POP PUSH2 0x3DB JUMP JUMPDEST PUSH1 0x0 DUP5 DUP5 ADD MSTORE POP POP POP POP JUMP JUMPDEST PUSH1 0x0 PUSH1 0x1F NOT PUSH1 0x1F DUP4 ADD AND SWAP1 POP SWAP2 SWAP1 POP JUMP JUMPDEST PUSH1 0x0 PUSH2 0x41E DUP3 PUSH2 0x3BC JUMP JUMPDEST PUSH2 0x428 DUP2 DUP6 PUSH2 0x3C7 JUMP JUMPDEST SWAP4 POP PUSH2 0x438 DUP2 DUP6 PUSH1 0x20 DUP7 ADD PUSH2 0x3D8 JUMP JUMPDEST PUSH2 0x441 DUP2 PUSH2 0x402 JUMP JUMPDEST DUP5 ADD SWAP2 POP POP SWAP3 SWAP2 POP POP JUMP JUMPDEST PUSH1 0x0 PUSH1 0x20 DUP3 ADD SWAP1 POP DUP2 DUP2 SUB PUSH1 0x0 DUP4 ADD MSTORE PUSH2 0x466 DUP2 DUP5 PUSH2 0x413 JUMP JUMPDEST SWAP1 POP SWAP3 SWAP2 POP POP JUMP JUMPDEST PUSH1 0x0 PUSH1 0x20 DUP3 DUP5 SUB SLT ISZERO PUSH2 0x484 JUMPI PUSH2 0x483 PUSH2 0x33C JUMP JUMPDEST JUMPDEST PUSH1 0x0 PUSH2 0x492 DUP5 DUP3 DUP6 ADD PUSH2 0x367 JUMP JUMPDEST SWAP2 POP POP SWAP3 SWAP2 POP POP JUMP JUMPDEST PUSH2 0x4A4 DUP2 PUSH2 0x346 JUMP JUMPDEST DUP3 MSTORE POP POP JUMP JUMPDEST PUSH1 0x0 PUSH1 0x40 DUP3 ADD SWAP1 POP PUSH2 0x4BF PUSH1 0x0 DUP4 ADD DUP6 PUSH2 0x49B JUMP JUMPDEST PUSH2 0x4CC PUSH1 0x20 DUP4 ADD DUP5 PUSH2 0x49B JUMP JUMPDEST SWAP4 SWAP3 POP POP POP JUMP JUMPDEST PUSH1 0x0 DUP1 REVERT JUMPDEST PUSH1 0x0 DUP1 REVERT JUMPDEST PUSH32 0x4E487B7100000000000000000000000000000000000000000000000000000000 PUSH1 0x0 MSTORE PUSH1 0x41 PUSH1 0x4 MSTORE PUSH1 0x24 PUSH1 0x0 REVERT JUMPDEST PUSH2 0x515 DUP3 PUSH2 0x402 JUMP JUMPDEST DUP2 ADD DUP2 DUP2 LT PUSH8 0xFFFFFFFFFFFFFFFF DUP3 GT OR ISZERO PUSH2 0x534 JUMPI PUSH2 0x533 PUSH2 0x4DD JUMP JUMPDEST JUMPDEST DUP1 PUSH1 0x40 MSTORE POP POP POP JUMP JUMPDEST PUSH1 0x0 PUSH2 0x547 PUSH2 0x332 JUMP JUMPDEST SWAP1 POP PUSH2 0x553 DUP3 DUP3 PUSH2 0x50C JUMP JUMPDEST SWAP2 SWAP1 POP JUMP JUMPDEST PUSH1 0x0 PUSH8 0xFFFFFFFFFFFFFFFF DUP3 GT ISZERO PUSH2 0x573 JUMPI PUSH2 0x572 PUSH2 0x4DD JUMP JUMPDEST JUMPDEST PUSH2 0x57C DUP3 PUSH2 0x402 JUMP JUMPDEST SWAP1 POP PUSH1 0x20 DUP2 ADD SWAP1 POP SWAP2 SWAP1 POP JUMP JUMPDEST PUSH1 0x0 PUSH2 0x59C PUSH2 0x597 DUP5 PUSH2 0x558 JUMP JUMPDEST PUSH2 0x53D JUMP JUMPDEST SWAP1 POP DUP3 DUP2 MSTORE PUSH1 0x20 DUP2 ADD DUP5 DUP5 DUP5 ADD GT ISZERO PUSH2 0x5B8 JUMPI PUSH2 0x5B7 PUSH2 0x4D8 JUMP JUMPDEST JUMPDEST PUSH2 0x5C3 DUP5 DUP3 DUP6 PUSH2 0x3D8 JUMP JUMPDEST POP SWAP4 SWAP3 POP POP POP JUMP JUMPDEST PUSH1 0x0 DUP3 PUSH1 0x1F DUP4 ADD SLT PUSH2 0x5E0 JUMPI PUSH2 0x5DF PUSH2 0x4D3 JUMP JUMPDEST JUMPDEST DUP2 MLOAD PUSH2 0x5F0 DUP5 DUP3 PUSH1 0x20 DUP7 ADD PUSH2 0x589 JUMP JUMPDEST SWAP2 POP POP SWAP3 SWAP2 POP POP JUMP JUMPDEST PUSH1 0x0 PUSH1 0x20 DUP3 DUP5 SUB SLT ISZERO PUSH2 0x60F JUMPI PUSH2 0x60E PUSH2 0x33C JUMP JUMPDEST JUMPDEST PUSH1 0x0 DUP3 ADD MLOAD PUSH8 0xFFFFFFFFFFFFFFFF DUP2 GT ISZERO PUSH2 0x62D JUMPI PUSH2 0x62C PUSH2 0x341 JUMP JUMPDEST JUMPDEST PUSH2 0x639 DUP5 DUP3 DUP6 ADD PUSH2 0x5CB JUMP JUMPDEST SWAP2 POP POP SWAP3 SWAP2 POP POP JUMP JUMPDEST PUSH1 0x0 PUSH1 0x20 DUP3 ADD SWAP1 POP PUSH2 0x657 PUSH1 0x0 DUP4 ADD DUP5 PUSH2 0x49B JUMP JUMPDEST SWAP3 SWAP2 POP POP JUMP INVALID LOG2 PUSH5 0x6970667358 0x22 SLT KECCAK256 PUSH6 0xDFCD69EA4541 ISZERO SWAP5 0xC2 MSIZE ADD SMOD 0x2B 0x4D 0xD 0xD5 ADDMOD SLOAD EXTCODEHASH 0xDF 0xCE 0x28 PUSH19 0xA0DE39C5B7F5DD9864736F6C63430008110033 "
				},
				"gasEstimates": {
					"creation": {
						"codeDepositCost": "336600",
						"executionCost": "374",
						"totalCost": "336974"
					},
					"external": {
						"getString1(uint256)": "infinite",
						"getString2(uint256)": "infinite",
						"getToDecString(uint256)": "infinite",
						"getToHexString(uint256,uint256)": "infinite"
					}
				},
				"methodIdentifiers": {
					"getString1(uint256)": "d6ee0f32",
					"getString2(uint256)": "e65eac98",
					"getToDecString(uint256)": "eacbc0e6",
					"getToHexString(uint256,uint256)": "b652573d"
				}
			},
			"storageLayout": {
				"storage": [],
				"types": null
			},
			"userdoc": {
				"kind": "user",
				"methods": {},
				"version": 1
			}
		}
	}
}