{
	"库合约/ArraysLibrary.sol": {
		"ArraysExample": {
			"abi": [
				{
					"inputs": [
						{
							"internalType": "uint256",
							"name": "number",
							"type": "uint256"
						}
					],
					"name": "addNumber",
					"outputs": [],
					"stateMutability": "nonpayable",
					"type": "function"
				},
				{
					"inputs": [
						{
							"internalType": "uint256",
							"name": "element",
							"type": "uint256"
						}
					],
					"name": "findUpperBound",
					"outputs": [
						{
							"internalType": "uint256",
							"name": "",
							"type": "uint256"
						}
					],
					"stateMutability": "view",
					"type": "function"
				},
				{
					"inputs": [
						{
							"internalType": "uint256",
							"name": "",
							"type": "uint256"
						}
					],
					"name": "numbers",
					"outputs": [
						{
							"internalType": "uint256",
							"name": "",
							"type": "uint256"
						}
					],
					"stateMutability": "view",
					"type": "function"
				}
			],
			"devdoc": {
				"kind": "dev",
				"methods": {},
				"version": 1
			},
			"evm": {
				"assembly": "    /* \"\\xe5\\xba\\x93\\xe5\\x90\\x88\\xe7\\xba\\xa6/ArraysLibrary.sol\":1605:2075  contract ArraysExample {... */\n  mstore(0x40, 0x80)\n  callvalue\n  dup1\n  iszero\n  tag_1\n  jumpi\n  0x00\n  dup1\n  revert\ntag_1:\n  pop\n  dataSize(sub_0)\n  dup1\n  dataOffset(sub_0)\n  0x00\n  codecopy\n  0x00\n  return\nstop\n\nsub_0: assembly {\n        /* \"\\xe5\\xba\\x93\\xe5\\x90\\x88\\xe7\\xba\\xa6/ArraysLibrary.sol\":1605:2075  contract ArraysExample {... */\n      mstore(0x40, 0x80)\n      callvalue\n      dup1\n      iszero\n      tag_1\n      jumpi\n      0x00\n      dup1\n      revert\n    tag_1:\n      pop\n      jumpi(tag_2, lt(calldatasize, 0x04))\n      shr(0xe0, calldataload(0x00))\n      dup1\n      0x33e3a58a\n      eq\n      tag_3\n      jumpi\n      dup1\n      0xd39fa233\n      eq\n      tag_4\n      jumpi\n      dup1\n      0xfce68023\n      eq\n      tag_5\n      jumpi\n    tag_2:\n      0x00\n      dup1\n      revert\n        /* \"\\xe5\\xba\\x93\\xe5\\x90\\x88\\xe7\\xba\\xa6/ArraysLibrary.sol\":1936:2072  function findUpperBound(uint256 element) public view returns (uint256) {... */\n    tag_3:\n      tag_6\n      0x04\n      dup1\n      calldatasize\n      sub\n      dup2\n      add\n      swap1\n      tag_7\n      swap2\n      swap1\n      tag_8\n      jump\t// in\n    tag_7:\n      tag_9\n      jump\t// in\n    tag_6:\n      mload(0x40)\n      tag_10\n      swap2\n      swap1\n      tag_11\n      jump\t// in\n    tag_10:\n      mload(0x40)\n      dup1\n      swap2\n      sub\n      swap1\n      return\n        /* \"\\xe5\\xba\\x93\\xe5\\x90\\x88\\xe7\\xba\\xa6/ArraysLibrary.sol\":1706:1730  uint256[] public numbers */\n    tag_4:\n      tag_12\n      0x04\n      dup1\n      calldatasize\n      sub\n      dup2\n      add\n      swap1\n      tag_13\n      swap2\n      swap1\n      tag_8\n      jump\t// in\n    tag_13:\n      tag_14\n      jump\t// in\n    tag_12:\n      mload(0x40)\n      tag_15\n      swap2\n      swap1\n      tag_11\n      jump\t// in\n    tag_15:\n      mload(0x40)\n      dup1\n      swap2\n      sub\n      swap1\n      return\n        /* \"\\xe5\\xba\\x93\\xe5\\x90\\x88\\xe7\\xba\\xa6/ArraysLibrary.sol\":1739:1820  function addNumber(uint256 number) public {... */\n    tag_5:\n      tag_16\n      0x04\n      dup1\n      calldatasize\n      sub\n      dup2\n      add\n      swap1\n      tag_17\n      swap2\n      swap1\n      tag_8\n      jump\t// in\n    tag_17:\n      tag_18\n      jump\t// in\n    tag_16:\n      stop\n        /* \"\\xe5\\xba\\x93\\xe5\\x90\\x88\\xe7\\xba\\xa6/ArraysLibrary.sol\":1936:2072  function findUpperBound(uint256 element) public view returns (uint256) {... */\n    tag_9:\n        /* \"\\xe5\\xba\\x93\\xe5\\x90\\x88\\xe7\\xba\\xa6/ArraysLibrary.sol\":1998:2005  uint256 */\n      0x00\n        /* \"\\xe5\\xba\\x93\\xe5\\x90\\x88\\xe7\\xba\\xa6/ArraysLibrary.sol\":2025:2064  Arrays.findUpperBound(numbers, element) */\n      tag_20\n        /* \"\\xe5\\xba\\x93\\xe5\\x90\\x88\\xe7\\xba\\xa6/ArraysLibrary.sol\":2047:2054  numbers */\n      0x00\n        /* \"\\xe5\\xba\\x93\\xe5\\x90\\x88\\xe7\\xba\\xa6/ArraysLibrary.sol\":2056:2063  element */\n      dup4\n        /* \"\\xe5\\xba\\x93\\xe5\\x90\\x88\\xe7\\xba\\xa6/ArraysLibrary.sol\":2025:2046  Arrays.findUpperBound */\n      tag_21\n        /* \"\\xe5\\xba\\x93\\xe5\\x90\\x88\\xe7\\xba\\xa6/ArraysLibrary.sol\":2025:2064  Arrays.findUpperBound(numbers, element) */\n      jump\t// in\n    tag_20:\n        /* \"\\xe5\\xba\\x93\\xe5\\x90\\x88\\xe7\\xba\\xa6/ArraysLibrary.sol\":2018:2064  return Arrays.findUpperBound(numbers, element) */\n      swap1\n      pop\n        /* \"\\xe5\\xba\\x93\\xe5\\x90\\x88\\xe7\\xba\\xa6/ArraysLibrary.sol\":1936:2072  function findUpperBound(uint256 element) public view returns (uint256) {... */\n      swap2\n      swap1\n      pop\n      jump\t// out\n        /* \"\\xe5\\xba\\x93\\xe5\\x90\\x88\\xe7\\xba\\xa6/ArraysLibrary.sol\":1706:1730  uint256[] public numbers */\n    tag_14:\n      0x00\n      dup2\n      dup2\n      sload\n      dup2\n      lt\n      tag_22\n      jumpi\n      0x00\n      dup1\n      revert\n    tag_22:\n      swap1\n      0x00\n      mstore\n      keccak256(0x00, 0x20)\n      add\n      0x00\n      swap2\n      pop\n      swap1\n      pop\n      sload\n      dup2\n      jump\t// out\n        /* \"\\xe5\\xba\\x93\\xe5\\x90\\x88\\xe7\\xba\\xa6/ArraysLibrary.sol\":1739:1820  function addNumber(uint256 number) public {... */\n    tag_18:\n        /* \"\\xe5\\xba\\x93\\xe5\\x90\\x88\\xe7\\xba\\xa6/ArraysLibrary.sol\":1792:1799  numbers */\n      0x00\n        /* \"\\xe5\\xba\\x93\\xe5\\x90\\x88\\xe7\\xba\\xa6/ArraysLibrary.sol\":1805:1811  number */\n      dup2\n        /* \"\\xe5\\xba\\x93\\xe5\\x90\\x88\\xe7\\xba\\xa6/ArraysLibrary.sol\":1792:1812  numbers.push(number) */\n      swap1\n      dup1\n      0x01\n      dup2\n      sload\n      add\n      dup1\n      dup3\n      sstore\n      dup1\n      swap2\n      pop\n      pop\n      0x01\n      swap1\n      sub\n      swap1\n      0x00\n      mstore\n      keccak256(0x00, 0x20)\n      add\n      0x00\n      swap1\n      swap2\n      swap1\n      swap2\n      swap1\n      swap2\n      pop\n      sstore\n        /* \"\\xe5\\xba\\x93\\xe5\\x90\\x88\\xe7\\xba\\xa6/ArraysLibrary.sol\":1739:1820  function addNumber(uint256 number) public {... */\n      pop\n      jump\t// out\n        /* \"\\xe5\\xba\\x93\\xe5\\x90\\x88\\xe7\\xba\\xa6/ArraysLibrary.sol\":607:1485  function findUpperBound(uint256[] storage array, uint256 element) internal view returns (uint256) {... */\n    tag_21:\n        /* \"\\xe5\\xba\\x93\\xe5\\x90\\x88\\xe7\\xba\\xa6/ArraysLibrary.sol\":696:703  uint256 */\n      0x00\n        /* \"\\xe5\\xba\\x93\\xe5\\x90\\x88\\xe7\\xba\\xa6/ArraysLibrary.sol\":736:737  0 */\n      dup1\n        /* \"\\xe5\\xba\\x93\\xe5\\x90\\x88\\xe7\\xba\\xa6/ArraysLibrary.sol\":720:725  array */\n      dup4\n        /* \"\\xe5\\xba\\x93\\xe5\\x90\\x88\\xe7\\xba\\xa6/ArraysLibrary.sol\":720:732  array.length */\n      dup1\n      sload\n      swap1\n      pop\n        /* \"\\xe5\\xba\\x93\\xe5\\x90\\x88\\xe7\\xba\\xa6/ArraysLibrary.sol\":720:737  array.length == 0 */\n      sub\n        /* \"\\xe5\\xba\\x93\\xe5\\x90\\x88\\xe7\\xba\\xa6/ArraysLibrary.sol\":716:774  if (array.length == 0) {... */\n      tag_27\n      jumpi\n        /* \"\\xe5\\xba\\x93\\xe5\\x90\\x88\\xe7\\xba\\xa6/ArraysLibrary.sol\":761:762  0 */\n      0x00\n        /* \"\\xe5\\xba\\x93\\xe5\\x90\\x88\\xe7\\xba\\xa6/ArraysLibrary.sol\":754:762  return 0 */\n      swap1\n      pop\n      jump(tag_26)\n        /* \"\\xe5\\xba\\x93\\xe5\\x90\\x88\\xe7\\xba\\xa6/ArraysLibrary.sol\":716:774  if (array.length == 0) {... */\n    tag_27:\n        /* \"\\xe5\\xba\\x93\\xe5\\x90\\x88\\xe7\\xba\\xa6/ArraysLibrary.sol\":786:797  uint256 low */\n      0x00\n        /* \"\\xe5\\xba\\x93\\xe5\\x90\\x88\\xe7\\xba\\xa6/ArraysLibrary.sol\":812:824  uint256 high */\n      dup1\n        /* \"\\xe5\\xba\\x93\\xe5\\x90\\x88\\xe7\\xba\\xa6/ArraysLibrary.sol\":827:832  array */\n      dup5\n        /* \"\\xe5\\xba\\x93\\xe5\\x90\\x88\\xe7\\xba\\xa6/ArraysLibrary.sol\":827:839  array.length */\n      dup1\n      sload\n      swap1\n      pop\n        /* \"\\xe5\\xba\\x93\\xe5\\x90\\x88\\xe7\\xba\\xa6/ArraysLibrary.sol\":812:839  uint256 high = array.length */\n      swap1\n      pop\n        /* \"\\xe5\\xba\\x93\\xe5\\x90\\x88\\xe7\\xba\\xa6/ArraysLibrary.sol\":852:1260  while (low < high) {... */\n    tag_28:\n        /* \"\\xe5\\xba\\x93\\xe5\\x90\\x88\\xe7\\xba\\xa6/ArraysLibrary.sol\":865:869  high */\n      dup1\n        /* \"\\xe5\\xba\\x93\\xe5\\x90\\x88\\xe7\\xba\\xa6/ArraysLibrary.sol\":859:862  low */\n      dup3\n        /* \"\\xe5\\xba\\x93\\xe5\\x90\\x88\\xe7\\xba\\xa6/ArraysLibrary.sol\":859:869  low < high */\n      lt\n        /* \"\\xe5\\xba\\x93\\xe5\\x90\\x88\\xe7\\xba\\xa6/ArraysLibrary.sol\":852:1260  while (low < high) {... */\n      iszero\n      tag_29\n      jumpi\n        /* \"\\xe5\\xba\\x93\\xe5\\x90\\x88\\xe7\\xba\\xa6/ArraysLibrary.sol\":886:897  uint256 mid */\n      0x00\n        /* \"\\xe5\\xba\\x93\\xe5\\x90\\x88\\xe7\\xba\\xa6/ArraysLibrary.sol\":900:923  Math.average(low, high) */\n      tag_30\n        /* \"\\xe5\\xba\\x93\\xe5\\x90\\x88\\xe7\\xba\\xa6/ArraysLibrary.sol\":913:916  low */\n      dup4\n        /* \"\\xe5\\xba\\x93\\xe5\\x90\\x88\\xe7\\xba\\xa6/ArraysLibrary.sol\":918:922  high */\n      dup4\n        /* \"\\xe5\\xba\\x93\\xe5\\x90\\x88\\xe7\\xba\\xa6/ArraysLibrary.sol\":900:912  Math.average */\n      tag_31\n        /* \"\\xe5\\xba\\x93\\xe5\\x90\\x88\\xe7\\xba\\xa6/ArraysLibrary.sol\":900:923  Math.average(low, high) */\n      jump\t// in\n    tag_30:\n        /* \"\\xe5\\xba\\x93\\xe5\\x90\\x88\\xe7\\xba\\xa6/ArraysLibrary.sol\":886:923  uint256 mid = Math.average(low, high) */\n      swap1\n      pop\n        /* \"\\xe5\\xba\\x93\\xe5\\x90\\x88\\xe7\\xba\\xa6/ArraysLibrary.sol\":1141:1148  element */\n      dup5\n        /* \"\\xe5\\xba\\x93\\xe5\\x90\\x88\\xe7\\xba\\xa6/ArraysLibrary.sol\":1128:1133  array */\n      dup7\n        /* \"\\xe5\\xba\\x93\\xe5\\x90\\x88\\xe7\\xba\\xa6/ArraysLibrary.sol\":1134:1137  mid */\n      dup3\n        /* \"\\xe5\\xba\\x93\\xe5\\x90\\x88\\xe7\\xba\\xa6/ArraysLibrary.sol\":1128:1138  array[mid] */\n      dup2\n      sload\n      dup2\n      lt\n      tag_32\n      jumpi\n      tag_33\n      tag_34\n      jump\t// in\n    tag_33:\n    tag_32:\n      swap1\n      0x00\n      mstore\n      keccak256(0x00, 0x20)\n      add\n      sload\n        /* \"\\xe5\\xba\\x93\\xe5\\x90\\x88\\xe7\\xba\\xa6/ArraysLibrary.sol\":1128:1148  array[mid] > element */\n      gt\n        /* \"\\xe5\\xba\\x93\\xe5\\x90\\x88\\xe7\\xba\\xa6/ArraysLibrary.sol\":1124:1249  if (array[mid] > element) {... */\n      iszero\n      tag_36\n      jumpi\n        /* \"\\xe5\\xba\\x93\\xe5\\x90\\x88\\xe7\\xba\\xa6/ArraysLibrary.sol\":1176:1179  mid */\n      dup1\n        /* \"\\xe5\\xba\\x93\\xe5\\x90\\x88\\xe7\\xba\\xa6/ArraysLibrary.sol\":1169:1179  high = mid */\n      swap2\n      pop\n        /* \"\\xe5\\xba\\x93\\xe5\\x90\\x88\\xe7\\xba\\xa6/ArraysLibrary.sol\":1124:1249  if (array[mid] > element) {... */\n      jump(tag_37)\n    tag_36:\n        /* \"\\xe5\\xba\\x93\\xe5\\x90\\x88\\xe7\\xba\\xa6/ArraysLibrary.sol\":1232:1233  1 */\n      0x01\n        /* \"\\xe5\\xba\\x93\\xe5\\x90\\x88\\xe7\\xba\\xa6/ArraysLibrary.sol\":1226:1229  mid */\n      dup2\n        /* \"\\xe5\\xba\\x93\\xe5\\x90\\x88\\xe7\\xba\\xa6/ArraysLibrary.sol\":1226:1233  mid + 1 */\n      tag_38\n      swap2\n      swap1\n      tag_39\n      jump\t// in\n    tag_38:\n        /* \"\\xe5\\xba\\x93\\xe5\\x90\\x88\\xe7\\xba\\xa6/ArraysLibrary.sol\":1220:1233  low = mid + 1 */\n      swap3\n      pop\n        /* \"\\xe5\\xba\\x93\\xe5\\x90\\x88\\xe7\\xba\\xa6/ArraysLibrary.sol\":1124:1249  if (array[mid] > element) {... */\n    tag_37:\n        /* \"\\xe5\\xba\\x93\\xe5\\x90\\x88\\xe7\\xba\\xa6/ArraysLibrary.sol\":871:1260  {... */\n      pop\n        /* \"\\xe5\\xba\\x93\\xe5\\x90\\x88\\xe7\\xba\\xa6/ArraysLibrary.sol\":852:1260  while (low < high) {... */\n      jump(tag_28)\n    tag_29:\n        /* \"\\xe5\\xba\\x93\\xe5\\x90\\x88\\xe7\\xba\\xa6/ArraysLibrary.sol\":1362:1363  0 */\n      0x00\n        /* \"\\xe5\\xba\\x93\\xe5\\x90\\x88\\xe7\\xba\\xa6/ArraysLibrary.sol\":1356:1359  low */\n      dup3\n        /* \"\\xe5\\xba\\x93\\xe5\\x90\\x88\\xe7\\xba\\xa6/ArraysLibrary.sol\":1356:1363  low > 0 */\n      gt\n        /* \"\\xe5\\xba\\x93\\xe5\\x90\\x88\\xe7\\xba\\xa6/ArraysLibrary.sol\":1356:1392  low > 0 && array[low - 1] == element */\n      dup1\n      iszero\n      tag_40\n      jumpi\n      pop\n        /* \"\\xe5\\xba\\x93\\xe5\\x90\\x88\\xe7\\xba\\xa6/ArraysLibrary.sol\":1385:1392  element */\n      dup4\n        /* \"\\xe5\\xba\\x93\\xe5\\x90\\x88\\xe7\\xba\\xa6/ArraysLibrary.sol\":1367:1372  array */\n      dup6\n        /* \"\\xe5\\xba\\x93\\xe5\\x90\\x88\\xe7\\xba\\xa6/ArraysLibrary.sol\":1379:1380  1 */\n      0x01\n        /* \"\\xe5\\xba\\x93\\xe5\\x90\\x88\\xe7\\xba\\xa6/ArraysLibrary.sol\":1373:1376  low */\n      dup5\n        /* \"\\xe5\\xba\\x93\\xe5\\x90\\x88\\xe7\\xba\\xa6/ArraysLibrary.sol\":1373:1380  low - 1 */\n      tag_41\n      swap2\n      swap1\n      tag_42\n      jump\t// in\n    tag_41:\n        /* \"\\xe5\\xba\\x93\\xe5\\x90\\x88\\xe7\\xba\\xa6/ArraysLibrary.sol\":1367:1381  array[low - 1] */\n      dup2\n      sload\n      dup2\n      lt\n      tag_43\n      jumpi\n      tag_44\n      tag_34\n      jump\t// in\n    tag_44:\n    tag_43:\n      swap1\n      0x00\n      mstore\n      keccak256(0x00, 0x20)\n      add\n      sload\n        /* \"\\xe5\\xba\\x93\\xe5\\x90\\x88\\xe7\\xba\\xa6/ArraysLibrary.sol\":1367:1392  array[low - 1] == element */\n      eq\n        /* \"\\xe5\\xba\\x93\\xe5\\x90\\x88\\xe7\\xba\\xa6/ArraysLibrary.sol\":1356:1392  low > 0 && array[low - 1] == element */\n    tag_40:\n        /* \"\\xe5\\xba\\x93\\xe5\\x90\\x88\\xe7\\xba\\xa6/ArraysLibrary.sol\":1352:1478  if (low > 0 && array[low - 1] == element) {... */\n      iszero\n      tag_46\n      jumpi\n        /* \"\\xe5\\xba\\x93\\xe5\\x90\\x88\\xe7\\xba\\xa6/ArraysLibrary.sol\":1422:1423  1 */\n      0x01\n        /* \"\\xe5\\xba\\x93\\xe5\\x90\\x88\\xe7\\xba\\xa6/ArraysLibrary.sol\":1416:1419  low */\n      dup3\n        /* \"\\xe5\\xba\\x93\\xe5\\x90\\x88\\xe7\\xba\\xa6/ArraysLibrary.sol\":1416:1423  low - 1 */\n      tag_47\n      swap2\n      swap1\n      tag_42\n      jump\t// in\n    tag_47:\n        /* \"\\xe5\\xba\\x93\\xe5\\x90\\x88\\xe7\\xba\\xa6/ArraysLibrary.sol\":1409:1423  return low - 1 */\n      swap3\n      pop\n      pop\n      pop\n      jump(tag_26)\n        /* \"\\xe5\\xba\\x93\\xe5\\x90\\x88\\xe7\\xba\\xa6/ArraysLibrary.sol\":1352:1478  if (low > 0 && array[low - 1] == element) {... */\n    tag_46:\n        /* \"\\xe5\\xba\\x93\\xe5\\x90\\x88\\xe7\\xba\\xa6/ArraysLibrary.sol\":1463:1466  low */\n      dup2\n        /* \"\\xe5\\xba\\x93\\xe5\\x90\\x88\\xe7\\xba\\xa6/ArraysLibrary.sol\":1456:1466  return low */\n      swap3\n      pop\n      pop\n      pop\n        /* \"\\xe5\\xba\\x93\\xe5\\x90\\x88\\xe7\\xba\\xa6/ArraysLibrary.sol\":607:1485  function findUpperBound(uint256[] storage array, uint256 element) internal view returns (uint256) {... */\n    tag_26:\n      swap3\n      swap2\n      pop\n      pop\n      jump\t// out\n        /* \"\\xe5\\xba\\x93\\xe5\\x90\\x88\\xe7\\xba\\xa6/Math.sol\":673:829  function average(uint256 a, uint256 b) internal pure returns (uint256) {... */\n    tag_31:\n        /* \"\\xe5\\xba\\x93\\xe5\\x90\\x88\\xe7\\xba\\xa6/Math.sol\":735:742  uint256 */\n      0x00\n        /* \"\\xe5\\xba\\x93\\xe5\\x90\\x88\\xe7\\xba\\xa6/Math.sol\":820:821  2 */\n      0x02\n        /* \"\\xe5\\xba\\x93\\xe5\\x90\\x88\\xe7\\xba\\xa6/Math.sol\":815:816  b */\n      dup3\n        /* \"\\xe5\\xba\\x93\\xe5\\x90\\x88\\xe7\\xba\\xa6/Math.sol\":811:812  a */\n      dup5\n        /* \"\\xe5\\xba\\x93\\xe5\\x90\\x88\\xe7\\xba\\xa6/Math.sol\":811:816  a ^ b */\n      xor\n        /* \"\\xe5\\xba\\x93\\xe5\\x90\\x88\\xe7\\xba\\xa6/Math.sol\":810:821  (a ^ b) / 2 */\n      tag_50\n      swap2\n      swap1\n      tag_51\n      jump\t// in\n    tag_50:\n        /* \"\\xe5\\xba\\x93\\xe5\\x90\\x88\\xe7\\xba\\xa6/Math.sol\":805:806  b */\n      dup3\n        /* \"\\xe5\\xba\\x93\\xe5\\x90\\x88\\xe7\\xba\\xa6/Math.sol\":801:802  a */\n      dup5\n        /* \"\\xe5\\xba\\x93\\xe5\\x90\\x88\\xe7\\xba\\xa6/Math.sol\":801:806  a & b */\n      and\n        /* \"\\xe5\\xba\\x93\\xe5\\x90\\x88\\xe7\\xba\\xa6/Math.sol\":800:821  (a & b) + (a ^ b) / 2 */\n      tag_52\n      swap2\n      swap1\n      tag_39\n      jump\t// in\n    tag_52:\n        /* \"\\xe5\\xba\\x93\\xe5\\x90\\x88\\xe7\\xba\\xa6/Math.sol\":793:821  return (a & b) + (a ^ b) / 2 */\n      swap1\n      pop\n        /* \"\\xe5\\xba\\x93\\xe5\\x90\\x88\\xe7\\xba\\xa6/Math.sol\":673:829  function average(uint256 a, uint256 b) internal pure returns (uint256) {... */\n      swap3\n      swap2\n      pop\n      pop\n      jump\t// out\n        /* \"#utility.yul\":88:205   */\n    tag_54:\n        /* \"#utility.yul\":197:198   */\n      0x00\n        /* \"#utility.yul\":194:195   */\n      dup1\n        /* \"#utility.yul\":187:199   */\n      revert\n        /* \"#utility.yul\":334:411   */\n    tag_56:\n        /* \"#utility.yul\":371:378   */\n      0x00\n        /* \"#utility.yul\":400:405   */\n      dup2\n        /* \"#utility.yul\":389:405   */\n      swap1\n      pop\n        /* \"#utility.yul\":334:411   */\n      swap2\n      swap1\n      pop\n      jump\t// out\n        /* \"#utility.yul\":417:539   */\n    tag_57:\n        /* \"#utility.yul\":490:514   */\n      tag_68\n        /* \"#utility.yul\":508:513   */\n      dup2\n        /* \"#utility.yul\":490:514   */\n      tag_56\n      jump\t// in\n    tag_68:\n        /* \"#utility.yul\":483:488   */\n      dup2\n        /* \"#utility.yul\":480:515   */\n      eq\n        /* \"#utility.yul\":470:533   */\n      tag_69\n      jumpi\n        /* \"#utility.yul\":529:530   */\n      0x00\n        /* \"#utility.yul\":526:527   */\n      dup1\n        /* \"#utility.yul\":519:531   */\n      revert\n        /* \"#utility.yul\":470:533   */\n    tag_69:\n        /* \"#utility.yul\":417:539   */\n      pop\n      jump\t// out\n        /* \"#utility.yul\":545:684   */\n    tag_58:\n        /* \"#utility.yul\":591:596   */\n      0x00\n        /* \"#utility.yul\":629:635   */\n      dup2\n        /* \"#utility.yul\":616:636   */\n      calldataload\n        /* \"#utility.yul\":607:636   */\n      swap1\n      pop\n        /* \"#utility.yul\":645:678   */\n      tag_71\n        /* \"#utility.yul\":672:677   */\n      dup2\n        /* \"#utility.yul\":645:678   */\n      tag_57\n      jump\t// in\n    tag_71:\n        /* \"#utility.yul\":545:684   */\n      swap3\n      swap2\n      pop\n      pop\n      jump\t// out\n        /* \"#utility.yul\":690:1019   */\n    tag_8:\n        /* \"#utility.yul\":749:755   */\n      0x00\n        /* \"#utility.yul\":798:800   */\n      0x20\n        /* \"#utility.yul\":786:795   */\n      dup3\n        /* \"#utility.yul\":777:784   */\n      dup5\n        /* \"#utility.yul\":773:796   */\n      sub\n        /* \"#utility.yul\":769:801   */\n      slt\n        /* \"#utility.yul\":766:885   */\n      iszero\n      tag_73\n      jumpi\n        /* \"#utility.yul\":804:883   */\n      tag_74\n      tag_54\n      jump\t// in\n    tag_74:\n        /* \"#utility.yul\":766:885   */\n    tag_73:\n        /* \"#utility.yul\":924:925   */\n      0x00\n        /* \"#utility.yul\":949:1002   */\n      tag_75\n        /* \"#utility.yul\":994:1001   */\n      dup5\n        /* \"#utility.yul\":985:991   */\n      dup3\n        /* \"#utility.yul\":974:983   */\n      dup6\n        /* \"#utility.yul\":970:992   */\n      add\n        /* \"#utility.yul\":949:1002   */\n      tag_58\n      jump\t// in\n    tag_75:\n        /* \"#utility.yul\":939:1002   */\n      swap2\n      pop\n        /* \"#utility.yul\":895:1012   */\n      pop\n        /* \"#utility.yul\":690:1019   */\n      swap3\n      swap2\n      pop\n      pop\n      jump\t// out\n        /* \"#utility.yul\":1025:1143   */\n    tag_59:\n        /* \"#utility.yul\":1112:1136   */\n      tag_77\n        /* \"#utility.yul\":1130:1135   */\n      dup2\n        /* \"#utility.yul\":1112:1136   */\n      tag_56\n      jump\t// in\n    tag_77:\n        /* \"#utility.yul\":1107:1110   */\n      dup3\n        /* \"#utility.yul\":1100:1137   */\n      mstore\n        /* \"#utility.yul\":1025:1143   */\n      pop\n      pop\n      jump\t// out\n        /* \"#utility.yul\":1149:1371   */\n    tag_11:\n        /* \"#utility.yul\":1242:1246   */\n      0x00\n        /* \"#utility.yul\":1280:1282   */\n      0x20\n        /* \"#utility.yul\":1269:1278   */\n      dup3\n        /* \"#utility.yul\":1265:1283   */\n      add\n        /* \"#utility.yul\":1257:1283   */\n      swap1\n      pop\n        /* \"#utility.yul\":1293:1364   */\n      tag_79\n        /* \"#utility.yul\":1361:1362   */\n      0x00\n        /* \"#utility.yul\":1350:1359   */\n      dup4\n        /* \"#utility.yul\":1346:1363   */\n      add\n        /* \"#utility.yul\":1337:1343   */\n      dup5\n        /* \"#utility.yul\":1293:1364   */\n      tag_59\n      jump\t// in\n    tag_79:\n        /* \"#utility.yul\":1149:1371   */\n      swap3\n      swap2\n      pop\n      pop\n      jump\t// out\n        /* \"#utility.yul\":1377:1557   */\n    tag_34:\n        /* \"#utility.yul\":1425:1502   */\n      0x4e487b7100000000000000000000000000000000000000000000000000000000\n        /* \"#utility.yul\":1422:1423   */\n      0x00\n        /* \"#utility.yul\":1415:1503   */\n      mstore\n        /* \"#utility.yul\":1522:1526   */\n      0x32\n        /* \"#utility.yul\":1519:1520   */\n      0x04\n        /* \"#utility.yul\":1512:1527   */\n      mstore\n        /* \"#utility.yul\":1546:1550   */\n      0x24\n        /* \"#utility.yul\":1543:1544   */\n      0x00\n        /* \"#utility.yul\":1536:1551   */\n      revert\n        /* \"#utility.yul\":1563:1743   */\n    tag_60:\n        /* \"#utility.yul\":1611:1688   */\n      0x4e487b7100000000000000000000000000000000000000000000000000000000\n        /* \"#utility.yul\":1608:1609   */\n      0x00\n        /* \"#utility.yul\":1601:1689   */\n      mstore\n        /* \"#utility.yul\":1708:1712   */\n      0x11\n        /* \"#utility.yul\":1705:1706   */\n      0x04\n        /* \"#utility.yul\":1698:1713   */\n      mstore\n        /* \"#utility.yul\":1732:1736   */\n      0x24\n        /* \"#utility.yul\":1729:1730   */\n      0x00\n        /* \"#utility.yul\":1722:1737   */\n      revert\n        /* \"#utility.yul\":1749:1940   */\n    tag_39:\n        /* \"#utility.yul\":1789:1792   */\n      0x00\n        /* \"#utility.yul\":1808:1828   */\n      tag_83\n        /* \"#utility.yul\":1826:1827   */\n      dup3\n        /* \"#utility.yul\":1808:1828   */\n      tag_56\n      jump\t// in\n    tag_83:\n        /* \"#utility.yul\":1803:1828   */\n      swap2\n      pop\n        /* \"#utility.yul\":1842:1862   */\n      tag_84\n        /* \"#utility.yul\":1860:1861   */\n      dup4\n        /* \"#utility.yul\":1842:1862   */\n      tag_56\n      jump\t// in\n    tag_84:\n        /* \"#utility.yul\":1837:1862   */\n      swap3\n      pop\n        /* \"#utility.yul\":1885:1886   */\n      dup3\n        /* \"#utility.yul\":1882:1883   */\n      dup3\n        /* \"#utility.yul\":1878:1887   */\n      add\n        /* \"#utility.yul\":1871:1887   */\n      swap1\n      pop\n        /* \"#utility.yul\":1906:1909   */\n      dup1\n        /* \"#utility.yul\":1903:1904   */\n      dup3\n        /* \"#utility.yul\":1900:1910   */\n      gt\n        /* \"#utility.yul\":1897:1933   */\n      iszero\n      tag_85\n      jumpi\n        /* \"#utility.yul\":1913:1931   */\n      tag_86\n      tag_60\n      jump\t// in\n    tag_86:\n        /* \"#utility.yul\":1897:1933   */\n    tag_85:\n        /* \"#utility.yul\":1749:1940   */\n      swap3\n      swap2\n      pop\n      pop\n      jump\t// out\n        /* \"#utility.yul\":1946:2140   */\n    tag_42:\n        /* \"#utility.yul\":1986:1990   */\n      0x00\n        /* \"#utility.yul\":2006:2026   */\n      tag_88\n        /* \"#utility.yul\":2024:2025   */\n      dup3\n        /* \"#utility.yul\":2006:2026   */\n      tag_56\n      jump\t// in\n    tag_88:\n        /* \"#utility.yul\":2001:2026   */\n      swap2\n      pop\n        /* \"#utility.yul\":2040:2060   */\n      tag_89\n        /* \"#utility.yul\":2058:2059   */\n      dup4\n        /* \"#utility.yul\":2040:2060   */\n      tag_56\n      jump\t// in\n    tag_89:\n        /* \"#utility.yul\":2035:2060   */\n      swap3\n      pop\n        /* \"#utility.yul\":2084:2085   */\n      dup3\n        /* \"#utility.yul\":2081:2082   */\n      dup3\n        /* \"#utility.yul\":2077:2086   */\n      sub\n        /* \"#utility.yul\":2069:2086   */\n      swap1\n      pop\n        /* \"#utility.yul\":2108:2109   */\n      dup2\n        /* \"#utility.yul\":2102:2106   */\n      dup2\n        /* \"#utility.yul\":2099:2110   */\n      gt\n        /* \"#utility.yul\":2096:2133   */\n      iszero\n      tag_90\n      jumpi\n        /* \"#utility.yul\":2113:2131   */\n      tag_91\n      tag_60\n      jump\t// in\n    tag_91:\n        /* \"#utility.yul\":2096:2133   */\n    tag_90:\n        /* \"#utility.yul\":1946:2140   */\n      swap3\n      swap2\n      pop\n      pop\n      jump\t// out\n        /* \"#utility.yul\":2146:2326   */\n    tag_61:\n        /* \"#utility.yul\":2194:2271   */\n      0x4e487b7100000000000000000000000000000000000000000000000000000000\n        /* \"#utility.yul\":2191:2192   */\n      0x00\n        /* \"#utility.yul\":2184:2272   */\n      mstore\n        /* \"#utility.yul\":2291:2295   */\n      0x12\n        /* \"#utility.yul\":2288:2289   */\n      0x04\n        /* \"#utility.yul\":2281:2296   */\n      mstore\n        /* \"#utility.yul\":2315:2319   */\n      0x24\n        /* \"#utility.yul\":2312:2313   */\n      0x00\n        /* \"#utility.yul\":2305:2320   */\n      revert\n        /* \"#utility.yul\":2332:2517   */\n    tag_51:\n        /* \"#utility.yul\":2372:2373   */\n      0x00\n        /* \"#utility.yul\":2389:2409   */\n      tag_94\n        /* \"#utility.yul\":2407:2408   */\n      dup3\n        /* \"#utility.yul\":2389:2409   */\n      tag_56\n      jump\t// in\n    tag_94:\n        /* \"#utility.yul\":2384:2409   */\n      swap2\n      pop\n        /* \"#utility.yul\":2423:2443   */\n      tag_95\n        /* \"#utility.yul\":2441:2442   */\n      dup4\n        /* \"#utility.yul\":2423:2443   */\n      tag_56\n      jump\t// in\n    tag_95:\n        /* \"#utility.yul\":2418:2443   */\n      swap3\n      pop\n        /* \"#utility.yul\":2462:2463   */\n      dup3\n        /* \"#utility.yul\":2452:2487   */\n      tag_96\n      jumpi\n        /* \"#utility.yul\":2467:2485   */\n      tag_97\n      tag_61\n      jump\t// in\n    tag_97:\n        /* \"#utility.yul\":2452:2487   */\n    tag_96:\n        /* \"#utility.yul\":2509:2510   */\n      dup3\n        /* \"#utility.yul\":2506:2507   */\n      dup3\n        /* \"#utility.yul\":2502:2511   */\n      div\n        /* \"#utility.yul\":2497:2511   */\n      swap1\n      pop\n        /* \"#utility.yul\":2332:2517   */\n      swap3\n      swap2\n      pop\n      pop\n      jump\t// out\n\n    auxdata: 0xa26469706673582212204fb6597ce9d765e82703e47190293793d51f705dc28bd15172af05e6db4d4d5d64736f6c63430008110033\n}\n",
				"bytecode": {
					"linkReferences": {},
					"object": "608060405234801561001057600080fd5b50610413806100206000396000f3fe608060405234801561001057600080fd5b50600436106100415760003560e01c806333e3a58a14610046578063d39fa23314610076578063fce68023146100a6575b600080fd5b610060600480360381019061005b9190610260565b6100c2565b60405161006d919061029c565b60405180910390f35b610090600480360381019061008b9190610260565b6100d6565b60405161009d919061029c565b60405180910390f35b6100c060048036038101906100bb9190610260565b6100fa565b005b60006100cf600083610126565b9050919050565b600081815481106100e657600080fd5b906000526020600020016000915090505481565b600081908060018154018082558091505060019003906000526020600020016000909190919091505550565b60008083805490500361013c57600090506101f9565b600080848054905090505b808210156101a057600061015b83836101ff565b905084868281548110610171576101706102b7565b5b9060005260206000200154111561018a5780915061019a565b6001816101979190610315565b92505b50610147565b6000821180156101d8575083856001846101ba9190610349565b815481106101cb576101ca6102b7565b5b9060005260206000200154145b156101f3576001826101ea9190610349565b925050506101f9565b81925050505b92915050565b6000600282841861021091906103ac565b82841661021d9190610315565b905092915050565b600080fd5b6000819050919050565b61023d8161022a565b811461024857600080fd5b50565b60008135905061025a81610234565b92915050565b60006020828403121561027657610275610225565b5b60006102848482850161024b565b91505092915050565b6102968161022a565b82525050565b60006020820190506102b1600083018461028d565b92915050565b7f4e487b7100000000000000000000000000000000000000000000000000000000600052603260045260246000fd5b7f4e487b7100000000000000000000000000000000000000000000000000000000600052601160045260246000fd5b60006103208261022a565b915061032b8361022a565b9250828201905080821115610343576103426102e6565b5b92915050565b60006103548261022a565b915061035f8361022a565b9250828203905081811115610377576103766102e6565b5b92915050565b7f4e487b7100000000000000000000000000000000000000000000000000000000600052601260045260246000fd5b60006103b78261022a565b91506103c28361022a565b9250826103d2576103d161037d565b5b82820490509291505056fea26469706673582212204fb6597ce9d765e82703e47190293793d51f705dc28bd15172af05e6db4d4d5d64736f6c63430008110033",
					"opcodes": "PUSH1 0x80 PUSH1 0x40 MSTORE CALLVALUE DUP1 ISZERO PUSH2 0x10 JUMPI PUSH1 0x0 DUP1 REVERT JUMPDEST POP PUSH2 0x413 DUP1 PUSH2 0x20 PUSH1 0x0 CODECOPY PUSH1 0x0 RETURN INVALID PUSH1 0x80 PUSH1 0x40 MSTORE CALLVALUE DUP1 ISZERO PUSH2 0x10 JUMPI PUSH1 0x0 DUP1 REVERT JUMPDEST POP PUSH1 0x4 CALLDATASIZE LT PUSH2 0x41 JUMPI PUSH1 0x0 CALLDATALOAD PUSH1 0xE0 SHR DUP1 PUSH4 0x33E3A58A EQ PUSH2 0x46 JUMPI DUP1 PUSH4 0xD39FA233 EQ PUSH2 0x76 JUMPI DUP1 PUSH4 0xFCE68023 EQ PUSH2 0xA6 JUMPI JUMPDEST PUSH1 0x0 DUP1 REVERT JUMPDEST PUSH2 0x60 PUSH1 0x4 DUP1 CALLDATASIZE SUB DUP2 ADD SWAP1 PUSH2 0x5B SWAP2 SWAP1 PUSH2 0x260 JUMP JUMPDEST PUSH2 0xC2 JUMP JUMPDEST PUSH1 0x40 MLOAD PUSH2 0x6D SWAP2 SWAP1 PUSH2 0x29C JUMP JUMPDEST PUSH1 0x40 MLOAD DUP1 SWAP2 SUB SWAP1 RETURN JUMPDEST PUSH2 0x90 PUSH1 0x4 DUP1 CALLDATASIZE SUB DUP2 ADD SWAP1 PUSH2 0x8B SWAP2 SWAP1 PUSH2 0x260 JUMP JUMPDEST PUSH2 0xD6 JUMP JUMPDEST PUSH1 0x40 MLOAD PUSH2 0x9D SWAP2 SWAP1 PUSH2 0x29C JUMP JUMPDEST PUSH1 0x40 MLOAD DUP1 SWAP2 SUB SWAP1 RETURN JUMPDEST PUSH2 0xC0 PUSH1 0x4 DUP1 CALLDATASIZE SUB DUP2 ADD SWAP1 PUSH2 0xBB SWAP2 SWAP1 PUSH2 0x260 JUMP JUMPDEST PUSH2 0xFA JUMP JUMPDEST STOP JUMPDEST PUSH1 0x0 PUSH2 0xCF PUSH1 0x0 DUP4 PUSH2 0x126 JUMP JUMPDEST SWAP1 POP SWAP2 SWAP1 POP JUMP JUMPDEST PUSH1 0x0 DUP2 DUP2 SLOAD DUP2 LT PUSH2 0xE6 JUMPI PUSH1 0x0 DUP1 REVERT JUMPDEST SWAP1 PUSH1 0x0 MSTORE PUSH1 0x20 PUSH1 0x0 KECCAK256 ADD PUSH1 0x0 SWAP2 POP SWAP1 POP SLOAD DUP2 JUMP JUMPDEST PUSH1 0x0 DUP2 SWAP1 DUP1 PUSH1 0x1 DUP2 SLOAD ADD DUP1 DUP3 SSTORE DUP1 SWAP2 POP POP PUSH1 0x1 SWAP1 SUB SWAP1 PUSH1 0x0 MSTORE PUSH1 0x20 PUSH1 0x0 KECCAK256 ADD PUSH1 0x0 SWAP1 SWAP2 SWAP1 SWAP2 SWAP1 SWAP2 POP SSTORE POP JUMP JUMPDEST PUSH1 0x0 DUP1 DUP4 DUP1 SLOAD SWAP1 POP SUB PUSH2 0x13C JUMPI PUSH1 0x0 SWAP1 POP PUSH2 0x1F9 JUMP JUMPDEST PUSH1 0x0 DUP1 DUP5 DUP1 SLOAD SWAP1 POP SWAP1 POP JUMPDEST DUP1 DUP3 LT ISZERO PUSH2 0x1A0 JUMPI PUSH1 0x0 PUSH2 0x15B DUP4 DUP4 PUSH2 0x1FF JUMP JUMPDEST SWAP1 POP DUP5 DUP7 DUP3 DUP2 SLOAD DUP2 LT PUSH2 0x171 JUMPI PUSH2 0x170 PUSH2 0x2B7 JUMP JUMPDEST JUMPDEST SWAP1 PUSH1 0x0 MSTORE PUSH1 0x20 PUSH1 0x0 KECCAK256 ADD SLOAD GT ISZERO PUSH2 0x18A JUMPI DUP1 SWAP2 POP PUSH2 0x19A JUMP JUMPDEST PUSH1 0x1 DUP2 PUSH2 0x197 SWAP2 SWAP1 PUSH2 0x315 JUMP JUMPDEST SWAP3 POP JUMPDEST POP PUSH2 0x147 JUMP JUMPDEST PUSH1 0x0 DUP3 GT DUP1 ISZERO PUSH2 0x1D8 JUMPI POP DUP4 DUP6 PUSH1 0x1 DUP5 PUSH2 0x1BA SWAP2 SWAP1 PUSH2 0x349 JUMP JUMPDEST DUP2 SLOAD DUP2 LT PUSH2 0x1CB JUMPI PUSH2 0x1CA PUSH2 0x2B7 JUMP JUMPDEST JUMPDEST SWAP1 PUSH1 0x0 MSTORE PUSH1 0x20 PUSH1 0x0 KECCAK256 ADD SLOAD EQ JUMPDEST ISZERO PUSH2 0x1F3 JUMPI PUSH1 0x1 DUP3 PUSH2 0x1EA SWAP2 SWAP1 PUSH2 0x349 JUMP JUMPDEST SWAP3 POP POP POP PUSH2 0x1F9 JUMP JUMPDEST DUP2 SWAP3 POP POP POP JUMPDEST SWAP3 SWAP2 POP POP JUMP JUMPDEST PUSH1 0x0 PUSH1 0x2 DUP3 DUP5 XOR PUSH2 0x210 SWAP2 SWAP1 PUSH2 0x3AC JUMP JUMPDEST DUP3 DUP5 AND PUSH2 0x21D SWAP2 SWAP1 PUSH2 0x315 JUMP JUMPDEST SWAP1 POP SWAP3 SWAP2 POP POP JUMP JUMPDEST PUSH1 0x0 DUP1 REVERT JUMPDEST PUSH1 0x0 DUP2 SWAP1 POP SWAP2 SWAP1 POP JUMP JUMPDEST PUSH2 0x23D DUP2 PUSH2 0x22A JUMP JUMPDEST DUP2 EQ PUSH2 0x248 JUMPI PUSH1 0x0 DUP1 REVERT JUMPDEST POP JUMP JUMPDEST PUSH1 0x0 DUP2 CALLDATALOAD SWAP1 POP PUSH2 0x25A DUP2 PUSH2 0x234 JUMP JUMPDEST SWAP3 SWAP2 POP POP JUMP JUMPDEST PUSH1 0x0 PUSH1 0x20 DUP3 DUP5 SUB SLT ISZERO PUSH2 0x276 JUMPI PUSH2 0x275 PUSH2 0x225 JUMP JUMPDEST JUMPDEST PUSH1 0x0 PUSH2 0x284 DUP5 DUP3 DUP6 ADD PUSH2 0x24B JUMP JUMPDEST SWAP2 POP POP SWAP3 SWAP2 POP POP JUMP JUMPDEST PUSH2 0x296 DUP2 PUSH2 0x22A JUMP JUMPDEST DUP3 MSTORE POP POP JUMP JUMPDEST PUSH1 0x0 PUSH1 0x20 DUP3 ADD SWAP1 POP PUSH2 0x2B1 PUSH1 0x0 DUP4 ADD DUP5 PUSH2 0x28D JUMP JUMPDEST SWAP3 SWAP2 POP POP JUMP JUMPDEST PUSH32 0x4E487B7100000000000000000000000000000000000000000000000000000000 PUSH1 0x0 MSTORE PUSH1 0x32 PUSH1 0x4 MSTORE PUSH1 0x24 PUSH1 0x0 REVERT JUMPDEST PUSH32 0x4E487B7100000000000000000000000000000000000000000000000000000000 PUSH1 0x0 MSTORE PUSH1 0x11 PUSH1 0x4 MSTORE PUSH1 0x24 PUSH1 0x0 REVERT JUMPDEST PUSH1 0x0 PUSH2 0x320 DUP3 PUSH2 0x22A JUMP JUMPDEST SWAP2 POP PUSH2 0x32B DUP4 PUSH2 0x22A JUMP JUMPDEST SWAP3 POP DUP3 DUP3 ADD SWAP1 POP DUP1 DUP3 GT ISZERO PUSH2 0x343 JUMPI PUSH2 0x342 PUSH2 0x2E6 JUMP JUMPDEST JUMPDEST SWAP3 SWAP2 POP POP JUMP JUMPDEST PUSH1 0x0 PUSH2 0x354 DUP3 PUSH2 0x22A JUMP JUMPDEST SWAP2 POP PUSH2 0x35F DUP4 PUSH2 0x22A JUMP JUMPDEST SWAP3 POP DUP3 DUP3 SUB SWAP1 POP DUP2 DUP2 GT ISZERO PUSH2 0x377 JUMPI PUSH2 0x376 PUSH2 0x2E6 JUMP JUMPDEST JUMPDEST SWAP3 SWAP2 POP POP JUMP JUMPDEST PUSH32 0x4E487B7100000000000000000000000000000000000000000000000000000000 PUSH1 0x0 MSTORE PUSH1 0x12 PUSH1 0x4 MSTORE PUSH1 0x24 PUSH1 0x0 REVERT JUMPDEST PUSH1 0x0 PUSH2 0x3B7 DUP3 PUSH2 0x22A JUMP JUMPDEST SWAP2 POP PUSH2 0x3C2 DUP4 PUSH2 0x22A JUMP JUMPDEST SWAP3 POP DUP3 PUSH2 0x3D2 JUMPI PUSH2 0x3D1 PUSH2 0x37D JUMP JUMPDEST JUMPDEST DUP3 DUP3 DIV SWAP1 POP SWAP3 SWAP2 POP POP JUMP INVALID LOG2 PUSH5 0x6970667358 0x22 SLT KECCAK256 0x4F 0xB6 MSIZE PUSH29 0xE9D765E82703E47190293793D51F705DC28BD15172AF05E6DB4D4D5D64 PUSH20 0x6F6C634300081100330000000000000000000000 "
				},
				"gasEstimates": {
					"creation": {
						"codeDepositCost": "208600",
						"executionCost": "251",
						"totalCost": "208851"
					},
					"external": {
						"addNumber(uint256)": "46851",
						"findUpperBound(uint256)": "infinite",
						"numbers(uint256)": "infinite"
					}
				},
				"methodIdentifiers": {
					"addNumber(uint256)": "fce68023",
					"findUpperBound(uint256)": "33e3a58a",
					"numbers(uint256)": "d39fa233"
				}
			},
			"storageLayout": {
				"storage": [
					{
						"astId": 91,
						"contract": "库合约/ArraysLibrary.sol:ArraysExample",
						"label": "numbers",
						"offset": 0,
						"slot": "0",
						"type": "t_array(t_uint256)dyn_storage"
					}
				],
				"types": {
					"t_array(t_uint256)dyn_storage": {
						"base": "t_uint256",
						"encoding": "dynamic_array",
						"label": "uint256[]",
						"numberOfBytes": "32"
					},
					"t_uint256": {
						"encoding": "inplace",
						"label": "uint256",
						"numberOfBytes": "32"
					}
				}
			},
			"userdoc": {
				"kind": "user",
				"methods": {},
				"version": 1
			}
		}
	}
}