{
	"21.调用其他合约/OtherContract.sol": {
		"OtherContract": {
			"abi": [
				{
					"anonymous": false,
					"inputs": [
						{
							"indexed": false,
							"internalType": "uint256",
							"name": "amount",
							"type": "uint256"
						},
						{
							"indexed": false,
							"internalType": "uint256",
							"name": "gas",
							"type": "uint256"
						}
					],
					"name": "Log",
					"type": "event"
				},
				{
					"inputs": [],
					"name": "getBalance",
					"outputs": [
						{
							"internalType": "uint256",
							"name": "",
							"type": "uint256"
						}
					],
					"stateMutability": "view",
					"type": "function"
				},
				{
					"inputs": [],
					"name": "getX",
					"outputs": [
						{
							"internalType": "uint256",
							"name": "x",
							"type": "uint256"
						}
					],
					"stateMutability": "view",
					"type": "function"
				},
				{
					"inputs": [
						{
							"internalType": "uint256",
							"name": "x",
							"type": "uint256"
						}
					],
					"name": "setX",
					"outputs": [],
					"stateMutability": "payable",
					"type": "function"
				}
			],
			"devdoc": {
				"kind": "dev",
				"methods": {},
				"version": 1
			},
			"evm": {
				"assembly": "    /* \"21.\\xe8\\xb0\\x83\\xe7\\x94\\xa8\\xe5\\x85\\xb6\\xe4\\xbb\\x96\\xe5\\x90\\x88\\xe7\\xba\\xa6/OtherContract.sol\":244:903  contract OtherContract is IOtherContract {... */\n  mstore(0x40, 0x80)\n    /* \"21.\\xe8\\xb0\\x83\\xe7\\x94\\xa8\\xe5\\x85\\xb6\\xe4\\xbb\\x96\\xe5\\x90\\x88\\xe7\\xba\\xa6/OtherContract.sol\":313:314  0 */\n  0x00\n    /* \"21.\\xe8\\xb0\\x83\\xe7\\x94\\xa8\\xe5\\x85\\xb6\\xe4\\xbb\\x96\\xe5\\x90\\x88\\xe7\\xba\\xa6/OtherContract.sol\":292:314  uint256 private _x = 0 */\n  dup1\n  sstore\n    /* \"21.\\xe8\\xb0\\x83\\xe7\\x94\\xa8\\xe5\\x85\\xb6\\xe4\\xbb\\x96\\xe5\\x90\\x88\\xe7\\xba\\xa6/OtherContract.sol\":244:903  contract OtherContract is IOtherContract {... */\n  callvalue\n  dup1\n  iszero\n  tag_1\n  jumpi\n  0x00\n  dup1\n  revert\ntag_1:\n  pop\n  dataSize(sub_0)\n  dup1\n  dataOffset(sub_0)\n  0x00\n  codecopy\n  0x00\n  return\nstop\n\nsub_0: assembly {\n        /* \"21.\\xe8\\xb0\\x83\\xe7\\x94\\xa8\\xe5\\x85\\xb6\\xe4\\xbb\\x96\\xe5\\x90\\x88\\xe7\\xba\\xa6/OtherContract.sol\":244:903  contract OtherContract is IOtherContract {... */\n      mstore(0x40, 0x80)\n      jumpi(tag_1, lt(calldatasize, 0x04))\n      shr(0xe0, calldataload(0x00))\n      dup1\n      0x12065fe0\n      eq\n      tag_2\n      jumpi\n      dup1\n      0x4018d9aa\n      eq\n      tag_3\n      jumpi\n      dup1\n      0x5197c7aa\n      eq\n      tag_4\n      jumpi\n    tag_1:\n      0x00\n      dup1\n      revert\n        /* \"21.\\xe8\\xb0\\x83\\xe7\\x94\\xa8\\xe5\\x85\\xb6\\xe4\\xbb\\x96\\xe5\\x90\\x88\\xe7\\xba\\xa6/OtherContract.sol\":457:553  function getBalance() public view returns (uint) {... */\n    tag_2:\n      callvalue\n      dup1\n      iszero\n      tag_5\n      jumpi\n      0x00\n      dup1\n      revert\n    tag_5:\n      pop\n      tag_6\n      tag_7\n      jump\t// in\n    tag_6:\n      mload(0x40)\n      tag_8\n      swap2\n      swap1\n      tag_9\n      jump\t// in\n    tag_8:\n      mload(0x40)\n      dup1\n      swap2\n      sub\n      swap1\n      return\n        /* \"21.\\xe8\\xb0\\x83\\xe7\\x94\\xa8\\xe5\\x85\\xb6\\xe4\\xbb\\x96\\xe5\\x90\\x88\\xe7\\xba\\xa6/OtherContract.sol\":649:803  function setX(uint256 x) external payable {... */\n    tag_3:\n      tag_10\n      0x04\n      dup1\n      calldatasize\n      sub\n      dup2\n      add\n      swap1\n      tag_11\n      swap2\n      swap1\n      tag_12\n      jump\t// in\n    tag_11:\n      tag_13\n      jump\t// in\n    tag_10:\n      stop\n        /* \"21.\\xe8\\xb0\\x83\\xe7\\x94\\xa8\\xe5\\x85\\xb6\\xe4\\xbb\\x96\\xe5\\x90\\x88\\xe7\\xba\\xa6/OtherContract.sol\":828:900  function getX() external view returns (uint x) {... */\n    tag_4:\n      callvalue\n      dup1\n      iszero\n      tag_14\n      jumpi\n      0x00\n      dup1\n      revert\n    tag_14:\n      pop\n      tag_15\n      tag_16\n      jump\t// in\n    tag_15:\n      mload(0x40)\n      tag_17\n      swap2\n      swap1\n      tag_9\n      jump\t// in\n    tag_17:\n      mload(0x40)\n      dup1\n      swap2\n      sub\n      swap1\n      return\n        /* \"21.\\xe8\\xb0\\x83\\xe7\\x94\\xa8\\xe5\\x85\\xb6\\xe4\\xbb\\x96\\xe5\\x90\\x88\\xe7\\xba\\xa6/OtherContract.sol\":457:553  function getBalance() public view returns (uint) {... */\n    tag_7:\n        /* \"21.\\xe8\\xb0\\x83\\xe7\\x94\\xa8\\xe5\\x85\\xb6\\xe4\\xbb\\x96\\xe5\\x90\\x88\\xe7\\xba\\xa6/OtherContract.sol\":500:504  uint */\n      0x00\n        /* \"21.\\xe8\\xb0\\x83\\xe7\\x94\\xa8\\xe5\\x85\\xb6\\xe4\\xbb\\x96\\xe5\\x90\\x88\\xe7\\xba\\xa6/OtherContract.sol\":524:545  address(this).balance */\n      selfbalance\n        /* \"21.\\xe8\\xb0\\x83\\xe7\\x94\\xa8\\xe5\\x85\\xb6\\xe4\\xbb\\x96\\xe5\\x90\\x88\\xe7\\xba\\xa6/OtherContract.sol\":517:545  return address(this).balance */\n      swap1\n      pop\n        /* \"21.\\xe8\\xb0\\x83\\xe7\\x94\\xa8\\xe5\\x85\\xb6\\xe4\\xbb\\x96\\xe5\\x90\\x88\\xe7\\xba\\xa6/OtherContract.sol\":457:553  function getBalance() public view returns (uint) {... */\n      swap1\n      jump\t// out\n        /* \"21.\\xe8\\xb0\\x83\\xe7\\x94\\xa8\\xe5\\x85\\xb6\\xe4\\xbb\\x96\\xe5\\x90\\x88\\xe7\\xba\\xa6/OtherContract.sol\":649:803  function setX(uint256 x) external payable {... */\n    tag_13:\n        /* \"21.\\xe8\\xb0\\x83\\xe7\\x94\\xa8\\xe5\\x85\\xb6\\xe4\\xbb\\x96\\xe5\\x90\\x88\\xe7\\xba\\xa6/OtherContract.sol\":707:708  x */\n      dup1\n        /* \"21.\\xe8\\xb0\\x83\\xe7\\x94\\xa8\\xe5\\x85\\xb6\\xe4\\xbb\\x96\\xe5\\x90\\x88\\xe7\\xba\\xa6/OtherContract.sol\":702:704  _x */\n      0x00\n        /* \"21.\\xe8\\xb0\\x83\\xe7\\x94\\xa8\\xe5\\x85\\xb6\\xe4\\xbb\\x96\\xe5\\x90\\x88\\xe7\\xba\\xa6/OtherContract.sol\":702:708  _x = x */\n      dup2\n      swap1\n      sstore\n      pop\n        /* \"21.\\xe8\\xb0\\x83\\xe7\\x94\\xa8\\xe5\\x85\\xb6\\xe4\\xbb\\x96\\xe5\\x90\\x88\\xe7\\xba\\xa6/OtherContract.sol\":736:737  0 */\n      0x00\n        /* \"21.\\xe8\\xb0\\x83\\xe7\\x94\\xa8\\xe5\\x85\\xb6\\xe4\\xbb\\x96\\xe5\\x90\\x88\\xe7\\xba\\xa6/OtherContract.sol\":724:733  msg.value */\n      callvalue\n        /* \"21.\\xe8\\xb0\\x83\\xe7\\x94\\xa8\\xe5\\x85\\xb6\\xe4\\xbb\\x96\\xe5\\x90\\x88\\xe7\\xba\\xa6/OtherContract.sol\":724:737  msg.value > 0 */\n      gt\n        /* \"21.\\xe8\\xb0\\x83\\xe7\\x94\\xa8\\xe5\\x85\\xb6\\xe4\\xbb\\x96\\xe5\\x90\\x88\\xe7\\xba\\xa6/OtherContract.sol\":721:796  if(msg.value > 0) {... */\n      iszero\n      tag_20\n      jumpi\n        /* \"21.\\xe8\\xb0\\x83\\xe7\\x94\\xa8\\xe5\\x85\\xb6\\xe4\\xbb\\x96\\xe5\\x90\\x88\\xe7\\xba\\xa6/OtherContract.sol\":759:784  Log(msg.value, gasleft()) */\n      0xbd0faddf87043dd749c1b9d4dca8a12589b8cb5e2106832111ce23f219b14367\n        /* \"21.\\xe8\\xb0\\x83\\xe7\\x94\\xa8\\xe5\\x85\\xb6\\xe4\\xbb\\x96\\xe5\\x90\\x88\\xe7\\xba\\xa6/OtherContract.sol\":763:772  msg.value */\n      callvalue\n        /* \"21.\\xe8\\xb0\\x83\\xe7\\x94\\xa8\\xe5\\x85\\xb6\\xe4\\xbb\\x96\\xe5\\x90\\x88\\xe7\\xba\\xa6/OtherContract.sol\":774:783  gasleft() */\n      gas\n        /* \"21.\\xe8\\xb0\\x83\\xe7\\x94\\xa8\\xe5\\x85\\xb6\\xe4\\xbb\\x96\\xe5\\x90\\x88\\xe7\\xba\\xa6/OtherContract.sol\":759:784  Log(msg.value, gasleft()) */\n      mload(0x40)\n      tag_21\n      swap3\n      swap2\n      swap1\n      tag_22\n      jump\t// in\n    tag_21:\n      mload(0x40)\n      dup1\n      swap2\n      sub\n      swap1\n      log1\n        /* \"21.\\xe8\\xb0\\x83\\xe7\\x94\\xa8\\xe5\\x85\\xb6\\xe4\\xbb\\x96\\xe5\\x90\\x88\\xe7\\xba\\xa6/OtherContract.sol\":721:796  if(msg.value > 0) {... */\n    tag_20:\n        /* \"21.\\xe8\\xb0\\x83\\xe7\\x94\\xa8\\xe5\\x85\\xb6\\xe4\\xbb\\x96\\xe5\\x90\\x88\\xe7\\xba\\xa6/OtherContract.sol\":649:803  function setX(uint256 x) external payable {... */\n      pop\n      jump\t// out\n        /* \"21.\\xe8\\xb0\\x83\\xe7\\x94\\xa8\\xe5\\x85\\xb6\\xe4\\xbb\\x96\\xe5\\x90\\x88\\xe7\\xba\\xa6/OtherContract.sol\":828:900  function getX() external view returns (uint x) {... */\n    tag_16:\n        /* \"21.\\xe8\\xb0\\x83\\xe7\\x94\\xa8\\xe5\\x85\\xb6\\xe4\\xbb\\x96\\xe5\\x90\\x88\\xe7\\xba\\xa6/OtherContract.sol\":867:873  uint x */\n      0x00\n        /* \"21.\\xe8\\xb0\\x83\\xe7\\x94\\xa8\\xe5\\x85\\xb6\\xe4\\xbb\\x96\\xe5\\x90\\x88\\xe7\\xba\\xa6/OtherContract.sol\":890:892  _x */\n      dup1\n      sload\n        /* \"21.\\xe8\\xb0\\x83\\xe7\\x94\\xa8\\xe5\\x85\\xb6\\xe4\\xbb\\x96\\xe5\\x90\\x88\\xe7\\xba\\xa6/OtherContract.sol\":886:892  x = _x */\n      swap1\n      pop\n        /* \"21.\\xe8\\xb0\\x83\\xe7\\x94\\xa8\\xe5\\x85\\xb6\\xe4\\xbb\\x96\\xe5\\x90\\x88\\xe7\\xba\\xa6/OtherContract.sol\":828:900  function getX() external view returns (uint x) {... */\n      swap1\n      jump\t// out\n        /* \"#utility.yul\":7:84   */\n    tag_24:\n        /* \"#utility.yul\":44:51   */\n      0x00\n        /* \"#utility.yul\":73:78   */\n      dup2\n        /* \"#utility.yul\":62:78   */\n      swap1\n      pop\n        /* \"#utility.yul\":7:84   */\n      swap2\n      swap1\n      pop\n      jump\t// out\n        /* \"#utility.yul\":90:208   */\n    tag_25:\n        /* \"#utility.yul\":177:201   */\n      tag_34\n        /* \"#utility.yul\":195:200   */\n      dup2\n        /* \"#utility.yul\":177:201   */\n      tag_24\n      jump\t// in\n    tag_34:\n        /* \"#utility.yul\":172:175   */\n      dup3\n        /* \"#utility.yul\":165:202   */\n      mstore\n        /* \"#utility.yul\":90:208   */\n      pop\n      pop\n      jump\t// out\n        /* \"#utility.yul\":214:436   */\n    tag_9:\n        /* \"#utility.yul\":307:311   */\n      0x00\n        /* \"#utility.yul\":345:347   */\n      0x20\n        /* \"#utility.yul\":334:343   */\n      dup3\n        /* \"#utility.yul\":330:348   */\n      add\n        /* \"#utility.yul\":322:348   */\n      swap1\n      pop\n        /* \"#utility.yul\":358:429   */\n      tag_36\n        /* \"#utility.yul\":426:427   */\n      0x00\n        /* \"#utility.yul\":415:424   */\n      dup4\n        /* \"#utility.yul\":411:428   */\n      add\n        /* \"#utility.yul\":402:408   */\n      dup5\n        /* \"#utility.yul\":358:429   */\n      tag_25\n      jump\t// in\n    tag_36:\n        /* \"#utility.yul\":214:436   */\n      swap3\n      swap2\n      pop\n      pop\n      jump\t// out\n        /* \"#utility.yul\":523:640   */\n    tag_27:\n        /* \"#utility.yul\":632:633   */\n      0x00\n        /* \"#utility.yul\":629:630   */\n      dup1\n        /* \"#utility.yul\":622:634   */\n      revert\n        /* \"#utility.yul\":769:891   */\n    tag_29:\n        /* \"#utility.yul\":842:866   */\n      tag_41\n        /* \"#utility.yul\":860:865   */\n      dup2\n        /* \"#utility.yul\":842:866   */\n      tag_24\n      jump\t// in\n    tag_41:\n        /* \"#utility.yul\":835:840   */\n      dup2\n        /* \"#utility.yul\":832:867   */\n      eq\n        /* \"#utility.yul\":822:885   */\n      tag_42\n      jumpi\n        /* \"#utility.yul\":881:882   */\n      0x00\n        /* \"#utility.yul\":878:879   */\n      dup1\n        /* \"#utility.yul\":871:883   */\n      revert\n        /* \"#utility.yul\":822:885   */\n    tag_42:\n        /* \"#utility.yul\":769:891   */\n      pop\n      jump\t// out\n        /* \"#utility.yul\":897:1036   */\n    tag_30:\n        /* \"#utility.yul\":943:948   */\n      0x00\n        /* \"#utility.yul\":981:987   */\n      dup2\n        /* \"#utility.yul\":968:988   */\n      calldataload\n        /* \"#utility.yul\":959:988   */\n      swap1\n      pop\n        /* \"#utility.yul\":997:1030   */\n      tag_44\n        /* \"#utility.yul\":1024:1029   */\n      dup2\n        /* \"#utility.yul\":997:1030   */\n      tag_29\n      jump\t// in\n    tag_44:\n        /* \"#utility.yul\":897:1036   */\n      swap3\n      swap2\n      pop\n      pop\n      jump\t// out\n        /* \"#utility.yul\":1042:1371   */\n    tag_12:\n        /* \"#utility.yul\":1101:1107   */\n      0x00\n        /* \"#utility.yul\":1150:1152   */\n      0x20\n        /* \"#utility.yul\":1138:1147   */\n      dup3\n        /* \"#utility.yul\":1129:1136   */\n      dup5\n        /* \"#utility.yul\":1125:1148   */\n      sub\n        /* \"#utility.yul\":1121:1153   */\n      slt\n        /* \"#utility.yul\":1118:1237   */\n      iszero\n      tag_46\n      jumpi\n        /* \"#utility.yul\":1156:1235   */\n      tag_47\n      tag_27\n      jump\t// in\n    tag_47:\n        /* \"#utility.yul\":1118:1237   */\n    tag_46:\n        /* \"#utility.yul\":1276:1277   */\n      0x00\n        /* \"#utility.yul\":1301:1354   */\n      tag_48\n        /* \"#utility.yul\":1346:1353   */\n      dup5\n        /* \"#utility.yul\":1337:1343   */\n      dup3\n        /* \"#utility.yul\":1326:1335   */\n      dup6\n        /* \"#utility.yul\":1322:1344   */\n      add\n        /* \"#utility.yul\":1301:1354   */\n      tag_30\n      jump\t// in\n    tag_48:\n        /* \"#utility.yul\":1291:1354   */\n      swap2\n      pop\n        /* \"#utility.yul\":1247:1364   */\n      pop\n        /* \"#utility.yul\":1042:1371   */\n      swap3\n      swap2\n      pop\n      pop\n      jump\t// out\n        /* \"#utility.yul\":1377:1709   */\n    tag_22:\n        /* \"#utility.yul\":1498:1502   */\n      0x00\n        /* \"#utility.yul\":1536:1538   */\n      0x40\n        /* \"#utility.yul\":1525:1534   */\n      dup3\n        /* \"#utility.yul\":1521:1539   */\n      add\n        /* \"#utility.yul\":1513:1539   */\n      swap1\n      pop\n        /* \"#utility.yul\":1549:1620   */\n      tag_50\n        /* \"#utility.yul\":1617:1618   */\n      0x00\n        /* \"#utility.yul\":1606:1615   */\n      dup4\n        /* \"#utility.yul\":1602:1619   */\n      add\n        /* \"#utility.yul\":1593:1599   */\n      dup6\n        /* \"#utility.yul\":1549:1620   */\n      tag_25\n      jump\t// in\n    tag_50:\n        /* \"#utility.yul\":1630:1702   */\n      tag_51\n        /* \"#utility.yul\":1698:1700   */\n      0x20\n        /* \"#utility.yul\":1687:1696   */\n      dup4\n        /* \"#utility.yul\":1683:1701   */\n      add\n        /* \"#utility.yul\":1674:1680   */\n      dup5\n        /* \"#utility.yul\":1630:1702   */\n      tag_25\n      jump\t// in\n    tag_51:\n        /* \"#utility.yul\":1377:1709   */\n      swap4\n      swap3\n      pop\n      pop\n      pop\n      jump\t// out\n\n    auxdata: 0xa26469706673582212206b4156532bb231b6358270409953c4c90a9d2515d94408cd6d7b411f85dbc1d564736f6c63430008110033\n}\n",
				"bytecode": {
					"linkReferences": {},
					"object": "60806040526000805534801561001457600080fd5b506101fa806100246000396000f3fe6080604052600436106100345760003560e01c806312065fe0146100395780634018d9aa146100645780635197c7aa14610080575b600080fd5b34801561004557600080fd5b5061004e6100ab565b60405161005b9190610122565b60405180910390f35b61007e6004803603810190610079919061016e565b6100b3565b005b34801561008c57600080fd5b50610095610100565b6040516100a29190610122565b60405180910390f35b600047905090565b8060008190555060003411156100fd577fbd0faddf87043dd749c1b9d4dca8a12589b8cb5e2106832111ce23f219b14367345a6040516100f492919061019b565b60405180910390a15b50565b60008054905090565b6000819050919050565b61011c81610109565b82525050565b60006020820190506101376000830184610113565b92915050565b600080fd5b61014b81610109565b811461015657600080fd5b50565b60008135905061016881610142565b92915050565b6000602082840312156101845761018361013d565b5b600061019284828501610159565b91505092915050565b60006040820190506101b06000830185610113565b6101bd6020830184610113565b939250505056fea26469706673582212206b4156532bb231b6358270409953c4c90a9d2515d94408cd6d7b411f85dbc1d564736f6c63430008110033",
					"opcodes": "PUSH1 0x80 PUSH1 0x40 MSTORE PUSH1 0x0 DUP1 SSTORE CALLVALUE DUP1 ISZERO PUSH2 0x14 JUMPI PUSH1 0x0 DUP1 REVERT JUMPDEST POP PUSH2 0x1FA DUP1 PUSH2 0x24 PUSH1 0x0 CODECOPY PUSH1 0x0 RETURN INVALID PUSH1 0x80 PUSH1 0x40 MSTORE PUSH1 0x4 CALLDATASIZE LT PUSH2 0x34 JUMPI PUSH1 0x0 CALLDATALOAD PUSH1 0xE0 SHR DUP1 PUSH4 0x12065FE0 EQ PUSH2 0x39 JUMPI DUP1 PUSH4 0x4018D9AA EQ PUSH2 0x64 JUMPI DUP1 PUSH4 0x5197C7AA EQ PUSH2 0x80 JUMPI JUMPDEST PUSH1 0x0 DUP1 REVERT JUMPDEST CALLVALUE DUP1 ISZERO PUSH2 0x45 JUMPI PUSH1 0x0 DUP1 REVERT JUMPDEST POP PUSH2 0x4E PUSH2 0xAB JUMP JUMPDEST PUSH1 0x40 MLOAD PUSH2 0x5B SWAP2 SWAP1 PUSH2 0x122 JUMP JUMPDEST PUSH1 0x40 MLOAD DUP1 SWAP2 SUB SWAP1 RETURN JUMPDEST PUSH2 0x7E PUSH1 0x4 DUP1 CALLDATASIZE SUB DUP2 ADD SWAP1 PUSH2 0x79 SWAP2 SWAP1 PUSH2 0x16E JUMP JUMPDEST PUSH2 0xB3 JUMP JUMPDEST STOP JUMPDEST CALLVALUE DUP1 ISZERO PUSH2 0x8C JUMPI PUSH1 0x0 DUP1 REVERT JUMPDEST POP PUSH2 0x95 PUSH2 0x100 JUMP JUMPDEST PUSH1 0x40 MLOAD PUSH2 0xA2 SWAP2 SWAP1 PUSH2 0x122 JUMP JUMPDEST PUSH1 0x40 MLOAD DUP1 SWAP2 SUB SWAP1 RETURN JUMPDEST PUSH1 0x0 SELFBALANCE SWAP1 POP SWAP1 JUMP JUMPDEST DUP1 PUSH1 0x0 DUP2 SWAP1 SSTORE POP PUSH1 0x0 CALLVALUE GT ISZERO PUSH2 0xFD JUMPI PUSH32 0xBD0FADDF87043DD749C1B9D4DCA8A12589B8CB5E2106832111CE23F219B14367 CALLVALUE GAS PUSH1 0x40 MLOAD PUSH2 0xF4 SWAP3 SWAP2 SWAP1 PUSH2 0x19B JUMP JUMPDEST PUSH1 0x40 MLOAD DUP1 SWAP2 SUB SWAP1 LOG1 JUMPDEST POP JUMP JUMPDEST PUSH1 0x0 DUP1 SLOAD SWAP1 POP SWAP1 JUMP JUMPDEST PUSH1 0x0 DUP2 SWAP1 POP SWAP2 SWAP1 POP JUMP JUMPDEST PUSH2 0x11C DUP2 PUSH2 0x109 JUMP JUMPDEST DUP3 MSTORE POP POP JUMP JUMPDEST PUSH1 0x0 PUSH1 0x20 DUP3 ADD SWAP1 POP PUSH2 0x137 PUSH1 0x0 DUP4 ADD DUP5 PUSH2 0x113 JUMP JUMPDEST SWAP3 SWAP2 POP POP JUMP JUMPDEST PUSH1 0x0 DUP1 REVERT JUMPDEST PUSH2 0x14B DUP2 PUSH2 0x109 JUMP JUMPDEST DUP2 EQ PUSH2 0x156 JUMPI PUSH1 0x0 DUP1 REVERT JUMPDEST POP JUMP JUMPDEST PUSH1 0x0 DUP2 CALLDATALOAD SWAP1 POP PUSH2 0x168 DUP2 PUSH2 0x142 JUMP JUMPDEST SWAP3 SWAP2 POP POP JUMP JUMPDEST PUSH1 0x0 PUSH1 0x20 DUP3 DUP5 SUB SLT ISZERO PUSH2 0x184 JUMPI PUSH2 0x183 PUSH2 0x13D JUMP JUMPDEST JUMPDEST PUSH1 0x0 PUSH2 0x192 DUP5 DUP3 DUP6 ADD PUSH2 0x159 JUMP JUMPDEST SWAP2 POP POP SWAP3 SWAP2 POP POP JUMP JUMPDEST PUSH1 0x0 PUSH1 0x40 DUP3 ADD SWAP1 POP PUSH2 0x1B0 PUSH1 0x0 DUP4 ADD DUP6 PUSH2 0x113 JUMP JUMPDEST PUSH2 0x1BD PUSH1 0x20 DUP4 ADD DUP5 PUSH2 0x113 JUMP JUMPDEST SWAP4 SWAP3 POP POP POP JUMP INVALID LOG2 PUSH5 0x6970667358 0x22 SLT KECCAK256 PUSH12 0x4156532BB231B63582704099 MSTORE8 0xC4 0xC9 EXP SWAP14 0x25 ISZERO 0xD9 DIFFICULTY ADDMOD 0xCD PUSH14 0x7B411F85DBC1D564736F6C634300 ADDMOD GT STOP CALLER "
				},
				"gasEstimates": {
					"creation": {
						"codeDepositCost": "101200",
						"executionCost": "5153",
						"totalCost": "106353"
					},
					"external": {
						"getBalance()": "317",
						"getX()": "2459",
						"setX(uint256)": "infinite"
					}
				},
				"methodIdentifiers": {
					"getBalance()": "12065fe0",
					"getX()": "5197c7aa",
					"setX(uint256)": "4018d9aa"
				}
			},
			"storageLayout": {
				"storage": [
					{
						"astId": 22,
						"contract": "21.调用其他合约/OtherContract.sol:OtherContract",
						"label": "_x",
						"offset": 0,
						"slot": "0",
						"type": "t_uint256"
					}
				],
				"types": {
					"t_uint256": {
						"encoding": "inplace",
						"label": "uint256",
						"numberOfBytes": "32"
					}
				}
			},
			"userdoc": {
				"kind": "user",
				"methods": {},
				"version": 1
			}
		}
	}
}