{
	"accidence/5.变量数据存储和作用域/DataStorage.sol": {
		"Variables": {
			"abi": [
				{
					"inputs": [],
					"name": "foo",
					"outputs": [],
					"stateMutability": "nonpayable",
					"type": "function"
				},
				{
					"inputs": [],
					"name": "x",
					"outputs": [
						{
							"internalType": "uint256",
							"name": "",
							"type": "uint256"
						}
					],
					"stateMutability": "view",
					"type": "function"
				},
				{
					"inputs": [],
					"name": "y",
					"outputs": [
						{
							"internalType": "uint256",
							"name": "",
							"type": "uint256"
						}
					],
					"stateMutability": "view",
					"type": "function"
				},
				{
					"inputs": [],
					"name": "z",
					"outputs": [
						{
							"internalType": "string",
							"name": "",
							"type": "string"
						}
					],
					"stateMutability": "view",
					"type": "function"
				}
			],
			"devdoc": {
				"kind": "dev",
				"methods": {},
				"version": 1
			},
			"evm": {
				"assembly": "    /* \"accidence/5.\\xe5\\x8f\\x98\\xe9\\x87\\x8f\\xe6\\x95\\xb0\\xe6\\x8d\\xae\\xe5\\xad\\x98\\xe5\\x82\\xa8\\xe5\\x92\\x8c\\xe4\\xbd\\x9c\\xe7\\x94\\xa8\\xe5\\x9f\\x9f/DataStorage.sol\":946:1184  contract Variables {... */\n  mstore(0x40, 0x80)\n    /* \"accidence/5.\\xe5\\x8f\\x98\\xe9\\x87\\x8f\\xe6\\x95\\xb0\\xe6\\x8d\\xae\\xe5\\xad\\x98\\xe5\\x82\\xa8\\xe5\\x92\\x8c\\xe4\\xbd\\x9c\\xe7\\x94\\xa8\\xe5\\x9f\\x9f/DataStorage.sol\":988:989  1 */\n  0x01\n    /* \"accidence/5.\\xe5\\x8f\\x98\\xe9\\x87\\x8f\\xe6\\x95\\xb0\\xe6\\x8d\\xae\\xe5\\xad\\x98\\xe5\\x82\\xa8\\xe5\\x92\\x8c\\xe4\\xbd\\x9c\\xe7\\x94\\xa8\\xe5\\x9f\\x9f/DataStorage.sol\":972:989  uint public x = 1 */\n  0x00\n  sstore\n    /* \"accidence/5.\\xe5\\x8f\\x98\\xe9\\x87\\x8f\\xe6\\x95\\xb0\\xe6\\x8d\\xae\\xe5\\xad\\x98\\xe5\\x82\\xa8\\xe5\\x92\\x8c\\xe4\\xbd\\x9c\\xe7\\x94\\xa8\\xe5\\x9f\\x9f/DataStorage.sol\":946:1184  contract Variables {... */\n  callvalue\n  dup1\n  iszero\n  tag_1\n  jumpi\n  0x00\n  dup1\n  revert\ntag_1:\n  pop\n  dataSize(sub_0)\n  dup1\n  dataOffset(sub_0)\n  0x00\n  codecopy\n  0x00\n  return\nstop\n\nsub_0: assembly {\n        /* \"accidence/5.\\xe5\\x8f\\x98\\xe9\\x87\\x8f\\xe6\\x95\\xb0\\xe6\\x8d\\xae\\xe5\\xad\\x98\\xe5\\x82\\xa8\\xe5\\x92\\x8c\\xe4\\xbd\\x9c\\xe7\\x94\\xa8\\xe5\\x9f\\x9f/DataStorage.sol\":946:1184  contract Variables {... */\n      mstore(0x40, 0x80)\n      callvalue\n      dup1\n      iszero\n      tag_1\n      jumpi\n      0x00\n      dup1\n      revert\n    tag_1:\n      pop\n      jumpi(tag_2, lt(calldatasize, 0x04))\n      shr(0xe0, calldataload(0x00))\n      dup1\n      0x0c55699c\n      eq\n      tag_3\n      jumpi\n      dup1\n      0xa56dfe4a\n      eq\n      tag_4\n      jumpi\n      dup1\n      0xc2985578\n      eq\n      tag_5\n      jumpi\n      dup1\n      0xc5d7802e\n      eq\n      tag_6\n      jumpi\n    tag_2:\n      0x00\n      dup1\n      revert\n        /* \"accidence/5.\\xe5\\x8f\\x98\\xe9\\x87\\x8f\\xe6\\x95\\xb0\\xe6\\x8d\\xae\\xe5\\xad\\x98\\xe5\\x82\\xa8\\xe5\\x92\\x8c\\xe4\\xbd\\x9c\\xe7\\x94\\xa8\\xe5\\x9f\\x9f/DataStorage.sol\":972:989  uint public x = 1 */\n    tag_3:\n      tag_7\n      tag_8\n      jump\t// in\n    tag_7:\n      mload(0x40)\n      tag_9\n      swap2\n      swap1\n      tag_10\n      jump\t// in\n    tag_9:\n      mload(0x40)\n      dup1\n      swap2\n      sub\n      swap1\n      return\n        /* \"accidence/5.\\xe5\\x8f\\x98\\xe9\\x87\\x8f\\xe6\\x95\\xb0\\xe6\\x8d\\xae\\xe5\\xad\\x98\\xe5\\x82\\xa8\\xe5\\x92\\x8c\\xe4\\xbd\\x9c\\xe7\\x94\\xa8\\xe5\\x9f\\x9f/DataStorage.sol\":996:1009  uint public y */\n    tag_4:\n      tag_11\n      tag_12\n      jump\t// in\n    tag_11:\n      mload(0x40)\n      tag_13\n      swap2\n      swap1\n      tag_10\n      jump\t// in\n    tag_13:\n      mload(0x40)\n      dup1\n      swap2\n      sub\n      swap1\n      return\n        /* \"accidence/5.\\xe5\\x8f\\x98\\xe9\\x87\\x8f\\xe6\\x95\\xb0\\xe6\\x8d\\xae\\xe5\\xad\\x98\\xe5\\x82\\xa8\\xe5\\x92\\x8c\\xe4\\xbd\\x9c\\xe7\\x94\\xa8\\xe5\\x9f\\x9f/DataStorage.sol\":1040:1181  function foo() external {... */\n    tag_5:\n      tag_14\n      tag_15\n      jump\t// in\n    tag_14:\n      stop\n        /* \"accidence/5.\\xe5\\x8f\\x98\\xe9\\x87\\x8f\\xe6\\x95\\xb0\\xe6\\x8d\\xae\\xe5\\xad\\x98\\xe5\\x82\\xa8\\xe5\\x92\\x8c\\xe4\\xbd\\x9c\\xe7\\x94\\xa8\\xe5\\x9f\\x9f/DataStorage.sol\":1016:1031  string public z */\n    tag_6:\n      tag_16\n      tag_17\n      jump\t// in\n    tag_16:\n      mload(0x40)\n      tag_18\n      swap2\n      swap1\n      tag_19\n      jump\t// in\n    tag_18:\n      mload(0x40)\n      dup1\n      swap2\n      sub\n      swap1\n      return\n        /* \"accidence/5.\\xe5\\x8f\\x98\\xe9\\x87\\x8f\\xe6\\x95\\xb0\\xe6\\x8d\\xae\\xe5\\xad\\x98\\xe5\\x82\\xa8\\xe5\\x92\\x8c\\xe4\\xbd\\x9c\\xe7\\x94\\xa8\\xe5\\x9f\\x9f/DataStorage.sol\":972:989  uint public x = 1 */\n    tag_8:\n      sload(0x00)\n      dup2\n      jump\t// out\n        /* \"accidence/5.\\xe5\\x8f\\x98\\xe9\\x87\\x8f\\xe6\\x95\\xb0\\xe6\\x8d\\xae\\xe5\\xad\\x98\\xe5\\x82\\xa8\\xe5\\x92\\x8c\\xe4\\xbd\\x9c\\xe7\\x94\\xa8\\xe5\\x9f\\x9f/DataStorage.sol\":996:1009  uint public y */\n    tag_12:\n      sload(0x01)\n      dup2\n      jump\t// out\n        /* \"accidence/5.\\xe5\\x8f\\x98\\xe9\\x87\\x8f\\xe6\\x95\\xb0\\xe6\\x8d\\xae\\xe5\\xad\\x98\\xe5\\x82\\xa8\\xe5\\x92\\x8c\\xe4\\xbd\\x9c\\xe7\\x94\\xa8\\xe5\\x9f\\x9f/DataStorage.sol\":1040:1181  function foo() external {... */\n    tag_15:\n        /* \"accidence/5.\\xe5\\x8f\\x98\\xe9\\x87\\x8f\\xe6\\x95\\xb0\\xe6\\x8d\\xae\\xe5\\xad\\x98\\xe5\\x82\\xa8\\xe5\\x92\\x8c\\xe4\\xbd\\x9c\\xe7\\x94\\xa8\\xe5\\x9f\\x9f/DataStorage.sol\":1135:1136  5 */\n      0x05\n        /* \"accidence/5.\\xe5\\x8f\\x98\\xe9\\x87\\x8f\\xe6\\x95\\xb0\\xe6\\x8d\\xae\\xe5\\xad\\x98\\xe5\\x82\\xa8\\xe5\\x92\\x8c\\xe4\\xbd\\x9c\\xe7\\x94\\xa8\\xe5\\x9f\\x9f/DataStorage.sol\":1131:1132  x */\n      0x00\n        /* \"accidence/5.\\xe5\\x8f\\x98\\xe9\\x87\\x8f\\xe6\\x95\\xb0\\xe6\\x8d\\xae\\xe5\\xad\\x98\\xe5\\x82\\xa8\\xe5\\x92\\x8c\\xe4\\xbd\\x9c\\xe7\\x94\\xa8\\xe5\\x9f\\x9f/DataStorage.sol\":1131:1136  x = 5 */\n      dup2\n      swap1\n      sstore\n      pop\n        /* \"accidence/5.\\xe5\\x8f\\x98\\xe9\\x87\\x8f\\xe6\\x95\\xb0\\xe6\\x8d\\xae\\xe5\\xad\\x98\\xe5\\x82\\xa8\\xe5\\x92\\x8c\\xe4\\xbd\\x9c\\xe7\\x94\\xa8\\xe5\\x9f\\x9f/DataStorage.sol\":1151:1152  2 */\n      0x02\n        /* \"accidence/5.\\xe5\\x8f\\x98\\xe9\\x87\\x8f\\xe6\\x95\\xb0\\xe6\\x8d\\xae\\xe5\\xad\\x98\\xe5\\x82\\xa8\\xe5\\x92\\x8c\\xe4\\xbd\\x9c\\xe7\\x94\\xa8\\xe5\\x9f\\x9f/DataStorage.sol\":1147:1148  y */\n      0x01\n        /* \"accidence/5.\\xe5\\x8f\\x98\\xe9\\x87\\x8f\\xe6\\x95\\xb0\\xe6\\x8d\\xae\\xe5\\xad\\x98\\xe5\\x82\\xa8\\xe5\\x92\\x8c\\xe4\\xbd\\x9c\\xe7\\x94\\xa8\\xe5\\x9f\\x9f/DataStorage.sol\":1147:1152  y = 2 */\n      dup2\n      swap1\n      sstore\n      pop\n        /* \"accidence/5.\\xe5\\x8f\\x98\\xe9\\x87\\x8f\\xe6\\x95\\xb0\\xe6\\x8d\\xae\\xe5\\xad\\x98\\xe5\\x82\\xa8\\xe5\\x92\\x8c\\xe4\\xbd\\x9c\\xe7\\x94\\xa8\\xe5\\x9f\\x9f/DataStorage.sol\":1163:1173  z = \"0x5B\" */\n      mload(0x40)\n      dup1\n      0x40\n      add\n      0x40\n      mstore\n      dup1\n      0x04\n      dup2\n      mstore\n      0x20\n      add\n      0x3078354200000000000000000000000000000000000000000000000000000000\n      dup2\n      mstore\n      pop\n        /* \"accidence/5.\\xe5\\x8f\\x98\\xe9\\x87\\x8f\\xe6\\x95\\xb0\\xe6\\x8d\\xae\\xe5\\xad\\x98\\xe5\\x82\\xa8\\xe5\\x92\\x8c\\xe4\\xbd\\x9c\\xe7\\x94\\xa8\\xe5\\x9f\\x9f/DataStorage.sol\":1163:1164  z */\n      0x02\n        /* \"accidence/5.\\xe5\\x8f\\x98\\xe9\\x87\\x8f\\xe6\\x95\\xb0\\xe6\\x8d\\xae\\xe5\\xad\\x98\\xe5\\x82\\xa8\\xe5\\x92\\x8c\\xe4\\xbd\\x9c\\xe7\\x94\\xa8\\xe5\\x9f\\x9f/DataStorage.sol\":1163:1173  z = \"0x5B\" */\n      swap1\n      dup2\n      tag_21\n      swap2\n      swap1\n      tag_22\n      jump\t// in\n    tag_21:\n      pop\n        /* \"accidence/5.\\xe5\\x8f\\x98\\xe9\\x87\\x8f\\xe6\\x95\\xb0\\xe6\\x8d\\xae\\xe5\\xad\\x98\\xe5\\x82\\xa8\\xe5\\x92\\x8c\\xe4\\xbd\\x9c\\xe7\\x94\\xa8\\xe5\\x9f\\x9f/DataStorage.sol\":1040:1181  function foo() external {... */\n      jump\t// out\n        /* \"accidence/5.\\xe5\\x8f\\x98\\xe9\\x87\\x8f\\xe6\\x95\\xb0\\xe6\\x8d\\xae\\xe5\\xad\\x98\\xe5\\x82\\xa8\\xe5\\x92\\x8c\\xe4\\xbd\\x9c\\xe7\\x94\\xa8\\xe5\\x9f\\x9f/DataStorage.sol\":1016:1031  string public z */\n    tag_17:\n      0x02\n      dup1\n      sload\n      tag_23\n      swap1\n      tag_24\n      jump\t// in\n    tag_23:\n      dup1\n      0x1f\n      add\n      0x20\n      dup1\n      swap2\n      div\n      mul\n      0x20\n      add\n      mload(0x40)\n      swap1\n      dup2\n      add\n      0x40\n      mstore\n      dup1\n      swap3\n      swap2\n      swap1\n      dup2\n      dup2\n      mstore\n      0x20\n      add\n      dup3\n      dup1\n      sload\n      tag_25\n      swap1\n      tag_24\n      jump\t// in\n    tag_25:\n      dup1\n      iszero\n      tag_26\n      jumpi\n      dup1\n      0x1f\n      lt\n      tag_27\n      jumpi\n      0x0100\n      dup1\n      dup4\n      sload\n      div\n      mul\n      dup4\n      mstore\n      swap2\n      0x20\n      add\n      swap2\n      jump(tag_26)\n    tag_27:\n      dup3\n      add\n      swap2\n      swap1\n      0x00\n      mstore\n      keccak256(0x00, 0x20)\n      swap1\n    tag_28:\n      dup2\n      sload\n      dup2\n      mstore\n      swap1\n      0x01\n      add\n      swap1\n      0x20\n      add\n      dup1\n      dup4\n      gt\n      tag_28\n      jumpi\n      dup3\n      swap1\n      sub\n      0x1f\n      and\n      dup3\n      add\n      swap2\n    tag_26:\n      pop\n      pop\n      pop\n      pop\n      pop\n      dup2\n      jump\t// out\n        /* \"#utility.yul\":7:84   */\n    tag_29:\n        /* \"#utility.yul\":44:51   */\n      0x00\n        /* \"#utility.yul\":73:78   */\n      dup2\n        /* \"#utility.yul\":62:78   */\n      swap1\n      pop\n        /* \"#utility.yul\":7:84   */\n      swap2\n      swap1\n      pop\n      jump\t// out\n        /* \"#utility.yul\":90:208   */\n    tag_30:\n        /* \"#utility.yul\":177:201   */\n      tag_56\n        /* \"#utility.yul\":195:200   */\n      dup2\n        /* \"#utility.yul\":177:201   */\n      tag_29\n      jump\t// in\n    tag_56:\n        /* \"#utility.yul\":172:175   */\n      dup3\n        /* \"#utility.yul\":165:202   */\n      mstore\n        /* \"#utility.yul\":90:208   */\n      pop\n      pop\n      jump\t// out\n        /* \"#utility.yul\":214:436   */\n    tag_10:\n        /* \"#utility.yul\":307:311   */\n      0x00\n        /* \"#utility.yul\":345:347   */\n      0x20\n        /* \"#utility.yul\":334:343   */\n      dup3\n        /* \"#utility.yul\":330:348   */\n      add\n        /* \"#utility.yul\":322:348   */\n      swap1\n      pop\n        /* \"#utility.yul\":358:429   */\n      tag_58\n        /* \"#utility.yul\":426:427   */\n      0x00\n        /* \"#utility.yul\":415:424   */\n      dup4\n        /* \"#utility.yul\":411:428   */\n      add\n        /* \"#utility.yul\":402:408   */\n      dup5\n        /* \"#utility.yul\":358:429   */\n      tag_30\n      jump\t// in\n    tag_58:\n        /* \"#utility.yul\":214:436   */\n      swap3\n      swap2\n      pop\n      pop\n      jump\t// out\n        /* \"#utility.yul\":442:541   */\n    tag_31:\n        /* \"#utility.yul\":494:500   */\n      0x00\n        /* \"#utility.yul\":528:533   */\n      dup2\n        /* \"#utility.yul\":522:534   */\n      mload\n        /* \"#utility.yul\":512:534   */\n      swap1\n      pop\n        /* \"#utility.yul\":442:541   */\n      swap2\n      swap1\n      pop\n      jump\t// out\n        /* \"#utility.yul\":547:716   */\n    tag_32:\n        /* \"#utility.yul\":631:642   */\n      0x00\n        /* \"#utility.yul\":665:671   */\n      dup3\n        /* \"#utility.yul\":660:663   */\n      dup3\n        /* \"#utility.yul\":653:672   */\n      mstore\n        /* \"#utility.yul\":705:709   */\n      0x20\n        /* \"#utility.yul\":700:703   */\n      dup3\n        /* \"#utility.yul\":696:710   */\n      add\n        /* \"#utility.yul\":681:710   */\n      swap1\n      pop\n        /* \"#utility.yul\":547:716   */\n      swap3\n      swap2\n      pop\n      pop\n      jump\t// out\n        /* \"#utility.yul\":722:968   */\n    tag_33:\n        /* \"#utility.yul\":803:804   */\n      0x00\n        /* \"#utility.yul\":813:926   */\n    tag_62:\n        /* \"#utility.yul\":827:833   */\n      dup4\n        /* \"#utility.yul\":824:825   */\n      dup2\n        /* \"#utility.yul\":821:834   */\n      lt\n        /* \"#utility.yul\":813:926   */\n      iszero\n      tag_64\n      jumpi\n        /* \"#utility.yul\":912:913   */\n      dup1\n        /* \"#utility.yul\":907:910   */\n      dup3\n        /* \"#utility.yul\":903:914   */\n      add\n        /* \"#utility.yul\":897:915   */\n      mload\n        /* \"#utility.yul\":893:894   */\n      dup2\n        /* \"#utility.yul\":888:891   */\n      dup5\n        /* \"#utility.yul\":884:895   */\n      add\n        /* \"#utility.yul\":877:916   */\n      mstore\n        /* \"#utility.yul\":849:851   */\n      0x20\n        /* \"#utility.yul\":846:847   */\n      dup2\n        /* \"#utility.yul\":842:852   */\n      add\n        /* \"#utility.yul\":837:852   */\n      swap1\n      pop\n        /* \"#utility.yul\":813:926   */\n      jump(tag_62)\n    tag_64:\n        /* \"#utility.yul\":960:961   */\n      0x00\n        /* \"#utility.yul\":951:957   */\n      dup5\n        /* \"#utility.yul\":946:949   */\n      dup5\n        /* \"#utility.yul\":942:958   */\n      add\n        /* \"#utility.yul\":935:962   */\n      mstore\n        /* \"#utility.yul\":784:968   */\n      pop\n        /* \"#utility.yul\":722:968   */\n      pop\n      pop\n      pop\n      jump\t// out\n        /* \"#utility.yul\":974:1076   */\n    tag_34:\n        /* \"#utility.yul\":1015:1021   */\n      0x00\n        /* \"#utility.yul\":1066:1068   */\n      0x1f\n        /* \"#utility.yul\":1062:1069   */\n      not\n        /* \"#utility.yul\":1057:1059   */\n      0x1f\n        /* \"#utility.yul\":1050:1055   */\n      dup4\n        /* \"#utility.yul\":1046:1060   */\n      add\n        /* \"#utility.yul\":1042:1070   */\n      and\n        /* \"#utility.yul\":1032:1070   */\n      swap1\n      pop\n        /* \"#utility.yul\":974:1076   */\n      swap2\n      swap1\n      pop\n      jump\t// out\n        /* \"#utility.yul\":1082:1459   */\n    tag_35:\n        /* \"#utility.yul\":1170:1173   */\n      0x00\n        /* \"#utility.yul\":1198:1237   */\n      tag_67\n        /* \"#utility.yul\":1231:1236   */\n      dup3\n        /* \"#utility.yul\":1198:1237   */\n      tag_31\n      jump\t// in\n    tag_67:\n        /* \"#utility.yul\":1253:1324   */\n      tag_68\n        /* \"#utility.yul\":1317:1323   */\n      dup2\n        /* \"#utility.yul\":1312:1315   */\n      dup6\n        /* \"#utility.yul\":1253:1324   */\n      tag_32\n      jump\t// in\n    tag_68:\n        /* \"#utility.yul\":1246:1324   */\n      swap4\n      pop\n        /* \"#utility.yul\":1333:1398   */\n      tag_69\n        /* \"#utility.yul\":1391:1397   */\n      dup2\n        /* \"#utility.yul\":1386:1389   */\n      dup6\n        /* \"#utility.yul\":1379:1383   */\n      0x20\n        /* \"#utility.yul\":1372:1377   */\n      dup7\n        /* \"#utility.yul\":1368:1384   */\n      add\n        /* \"#utility.yul\":1333:1398   */\n      tag_33\n      jump\t// in\n    tag_69:\n        /* \"#utility.yul\":1423:1452   */\n      tag_70\n        /* \"#utility.yul\":1445:1451   */\n      dup2\n        /* \"#utility.yul\":1423:1452   */\n      tag_34\n      jump\t// in\n    tag_70:\n        /* \"#utility.yul\":1418:1421   */\n      dup5\n        /* \"#utility.yul\":1414:1453   */\n      add\n        /* \"#utility.yul\":1407:1453   */\n      swap2\n      pop\n        /* \"#utility.yul\":1174:1459   */\n      pop\n        /* \"#utility.yul\":1082:1459   */\n      swap3\n      swap2\n      pop\n      pop\n      jump\t// out\n        /* \"#utility.yul\":1465:1778   */\n    tag_19:\n        /* \"#utility.yul\":1578:1582   */\n      0x00\n        /* \"#utility.yul\":1616:1618   */\n      0x20\n        /* \"#utility.yul\":1605:1614   */\n      dup3\n        /* \"#utility.yul\":1601:1619   */\n      add\n        /* \"#utility.yul\":1593:1619   */\n      swap1\n      pop\n        /* \"#utility.yul\":1665:1674   */\n      dup2\n        /* \"#utility.yul\":1659:1663   */\n      dup2\n        /* \"#utility.yul\":1655:1675   */\n      sub\n        /* \"#utility.yul\":1651:1652   */\n      0x00\n        /* \"#utility.yul\":1640:1649   */\n      dup4\n        /* \"#utility.yul\":1636:1653   */\n      add\n        /* \"#utility.yul\":1629:1676   */\n      mstore\n        /* \"#utility.yul\":1693:1771   */\n      tag_72\n        /* \"#utility.yul\":1766:1770   */\n      dup2\n        /* \"#utility.yul\":1757:1763   */\n      dup5\n        /* \"#utility.yul\":1693:1771   */\n      tag_35\n      jump\t// in\n    tag_72:\n        /* \"#utility.yul\":1685:1771   */\n      swap1\n      pop\n        /* \"#utility.yul\":1465:1778   */\n      swap3\n      swap2\n      pop\n      pop\n      jump\t// out\n        /* \"#utility.yul\":1784:1964   */\n    tag_36:\n        /* \"#utility.yul\":1832:1909   */\n      0x4e487b7100000000000000000000000000000000000000000000000000000000\n        /* \"#utility.yul\":1829:1830   */\n      0x00\n        /* \"#utility.yul\":1822:1910   */\n      mstore\n        /* \"#utility.yul\":1929:1933   */\n      0x41\n        /* \"#utility.yul\":1926:1927   */\n      0x04\n        /* \"#utility.yul\":1919:1934   */\n      mstore\n        /* \"#utility.yul\":1953:1957   */\n      0x24\n        /* \"#utility.yul\":1950:1951   */\n      0x00\n        /* \"#utility.yul\":1943:1958   */\n      revert\n        /* \"#utility.yul\":1970:2150   */\n    tag_37:\n        /* \"#utility.yul\":2018:2095   */\n      0x4e487b7100000000000000000000000000000000000000000000000000000000\n        /* \"#utility.yul\":2015:2016   */\n      0x00\n        /* \"#utility.yul\":2008:2096   */\n      mstore\n        /* \"#utility.yul\":2115:2119   */\n      0x22\n        /* \"#utility.yul\":2112:2113   */\n      0x04\n        /* \"#utility.yul\":2105:2120   */\n      mstore\n        /* \"#utility.yul\":2139:2143   */\n      0x24\n        /* \"#utility.yul\":2136:2137   */\n      0x00\n        /* \"#utility.yul\":2129:2144   */\n      revert\n        /* \"#utility.yul\":2156:2476   */\n    tag_24:\n        /* \"#utility.yul\":2200:2206   */\n      0x00\n        /* \"#utility.yul\":2237:2238   */\n      0x02\n        /* \"#utility.yul\":2231:2235   */\n      dup3\n        /* \"#utility.yul\":2227:2239   */\n      div\n        /* \"#utility.yul\":2217:2239   */\n      swap1\n      pop\n        /* \"#utility.yul\":2284:2285   */\n      0x01\n        /* \"#utility.yul\":2278:2282   */\n      dup3\n        /* \"#utility.yul\":2274:2286   */\n      and\n        /* \"#utility.yul\":2305:2323   */\n      dup1\n        /* \"#utility.yul\":2295:2376   */\n      tag_76\n      jumpi\n        /* \"#utility.yul\":2361:2365   */\n      0x7f\n        /* \"#utility.yul\":2353:2359   */\n      dup3\n        /* \"#utility.yul\":2349:2366   */\n      and\n        /* \"#utility.yul\":2339:2366   */\n      swap2\n      pop\n        /* \"#utility.yul\":2295:2376   */\n    tag_76:\n        /* \"#utility.yul\":2423:2425   */\n      0x20\n        /* \"#utility.yul\":2415:2421   */\n      dup3\n        /* \"#utility.yul\":2412:2426   */\n      lt\n        /* \"#utility.yul\":2392:2410   */\n      dup2\n        /* \"#utility.yul\":2389:2427   */\n      sub\n        /* \"#utility.yul\":2386:2470   */\n      tag_77\n      jumpi\n        /* \"#utility.yul\":2442:2460   */\n      tag_78\n      tag_37\n      jump\t// in\n    tag_78:\n        /* \"#utility.yul\":2386:2470   */\n    tag_77:\n        /* \"#utility.yul\":2207:2476   */\n      pop\n        /* \"#utility.yul\":2156:2476   */\n      swap2\n      swap1\n      pop\n      jump\t// out\n        /* \"#utility.yul\":2482:2623   */\n    tag_38:\n        /* \"#utility.yul\":2531:2535   */\n      0x00\n        /* \"#utility.yul\":2554:2557   */\n      dup2\n        /* \"#utility.yul\":2546:2557   */\n      swap1\n      pop\n        /* \"#utility.yul\":2577:2580   */\n      dup2\n        /* \"#utility.yul\":2574:2575   */\n      0x00\n        /* \"#utility.yul\":2567:2581   */\n      mstore\n        /* \"#utility.yul\":2611:2615   */\n      0x20\n        /* \"#utility.yul\":2608:2609   */\n      0x00\n        /* \"#utility.yul\":2598:2616   */\n      keccak256\n        /* \"#utility.yul\":2590:2616   */\n      swap1\n      pop\n        /* \"#utility.yul\":2482:2623   */\n      swap2\n      swap1\n      pop\n      jump\t// out\n        /* \"#utility.yul\":2629:2722   */\n    tag_39:\n        /* \"#utility.yul\":2666:2672   */\n      0x00\n        /* \"#utility.yul\":2713:2715   */\n      0x20\n        /* \"#utility.yul\":2708:2710   */\n      0x1f\n        /* \"#utility.yul\":2701:2706   */\n      dup4\n        /* \"#utility.yul\":2697:2711   */\n      add\n        /* \"#utility.yul\":2693:2716   */\n      div\n        /* \"#utility.yul\":2683:2716   */\n      swap1\n      pop\n        /* \"#utility.yul\":2629:2722   */\n      swap2\n      swap1\n      pop\n      jump\t// out\n        /* \"#utility.yul\":2728:2835   */\n    tag_40:\n        /* \"#utility.yul\":2772:2780   */\n      0x00\n        /* \"#utility.yul\":2822:2827   */\n      dup3\n        /* \"#utility.yul\":2816:2820   */\n      dup3\n        /* \"#utility.yul\":2812:2828   */\n      shl\n        /* \"#utility.yul\":2791:2828   */\n      swap1\n      pop\n        /* \"#utility.yul\":2728:2835   */\n      swap3\n      swap2\n      pop\n      pop\n      jump\t// out\n        /* \"#utility.yul\":2841:3234   */\n    tag_41:\n        /* \"#utility.yul\":2910:2916   */\n      0x00\n        /* \"#utility.yul\":2960:2961   */\n      0x08\n        /* \"#utility.yul\":2948:2958   */\n      dup4\n        /* \"#utility.yul\":2944:2962   */\n      mul\n        /* \"#utility.yul\":2983:3080   */\n      tag_83\n        /* \"#utility.yul\":3013:3079   */\n      0xffffffffffffffffffffffffffffffffffffffffffffffffffffffffffffffff\n        /* \"#utility.yul\":3002:3011   */\n      dup3\n        /* \"#utility.yul\":2983:3080   */\n      tag_40\n      jump\t// in\n    tag_83:\n        /* \"#utility.yul\":3101:3140   */\n      tag_84\n        /* \"#utility.yul\":3131:3139   */\n      dup7\n        /* \"#utility.yul\":3120:3129   */\n      dup4\n        /* \"#utility.yul\":3101:3140   */\n      tag_40\n      jump\t// in\n    tag_84:\n        /* \"#utility.yul\":3089:3140   */\n      swap6\n      pop\n        /* \"#utility.yul\":3173:3177   */\n      dup1\n        /* \"#utility.yul\":3169:3178   */\n      not\n        /* \"#utility.yul\":3162:3167   */\n      dup5\n        /* \"#utility.yul\":3158:3179   */\n      and\n        /* \"#utility.yul\":3149:3179   */\n      swap4\n      pop\n        /* \"#utility.yul\":3222:3226   */\n      dup1\n        /* \"#utility.yul\":3212:3220   */\n      dup7\n        /* \"#utility.yul\":3208:3227   */\n      and\n        /* \"#utility.yul\":3201:3206   */\n      dup5\n        /* \"#utility.yul\":3198:3228   */\n      or\n        /* \"#utility.yul\":3188:3228   */\n      swap3\n      pop\n        /* \"#utility.yul\":2917:3234   */\n      pop\n      pop\n        /* \"#utility.yul\":2841:3234   */\n      swap4\n      swap3\n      pop\n      pop\n      pop\n      jump\t// out\n        /* \"#utility.yul\":3240:3300   */\n    tag_42:\n        /* \"#utility.yul\":3268:3271   */\n      0x00\n        /* \"#utility.yul\":3289:3294   */\n      dup2\n        /* \"#utility.yul\":3282:3294   */\n      swap1\n      pop\n        /* \"#utility.yul\":3240:3300   */\n      swap2\n      swap1\n      pop\n      jump\t// out\n        /* \"#utility.yul\":3306:3448   */\n    tag_43:\n        /* \"#utility.yul\":3356:3365   */\n      0x00\n        /* \"#utility.yul\":3389:3442   */\n      tag_87\n        /* \"#utility.yul\":3407:3441   */\n      tag_88\n        /* \"#utility.yul\":3416:3440   */\n      tag_89\n        /* \"#utility.yul\":3434:3439   */\n      dup5\n        /* \"#utility.yul\":3416:3440   */\n      tag_29\n      jump\t// in\n    tag_89:\n        /* \"#utility.yul\":3407:3441   */\n      tag_42\n      jump\t// in\n    tag_88:\n        /* \"#utility.yul\":3389:3442   */\n      tag_29\n      jump\t// in\n    tag_87:\n        /* \"#utility.yul\":3376:3442   */\n      swap1\n      pop\n        /* \"#utility.yul\":3306:3448   */\n      swap2\n      swap1\n      pop\n      jump\t// out\n        /* \"#utility.yul\":3454:3529   */\n    tag_44:\n        /* \"#utility.yul\":3497:3500   */\n      0x00\n        /* \"#utility.yul\":3518:3523   */\n      dup2\n        /* \"#utility.yul\":3511:3523   */\n      swap1\n      pop\n        /* \"#utility.yul\":3454:3529   */\n      swap2\n      swap1\n      pop\n      jump\t// out\n        /* \"#utility.yul\":3535:3804   */\n    tag_45:\n        /* \"#utility.yul\":3645:3684   */\n      tag_92\n        /* \"#utility.yul\":3676:3683   */\n      dup4\n        /* \"#utility.yul\":3645:3684   */\n      tag_43\n      jump\t// in\n    tag_92:\n        /* \"#utility.yul\":3706:3797   */\n      tag_93\n        /* \"#utility.yul\":3755:3796   */\n      tag_94\n        /* \"#utility.yul\":3779:3795   */\n      dup3\n        /* \"#utility.yul\":3755:3796   */\n      tag_44\n      jump\t// in\n    tag_94:\n        /* \"#utility.yul\":3747:3753   */\n      dup5\n        /* \"#utility.yul\":3740:3744   */\n      dup5\n        /* \"#utility.yul\":3734:3745   */\n      sload\n        /* \"#utility.yul\":3706:3797   */\n      tag_41\n      jump\t// in\n    tag_93:\n        /* \"#utility.yul\":3700:3704   */\n      dup3\n        /* \"#utility.yul\":3693:3798   */\n      sstore\n        /* \"#utility.yul\":3611:3804   */\n      pop\n        /* \"#utility.yul\":3535:3804   */\n      pop\n      pop\n      pop\n      jump\t// out\n        /* \"#utility.yul\":3810:3883   */\n    tag_46:\n        /* \"#utility.yul\":3855:3858   */\n      0x00\n        /* \"#utility.yul\":3810:3883   */\n      swap1\n      jump\t// out\n        /* \"#utility.yul\":3889:4078   */\n    tag_47:\n        /* \"#utility.yul\":3966:3998   */\n      tag_97\n      tag_46\n      jump\t// in\n    tag_97:\n        /* \"#utility.yul\":4007:4072   */\n      tag_98\n        /* \"#utility.yul\":4065:4071   */\n      dup2\n        /* \"#utility.yul\":4057:4063   */\n      dup5\n        /* \"#utility.yul\":4051:4055   */\n      dup5\n        /* \"#utility.yul\":4007:4072   */\n      tag_45\n      jump\t// in\n    tag_98:\n        /* \"#utility.yul\":3942:4078   */\n      pop\n        /* \"#utility.yul\":3889:4078   */\n      pop\n      pop\n      jump\t// out\n        /* \"#utility.yul\":4084:4270   */\n    tag_48:\n        /* \"#utility.yul\":4144:4264   */\n    tag_100:\n        /* \"#utility.yul\":4161:4164   */\n      dup2\n        /* \"#utility.yul\":4154:4159   */\n      dup2\n        /* \"#utility.yul\":4151:4165   */\n      lt\n        /* \"#utility.yul\":4144:4264   */\n      iszero\n      tag_102\n      jumpi\n        /* \"#utility.yul\":4215:4254   */\n      tag_103\n        /* \"#utility.yul\":4252:4253   */\n      0x00\n        /* \"#utility.yul\":4245:4250   */\n      dup3\n        /* \"#utility.yul\":4215:4254   */\n      tag_47\n      jump\t// in\n    tag_103:\n        /* \"#utility.yul\":4188:4189   */\n      0x01\n        /* \"#utility.yul\":4181:4186   */\n      dup2\n        /* \"#utility.yul\":4177:4190   */\n      add\n        /* \"#utility.yul\":4168:4190   */\n      swap1\n      pop\n        /* \"#utility.yul\":4144:4264   */\n      jump(tag_100)\n    tag_102:\n        /* \"#utility.yul\":4084:4270   */\n      pop\n      pop\n      jump\t// out\n        /* \"#utility.yul\":4276:4819   */\n    tag_49:\n        /* \"#utility.yul\":4377:4379   */\n      0x1f\n        /* \"#utility.yul\":4372:4375   */\n      dup3\n        /* \"#utility.yul\":4369:4380   */\n      gt\n        /* \"#utility.yul\":4366:4812   */\n      iszero\n      tag_105\n      jumpi\n        /* \"#utility.yul\":4411:4449   */\n      tag_106\n        /* \"#utility.yul\":4443:4448   */\n      dup2\n        /* \"#utility.yul\":4411:4449   */\n      tag_38\n      jump\t// in\n    tag_106:\n        /* \"#utility.yul\":4495:4524   */\n      tag_107\n        /* \"#utility.yul\":4513:4523   */\n      dup5\n        /* \"#utility.yul\":4495:4524   */\n      tag_39\n      jump\t// in\n    tag_107:\n        /* \"#utility.yul\":4485:4493   */\n      dup2\n        /* \"#utility.yul\":4481:4525   */\n      add\n        /* \"#utility.yul\":4678:4680   */\n      0x20\n        /* \"#utility.yul\":4666:4676   */\n      dup6\n        /* \"#utility.yul\":4663:4681   */\n      lt\n        /* \"#utility.yul\":4660:4709   */\n      iszero\n      tag_108\n      jumpi\n        /* \"#utility.yul\":4699:4707   */\n      dup2\n        /* \"#utility.yul\":4684:4707   */\n      swap1\n      pop\n        /* \"#utility.yul\":4660:4709   */\n    tag_108:\n        /* \"#utility.yul\":4722:4802   */\n      tag_109\n        /* \"#utility.yul\":4778:4800   */\n      tag_110\n        /* \"#utility.yul\":4796:4799   */\n      dup6\n        /* \"#utility.yul\":4778:4800   */\n      tag_39\n      jump\t// in\n    tag_110:\n        /* \"#utility.yul\":4768:4776   */\n      dup4\n        /* \"#utility.yul\":4764:4801   */\n      add\n        /* \"#utility.yul\":4751:4762   */\n      dup3\n        /* \"#utility.yul\":4722:4802   */\n      tag_48\n      jump\t// in\n    tag_109:\n        /* \"#utility.yul\":4381:4812   */\n      pop\n      pop\n        /* \"#utility.yul\":4366:4812   */\n    tag_105:\n        /* \"#utility.yul\":4276:4819   */\n      pop\n      pop\n      pop\n      jump\t// out\n        /* \"#utility.yul\":4825:4942   */\n    tag_50:\n        /* \"#utility.yul\":4879:4887   */\n      0x00\n        /* \"#utility.yul\":4929:4934   */\n      dup3\n        /* \"#utility.yul\":4923:4927   */\n      dup3\n        /* \"#utility.yul\":4919:4935   */\n      shr\n        /* \"#utility.yul\":4898:4935   */\n      swap1\n      pop\n        /* \"#utility.yul\":4825:4942   */\n      swap3\n      swap2\n      pop\n      pop\n      jump\t// out\n        /* \"#utility.yul\":4948:5117   */\n    tag_51:\n        /* \"#utility.yul\":4992:4998   */\n      0x00\n        /* \"#utility.yul\":5025:5076   */\n      tag_113\n        /* \"#utility.yul\":5073:5074   */\n      0x00\n        /* \"#utility.yul\":5069:5075   */\n      not\n        /* \"#utility.yul\":5061:5066   */\n      dup5\n        /* \"#utility.yul\":5058:5059   */\n      0x08\n        /* \"#utility.yul\":5054:5067   */\n      mul\n        /* \"#utility.yul\":5025:5076   */\n      tag_50\n      jump\t// in\n    tag_113:\n        /* \"#utility.yul\":5021:5077   */\n      not\n        /* \"#utility.yul\":5106:5110   */\n      dup1\n        /* \"#utility.yul\":5100:5104   */\n      dup4\n        /* \"#utility.yul\":5096:5111   */\n      and\n        /* \"#utility.yul\":5086:5111   */\n      swap2\n      pop\n        /* \"#utility.yul\":4999:5117   */\n      pop\n        /* \"#utility.yul\":4948:5117   */\n      swap3\n      swap2\n      pop\n      pop\n      jump\t// out\n        /* \"#utility.yul\":5122:5417   */\n    tag_52:\n        /* \"#utility.yul\":5198:5202   */\n      0x00\n        /* \"#utility.yul\":5344:5373   */\n      tag_115\n        /* \"#utility.yul\":5369:5372   */\n      dup4\n        /* \"#utility.yul\":5363:5367   */\n      dup4\n        /* \"#utility.yul\":5344:5373   */\n      tag_51\n      jump\t// in\n    tag_115:\n        /* \"#utility.yul\":5336:5373   */\n      swap2\n      pop\n        /* \"#utility.yul\":5406:5409   */\n      dup3\n        /* \"#utility.yul\":5403:5404   */\n      0x02\n        /* \"#utility.yul\":5399:5410   */\n      mul\n        /* \"#utility.yul\":5393:5397   */\n      dup3\n        /* \"#utility.yul\":5390:5411   */\n      or\n        /* \"#utility.yul\":5382:5411   */\n      swap1\n      pop\n        /* \"#utility.yul\":5122:5417   */\n      swap3\n      swap2\n      pop\n      pop\n      jump\t// out\n        /* \"#utility.yul\":5422:6817   */\n    tag_22:\n        /* \"#utility.yul\":5539:5576   */\n      tag_117\n        /* \"#utility.yul\":5572:5575   */\n      dup3\n        /* \"#utility.yul\":5539:5576   */\n      tag_31\n      jump\t// in\n    tag_117:\n        /* \"#utility.yul\":5641:5659   */\n      0xffffffffffffffff\n        /* \"#utility.yul\":5633:5639   */\n      dup2\n        /* \"#utility.yul\":5630:5660   */\n      gt\n        /* \"#utility.yul\":5627:5683   */\n      iszero\n      tag_118\n      jumpi\n        /* \"#utility.yul\":5663:5681   */\n      tag_119\n      tag_36\n      jump\t// in\n    tag_119:\n        /* \"#utility.yul\":5627:5683   */\n    tag_118:\n        /* \"#utility.yul\":5707:5745   */\n      tag_120\n        /* \"#utility.yul\":5739:5743   */\n      dup3\n        /* \"#utility.yul\":5733:5744   */\n      sload\n        /* \"#utility.yul\":5707:5745   */\n      tag_24\n      jump\t// in\n    tag_120:\n        /* \"#utility.yul\":5792:5859   */\n      tag_121\n        /* \"#utility.yul\":5852:5858   */\n      dup3\n        /* \"#utility.yul\":5844:5850   */\n      dup3\n        /* \"#utility.yul\":5838:5842   */\n      dup6\n        /* \"#utility.yul\":5792:5859   */\n      tag_49\n      jump\t// in\n    tag_121:\n        /* \"#utility.yul\":5886:5887   */\n      0x00\n        /* \"#utility.yul\":5910:5914   */\n      0x20\n        /* \"#utility.yul\":5897:5914   */\n      swap1\n      pop\n        /* \"#utility.yul\":5942:5944   */\n      0x1f\n        /* \"#utility.yul\":5934:5940   */\n      dup4\n        /* \"#utility.yul\":5931:5945   */\n      gt\n        /* \"#utility.yul\":5959:5960   */\n      0x01\n        /* \"#utility.yul\":5954:6572   */\n      dup2\n      eq\n      tag_123\n      jumpi\n        /* \"#utility.yul\":6616:6617   */\n      0x00\n        /* \"#utility.yul\":6633:6639   */\n      dup5\n        /* \"#utility.yul\":6630:6707   */\n      iszero\n      tag_124\n      jumpi\n        /* \"#utility.yul\":6682:6691   */\n      dup3\n        /* \"#utility.yul\":6677:6680   */\n      dup8\n        /* \"#utility.yul\":6673:6692   */\n      add\n        /* \"#utility.yul\":6667:6693   */\n      mload\n        /* \"#utility.yul\":6658:6693   */\n      swap1\n      pop\n        /* \"#utility.yul\":6630:6707   */\n    tag_124:\n        /* \"#utility.yul\":6733:6800   */\n      tag_125\n        /* \"#utility.yul\":6793:6799   */\n      dup6\n        /* \"#utility.yul\":6786:6791   */\n      dup3\n        /* \"#utility.yul\":6733:6800   */\n      tag_52\n      jump\t// in\n    tag_125:\n        /* \"#utility.yul\":6727:6731   */\n      dup7\n        /* \"#utility.yul\":6720:6801   */\n      sstore\n        /* \"#utility.yul\":6589:6811   */\n      pop\n        /* \"#utility.yul\":5924:6811   */\n      jump(tag_122)\n        /* \"#utility.yul\":5954:6572   */\n    tag_123:\n        /* \"#utility.yul\":6006:6010   */\n      0x1f\n        /* \"#utility.yul\":6002:6011   */\n      not\n        /* \"#utility.yul\":5994:6000   */\n      dup5\n        /* \"#utility.yul\":5990:6012   */\n      and\n        /* \"#utility.yul\":6040:6077   */\n      tag_126\n        /* \"#utility.yul\":6072:6076   */\n      dup7\n        /* \"#utility.yul\":6040:6077   */\n      tag_38\n      jump\t// in\n    tag_126:\n        /* \"#utility.yul\":6099:6100   */\n      0x00\n        /* \"#utility.yul\":6113:6321   */\n    tag_127:\n        /* \"#utility.yul\":6127:6134   */\n      dup3\n        /* \"#utility.yul\":6124:6125   */\n      dup2\n        /* \"#utility.yul\":6121:6135   */\n      lt\n        /* \"#utility.yul\":6113:6321   */\n      iszero\n      tag_129\n      jumpi\n        /* \"#utility.yul\":6206:6215   */\n      dup5\n        /* \"#utility.yul\":6201:6204   */\n      dup10\n        /* \"#utility.yul\":6197:6216   */\n      add\n        /* \"#utility.yul\":6191:6217   */\n      mload\n        /* \"#utility.yul\":6183:6189   */\n      dup3\n        /* \"#utility.yul\":6176:6218   */\n      sstore\n        /* \"#utility.yul\":6257:6258   */\n      0x01\n        /* \"#utility.yul\":6249:6255   */\n      dup3\n        /* \"#utility.yul\":6245:6259   */\n      add\n        /* \"#utility.yul\":6235:6259   */\n      swap2\n      pop\n        /* \"#utility.yul\":6304:6306   */\n      0x20\n        /* \"#utility.yul\":6293:6302   */\n      dup6\n        /* \"#utility.yul\":6289:6307   */\n      add\n        /* \"#utility.yul\":6276:6307   */\n      swap5\n      pop\n        /* \"#utility.yul\":6150:6154   */\n      0x20\n        /* \"#utility.yul\":6147:6148   */\n      dup2\n        /* \"#utility.yul\":6143:6155   */\n      add\n        /* \"#utility.yul\":6138:6155   */\n      swap1\n      pop\n        /* \"#utility.yul\":6113:6321   */\n      jump(tag_127)\n    tag_129:\n        /* \"#utility.yul\":6349:6355   */\n      dup7\n        /* \"#utility.yul\":6340:6347   */\n      dup4\n        /* \"#utility.yul\":6337:6356   */\n      lt\n        /* \"#utility.yul\":6334:6513   */\n      iszero\n      tag_130\n      jumpi\n        /* \"#utility.yul\":6407:6416   */\n      dup5\n        /* \"#utility.yul\":6402:6405   */\n      dup10\n        /* \"#utility.yul\":6398:6417   */\n      add\n        /* \"#utility.yul\":6392:6418   */\n      mload\n        /* \"#utility.yul\":6450:6498   */\n      tag_131\n        /* \"#utility.yul\":6492:6496   */\n      0x1f\n        /* \"#utility.yul\":6484:6490   */\n      dup10\n        /* \"#utility.yul\":6480:6497   */\n      and\n        /* \"#utility.yul\":6469:6478   */\n      dup3\n        /* \"#utility.yul\":6450:6498   */\n      tag_51\n      jump\t// in\n    tag_131:\n        /* \"#utility.yul\":6442:6448   */\n      dup4\n        /* \"#utility.yul\":6435:6499   */\n      sstore\n        /* \"#utility.yul\":6357:6513   */\n      pop\n        /* \"#utility.yul\":6334:6513   */\n    tag_130:\n        /* \"#utility.yul\":6559:6560   */\n      0x01\n        /* \"#utility.yul\":6555:6556   */\n      0x02\n        /* \"#utility.yul\":6547:6553   */\n      dup9\n        /* \"#utility.yul\":6543:6557   */\n      mul\n        /* \"#utility.yul\":6539:6561   */\n      add\n        /* \"#utility.yul\":6533:6537   */\n      dup9\n        /* \"#utility.yul\":6526:6562   */\n      sstore\n        /* \"#utility.yul\":5961:6572   */\n      pop\n      pop\n      pop\n        /* \"#utility.yul\":5924:6811   */\n    tag_122:\n      pop\n        /* \"#utility.yul\":5514:6817   */\n      pop\n      pop\n      pop\n        /* \"#utility.yul\":5422:6817   */\n      pop\n      pop\n      jump\t// out\n\n    auxdata: 0xa2646970667358221220bb92c0cf8c92810ea3d803834a0c47505d1fd08ce61bcb2dad750da79bf214e864736f6c63430008120033\n}\n",
				"bytecode": {
					"linkReferences": {},
					"object": "6080604052600160005534801561001557600080fd5b506105cf806100256000396000f3fe608060405234801561001057600080fd5b506004361061004c5760003560e01c80630c55699c14610051578063a56dfe4a1461006f578063c29855781461008d578063c5d7802e14610097575b600080fd5b6100596100b5565b60405161006691906101bf565b60405180910390f35b6100776100bb565b60405161008491906101bf565b60405180910390f35b6100956100c1565b005b61009f610118565b6040516100ac919061026a565b60405180910390f35b60005481565b60015481565b600560008190555060026001819055506040518060400160405280600481526020017f30783542000000000000000000000000000000000000000000000000000000008152506002908161011591906104c7565b50565b60028054610125906102ea565b80601f0160208091040260200160405190810160405280929190818152602001828054610151906102ea565b801561019e5780601f106101735761010080835404028352916020019161019e565b820191906000526020600020905b81548152906001019060200180831161018157829003601f168201915b505050505081565b6000819050919050565b6101b9816101a6565b82525050565b60006020820190506101d460008301846101b0565b92915050565b600081519050919050565b600082825260208201905092915050565b60005b838110156102145780820151818401526020810190506101f9565b60008484015250505050565b6000601f19601f8301169050919050565b600061023c826101da565b61024681856101e5565b93506102568185602086016101f6565b61025f81610220565b840191505092915050565b600060208201905081810360008301526102848184610231565b905092915050565b7f4e487b7100000000000000000000000000000000000000000000000000000000600052604160045260246000fd5b7f4e487b7100000000000000000000000000000000000000000000000000000000600052602260045260246000fd5b6000600282049050600182168061030257607f821691505b602082108103610315576103146102bb565b5b50919050565b60008190508160005260206000209050919050565b60006020601f8301049050919050565b600082821b905092915050565b60006008830261037d7fffffffffffffffffffffffffffffffffffffffffffffffffffffffffffffffff82610340565b6103878683610340565b95508019841693508086168417925050509392505050565b6000819050919050565b60006103c46103bf6103ba846101a6565b61039f565b6101a6565b9050919050565b6000819050919050565b6103de836103a9565b6103f26103ea826103cb565b84845461034d565b825550505050565b600090565b6104076103fa565b6104128184846103d5565b505050565b5b818110156104365761042b6000826103ff565b600181019050610418565b5050565b601f82111561047b5761044c8161031b565b61045584610330565b81016020851015610464578190505b61047861047085610330565b830182610417565b50505b505050565b600082821c905092915050565b600061049e60001984600802610480565b1980831691505092915050565b60006104b7838361048d565b9150826002028217905092915050565b6104d0826101da565b67ffffffffffffffff8111156104e9576104e861028c565b5b6104f382546102ea565b6104fe82828561043a565b600060209050601f831160018114610531576000841561051f578287015190505b61052985826104ab565b865550610591565b601f19841661053f8661031b565b60005b8281101561056757848901518255600182019150602085019450602081019050610542565b868310156105845784890151610580601f89168261048d565b8355505b6001600288020188555050505b50505050505056fea2646970667358221220bb92c0cf8c92810ea3d803834a0c47505d1fd08ce61bcb2dad750da79bf214e864736f6c63430008120033",
					"opcodes": "PUSH1 0x80 PUSH1 0x40 MSTORE PUSH1 0x1 PUSH1 0x0 SSTORE CALLVALUE DUP1 ISZERO PUSH2 0x15 JUMPI PUSH1 0x0 DUP1 REVERT JUMPDEST POP PUSH2 0x5CF DUP1 PUSH2 0x25 PUSH1 0x0 CODECOPY PUSH1 0x0 RETURN INVALID PUSH1 0x80 PUSH1 0x40 MSTORE CALLVALUE DUP1 ISZERO PUSH2 0x10 JUMPI PUSH1 0x0 DUP1 REVERT JUMPDEST POP PUSH1 0x4 CALLDATASIZE LT PUSH2 0x4C JUMPI PUSH1 0x0 CALLDATALOAD PUSH1 0xE0 SHR DUP1 PUSH4 0xC55699C EQ PUSH2 0x51 JUMPI DUP1 PUSH4 0xA56DFE4A EQ PUSH2 0x6F JUMPI DUP1 PUSH4 0xC2985578 EQ PUSH2 0x8D JUMPI DUP1 PUSH4 0xC5D7802E EQ PUSH2 0x97 JUMPI JUMPDEST PUSH1 0x0 DUP1 REVERT JUMPDEST PUSH2 0x59 PUSH2 0xB5 JUMP JUMPDEST PUSH1 0x40 MLOAD PUSH2 0x66 SWAP2 SWAP1 PUSH2 0x1BF JUMP JUMPDEST PUSH1 0x40 MLOAD DUP1 SWAP2 SUB SWAP1 RETURN JUMPDEST PUSH2 0x77 PUSH2 0xBB JUMP JUMPDEST PUSH1 0x40 MLOAD PUSH2 0x84 SWAP2 SWAP1 PUSH2 0x1BF JUMP JUMPDEST PUSH1 0x40 MLOAD DUP1 SWAP2 SUB SWAP1 RETURN JUMPDEST PUSH2 0x95 PUSH2 0xC1 JUMP JUMPDEST STOP JUMPDEST PUSH2 0x9F PUSH2 0x118 JUMP JUMPDEST PUSH1 0x40 MLOAD PUSH2 0xAC SWAP2 SWAP1 PUSH2 0x26A JUMP JUMPDEST PUSH1 0x40 MLOAD DUP1 SWAP2 SUB SWAP1 RETURN JUMPDEST PUSH1 0x0 SLOAD DUP2 JUMP JUMPDEST PUSH1 0x1 SLOAD DUP2 JUMP JUMPDEST PUSH1 0x5 PUSH1 0x0 DUP2 SWAP1 SSTORE POP PUSH1 0x2 PUSH1 0x1 DUP2 SWAP1 SSTORE POP PUSH1 0x40 MLOAD DUP1 PUSH1 0x40 ADD PUSH1 0x40 MSTORE DUP1 PUSH1 0x4 DUP2 MSTORE PUSH1 0x20 ADD PUSH32 0x3078354200000000000000000000000000000000000000000000000000000000 DUP2 MSTORE POP PUSH1 0x2 SWAP1 DUP2 PUSH2 0x115 SWAP2 SWAP1 PUSH2 0x4C7 JUMP JUMPDEST POP JUMP JUMPDEST PUSH1 0x2 DUP1 SLOAD PUSH2 0x125 SWAP1 PUSH2 0x2EA JUMP JUMPDEST DUP1 PUSH1 0x1F ADD PUSH1 0x20 DUP1 SWAP2 DIV MUL PUSH1 0x20 ADD PUSH1 0x40 MLOAD SWAP1 DUP2 ADD PUSH1 0x40 MSTORE DUP1 SWAP3 SWAP2 SWAP1 DUP2 DUP2 MSTORE PUSH1 0x20 ADD DUP3 DUP1 SLOAD PUSH2 0x151 SWAP1 PUSH2 0x2EA JUMP JUMPDEST DUP1 ISZERO PUSH2 0x19E JUMPI DUP1 PUSH1 0x1F LT PUSH2 0x173 JUMPI PUSH2 0x100 DUP1 DUP4 SLOAD DIV MUL DUP4 MSTORE SWAP2 PUSH1 0x20 ADD SWAP2 PUSH2 0x19E JUMP JUMPDEST DUP3 ADD SWAP2 SWAP1 PUSH1 0x0 MSTORE PUSH1 0x20 PUSH1 0x0 KECCAK256 SWAP1 JUMPDEST DUP2 SLOAD DUP2 MSTORE SWAP1 PUSH1 0x1 ADD SWAP1 PUSH1 0x20 ADD DUP1 DUP4 GT PUSH2 0x181 JUMPI DUP3 SWAP1 SUB PUSH1 0x1F AND DUP3 ADD SWAP2 JUMPDEST POP POP POP POP POP DUP2 JUMP JUMPDEST PUSH1 0x0 DUP2 SWAP1 POP SWAP2 SWAP1 POP JUMP JUMPDEST PUSH2 0x1B9 DUP2 PUSH2 0x1A6 JUMP JUMPDEST DUP3 MSTORE POP POP JUMP JUMPDEST PUSH1 0x0 PUSH1 0x20 DUP3 ADD SWAP1 POP PUSH2 0x1D4 PUSH1 0x0 DUP4 ADD DUP5 PUSH2 0x1B0 JUMP JUMPDEST SWAP3 SWAP2 POP POP JUMP JUMPDEST PUSH1 0x0 DUP2 MLOAD SWAP1 POP SWAP2 SWAP1 POP JUMP JUMPDEST PUSH1 0x0 DUP3 DUP3 MSTORE PUSH1 0x20 DUP3 ADD SWAP1 POP SWAP3 SWAP2 POP POP JUMP JUMPDEST PUSH1 0x0 JUMPDEST DUP4 DUP2 LT ISZERO PUSH2 0x214 JUMPI DUP1 DUP3 ADD MLOAD DUP2 DUP5 ADD MSTORE PUSH1 0x20 DUP2 ADD SWAP1 POP PUSH2 0x1F9 JUMP JUMPDEST PUSH1 0x0 DUP5 DUP5 ADD MSTORE POP POP POP POP JUMP JUMPDEST PUSH1 0x0 PUSH1 0x1F NOT PUSH1 0x1F DUP4 ADD AND SWAP1 POP SWAP2 SWAP1 POP JUMP JUMPDEST PUSH1 0x0 PUSH2 0x23C DUP3 PUSH2 0x1DA JUMP JUMPDEST PUSH2 0x246 DUP2 DUP6 PUSH2 0x1E5 JUMP JUMPDEST SWAP4 POP PUSH2 0x256 DUP2 DUP6 PUSH1 0x20 DUP7 ADD PUSH2 0x1F6 JUMP JUMPDEST PUSH2 0x25F DUP2 PUSH2 0x220 JUMP JUMPDEST DUP5 ADD SWAP2 POP POP SWAP3 SWAP2 POP POP JUMP JUMPDEST PUSH1 0x0 PUSH1 0x20 DUP3 ADD SWAP1 POP DUP2 DUP2 SUB PUSH1 0x0 DUP4 ADD MSTORE PUSH2 0x284 DUP2 DUP5 PUSH2 0x231 JUMP JUMPDEST SWAP1 POP SWAP3 SWAP2 POP POP JUMP JUMPDEST PUSH32 0x4E487B7100000000000000000000000000000000000000000000000000000000 PUSH1 0x0 MSTORE PUSH1 0x41 PUSH1 0x4 MSTORE PUSH1 0x24 PUSH1 0x0 REVERT JUMPDEST PUSH32 0x4E487B7100000000000000000000000000000000000000000000000000000000 PUSH1 0x0 MSTORE PUSH1 0x22 PUSH1 0x4 MSTORE PUSH1 0x24 PUSH1 0x0 REVERT JUMPDEST PUSH1 0x0 PUSH1 0x2 DUP3 DIV SWAP1 POP PUSH1 0x1 DUP3 AND DUP1 PUSH2 0x302 JUMPI PUSH1 0x7F DUP3 AND SWAP2 POP JUMPDEST PUSH1 0x20 DUP3 LT DUP2 SUB PUSH2 0x315 JUMPI PUSH2 0x314 PUSH2 0x2BB JUMP JUMPDEST JUMPDEST POP SWAP2 SWAP1 POP JUMP JUMPDEST PUSH1 0x0 DUP2 SWAP1 POP DUP2 PUSH1 0x0 MSTORE PUSH1 0x20 PUSH1 0x0 KECCAK256 SWAP1 POP SWAP2 SWAP1 POP JUMP JUMPDEST PUSH1 0x0 PUSH1 0x20 PUSH1 0x1F DUP4 ADD DIV SWAP1 POP SWAP2 SWAP1 POP JUMP JUMPDEST PUSH1 0x0 DUP3 DUP3 SHL SWAP1 POP SWAP3 SWAP2 POP POP JUMP JUMPDEST PUSH1 0x0 PUSH1 0x8 DUP4 MUL PUSH2 0x37D PUSH32 0xFFFFFFFFFFFFFFFFFFFFFFFFFFFFFFFFFFFFFFFFFFFFFFFFFFFFFFFFFFFFFFFF DUP3 PUSH2 0x340 JUMP JUMPDEST PUSH2 0x387 DUP7 DUP4 PUSH2 0x340 JUMP JUMPDEST SWAP6 POP DUP1 NOT DUP5 AND SWAP4 POP DUP1 DUP7 AND DUP5 OR SWAP3 POP POP POP SWAP4 SWAP3 POP POP POP JUMP JUMPDEST PUSH1 0x0 DUP2 SWAP1 POP SWAP2 SWAP1 POP JUMP JUMPDEST PUSH1 0x0 PUSH2 0x3C4 PUSH2 0x3BF PUSH2 0x3BA DUP5 PUSH2 0x1A6 JUMP JUMPDEST PUSH2 0x39F JUMP JUMPDEST PUSH2 0x1A6 JUMP JUMPDEST SWAP1 POP SWAP2 SWAP1 POP JUMP JUMPDEST PUSH1 0x0 DUP2 SWAP1 POP SWAP2 SWAP1 POP JUMP JUMPDEST PUSH2 0x3DE DUP4 PUSH2 0x3A9 JUMP JUMPDEST PUSH2 0x3F2 PUSH2 0x3EA DUP3 PUSH2 0x3CB JUMP JUMPDEST DUP5 DUP5 SLOAD PUSH2 0x34D JUMP JUMPDEST DUP3 SSTORE POP POP POP POP JUMP JUMPDEST PUSH1 0x0 SWAP1 JUMP JUMPDEST PUSH2 0x407 PUSH2 0x3FA JUMP JUMPDEST PUSH2 0x412 DUP2 DUP5 DUP5 PUSH2 0x3D5 JUMP JUMPDEST POP POP POP JUMP JUMPDEST JUMPDEST DUP2 DUP2 LT ISZERO PUSH2 0x436 JUMPI PUSH2 0x42B PUSH1 0x0 DUP3 PUSH2 0x3FF JUMP JUMPDEST PUSH1 0x1 DUP2 ADD SWAP1 POP PUSH2 0x418 JUMP JUMPDEST POP POP JUMP JUMPDEST PUSH1 0x1F DUP3 GT ISZERO PUSH2 0x47B JUMPI PUSH2 0x44C DUP2 PUSH2 0x31B JUMP JUMPDEST PUSH2 0x455 DUP5 PUSH2 0x330 JUMP JUMPDEST DUP2 ADD PUSH1 0x20 DUP6 LT ISZERO PUSH2 0x464 JUMPI DUP2 SWAP1 POP JUMPDEST PUSH2 0x478 PUSH2 0x470 DUP6 PUSH2 0x330 JUMP JUMPDEST DUP4 ADD DUP3 PUSH2 0x417 JUMP JUMPDEST POP POP JUMPDEST POP POP POP JUMP JUMPDEST PUSH1 0x0 DUP3 DUP3 SHR SWAP1 POP SWAP3 SWAP2 POP POP JUMP JUMPDEST PUSH1 0x0 PUSH2 0x49E PUSH1 0x0 NOT DUP5 PUSH1 0x8 MUL PUSH2 0x480 JUMP JUMPDEST NOT DUP1 DUP4 AND SWAP2 POP POP SWAP3 SWAP2 POP POP JUMP JUMPDEST PUSH1 0x0 PUSH2 0x4B7 DUP4 DUP4 PUSH2 0x48D JUMP JUMPDEST SWAP2 POP DUP3 PUSH1 0x2 MUL DUP3 OR SWAP1 POP SWAP3 SWAP2 POP POP JUMP JUMPDEST PUSH2 0x4D0 DUP3 PUSH2 0x1DA JUMP JUMPDEST PUSH8 0xFFFFFFFFFFFFFFFF DUP2 GT ISZERO PUSH2 0x4E9 JUMPI PUSH2 0x4E8 PUSH2 0x28C JUMP JUMPDEST JUMPDEST PUSH2 0x4F3 DUP3 SLOAD PUSH2 0x2EA JUMP JUMPDEST PUSH2 0x4FE DUP3 DUP3 DUP6 PUSH2 0x43A JUMP JUMPDEST PUSH1 0x0 PUSH1 0x20 SWAP1 POP PUSH1 0x1F DUP4 GT PUSH1 0x1 DUP2 EQ PUSH2 0x531 JUMPI PUSH1 0x0 DUP5 ISZERO PUSH2 0x51F JUMPI DUP3 DUP8 ADD MLOAD SWAP1 POP JUMPDEST PUSH2 0x529 DUP6 DUP3 PUSH2 0x4AB JUMP JUMPDEST DUP7 SSTORE POP PUSH2 0x591 JUMP JUMPDEST PUSH1 0x1F NOT DUP5 AND PUSH2 0x53F DUP7 PUSH2 0x31B JUMP JUMPDEST PUSH1 0x0 JUMPDEST DUP3 DUP2 LT ISZERO PUSH2 0x567 JUMPI DUP5 DUP10 ADD MLOAD DUP3 SSTORE PUSH1 0x1 DUP3 ADD SWAP2 POP PUSH1 0x20 DUP6 ADD SWAP5 POP PUSH1 0x20 DUP2 ADD SWAP1 POP PUSH2 0x542 JUMP JUMPDEST DUP7 DUP4 LT ISZERO PUSH2 0x584 JUMPI DUP5 DUP10 ADD MLOAD PUSH2 0x580 PUSH1 0x1F DUP10 AND DUP3 PUSH2 0x48D JUMP JUMPDEST DUP4 SSTORE POP JUMPDEST PUSH1 0x1 PUSH1 0x2 DUP9 MUL ADD DUP9 SSTORE POP POP POP JUMPDEST POP POP POP POP POP POP JUMP INVALID LOG2 PUSH5 0x6970667358 0x22 SLT KECCAK256 0xBB SWAP3 0xC0 0xCF DUP13 SWAP3 DUP2 0xE LOG3 0xD8 SUB DUP4 0x4A 0xC SELFBALANCE POP 0x5D 0x1F 0xD0 DUP13 0xE6 SHL 0xCB 0x2D 0xAD PUSH22 0xDA79BF214E864736F6C634300081200330000000000 "
				},
				"gasEstimates": {
					"creation": {
						"codeDepositCost": "297400",
						"executionCost": "22443",
						"totalCost": "319843"
					},
					"external": {
						"foo()": "infinite",
						"x()": "2407",
						"y()": "2429",
						"z()": "infinite"
					}
				},
				"methodIdentifiers": {
					"foo()": "c2985578",
					"x()": "0c55699c",
					"y()": "a56dfe4a",
					"z()": "c5d7802e"
				}
			},
			"storageLayout": {
				"storage": [
					{
						"astId": 78,
						"contract": "accidence/5.变量数据存储和作用域/DataStorage.sol:Variables",
						"label": "x",
						"offset": 0,
						"slot": "0",
						"type": "t_uint256"
					},
					{
						"astId": 80,
						"contract": "accidence/5.变量数据存储和作用域/DataStorage.sol:Variables",
						"label": "y",
						"offset": 0,
						"slot": "1",
						"type": "t_uint256"
					},
					{
						"astId": 82,
						"contract": "accidence/5.变量数据存储和作用域/DataStorage.sol:Variables",
						"label": "z",
						"offset": 0,
						"slot": "2",
						"type": "t_string_storage"
					}
				],
				"types": {
					"t_string_storage": {
						"encoding": "bytes",
						"label": "string",
						"numberOfBytes": "32"
					},
					"t_uint256": {
						"encoding": "inplace",
						"label": "uint256",
						"numberOfBytes": "32"
					}
				}
			},
			"userdoc": {
				"kind": "user",
				"methods": {},
				"version": 1
			}
		}
	}
}