{
	"13.继承/ModifierInheritance.sol": {
		"Identifier": {
			"abi": [
				{
					"inputs": [
						{
							"internalType": "uint256",
							"name": "_dividend",
							"type": "uint256"
						}
					],
					"name": "getExactDividedBy2And3",
					"outputs": [
						{
							"internalType": "uint256",
							"name": "",
							"type": "uint256"
						},
						{
							"internalType": "uint256",
							"name": "",
							"type": "uint256"
						}
					],
					"stateMutability": "pure",
					"type": "function"
				},
				{
					"inputs": [
						{
							"internalType": "uint256",
							"name": "_dividend",
							"type": "uint256"
						}
					],
					"name": "getExactDividedBy2And3WithoutModifier",
					"outputs": [
						{
							"internalType": "uint256",
							"name": "",
							"type": "uint256"
						},
						{
							"internalType": "uint256",
							"name": "",
							"type": "uint256"
						}
					],
					"stateMutability": "pure",
					"type": "function"
				}
			],
			"devdoc": {
				"kind": "dev",
				"methods": {},
				"version": 1
			},
			"evm": {
				"assembly": "    /* \"13.\\xe7\\xbb\\xa7\\xe6\\x89\\xbf/ModifierInheritance.sol\":201:1102  contract Identifier is Base1 {... */\n  mstore(0x40, 0x80)\n  callvalue\n  dup1\n  iszero\n  tag_1\n  jumpi\n  0x00\n  dup1\n  revert\ntag_1:\n  pop\n  dataSize(sub_0)\n  dup1\n  dataOffset(sub_0)\n  0x00\n  codecopy\n  0x00\n  return\nstop\n\nsub_0: assembly {\n        /* \"13.\\xe7\\xbb\\xa7\\xe6\\x89\\xbf/ModifierInheritance.sol\":201:1102  contract Identifier is Base1 {... */\n      mstore(0x40, 0x80)\n      callvalue\n      dup1\n      iszero\n      tag_1\n      jumpi\n      0x00\n      dup1\n      revert\n    tag_1:\n      pop\n      jumpi(tag_2, lt(calldatasize, 0x04))\n      shr(0xe0, calldataload(0x00))\n      dup1\n      0x4534a438\n      eq\n      tag_3\n      jumpi\n      dup1\n      0xd2406c78\n      eq\n      tag_4\n      jumpi\n    tag_2:\n      0x00\n      dup1\n      revert\n        /* \"13.\\xe7\\xbb\\xa7\\xe6\\x89\\xbf/ModifierInheritance.sol\":340:524  function getExactDividedBy2And3(uint _dividend) public exactDividedBy2And3(_dividend) pure returns(uint,uint) {... */\n    tag_3:\n      tag_5\n      0x04\n      dup1\n      calldatasize\n      sub\n      dup2\n      add\n      swap1\n      tag_6\n      swap2\n      swap1\n      tag_7\n      jump\t// in\n    tag_6:\n      tag_8\n      jump\t// in\n    tag_5:\n      mload(0x40)\n      tag_9\n      swap3\n      swap2\n      swap1\n      tag_10\n      jump\t// in\n    tag_9:\n      mload(0x40)\n      dup1\n      swap2\n      sub\n      swap1\n      return\n        /* \"13.\\xe7\\xbb\\xa7\\xe6\\x89\\xbf/ModifierInheritance.sol\":586:788  function getExactDividedBy2And3WithoutModifier(uint _dividend) public pure returns(uint,uint) {... */\n    tag_4:\n      tag_11\n      0x04\n      dup1\n      calldatasize\n      sub\n      dup2\n      add\n      swap1\n      tag_12\n      swap2\n      swap1\n      tag_7\n      jump\t// in\n    tag_12:\n      tag_13\n      jump\t// in\n    tag_11:\n      mload(0x40)\n      tag_14\n      swap3\n      swap2\n      swap1\n      tag_10\n      jump\t// in\n    tag_14:\n      mload(0x40)\n      dup1\n      swap2\n      sub\n      swap1\n      return\n        /* \"13.\\xe7\\xbb\\xa7\\xe6\\x89\\xbf/ModifierInheritance.sol\":340:524  function getExactDividedBy2And3(uint _dividend) public exactDividedBy2And3(_dividend) pure returns(uint,uint) {... */\n    tag_8:\n        /* \"13.\\xe7\\xbb\\xa7\\xe6\\x89\\xbf/ModifierInheritance.sol\":439:443  uint */\n      0x00\n        /* \"13.\\xe7\\xbb\\xa7\\xe6\\x89\\xbf/ModifierInheritance.sol\":444:448  uint */\n      dup1\n        /* \"13.\\xe7\\xbb\\xa7\\xe6\\x89\\xbf/ModifierInheritance.sol\":415:424  _dividend */\n      dup3\n        /* \"13.\\xe7\\xbb\\xa7\\xe6\\x89\\xbf/ModifierInheritance.sol\":157:158  0 */\n      0x00\n        /* \"13.\\xe7\\xbb\\xa7\\xe6\\x89\\xbf/ModifierInheritance.sol\":152:153  2 */\n      0x02\n        /* \"13.\\xe7\\xbb\\xa7\\xe6\\x89\\xbf/ModifierInheritance.sol\":147:149  _a */\n      dup3\n        /* \"13.\\xe7\\xbb\\xa7\\xe6\\x89\\xbf/ModifierInheritance.sol\":147:153  _a % 2 */\n      tag_16\n      swap2\n      swap1\n      tag_17\n      jump\t// in\n    tag_16:\n        /* \"13.\\xe7\\xbb\\xa7\\xe6\\x89\\xbf/ModifierInheritance.sol\":147:158  _a % 2 == 0 */\n      eq\n        /* \"13.\\xe7\\xbb\\xa7\\xe6\\x89\\xbf/ModifierInheritance.sol\":147:173  _a % 2 == 0 && _a % 3 == 0 */\n      dup1\n      iszero\n      tag_18\n      jumpi\n      pop\n        /* \"13.\\xe7\\xbb\\xa7\\xe6\\x89\\xbf/ModifierInheritance.sol\":172:173  0 */\n      0x00\n        /* \"13.\\xe7\\xbb\\xa7\\xe6\\x89\\xbf/ModifierInheritance.sol\":167:168  3 */\n      0x03\n        /* \"13.\\xe7\\xbb\\xa7\\xe6\\x89\\xbf/ModifierInheritance.sol\":162:164  _a */\n      dup3\n        /* \"13.\\xe7\\xbb\\xa7\\xe6\\x89\\xbf/ModifierInheritance.sol\":162:168  _a % 3 */\n      tag_19\n      swap2\n      swap1\n      tag_17\n      jump\t// in\n    tag_19:\n        /* \"13.\\xe7\\xbb\\xa7\\xe6\\x89\\xbf/ModifierInheritance.sol\":162:173  _a % 3 == 0 */\n      eq\n        /* \"13.\\xe7\\xbb\\xa7\\xe6\\x89\\xbf/ModifierInheritance.sol\":147:173  _a % 2 == 0 && _a % 3 == 0 */\n    tag_18:\n        /* \"13.\\xe7\\xbb\\xa7\\xe6\\x89\\xbf/ModifierInheritance.sol\":139:174  require(_a % 2 == 0 && _a % 3 == 0) */\n      tag_20\n      jumpi\n      0x00\n      dup1\n      revert\n    tag_20:\n        /* \"13.\\xe7\\xbb\\xa7\\xe6\\x89\\xbf/ModifierInheritance.sol\":468:516  getExactDividedBy2And3WithoutModifier(_dividend) */\n      tag_22\n        /* \"13.\\xe7\\xbb\\xa7\\xe6\\x89\\xbf/ModifierInheritance.sol\":506:515  _dividend */\n      dup5\n        /* \"13.\\xe7\\xbb\\xa7\\xe6\\x89\\xbf/ModifierInheritance.sol\":468:505  getExactDividedBy2And3WithoutModifier */\n      tag_13\n        /* \"13.\\xe7\\xbb\\xa7\\xe6\\x89\\xbf/ModifierInheritance.sol\":468:516  getExactDividedBy2And3WithoutModifier(_dividend) */\n      jump\t// in\n    tag_22:\n        /* \"13.\\xe7\\xbb\\xa7\\xe6\\x89\\xbf/ModifierInheritance.sol\":461:516  return getExactDividedBy2And3WithoutModifier(_dividend) */\n      swap3\n      pop\n      swap3\n      pop\n        /* \"13.\\xe7\\xbb\\xa7\\xe6\\x89\\xbf/ModifierInheritance.sol\":340:524  function getExactDividedBy2And3(uint _dividend) public exactDividedBy2And3(_dividend) pure returns(uint,uint) {... */\n      pop\n      swap2\n      pop\n      swap2\n      jump\t// out\n        /* \"13.\\xe7\\xbb\\xa7\\xe6\\x89\\xbf/ModifierInheritance.sol\":586:788  function getExactDividedBy2And3WithoutModifier(uint _dividend) public pure returns(uint,uint) {... */\n    tag_13:\n        /* \"13.\\xe7\\xbb\\xa7\\xe6\\x89\\xbf/ModifierInheritance.sol\":669:673  uint */\n      0x00\n        /* \"13.\\xe7\\xbb\\xa7\\xe6\\x89\\xbf/ModifierInheritance.sol\":674:678  uint */\n      dup1\n        /* \"13.\\xe7\\xbb\\xa7\\xe6\\x89\\xbf/ModifierInheritance.sol\":691:700  uint div2 */\n      0x00\n        /* \"13.\\xe7\\xbb\\xa7\\xe6\\x89\\xbf/ModifierInheritance.sol\":715:716  2 */\n      0x02\n        /* \"13.\\xe7\\xbb\\xa7\\xe6\\x89\\xbf/ModifierInheritance.sol\":703:712  _dividend */\n      dup5\n        /* \"13.\\xe7\\xbb\\xa7\\xe6\\x89\\xbf/ModifierInheritance.sol\":703:716  _dividend / 2 */\n      tag_24\n      swap2\n      swap1\n      tag_25\n      jump\t// in\n    tag_24:\n        /* \"13.\\xe7\\xbb\\xa7\\xe6\\x89\\xbf/ModifierInheritance.sol\":691:716  uint div2 = _dividend / 2 */\n      swap1\n      pop\n        /* \"13.\\xe7\\xbb\\xa7\\xe6\\x89\\xbf/ModifierInheritance.sol\":727:736  uint div3 */\n      0x00\n        /* \"13.\\xe7\\xbb\\xa7\\xe6\\x89\\xbf/ModifierInheritance.sol\":751:752  3 */\n      0x03\n        /* \"13.\\xe7\\xbb\\xa7\\xe6\\x89\\xbf/ModifierInheritance.sol\":739:748  _dividend */\n      dup6\n        /* \"13.\\xe7\\xbb\\xa7\\xe6\\x89\\xbf/ModifierInheritance.sol\":739:752  _dividend / 3 */\n      tag_26\n      swap2\n      swap1\n      tag_25\n      jump\t// in\n    tag_26:\n        /* \"13.\\xe7\\xbb\\xa7\\xe6\\x89\\xbf/ModifierInheritance.sol\":727:752  uint div3 = _dividend / 3 */\n      swap1\n      pop\n        /* \"13.\\xe7\\xbb\\xa7\\xe6\\x89\\xbf/ModifierInheritance.sol\":770:774  div2 */\n      dup2\n        /* \"13.\\xe7\\xbb\\xa7\\xe6\\x89\\xbf/ModifierInheritance.sol\":775:779  div3 */\n      dup2\n        /* \"13.\\xe7\\xbb\\xa7\\xe6\\x89\\xbf/ModifierInheritance.sol\":763:780  return(div2,div3) */\n      swap4\n      pop\n      swap4\n      pop\n      pop\n      pop\n        /* \"13.\\xe7\\xbb\\xa7\\xe6\\x89\\xbf/ModifierInheritance.sol\":586:788  function getExactDividedBy2And3WithoutModifier(uint _dividend) public pure returns(uint,uint) {... */\n      swap2\n      pop\n      swap2\n      jump\t// out\n        /* \"#utility.yul\":88:205   */\n    tag_28:\n        /* \"#utility.yul\":197:198   */\n      0x00\n        /* \"#utility.yul\":194:195   */\n      dup1\n        /* \"#utility.yul\":187:199   */\n      revert\n        /* \"#utility.yul\":334:411   */\n    tag_30:\n        /* \"#utility.yul\":371:378   */\n      0x00\n        /* \"#utility.yul\":400:405   */\n      dup2\n        /* \"#utility.yul\":389:405   */\n      swap1\n      pop\n        /* \"#utility.yul\":334:411   */\n      swap2\n      swap1\n      pop\n      jump\t// out\n        /* \"#utility.yul\":417:539   */\n    tag_31:\n        /* \"#utility.yul\":490:514   */\n      tag_42\n        /* \"#utility.yul\":508:513   */\n      dup2\n        /* \"#utility.yul\":490:514   */\n      tag_30\n      jump\t// in\n    tag_42:\n        /* \"#utility.yul\":483:488   */\n      dup2\n        /* \"#utility.yul\":480:515   */\n      eq\n        /* \"#utility.yul\":470:533   */\n      tag_43\n      jumpi\n        /* \"#utility.yul\":529:530   */\n      0x00\n        /* \"#utility.yul\":526:527   */\n      dup1\n        /* \"#utility.yul\":519:531   */\n      revert\n        /* \"#utility.yul\":470:533   */\n    tag_43:\n        /* \"#utility.yul\":417:539   */\n      pop\n      jump\t// out\n        /* \"#utility.yul\":545:684   */\n    tag_32:\n        /* \"#utility.yul\":591:596   */\n      0x00\n        /* \"#utility.yul\":629:635   */\n      dup2\n        /* \"#utility.yul\":616:636   */\n      calldataload\n        /* \"#utility.yul\":607:636   */\n      swap1\n      pop\n        /* \"#utility.yul\":645:678   */\n      tag_45\n        /* \"#utility.yul\":672:677   */\n      dup2\n        /* \"#utility.yul\":645:678   */\n      tag_31\n      jump\t// in\n    tag_45:\n        /* \"#utility.yul\":545:684   */\n      swap3\n      swap2\n      pop\n      pop\n      jump\t// out\n        /* \"#utility.yul\":690:1019   */\n    tag_7:\n        /* \"#utility.yul\":749:755   */\n      0x00\n        /* \"#utility.yul\":798:800   */\n      0x20\n        /* \"#utility.yul\":786:795   */\n      dup3\n        /* \"#utility.yul\":777:784   */\n      dup5\n        /* \"#utility.yul\":773:796   */\n      sub\n        /* \"#utility.yul\":769:801   */\n      slt\n        /* \"#utility.yul\":766:885   */\n      iszero\n      tag_47\n      jumpi\n        /* \"#utility.yul\":804:883   */\n      tag_48\n      tag_28\n      jump\t// in\n    tag_48:\n        /* \"#utility.yul\":766:885   */\n    tag_47:\n        /* \"#utility.yul\":924:925   */\n      0x00\n        /* \"#utility.yul\":949:1002   */\n      tag_49\n        /* \"#utility.yul\":994:1001   */\n      dup5\n        /* \"#utility.yul\":985:991   */\n      dup3\n        /* \"#utility.yul\":974:983   */\n      dup6\n        /* \"#utility.yul\":970:992   */\n      add\n        /* \"#utility.yul\":949:1002   */\n      tag_32\n      jump\t// in\n    tag_49:\n        /* \"#utility.yul\":939:1002   */\n      swap2\n      pop\n        /* \"#utility.yul\":895:1012   */\n      pop\n        /* \"#utility.yul\":690:1019   */\n      swap3\n      swap2\n      pop\n      pop\n      jump\t// out\n        /* \"#utility.yul\":1025:1143   */\n    tag_33:\n        /* \"#utility.yul\":1112:1136   */\n      tag_51\n        /* \"#utility.yul\":1130:1135   */\n      dup2\n        /* \"#utility.yul\":1112:1136   */\n      tag_30\n      jump\t// in\n    tag_51:\n        /* \"#utility.yul\":1107:1110   */\n      dup3\n        /* \"#utility.yul\":1100:1137   */\n      mstore\n        /* \"#utility.yul\":1025:1143   */\n      pop\n      pop\n      jump\t// out\n        /* \"#utility.yul\":1149:1481   */\n    tag_10:\n        /* \"#utility.yul\":1270:1274   */\n      0x00\n        /* \"#utility.yul\":1308:1310   */\n      0x40\n        /* \"#utility.yul\":1297:1306   */\n      dup3\n        /* \"#utility.yul\":1293:1311   */\n      add\n        /* \"#utility.yul\":1285:1311   */\n      swap1\n      pop\n        /* \"#utility.yul\":1321:1392   */\n      tag_53\n        /* \"#utility.yul\":1389:1390   */\n      0x00\n        /* \"#utility.yul\":1378:1387   */\n      dup4\n        /* \"#utility.yul\":1374:1391   */\n      add\n        /* \"#utility.yul\":1365:1371   */\n      dup6\n        /* \"#utility.yul\":1321:1392   */\n      tag_33\n      jump\t// in\n    tag_53:\n        /* \"#utility.yul\":1402:1474   */\n      tag_54\n        /* \"#utility.yul\":1470:1472   */\n      0x20\n        /* \"#utility.yul\":1459:1468   */\n      dup4\n        /* \"#utility.yul\":1455:1473   */\n      add\n        /* \"#utility.yul\":1446:1452   */\n      dup5\n        /* \"#utility.yul\":1402:1474   */\n      tag_33\n      jump\t// in\n    tag_54:\n        /* \"#utility.yul\":1149:1481   */\n      swap4\n      swap3\n      pop\n      pop\n      pop\n      jump\t// out\n        /* \"#utility.yul\":1487:1667   */\n    tag_34:\n        /* \"#utility.yul\":1535:1612   */\n      0x4e487b7100000000000000000000000000000000000000000000000000000000\n        /* \"#utility.yul\":1532:1533   */\n      0x00\n        /* \"#utility.yul\":1525:1613   */\n      mstore\n        /* \"#utility.yul\":1632:1636   */\n      0x12\n        /* \"#utility.yul\":1629:1630   */\n      0x04\n        /* \"#utility.yul\":1622:1637   */\n      mstore\n        /* \"#utility.yul\":1656:1660   */\n      0x24\n        /* \"#utility.yul\":1653:1654   */\n      0x00\n        /* \"#utility.yul\":1646:1661   */\n      revert\n        /* \"#utility.yul\":1673:1849   */\n    tag_17:\n        /* \"#utility.yul\":1705:1706   */\n      0x00\n        /* \"#utility.yul\":1722:1742   */\n      tag_57\n        /* \"#utility.yul\":1740:1741   */\n      dup3\n        /* \"#utility.yul\":1722:1742   */\n      tag_30\n      jump\t// in\n    tag_57:\n        /* \"#utility.yul\":1717:1742   */\n      swap2\n      pop\n        /* \"#utility.yul\":1756:1776   */\n      tag_58\n        /* \"#utility.yul\":1774:1775   */\n      dup4\n        /* \"#utility.yul\":1756:1776   */\n      tag_30\n      jump\t// in\n    tag_58:\n        /* \"#utility.yul\":1751:1776   */\n      swap3\n      pop\n        /* \"#utility.yul\":1795:1796   */\n      dup3\n        /* \"#utility.yul\":1785:1820   */\n      tag_59\n      jumpi\n        /* \"#utility.yul\":1800:1818   */\n      tag_60\n      tag_34\n      jump\t// in\n    tag_60:\n        /* \"#utility.yul\":1785:1820   */\n    tag_59:\n        /* \"#utility.yul\":1841:1842   */\n      dup3\n        /* \"#utility.yul\":1838:1839   */\n      dup3\n        /* \"#utility.yul\":1834:1843   */\n      mod\n        /* \"#utility.yul\":1829:1843   */\n      swap1\n      pop\n        /* \"#utility.yul\":1673:1849   */\n      swap3\n      swap2\n      pop\n      pop\n      jump\t// out\n        /* \"#utility.yul\":2041:2226   */\n    tag_25:\n        /* \"#utility.yul\":2081:2082   */\n      0x00\n        /* \"#utility.yul\":2098:2118   */\n      tag_63\n        /* \"#utility.yul\":2116:2117   */\n      dup3\n        /* \"#utility.yul\":2098:2118   */\n      tag_30\n      jump\t// in\n    tag_63:\n        /* \"#utility.yul\":2093:2118   */\n      swap2\n      pop\n        /* \"#utility.yul\":2132:2152   */\n      tag_64\n        /* \"#utility.yul\":2150:2151   */\n      dup4\n        /* \"#utility.yul\":2132:2152   */\n      tag_30\n      jump\t// in\n    tag_64:\n        /* \"#utility.yul\":2127:2152   */\n      swap3\n      pop\n        /* \"#utility.yul\":2171:2172   */\n      dup3\n        /* \"#utility.yul\":2161:2196   */\n      tag_65\n      jumpi\n        /* \"#utility.yul\":2176:2194   */\n      tag_66\n      tag_34\n      jump\t// in\n    tag_66:\n        /* \"#utility.yul\":2161:2196   */\n    tag_65:\n        /* \"#utility.yul\":2218:2219   */\n      dup3\n        /* \"#utility.yul\":2215:2216   */\n      dup3\n        /* \"#utility.yul\":2211:2220   */\n      div\n        /* \"#utility.yul\":2206:2220   */\n      swap1\n      pop\n        /* \"#utility.yul\":2041:2226   */\n      swap3\n      swap2\n      pop\n      pop\n      jump\t// out\n\n    auxdata: 0xa2646970667358221220e7172e1d3d0780038ad510eb9979221b713ba58ce5cfef4249242a4c21b377fc64736f6c63430008110033\n}\n",
				"bytecode": {
					"linkReferences": {},
					"object": "608060405234801561001057600080fd5b5061027e806100206000396000f3fe608060405234801561001057600080fd5b50600436106100365760003560e01c80634534a4381461003b578063d2406c781461006c575b600080fd5b61005560048036038101906100509190610152565b61009d565b60405161006392919061018e565b60405180910390f35b61008660048036038101906100819190610152565b6100e5565b60405161009492919061018e565b60405180910390f35b6000808260006002826100b091906101e6565b1480156100c9575060006003826100c791906101e6565b145b6100d257600080fd5b6100db846100e5565b9250925050915091565b60008060006002846100f79190610217565b905060006003856101089190610217565b90508181935093505050915091565b600080fd5b6000819050919050565b61012f8161011c565b811461013a57600080fd5b50565b60008135905061014c81610126565b92915050565b60006020828403121561016857610167610117565b5b60006101768482850161013d565b91505092915050565b6101888161011c565b82525050565b60006040820190506101a3600083018561017f565b6101b0602083018461017f565b9392505050565b7f4e487b7100000000000000000000000000000000000000000000000000000000600052601260045260246000fd5b60006101f18261011c565b91506101fc8361011c565b92508261020c5761020b6101b7565b5b828206905092915050565b60006102228261011c565b915061022d8361011c565b92508261023d5761023c6101b7565b5b82820490509291505056fea2646970667358221220e7172e1d3d0780038ad510eb9979221b713ba58ce5cfef4249242a4c21b377fc64736f6c63430008110033",
					"opcodes": "PUSH1 0x80 PUSH1 0x40 MSTORE CALLVALUE DUP1 ISZERO PUSH2 0x10 JUMPI PUSH1 0x0 DUP1 REVERT JUMPDEST POP PUSH2 0x27E DUP1 PUSH2 0x20 PUSH1 0x0 CODECOPY PUSH1 0x0 RETURN INVALID PUSH1 0x80 PUSH1 0x40 MSTORE CALLVALUE DUP1 ISZERO PUSH2 0x10 JUMPI PUSH1 0x0 DUP1 REVERT JUMPDEST POP PUSH1 0x4 CALLDATASIZE LT PUSH2 0x36 JUMPI PUSH1 0x0 CALLDATALOAD PUSH1 0xE0 SHR DUP1 PUSH4 0x4534A438 EQ PUSH2 0x3B JUMPI DUP1 PUSH4 0xD2406C78 EQ PUSH2 0x6C JUMPI JUMPDEST PUSH1 0x0 DUP1 REVERT JUMPDEST PUSH2 0x55 PUSH1 0x4 DUP1 CALLDATASIZE SUB DUP2 ADD SWAP1 PUSH2 0x50 SWAP2 SWAP1 PUSH2 0x152 JUMP JUMPDEST PUSH2 0x9D JUMP JUMPDEST PUSH1 0x40 MLOAD PUSH2 0x63 SWAP3 SWAP2 SWAP1 PUSH2 0x18E JUMP JUMPDEST PUSH1 0x40 MLOAD DUP1 SWAP2 SUB SWAP1 RETURN JUMPDEST PUSH2 0x86 PUSH1 0x4 DUP1 CALLDATASIZE SUB DUP2 ADD SWAP1 PUSH2 0x81 SWAP2 SWAP1 PUSH2 0x152 JUMP JUMPDEST PUSH2 0xE5 JUMP JUMPDEST PUSH1 0x40 MLOAD PUSH2 0x94 SWAP3 SWAP2 SWAP1 PUSH2 0x18E JUMP JUMPDEST PUSH1 0x40 MLOAD DUP1 SWAP2 SUB SWAP1 RETURN JUMPDEST PUSH1 0x0 DUP1 DUP3 PUSH1 0x0 PUSH1 0x2 DUP3 PUSH2 0xB0 SWAP2 SWAP1 PUSH2 0x1E6 JUMP JUMPDEST EQ DUP1 ISZERO PUSH2 0xC9 JUMPI POP PUSH1 0x0 PUSH1 0x3 DUP3 PUSH2 0xC7 SWAP2 SWAP1 PUSH2 0x1E6 JUMP JUMPDEST EQ JUMPDEST PUSH2 0xD2 JUMPI PUSH1 0x0 DUP1 REVERT JUMPDEST PUSH2 0xDB DUP5 PUSH2 0xE5 JUMP JUMPDEST SWAP3 POP SWAP3 POP POP SWAP2 POP SWAP2 JUMP JUMPDEST PUSH1 0x0 DUP1 PUSH1 0x0 PUSH1 0x2 DUP5 PUSH2 0xF7 SWAP2 SWAP1 PUSH2 0x217 JUMP JUMPDEST SWAP1 POP PUSH1 0x0 PUSH1 0x3 DUP6 PUSH2 0x108 SWAP2 SWAP1 PUSH2 0x217 JUMP JUMPDEST SWAP1 POP DUP2 DUP2 SWAP4 POP SWAP4 POP POP POP SWAP2 POP SWAP2 JUMP JUMPDEST PUSH1 0x0 DUP1 REVERT JUMPDEST PUSH1 0x0 DUP2 SWAP1 POP SWAP2 SWAP1 POP JUMP JUMPDEST PUSH2 0x12F DUP2 PUSH2 0x11C JUMP JUMPDEST DUP2 EQ PUSH2 0x13A JUMPI PUSH1 0x0 DUP1 REVERT JUMPDEST POP JUMP JUMPDEST PUSH1 0x0 DUP2 CALLDATALOAD SWAP1 POP PUSH2 0x14C DUP2 PUSH2 0x126 JUMP JUMPDEST SWAP3 SWAP2 POP POP JUMP JUMPDEST PUSH1 0x0 PUSH1 0x20 DUP3 DUP5 SUB SLT ISZERO PUSH2 0x168 JUMPI PUSH2 0x167 PUSH2 0x117 JUMP JUMPDEST JUMPDEST PUSH1 0x0 PUSH2 0x176 DUP5 DUP3 DUP6 ADD PUSH2 0x13D JUMP JUMPDEST SWAP2 POP POP SWAP3 SWAP2 POP POP JUMP JUMPDEST PUSH2 0x188 DUP2 PUSH2 0x11C JUMP JUMPDEST DUP3 MSTORE POP POP JUMP JUMPDEST PUSH1 0x0 PUSH1 0x40 DUP3 ADD SWAP1 POP PUSH2 0x1A3 PUSH1 0x0 DUP4 ADD DUP6 PUSH2 0x17F JUMP JUMPDEST PUSH2 0x1B0 PUSH1 0x20 DUP4 ADD DUP5 PUSH2 0x17F JUMP JUMPDEST SWAP4 SWAP3 POP POP POP JUMP JUMPDEST PUSH32 0x4E487B7100000000000000000000000000000000000000000000000000000000 PUSH1 0x0 MSTORE PUSH1 0x12 PUSH1 0x4 MSTORE PUSH1 0x24 PUSH1 0x0 REVERT JUMPDEST PUSH1 0x0 PUSH2 0x1F1 DUP3 PUSH2 0x11C JUMP JUMPDEST SWAP2 POP PUSH2 0x1FC DUP4 PUSH2 0x11C JUMP JUMPDEST SWAP3 POP DUP3 PUSH2 0x20C JUMPI PUSH2 0x20B PUSH2 0x1B7 JUMP JUMPDEST JUMPDEST DUP3 DUP3 MOD SWAP1 POP SWAP3 SWAP2 POP POP JUMP JUMPDEST PUSH1 0x0 PUSH2 0x222 DUP3 PUSH2 0x11C JUMP JUMPDEST SWAP2 POP PUSH2 0x22D DUP4 PUSH2 0x11C JUMP JUMPDEST SWAP3 POP DUP3 PUSH2 0x23D JUMPI PUSH2 0x23C PUSH2 0x1B7 JUMP JUMPDEST JUMPDEST DUP3 DUP3 DIV SWAP1 POP SWAP3 SWAP2 POP POP JUMP INVALID LOG2 PUSH5 0x6970667358 0x22 SLT KECCAK256 0xE7 OR 0x2E SAR RETURNDATASIZE SMOD DUP1 SUB DUP11 0xD5 LT 0xEB SWAP10 PUSH26 0x221B713BA58CE5CFEF4249242A4C21B377FC64736F6C63430008 GT STOP CALLER "
				},
				"gasEstimates": {
					"creation": {
						"codeDepositCost": "127600",
						"executionCost": "171",
						"totalCost": "127771"
					},
					"external": {
						"getExactDividedBy2And3(uint256)": "infinite",
						"getExactDividedBy2And3WithoutModifier(uint256)": "infinite"
					}
				},
				"methodIdentifiers": {
					"getExactDividedBy2And3(uint256)": "4534a438",
					"getExactDividedBy2And3WithoutModifier(uint256)": "d2406c78"
				}
			},
			"storageLayout": {
				"storage": [],
				"types": null
			},
			"userdoc": {
				"kind": "user",
				"methods": {},
				"version": 1
			}
		}
	}
}