{
	"6.引用类型/ArrayTypes.sol": {
		"ArrayTypes": {
			"abi": [
				{
					"inputs": [],
					"name": "arrayPush",
					"outputs": [
						{
							"internalType": "uint256[]",
							"name": "",
							"type": "uint256[]"
						}
					],
					"stateMutability": "nonpayable",
					"type": "function"
				},
				{
					"inputs": [],
					"name": "initArray",
					"outputs": [
						{
							"internalType": "uint256[]",
							"name": "",
							"type": "uint256[]"
						}
					],
					"stateMutability": "pure",
					"type": "function"
				}
			],
			"devdoc": {
				"kind": "dev",
				"methods": {},
				"version": 1
			},
			"evm": {
				"assembly": "    /* \"6.\\xe5\\xbc\\x95\\xe7\\x94\\xa8\\xe7\\xb1\\xbb\\xe5\\x9e\\x8b/ArrayTypes.sol\":60:815  contract ArrayTypes {... */\n  mstore(0x40, 0x80)\n    /* \"6.\\xe5\\xbc\\x95\\xe7\\x94\\xa8\\xe7\\xb1\\xbb\\xe5\\x9e\\x8b/ArrayTypes.sol\":367:368  5 */\n  0x05\n    /* \"6.\\xe5\\xbc\\x95\\xe7\\x94\\xa8\\xe7\\xb1\\xbb\\xe5\\x9e\\x8b/ArrayTypes.sol\":356:369  new uint[](5) */\n  0xffffffffffffffff\n  dup2\n  gt\n  iszero\n  tag_1\n  jumpi\n  tag_2\n  tag_3\n  jump\t// in\ntag_2:\ntag_1:\n  mload(0x40)\n  swap1\n  dup1\n  dup3\n  mstore\n  dup1\n  0x20\n  mul\n  0x20\n  add\n  dup3\n  add\n  0x40\n  mstore\n  dup1\n  iszero\n  tag_4\n  jumpi\n  dup2\n  0x20\n  add\n  0x20\n  dup3\n  mul\n  dup1\n  calldatasize\n  dup4\n  calldatacopy\n  dup1\n  dup3\n  add\n  swap2\n  pop\n  pop\n  swap1\n  pop\ntag_4:\n  pop\n    /* \"6.\\xe5\\xbc\\x95\\xe7\\x94\\xa8\\xe7\\xb1\\xbb\\xe5\\x9e\\x8b/ArrayTypes.sol\":340:369  uint[] array8 = new uint[](5) */\n  0x71\n  swap1\n  dup1\n  mload\n  swap1\n  0x20\n  add\n  swap1\n  tag_5\n  swap3\n  swap2\n  swap1\n  tag_6\n  jump\t// in\ntag_5:\n  pop\n    /* \"6.\\xe5\\xbc\\x95\\xe7\\x94\\xa8\\xe7\\xb1\\xbb\\xe5\\x9e\\x8b/ArrayTypes.sol\":401:402  9 */\n  0x09\n    /* \"6.\\xe5\\xbc\\x95\\xe7\\x94\\xa8\\xe7\\xb1\\xbb\\xe5\\x9e\\x8b/ArrayTypes.sol\":391:403  new bytes(9) */\n  0xffffffffffffffff\n  dup2\n  gt\n  iszero\n  tag_7\n  jumpi\n  tag_8\n  tag_3\n  jump\t// in\ntag_8:\ntag_7:\n  mload(0x40)\n  swap1\n  dup1\n  dup3\n  mstore\n  dup1\n  0x1f\n  add\n  not(0x1f)\n  and\n  0x20\n  add\n  dup3\n  add\n  0x40\n  mstore\n  dup1\n  iszero\n  tag_9\n  jumpi\n  dup2\n  0x20\n  add\n  0x01\n  dup3\n  mul\n  dup1\n  calldatasize\n  dup4\n  calldatacopy\n  dup1\n  dup3\n  add\n  swap2\n  pop\n  pop\n  swap1\n  pop\ntag_9:\n  pop\n    /* \"6.\\xe5\\xbc\\x95\\xe7\\x94\\xa8\\xe7\\xb1\\xbb\\xe5\\x9e\\x8b/ArrayTypes.sol\":376:403  bytes array9 = new bytes(9) */\n  0x72\n  swap1\n  dup2\n  tag_10\n  swap2\n  swap1\n  tag_11\n  jump\t// in\ntag_10:\n  pop\n    /* \"6.\\xe5\\xbc\\x95\\xe7\\x94\\xa8\\xe7\\xb1\\xbb\\xe5\\x9e\\x8b/ArrayTypes.sol\":60:815  contract ArrayTypes {... */\n  callvalue\n  dup1\n  iszero\n  tag_12\n  jumpi\n  0x00\n  dup1\n  revert\ntag_12:\n  pop\n  jump(tag_13)\ntag_6:\n  dup3\n  dup1\n  sload\n  dup3\n  dup3\n  sstore\n  swap1\n  0x00\n  mstore\n  keccak256(0x00, 0x20)\n  swap1\n  dup2\n  add\n  swap3\n  dup3\n  iszero\n  tag_14\n  jumpi\n  swap2\n  0x20\n  mul\n  dup3\n  add\ntag_15:\n  dup3\n  dup2\n  gt\n  iszero\n  tag_16\n  jumpi\n  dup3\n  mload\n  dup3\n  sstore\n  swap2\n  0x20\n  add\n  swap2\n  swap1\n  0x01\n  add\n  swap1\n  jump(tag_15)\ntag_16:\ntag_14:\n  pop\n  swap1\n  pop\n  tag_17\n  swap2\n  swap1\n  tag_18\n  jump\t// in\ntag_17:\n  pop\n  swap1\n  jump\t// out\ntag_18:\ntag_19:\n  dup1\n  dup3\n  gt\n  iszero\n  tag_20\n  jumpi\n  0x00\n  dup2\n  0x00\n  swap1\n  sstore\n  pop\n  0x01\n  add\n  jump(tag_19)\ntag_20:\n  pop\n  swap1\n  jump\t// out\n    /* \"#utility.yul\":7:187   */\ntag_3:\n    /* \"#utility.yul\":55:132   */\n  0x4e487b7100000000000000000000000000000000000000000000000000000000\n    /* \"#utility.yul\":52:53   */\n  0x00\n    /* \"#utility.yul\":45:133   */\n  mstore\n    /* \"#utility.yul\":152:156   */\n  0x41\n    /* \"#utility.yul\":149:150   */\n  0x04\n    /* \"#utility.yul\":142:157   */\n  mstore\n    /* \"#utility.yul\":176:180   */\n  0x24\n    /* \"#utility.yul\":173:174   */\n  0x00\n    /* \"#utility.yul\":166:181   */\n  revert\n    /* \"#utility.yul\":193:291   */\ntag_21:\n    /* \"#utility.yul\":244:250   */\n  0x00\n    /* \"#utility.yul\":278:283   */\n  dup2\n    /* \"#utility.yul\":272:284   */\n  mload\n    /* \"#utility.yul\":262:284   */\n  swap1\n  pop\n    /* \"#utility.yul\":193:291   */\n  swap2\n  swap1\n  pop\n  jump\t// out\n    /* \"#utility.yul\":297:477   */\ntag_22:\n    /* \"#utility.yul\":345:422   */\n  0x4e487b7100000000000000000000000000000000000000000000000000000000\n    /* \"#utility.yul\":342:343   */\n  0x00\n    /* \"#utility.yul\":335:423   */\n  mstore\n    /* \"#utility.yul\":442:446   */\n  0x22\n    /* \"#utility.yul\":439:440   */\n  0x04\n    /* \"#utility.yul\":432:447   */\n  mstore\n    /* \"#utility.yul\":466:470   */\n  0x24\n    /* \"#utility.yul\":463:464   */\n  0x00\n    /* \"#utility.yul\":456:471   */\n  revert\n    /* \"#utility.yul\":483:803   */\ntag_23:\n    /* \"#utility.yul\":527:533   */\n  0x00\n    /* \"#utility.yul\":564:565   */\n  0x02\n    /* \"#utility.yul\":558:562   */\n  dup3\n    /* \"#utility.yul\":554:566   */\n  div\n    /* \"#utility.yul\":544:566   */\n  swap1\n  pop\n    /* \"#utility.yul\":611:612   */\n  0x01\n    /* \"#utility.yul\":605:609   */\n  dup3\n    /* \"#utility.yul\":601:613   */\n  and\n    /* \"#utility.yul\":632:650   */\n  dup1\n    /* \"#utility.yul\":622:703   */\n  tag_45\n  jumpi\n    /* \"#utility.yul\":688:692   */\n  0x7f\n    /* \"#utility.yul\":680:686   */\n  dup3\n    /* \"#utility.yul\":676:693   */\n  and\n    /* \"#utility.yul\":666:693   */\n  swap2\n  pop\n    /* \"#utility.yul\":622:703   */\ntag_45:\n    /* \"#utility.yul\":750:752   */\n  0x20\n    /* \"#utility.yul\":742:748   */\n  dup3\n    /* \"#utility.yul\":739:753   */\n  lt\n    /* \"#utility.yul\":719:737   */\n  dup2\n    /* \"#utility.yul\":716:754   */\n  sub\n    /* \"#utility.yul\":713:797   */\n  tag_46\n  jumpi\n    /* \"#utility.yul\":769:787   */\n  tag_47\n  tag_22\n  jump\t// in\ntag_47:\n    /* \"#utility.yul\":713:797   */\ntag_46:\n    /* \"#utility.yul\":534:803   */\n  pop\n    /* \"#utility.yul\":483:803   */\n  swap2\n  swap1\n  pop\n  jump\t// out\n    /* \"#utility.yul\":809:949   */\ntag_24:\n    /* \"#utility.yul\":857:861   */\n  0x00\n    /* \"#utility.yul\":880:883   */\n  dup2\n    /* \"#utility.yul\":872:883   */\n  swap1\n  pop\n    /* \"#utility.yul\":903:906   */\n  dup2\n    /* \"#utility.yul\":900:901   */\n  0x00\n    /* \"#utility.yul\":893:907   */\n  mstore\n    /* \"#utility.yul\":937:941   */\n  0x20\n    /* \"#utility.yul\":934:935   */\n  0x00\n    /* \"#utility.yul\":924:942   */\n  keccak256\n    /* \"#utility.yul\":916:942   */\n  swap1\n  pop\n    /* \"#utility.yul\":809:949   */\n  swap2\n  swap1\n  pop\n  jump\t// out\n    /* \"#utility.yul\":955:1048   */\ntag_25:\n    /* \"#utility.yul\":992:998   */\n  0x00\n    /* \"#utility.yul\":1039:1041   */\n  0x20\n    /* \"#utility.yul\":1034:1036   */\n  0x1f\n    /* \"#utility.yul\":1027:1032   */\n  dup4\n    /* \"#utility.yul\":1023:1037   */\n  add\n    /* \"#utility.yul\":1019:1042   */\n  div\n    /* \"#utility.yul\":1009:1042   */\n  swap1\n  pop\n    /* \"#utility.yul\":955:1048   */\n  swap2\n  swap1\n  pop\n  jump\t// out\n    /* \"#utility.yul\":1054:1161   */\ntag_26:\n    /* \"#utility.yul\":1098:1106   */\n  0x00\n    /* \"#utility.yul\":1148:1153   */\n  dup3\n    /* \"#utility.yul\":1142:1146   */\n  dup3\n    /* \"#utility.yul\":1138:1154   */\n  shl\n    /* \"#utility.yul\":1117:1154   */\n  swap1\n  pop\n    /* \"#utility.yul\":1054:1161   */\n  swap3\n  swap2\n  pop\n  pop\n  jump\t// out\n    /* \"#utility.yul\":1167:1560   */\ntag_27:\n    /* \"#utility.yul\":1236:1242   */\n  0x00\n    /* \"#utility.yul\":1286:1287   */\n  0x08\n    /* \"#utility.yul\":1274:1284   */\n  dup4\n    /* \"#utility.yul\":1270:1288   */\n  mul\n    /* \"#utility.yul\":1309:1406   */\n  tag_52\n    /* \"#utility.yul\":1339:1405   */\n  0xffffffffffffffffffffffffffffffffffffffffffffffffffffffffffffffff\n    /* \"#utility.yul\":1328:1337   */\n  dup3\n    /* \"#utility.yul\":1309:1406   */\n  tag_26\n  jump\t// in\ntag_52:\n    /* \"#utility.yul\":1427:1466   */\n  tag_53\n    /* \"#utility.yul\":1457:1465   */\n  dup7\n    /* \"#utility.yul\":1446:1455   */\n  dup4\n    /* \"#utility.yul\":1427:1466   */\n  tag_26\n  jump\t// in\ntag_53:\n    /* \"#utility.yul\":1415:1466   */\n  swap6\n  pop\n    /* \"#utility.yul\":1499:1503   */\n  dup1\n    /* \"#utility.yul\":1495:1504   */\n  not\n    /* \"#utility.yul\":1488:1493   */\n  dup5\n    /* \"#utility.yul\":1484:1505   */\n  and\n    /* \"#utility.yul\":1475:1505   */\n  swap4\n  pop\n    /* \"#utility.yul\":1548:1552   */\n  dup1\n    /* \"#utility.yul\":1538:1546   */\n  dup7\n    /* \"#utility.yul\":1534:1553   */\n  and\n    /* \"#utility.yul\":1527:1532   */\n  dup5\n    /* \"#utility.yul\":1524:1554   */\n  or\n    /* \"#utility.yul\":1514:1554   */\n  swap3\n  pop\n    /* \"#utility.yul\":1243:1560   */\n  pop\n  pop\n    /* \"#utility.yul\":1167:1560   */\n  swap4\n  swap3\n  pop\n  pop\n  pop\n  jump\t// out\n    /* \"#utility.yul\":1566:1643   */\ntag_28:\n    /* \"#utility.yul\":1603:1610   */\n  0x00\n    /* \"#utility.yul\":1632:1637   */\n  dup2\n    /* \"#utility.yul\":1621:1637   */\n  swap1\n  pop\n    /* \"#utility.yul\":1566:1643   */\n  swap2\n  swap1\n  pop\n  jump\t// out\n    /* \"#utility.yul\":1649:1709   */\ntag_29:\n    /* \"#utility.yul\":1677:1680   */\n  0x00\n    /* \"#utility.yul\":1698:1703   */\n  dup2\n    /* \"#utility.yul\":1691:1703   */\n  swap1\n  pop\n    /* \"#utility.yul\":1649:1709   */\n  swap2\n  swap1\n  pop\n  jump\t// out\n    /* \"#utility.yul\":1715:1857   */\ntag_30:\n    /* \"#utility.yul\":1765:1774   */\n  0x00\n    /* \"#utility.yul\":1798:1851   */\n  tag_57\n    /* \"#utility.yul\":1816:1850   */\n  tag_58\n    /* \"#utility.yul\":1825:1849   */\n  tag_59\n    /* \"#utility.yul\":1843:1848   */\n  dup5\n    /* \"#utility.yul\":1825:1849   */\n  tag_28\n  jump\t// in\ntag_59:\n    /* \"#utility.yul\":1816:1850   */\n  tag_29\n  jump\t// in\ntag_58:\n    /* \"#utility.yul\":1798:1851   */\n  tag_28\n  jump\t// in\ntag_57:\n    /* \"#utility.yul\":1785:1851   */\n  swap1\n  pop\n    /* \"#utility.yul\":1715:1857   */\n  swap2\n  swap1\n  pop\n  jump\t// out\n    /* \"#utility.yul\":1863:1938   */\ntag_31:\n    /* \"#utility.yul\":1906:1909   */\n  0x00\n    /* \"#utility.yul\":1927:1932   */\n  dup2\n    /* \"#utility.yul\":1920:1932   */\n  swap1\n  pop\n    /* \"#utility.yul\":1863:1938   */\n  swap2\n  swap1\n  pop\n  jump\t// out\n    /* \"#utility.yul\":1944:2213   */\ntag_32:\n    /* \"#utility.yul\":2054:2093   */\n  tag_62\n    /* \"#utility.yul\":2085:2092   */\n  dup4\n    /* \"#utility.yul\":2054:2093   */\n  tag_30\n  jump\t// in\ntag_62:\n    /* \"#utility.yul\":2115:2206   */\n  tag_63\n    /* \"#utility.yul\":2164:2205   */\n  tag_64\n    /* \"#utility.yul\":2188:2204   */\n  dup3\n    /* \"#utility.yul\":2164:2205   */\n  tag_31\n  jump\t// in\ntag_64:\n    /* \"#utility.yul\":2156:2162   */\n  dup5\n    /* \"#utility.yul\":2149:2153   */\n  dup5\n    /* \"#utility.yul\":2143:2154   */\n  sload\n    /* \"#utility.yul\":2115:2206   */\n  tag_27\n  jump\t// in\ntag_63:\n    /* \"#utility.yul\":2109:2113   */\n  dup3\n    /* \"#utility.yul\":2102:2207   */\n  sstore\n    /* \"#utility.yul\":2020:2213   */\n  pop\n    /* \"#utility.yul\":1944:2213   */\n  pop\n  pop\n  pop\n  jump\t// out\n    /* \"#utility.yul\":2219:2292   */\ntag_33:\n    /* \"#utility.yul\":2264:2267   */\n  0x00\n    /* \"#utility.yul\":2219:2292   */\n  swap1\n  jump\t// out\n    /* \"#utility.yul\":2298:2487   */\ntag_34:\n    /* \"#utility.yul\":2375:2407   */\n  tag_67\n  tag_33\n  jump\t// in\ntag_67:\n    /* \"#utility.yul\":2416:2481   */\n  tag_68\n    /* \"#utility.yul\":2474:2480   */\n  dup2\n    /* \"#utility.yul\":2466:2472   */\n  dup5\n    /* \"#utility.yul\":2460:2464   */\n  dup5\n    /* \"#utility.yul\":2416:2481   */\n  tag_32\n  jump\t// in\ntag_68:\n    /* \"#utility.yul\":2351:2487   */\n  pop\n    /* \"#utility.yul\":2298:2487   */\n  pop\n  pop\n  jump\t// out\n    /* \"#utility.yul\":2493:2679   */\ntag_35:\n    /* \"#utility.yul\":2553:2673   */\ntag_70:\n    /* \"#utility.yul\":2570:2573   */\n  dup2\n    /* \"#utility.yul\":2563:2568   */\n  dup2\n    /* \"#utility.yul\":2560:2574   */\n  lt\n    /* \"#utility.yul\":2553:2673   */\n  iszero\n  tag_72\n  jumpi\n    /* \"#utility.yul\":2624:2663   */\n  tag_73\n    /* \"#utility.yul\":2661:2662   */\n  0x00\n    /* \"#utility.yul\":2654:2659   */\n  dup3\n    /* \"#utility.yul\":2624:2663   */\n  tag_34\n  jump\t// in\ntag_73:\n    /* \"#utility.yul\":2597:2598   */\n  0x01\n    /* \"#utility.yul\":2590:2595   */\n  dup2\n    /* \"#utility.yul\":2586:2599   */\n  add\n    /* \"#utility.yul\":2577:2599   */\n  swap1\n  pop\n    /* \"#utility.yul\":2553:2673   */\n  jump(tag_70)\ntag_72:\n    /* \"#utility.yul\":2493:2679   */\n  pop\n  pop\n  jump\t// out\n    /* \"#utility.yul\":2685:3226   */\ntag_36:\n    /* \"#utility.yul\":2785:2787   */\n  0x1f\n    /* \"#utility.yul\":2780:2783   */\n  dup3\n    /* \"#utility.yul\":2777:2788   */\n  gt\n    /* \"#utility.yul\":2774:3219   */\n  iszero\n  tag_75\n  jumpi\n    /* \"#utility.yul\":2819:2856   */\n  tag_76\n    /* \"#utility.yul\":2850:2855   */\n  dup2\n    /* \"#utility.yul\":2819:2856   */\n  tag_24\n  jump\t// in\ntag_76:\n    /* \"#utility.yul\":2902:2931   */\n  tag_77\n    /* \"#utility.yul\":2920:2930   */\n  dup5\n    /* \"#utility.yul\":2902:2931   */\n  tag_25\n  jump\t// in\ntag_77:\n    /* \"#utility.yul\":2892:2900   */\n  dup2\n    /* \"#utility.yul\":2888:2932   */\n  add\n    /* \"#utility.yul\":3085:3087   */\n  0x20\n    /* \"#utility.yul\":3073:3083   */\n  dup6\n    /* \"#utility.yul\":3070:3088   */\n  lt\n    /* \"#utility.yul\":3067:3116   */\n  iszero\n  tag_78\n  jumpi\n    /* \"#utility.yul\":3106:3114   */\n  dup2\n    /* \"#utility.yul\":3091:3114   */\n  swap1\n  pop\n    /* \"#utility.yul\":3067:3116   */\ntag_78:\n    /* \"#utility.yul\":3129:3209   */\n  tag_79\n    /* \"#utility.yul\":3185:3207   */\n  tag_80\n    /* \"#utility.yul\":3203:3206   */\n  dup6\n    /* \"#utility.yul\":3185:3207   */\n  tag_25\n  jump\t// in\ntag_80:\n    /* \"#utility.yul\":3175:3183   */\n  dup4\n    /* \"#utility.yul\":3171:3208   */\n  add\n    /* \"#utility.yul\":3158:3169   */\n  dup3\n    /* \"#utility.yul\":3129:3209   */\n  tag_35\n  jump\t// in\ntag_79:\n    /* \"#utility.yul\":2789:3219   */\n  pop\n  pop\n    /* \"#utility.yul\":2774:3219   */\ntag_75:\n    /* \"#utility.yul\":2685:3226   */\n  pop\n  pop\n  pop\n  jump\t// out\n    /* \"#utility.yul\":3232:3349   */\ntag_37:\n    /* \"#utility.yul\":3286:3294   */\n  0x00\n    /* \"#utility.yul\":3336:3341   */\n  dup3\n    /* \"#utility.yul\":3330:3334   */\n  dup3\n    /* \"#utility.yul\":3326:3342   */\n  shr\n    /* \"#utility.yul\":3305:3342   */\n  swap1\n  pop\n    /* \"#utility.yul\":3232:3349   */\n  swap3\n  swap2\n  pop\n  pop\n  jump\t// out\n    /* \"#utility.yul\":3355:3524   */\ntag_38:\n    /* \"#utility.yul\":3399:3405   */\n  0x00\n    /* \"#utility.yul\":3432:3483   */\n  tag_83\n    /* \"#utility.yul\":3480:3481   */\n  0x00\n    /* \"#utility.yul\":3476:3482   */\n  not\n    /* \"#utility.yul\":3468:3473   */\n  dup5\n    /* \"#utility.yul\":3465:3466   */\n  0x08\n    /* \"#utility.yul\":3461:3474   */\n  mul\n    /* \"#utility.yul\":3432:3483   */\n  tag_37\n  jump\t// in\ntag_83:\n    /* \"#utility.yul\":3428:3484   */\n  not\n    /* \"#utility.yul\":3513:3517   */\n  dup1\n    /* \"#utility.yul\":3507:3511   */\n  dup4\n    /* \"#utility.yul\":3503:3518   */\n  and\n    /* \"#utility.yul\":3493:3518   */\n  swap2\n  pop\n    /* \"#utility.yul\":3406:3524   */\n  pop\n    /* \"#utility.yul\":3355:3524   */\n  swap3\n  swap2\n  pop\n  pop\n  jump\t// out\n    /* \"#utility.yul\":3529:3824   */\ntag_39:\n    /* \"#utility.yul\":3605:3609   */\n  0x00\n    /* \"#utility.yul\":3751:3780   */\n  tag_85\n    /* \"#utility.yul\":3776:3779   */\n  dup4\n    /* \"#utility.yul\":3770:3774   */\n  dup4\n    /* \"#utility.yul\":3751:3780   */\n  tag_38\n  jump\t// in\ntag_85:\n    /* \"#utility.yul\":3743:3780   */\n  swap2\n  pop\n    /* \"#utility.yul\":3813:3816   */\n  dup3\n    /* \"#utility.yul\":3810:3811   */\n  0x02\n    /* \"#utility.yul\":3806:3817   */\n  mul\n    /* \"#utility.yul\":3800:3804   */\n  dup3\n    /* \"#utility.yul\":3797:3818   */\n  or\n    /* \"#utility.yul\":3789:3818   */\n  swap1\n  pop\n    /* \"#utility.yul\":3529:3824   */\n  swap3\n  swap2\n  pop\n  pop\n  jump\t// out\n    /* \"#utility.yul\":3829:5219   */\ntag_11:\n    /* \"#utility.yul\":3944:3980   */\n  tag_87\n    /* \"#utility.yul\":3976:3979   */\n  dup3\n    /* \"#utility.yul\":3944:3980   */\n  tag_21\n  jump\t// in\ntag_87:\n    /* \"#utility.yul\":4045:4063   */\n  0xffffffffffffffff\n    /* \"#utility.yul\":4037:4043   */\n  dup2\n    /* \"#utility.yul\":4034:4064   */\n  gt\n    /* \"#utility.yul\":4031:4087   */\n  iszero\n  tag_88\n  jumpi\n    /* \"#utility.yul\":4067:4085   */\n  tag_89\n  tag_3\n  jump\t// in\ntag_89:\n    /* \"#utility.yul\":4031:4087   */\ntag_88:\n    /* \"#utility.yul\":4111:4149   */\n  tag_90\n    /* \"#utility.yul\":4143:4147   */\n  dup3\n    /* \"#utility.yul\":4137:4148   */\n  sload\n    /* \"#utility.yul\":4111:4149   */\n  tag_23\n  jump\t// in\ntag_90:\n    /* \"#utility.yul\":4196:4262   */\n  tag_91\n    /* \"#utility.yul\":4255:4261   */\n  dup3\n    /* \"#utility.yul\":4247:4253   */\n  dup3\n    /* \"#utility.yul\":4241:4245   */\n  dup6\n    /* \"#utility.yul\":4196:4262   */\n  tag_36\n  jump\t// in\ntag_91:\n    /* \"#utility.yul\":4289:4290   */\n  0x00\n    /* \"#utility.yul\":4313:4317   */\n  0x20\n    /* \"#utility.yul\":4300:4317   */\n  swap1\n  pop\n    /* \"#utility.yul\":4345:4347   */\n  0x1f\n    /* \"#utility.yul\":4337:4343   */\n  dup4\n    /* \"#utility.yul\":4334:4348   */\n  gt\n    /* \"#utility.yul\":4362:4363   */\n  0x01\n    /* \"#utility.yul\":4357:4974   */\n  dup2\n  eq\n  tag_93\n  jumpi\n    /* \"#utility.yul\":5018:5019   */\n  0x00\n    /* \"#utility.yul\":5035:5041   */\n  dup5\n    /* \"#utility.yul\":5032:5109   */\n  iszero\n  tag_94\n  jumpi\n    /* \"#utility.yul\":5084:5093   */\n  dup3\n    /* \"#utility.yul\":5079:5082   */\n  dup8\n    /* \"#utility.yul\":5075:5094   */\n  add\n    /* \"#utility.yul\":5069:5095   */\n  mload\n    /* \"#utility.yul\":5060:5095   */\n  swap1\n  pop\n    /* \"#utility.yul\":5032:5109   */\ntag_94:\n    /* \"#utility.yul\":5135:5202   */\n  tag_95\n    /* \"#utility.yul\":5195:5201   */\n  dup6\n    /* \"#utility.yul\":5188:5193   */\n  dup3\n    /* \"#utility.yul\":5135:5202   */\n  tag_39\n  jump\t// in\ntag_95:\n    /* \"#utility.yul\":5129:5133   */\n  dup7\n    /* \"#utility.yul\":5122:5203   */\n  sstore\n    /* \"#utility.yul\":4991:5213   */\n  pop\n    /* \"#utility.yul\":4327:5213   */\n  jump(tag_92)\n    /* \"#utility.yul\":4357:4974   */\ntag_93:\n    /* \"#utility.yul\":4409:4413   */\n  0x1f\n    /* \"#utility.yul\":4405:4414   */\n  not\n    /* \"#utility.yul\":4397:4403   */\n  dup5\n    /* \"#utility.yul\":4393:4415   */\n  and\n    /* \"#utility.yul\":4443:4479   */\n  tag_96\n    /* \"#utility.yul\":4474:4478   */\n  dup7\n    /* \"#utility.yul\":4443:4479   */\n  tag_24\n  jump\t// in\ntag_96:\n    /* \"#utility.yul\":4501:4502   */\n  0x00\n    /* \"#utility.yul\":4515:4723   */\ntag_97:\n    /* \"#utility.yul\":4529:4536   */\n  dup3\n    /* \"#utility.yul\":4526:4527   */\n  dup2\n    /* \"#utility.yul\":4523:4537   */\n  lt\n    /* \"#utility.yul\":4515:4723   */\n  iszero\n  tag_99\n  jumpi\n    /* \"#utility.yul\":4608:4617   */\n  dup5\n    /* \"#utility.yul\":4603:4606   */\n  dup10\n    /* \"#utility.yul\":4599:4618   */\n  add\n    /* \"#utility.yul\":4593:4619   */\n  mload\n    /* \"#utility.yul\":4585:4591   */\n  dup3\n    /* \"#utility.yul\":4578:4620   */\n  sstore\n    /* \"#utility.yul\":4659:4660   */\n  0x01\n    /* \"#utility.yul\":4651:4657   */\n  dup3\n    /* \"#utility.yul\":4647:4661   */\n  add\n    /* \"#utility.yul\":4637:4661   */\n  swap2\n  pop\n    /* \"#utility.yul\":4706:4708   */\n  0x20\n    /* \"#utility.yul\":4695:4704   */\n  dup6\n    /* \"#utility.yul\":4691:4709   */\n  add\n    /* \"#utility.yul\":4678:4709   */\n  swap5\n  pop\n    /* \"#utility.yul\":4552:4556   */\n  0x20\n    /* \"#utility.yul\":4549:4550   */\n  dup2\n    /* \"#utility.yul\":4545:4557   */\n  add\n    /* \"#utility.yul\":4540:4557   */\n  swap1\n  pop\n    /* \"#utility.yul\":4515:4723   */\n  jump(tag_97)\ntag_99:\n    /* \"#utility.yul\":4751:4757   */\n  dup7\n    /* \"#utility.yul\":4742:4749   */\n  dup4\n    /* \"#utility.yul\":4739:4758   */\n  lt\n    /* \"#utility.yul\":4736:4915   */\n  iszero\n  tag_100\n  jumpi\n    /* \"#utility.yul\":4809:4818   */\n  dup5\n    /* \"#utility.yul\":4804:4807   */\n  dup10\n    /* \"#utility.yul\":4800:4819   */\n  add\n    /* \"#utility.yul\":4794:4820   */\n  mload\n    /* \"#utility.yul\":4852:4900   */\n  tag_101\n    /* \"#utility.yul\":4894:4898   */\n  0x1f\n    /* \"#utility.yul\":4886:4892   */\n  dup10\n    /* \"#utility.yul\":4882:4899   */\n  and\n    /* \"#utility.yul\":4871:4880   */\n  dup3\n    /* \"#utility.yul\":4852:4900   */\n  tag_38\n  jump\t// in\ntag_101:\n    /* \"#utility.yul\":4844:4850   */\n  dup4\n    /* \"#utility.yul\":4837:4901   */\n  sstore\n    /* \"#utility.yul\":4759:4915   */\n  pop\n    /* \"#utility.yul\":4736:4915   */\ntag_100:\n    /* \"#utility.yul\":4961:4962   */\n  0x01\n    /* \"#utility.yul\":4957:4958   */\n  0x02\n    /* \"#utility.yul\":4949:4955   */\n  dup9\n    /* \"#utility.yul\":4945:4959   */\n  mul\n    /* \"#utility.yul\":4941:4963   */\n  add\n    /* \"#utility.yul\":4935:4939   */\n  dup9\n    /* \"#utility.yul\":4928:4964   */\n  sstore\n    /* \"#utility.yul\":4364:4974   */\n  pop\n  pop\n  pop\n    /* \"#utility.yul\":4327:5213   */\ntag_92:\n  pop\n    /* \"#utility.yul\":3919:5219   */\n  pop\n  pop\n  pop\n    /* \"#utility.yul\":3829:5219   */\n  pop\n  pop\n  jump\t// out\n    /* \"6.\\xe5\\xbc\\x95\\xe7\\x94\\xa8\\xe7\\xb1\\xbb\\xe5\\x9e\\x8b/ArrayTypes.sol\":60:815  contract ArrayTypes {... */\ntag_13:\n  dataSize(sub_0)\n  dup1\n  dataOffset(sub_0)\n  0x00\n  codecopy\n  0x00\n  return\nstop\n\nsub_0: assembly {\n        /* \"6.\\xe5\\xbc\\x95\\xe7\\x94\\xa8\\xe7\\xb1\\xbb\\xe5\\x9e\\x8b/ArrayTypes.sol\":60:815  contract ArrayTypes {... */\n      mstore(0x40, 0x80)\n      callvalue\n      dup1\n      iszero\n      tag_1\n      jumpi\n      0x00\n      dup1\n      revert\n    tag_1:\n      pop\n      jumpi(tag_2, lt(calldatasize, 0x04))\n      shr(0xe0, calldataload(0x00))\n      dup1\n      0x47f6ac11\n      eq\n      tag_3\n      jumpi\n      dup1\n      0x82a8181b\n      eq\n      tag_4\n      jumpi\n    tag_2:\n      0x00\n      dup1\n      revert\n        /* \"6.\\xe5\\xbc\\x95\\xe7\\x94\\xa8\\xe7\\xb1\\xbb\\xe5\\x9e\\x8b/ArrayTypes.sol\":642:812  function arrayPush() public returns(uint[] memory) {... */\n    tag_3:\n      tag_5\n      tag_6\n      jump\t// in\n    tag_5:\n      mload(0x40)\n      tag_7\n      swap2\n      swap1\n      tag_8\n      jump\t// in\n    tag_7:\n      mload(0x40)\n      dup1\n      swap2\n      sub\n      swap1\n      return\n        /* \"6.\\xe5\\xbc\\x95\\xe7\\x94\\xa8\\xe7\\xb1\\xbb\\xe5\\x9e\\x8b/ArrayTypes.sol\":449:634  function initArray() external pure returns(uint[] memory) {... */\n    tag_4:\n      tag_9\n      tag_10\n      jump\t// in\n    tag_9:\n      mload(0x40)\n      tag_11\n      swap2\n      swap1\n      tag_8\n      jump\t// in\n    tag_11:\n      mload(0x40)\n      dup1\n      swap2\n      sub\n      swap1\n      return\n        /* \"6.\\xe5\\xbc\\x95\\xe7\\x94\\xa8\\xe7\\xb1\\xbb\\xe5\\x9e\\x8b/ArrayTypes.sol\":642:812  function arrayPush() public returns(uint[] memory) {... */\n    tag_6:\n        /* \"6.\\xe5\\xbc\\x95\\xe7\\x94\\xa8\\xe7\\xb1\\xbb\\xe5\\x9e\\x8b/ArrayTypes.sol\":678:691  uint[] memory */\n      0x60\n        /* \"6.\\xe5\\xbc\\x95\\xe7\\x94\\xa8\\xe7\\xb1\\xbb\\xe5\\x9e\\x8b/ArrayTypes.sol\":704:720  uint[2] memory a */\n      0x00\n        /* \"6.\\xe5\\xbc\\x95\\xe7\\x94\\xa8\\xe7\\xb1\\xbb\\xe5\\x9e\\x8b/ArrayTypes.sol\":704:734  uint[2] memory a = [uint(1),2] */\n      mload(0x40)\n      dup1\n      0x40\n      add\n      0x40\n      mstore\n      dup1\n        /* \"6.\\xe5\\xbc\\x95\\xe7\\x94\\xa8\\xe7\\xb1\\xbb\\xe5\\x9e\\x8b/ArrayTypes.sol\":729:730  1 */\n      0x01\n        /* \"6.\\xe5\\xbc\\x95\\xe7\\x94\\xa8\\xe7\\xb1\\xbb\\xe5\\x9e\\x8b/ArrayTypes.sol\":704:734  uint[2] memory a = [uint(1),2] */\n      dup2\n      mstore\n      0x20\n      add\n        /* \"6.\\xe5\\xbc\\x95\\xe7\\x94\\xa8\\xe7\\xb1\\xbb\\xe5\\x9e\\x8b/ArrayTypes.sol\":732:733  2 */\n      0x02\n        /* \"6.\\xe5\\xbc\\x95\\xe7\\x94\\xa8\\xe7\\xb1\\xbb\\xe5\\x9e\\x8b/ArrayTypes.sol\":704:734  uint[2] memory a = [uint(1),2] */\n      dup2\n      mstore\n      pop\n      swap1\n      pop\n        /* \"6.\\xe5\\xbc\\x95\\xe7\\x94\\xa8\\xe7\\xb1\\xbb\\xe5\\x9e\\x8b/ArrayTypes.sol\":754:755  a */\n      dup1\n        /* \"6.\\xe5\\xbc\\x95\\xe7\\x94\\xa8\\xe7\\xb1\\xbb\\xe5\\x9e\\x8b/ArrayTypes.sol\":745:751  array4 */\n      0x6d\n        /* \"6.\\xe5\\xbc\\x95\\xe7\\x94\\xa8\\xe7\\xb1\\xbb\\xe5\\x9e\\x8b/ArrayTypes.sol\":745:755  array4 = a */\n      swap1\n      0x02\n      tag_13\n      swap3\n      swap2\n      swap1\n      tag_14\n      jump\t// in\n    tag_13:\n      pop\n        /* \"6.\\xe5\\xbc\\x95\\xe7\\x94\\xa8\\xe7\\xb1\\xbb\\xe5\\x9e\\x8b/ArrayTypes.sol\":766:772  array4 */\n      0x6d\n        /* \"6.\\xe5\\xbc\\x95\\xe7\\x94\\xa8\\xe7\\xb1\\xbb\\xe5\\x9e\\x8b/ArrayTypes.sol\":778:779  3 */\n      0x03\n        /* \"6.\\xe5\\xbc\\x95\\xe7\\x94\\xa8\\xe7\\xb1\\xbb\\xe5\\x9e\\x8b/ArrayTypes.sol\":766:780  array4.push(3) */\n      swap1\n      dup1\n      0x01\n      dup2\n      sload\n      add\n      dup1\n      dup3\n      sstore\n      dup1\n      swap2\n      pop\n      pop\n      0x01\n      swap1\n      sub\n      swap1\n      0x00\n      mstore\n      keccak256(0x00, 0x20)\n      add\n      0x00\n      swap1\n      swap2\n      swap1\n      swap2\n      swap1\n      swap2\n      pop\n      sstore\n        /* \"6.\\xe5\\xbc\\x95\\xe7\\x94\\xa8\\xe7\\xb1\\xbb\\xe5\\x9e\\x8b/ArrayTypes.sol\":798:804  array4 */\n      0x6d\n        /* \"6.\\xe5\\xbc\\x95\\xe7\\x94\\xa8\\xe7\\xb1\\xbb\\xe5\\x9e\\x8b/ArrayTypes.sol\":791:804  return array4 */\n      dup1\n      sload\n      dup1\n      0x20\n      mul\n      0x20\n      add\n      mload(0x40)\n      swap1\n      dup2\n      add\n      0x40\n      mstore\n      dup1\n      swap3\n      swap2\n      swap1\n      dup2\n      dup2\n      mstore\n      0x20\n      add\n      dup3\n      dup1\n      sload\n      dup1\n      iszero\n      tag_16\n      jumpi\n      0x20\n      mul\n      dup3\n      add\n      swap2\n      swap1\n      0x00\n      mstore\n      keccak256(0x00, 0x20)\n      swap1\n    tag_17:\n      dup2\n      sload\n      dup2\n      mstore\n      0x20\n      add\n      swap1\n      0x01\n      add\n      swap1\n      dup1\n      dup4\n      gt\n      tag_17\n      jumpi\n    tag_16:\n      pop\n      pop\n      pop\n      pop\n      pop\n      swap2\n      pop\n      pop\n        /* \"6.\\xe5\\xbc\\x95\\xe7\\x94\\xa8\\xe7\\xb1\\xbb\\xe5\\x9e\\x8b/ArrayTypes.sol\":642:812  function arrayPush() public returns(uint[] memory) {... */\n      swap1\n      jump\t// out\n        /* \"6.\\xe5\\xbc\\x95\\xe7\\x94\\xa8\\xe7\\xb1\\xbb\\xe5\\x9e\\x8b/ArrayTypes.sol\":449:634  function initArray() external pure returns(uint[] memory) {... */\n    tag_10:\n        /* \"6.\\xe5\\xbc\\x95\\xe7\\x94\\xa8\\xe7\\xb1\\xbb\\xe5\\x9e\\x8b/ArrayTypes.sol\":492:505  uint[] memory */\n      0x60\n        /* \"6.\\xe5\\xbc\\x95\\xe7\\x94\\xa8\\xe7\\xb1\\xbb\\xe5\\x9e\\x8b/ArrayTypes.sol\":518:533  uint[] memory x */\n      0x00\n        /* \"6.\\xe5\\xbc\\x95\\xe7\\x94\\xa8\\xe7\\xb1\\xbb\\xe5\\x9e\\x8b/ArrayTypes.sol\":547:548  3 */\n      0x03\n        /* \"6.\\xe5\\xbc\\x95\\xe7\\x94\\xa8\\xe7\\xb1\\xbb\\xe5\\x9e\\x8b/ArrayTypes.sol\":536:549  new uint[](3) */\n      0xffffffffffffffff\n      dup2\n      gt\n      iszero\n      tag_19\n      jumpi\n      tag_20\n      tag_21\n      jump\t// in\n    tag_20:\n    tag_19:\n      mload(0x40)\n      swap1\n      dup1\n      dup3\n      mstore\n      dup1\n      0x20\n      mul\n      0x20\n      add\n      dup3\n      add\n      0x40\n      mstore\n      dup1\n      iszero\n      tag_22\n      jumpi\n      dup2\n      0x20\n      add\n      0x20\n      dup3\n      mul\n      dup1\n      calldatasize\n      dup4\n      calldatacopy\n      dup1\n      dup3\n      add\n      swap2\n      pop\n      pop\n      swap1\n      pop\n    tag_22:\n      pop\n        /* \"6.\\xe5\\xbc\\x95\\xe7\\x94\\xa8\\xe7\\xb1\\xbb\\xe5\\x9e\\x8b/ArrayTypes.sol\":518:549  uint[] memory x = new uint[](3) */\n      swap1\n      pop\n        /* \"6.\\xe5\\xbc\\x95\\xe7\\x94\\xa8\\xe7\\xb1\\xbb\\xe5\\x9e\\x8b/ArrayTypes.sol\":567:568  1 */\n      0x01\n        /* \"6.\\xe5\\xbc\\x95\\xe7\\x94\\xa8\\xe7\\xb1\\xbb\\xe5\\x9e\\x8b/ArrayTypes.sol\":560:561  x */\n      dup2\n        /* \"6.\\xe5\\xbc\\x95\\xe7\\x94\\xa8\\xe7\\xb1\\xbb\\xe5\\x9e\\x8b/ArrayTypes.sol\":562:563  0 */\n      0x00\n        /* \"6.\\xe5\\xbc\\x95\\xe7\\x94\\xa8\\xe7\\xb1\\xbb\\xe5\\x9e\\x8b/ArrayTypes.sol\":560:564  x[0] */\n      dup2\n      mload\n      dup2\n      lt\n      tag_23\n      jumpi\n      tag_24\n      tag_25\n      jump\t// in\n    tag_24:\n    tag_23:\n      0x20\n      mul\n      0x20\n      add\n      add\n        /* \"6.\\xe5\\xbc\\x95\\xe7\\x94\\xa8\\xe7\\xb1\\xbb\\xe5\\x9e\\x8b/ArrayTypes.sol\":560:568  x[0] = 1 */\n      dup2\n      dup2\n      mstore\n      pop\n      pop\n        /* \"6.\\xe5\\xbc\\x95\\xe7\\x94\\xa8\\xe7\\xb1\\xbb\\xe5\\x9e\\x8b/ArrayTypes.sol\":586:587  3 */\n      0x03\n        /* \"6.\\xe5\\xbc\\x95\\xe7\\x94\\xa8\\xe7\\xb1\\xbb\\xe5\\x9e\\x8b/ArrayTypes.sol\":579:580  x */\n      dup2\n        /* \"6.\\xe5\\xbc\\x95\\xe7\\x94\\xa8\\xe7\\xb1\\xbb\\xe5\\x9e\\x8b/ArrayTypes.sol\":581:582  1 */\n      0x01\n        /* \"6.\\xe5\\xbc\\x95\\xe7\\x94\\xa8\\xe7\\xb1\\xbb\\xe5\\x9e\\x8b/ArrayTypes.sol\":579:583  x[1] */\n      dup2\n      mload\n      dup2\n      lt\n      tag_26\n      jumpi\n      tag_27\n      tag_25\n      jump\t// in\n    tag_27:\n    tag_26:\n      0x20\n      mul\n      0x20\n      add\n      add\n        /* \"6.\\xe5\\xbc\\x95\\xe7\\x94\\xa8\\xe7\\xb1\\xbb\\xe5\\x9e\\x8b/ArrayTypes.sol\":579:587  x[1] = 3 */\n      dup2\n      dup2\n      mstore\n      pop\n      pop\n        /* \"6.\\xe5\\xbc\\x95\\xe7\\x94\\xa8\\xe7\\xb1\\xbb\\xe5\\x9e\\x8b/ArrayTypes.sol\":605:606  4 */\n      0x04\n        /* \"6.\\xe5\\xbc\\x95\\xe7\\x94\\xa8\\xe7\\xb1\\xbb\\xe5\\x9e\\x8b/ArrayTypes.sol\":598:599  x */\n      dup2\n        /* \"6.\\xe5\\xbc\\x95\\xe7\\x94\\xa8\\xe7\\xb1\\xbb\\xe5\\x9e\\x8b/ArrayTypes.sol\":600:601  2 */\n      0x02\n        /* \"6.\\xe5\\xbc\\x95\\xe7\\x94\\xa8\\xe7\\xb1\\xbb\\xe5\\x9e\\x8b/ArrayTypes.sol\":598:602  x[2] */\n      dup2\n      mload\n      dup2\n      lt\n      tag_28\n      jumpi\n      tag_29\n      tag_25\n      jump\t// in\n    tag_29:\n    tag_28:\n      0x20\n      mul\n      0x20\n      add\n      add\n        /* \"6.\\xe5\\xbc\\x95\\xe7\\x94\\xa8\\xe7\\xb1\\xbb\\xe5\\x9e\\x8b/ArrayTypes.sol\":598:606  x[2] = 4 */\n      dup2\n      dup2\n      mstore\n      pop\n      pop\n        /* \"6.\\xe5\\xbc\\x95\\xe7\\x94\\xa8\\xe7\\xb1\\xbb\\xe5\\x9e\\x8b/ArrayTypes.sol\":624:625  x */\n      dup1\n        /* \"6.\\xe5\\xbc\\x95\\xe7\\x94\\xa8\\xe7\\xb1\\xbb\\xe5\\x9e\\x8b/ArrayTypes.sol\":617:626  return(x) */\n      swap2\n      pop\n      pop\n        /* \"6.\\xe5\\xbc\\x95\\xe7\\x94\\xa8\\xe7\\xb1\\xbb\\xe5\\x9e\\x8b/ArrayTypes.sol\":449:634  function initArray() external pure returns(uint[] memory) {... */\n      swap1\n      jump\t// out\n    tag_14:\n      dup3\n      dup1\n      sload\n      dup3\n      dup3\n      sstore\n      swap1\n      0x00\n      mstore\n      keccak256(0x00, 0x20)\n      swap1\n      dup2\n      add\n      swap3\n      dup3\n      iszero\n      tag_30\n      jumpi\n      swap2\n      0x20\n      mul\n      dup3\n      add\n    tag_31:\n      dup3\n      dup2\n      gt\n      iszero\n      tag_32\n      jumpi\n      dup3\n      mload\n      dup3\n      sstore\n      swap2\n      0x20\n      add\n      swap2\n      swap1\n      0x01\n      add\n      swap1\n      jump(tag_31)\n    tag_32:\n    tag_30:\n      pop\n      swap1\n      pop\n      tag_33\n      swap2\n      swap1\n      tag_34\n      jump\t// in\n    tag_33:\n      pop\n      swap1\n      jump\t// out\n    tag_34:\n    tag_35:\n      dup1\n      dup3\n      gt\n      iszero\n      tag_36\n      jumpi\n      0x00\n      dup2\n      0x00\n      swap1\n      sstore\n      pop\n      0x01\n      add\n      jump(tag_35)\n    tag_36:\n      pop\n      swap1\n      jump\t// out\n        /* \"#utility.yul\":7:121   */\n    tag_37:\n        /* \"#utility.yul\":74:80   */\n      0x00\n        /* \"#utility.yul\":108:113   */\n      dup2\n        /* \"#utility.yul\":102:114   */\n      mload\n        /* \"#utility.yul\":92:114   */\n      swap1\n      pop\n        /* \"#utility.yul\":7:121   */\n      swap2\n      swap1\n      pop\n      jump\t// out\n        /* \"#utility.yul\":127:311   */\n    tag_38:\n        /* \"#utility.yul\":226:237   */\n      0x00\n        /* \"#utility.yul\":260:266   */\n      dup3\n        /* \"#utility.yul\":255:258   */\n      dup3\n        /* \"#utility.yul\":248:267   */\n      mstore\n        /* \"#utility.yul\":300:304   */\n      0x20\n        /* \"#utility.yul\":295:298   */\n      dup3\n        /* \"#utility.yul\":291:305   */\n      add\n        /* \"#utility.yul\":276:305   */\n      swap1\n      pop\n        /* \"#utility.yul\":127:311   */\n      swap3\n      swap2\n      pop\n      pop\n      jump\t// out\n        /* \"#utility.yul\":317:449   */\n    tag_39:\n        /* \"#utility.yul\":384:388   */\n      0x00\n        /* \"#utility.yul\":407:410   */\n      dup2\n        /* \"#utility.yul\":399:410   */\n      swap1\n      pop\n        /* \"#utility.yul\":437:441   */\n      0x20\n        /* \"#utility.yul\":432:435   */\n      dup3\n        /* \"#utility.yul\":428:442   */\n      add\n        /* \"#utility.yul\":420:442   */\n      swap1\n      pop\n        /* \"#utility.yul\":317:449   */\n      swap2\n      swap1\n      pop\n      jump\t// out\n        /* \"#utility.yul\":455:532   */\n    tag_40:\n        /* \"#utility.yul\":492:499   */\n      0x00\n        /* \"#utility.yul\":521:526   */\n      dup2\n        /* \"#utility.yul\":510:526   */\n      swap1\n      pop\n        /* \"#utility.yul\":455:532   */\n      swap2\n      swap1\n      pop\n      jump\t// out\n        /* \"#utility.yul\":538:646   */\n    tag_41:\n        /* \"#utility.yul\":615:639   */\n      tag_51\n        /* \"#utility.yul\":633:638   */\n      dup2\n        /* \"#utility.yul\":615:639   */\n      tag_40\n      jump\t// in\n    tag_51:\n        /* \"#utility.yul\":610:613   */\n      dup3\n        /* \"#utility.yul\":603:640   */\n      mstore\n        /* \"#utility.yul\":538:646   */\n      pop\n      pop\n      jump\t// out\n        /* \"#utility.yul\":652:831   */\n    tag_42:\n        /* \"#utility.yul\":721:731   */\n      0x00\n        /* \"#utility.yul\":742:788   */\n      tag_53\n        /* \"#utility.yul\":784:787   */\n      dup4\n        /* \"#utility.yul\":776:782   */\n      dup4\n        /* \"#utility.yul\":742:788   */\n      tag_41\n      jump\t// in\n    tag_53:\n        /* \"#utility.yul\":820:824   */\n      0x20\n        /* \"#utility.yul\":815:818   */\n      dup4\n        /* \"#utility.yul\":811:825   */\n      add\n        /* \"#utility.yul\":797:825   */\n      swap1\n      pop\n        /* \"#utility.yul\":652:831   */\n      swap3\n      swap2\n      pop\n      pop\n      jump\t// out\n        /* \"#utility.yul\":837:950   */\n    tag_43:\n        /* \"#utility.yul\":907:911   */\n      0x00\n        /* \"#utility.yul\":939:943   */\n      0x20\n        /* \"#utility.yul\":934:937   */\n      dup3\n        /* \"#utility.yul\":930:944   */\n      add\n        /* \"#utility.yul\":922:944   */\n      swap1\n      pop\n        /* \"#utility.yul\":837:950   */\n      swap2\n      swap1\n      pop\n      jump\t// out\n        /* \"#utility.yul\":986:1718   */\n    tag_44:\n        /* \"#utility.yul\":1105:1108   */\n      0x00\n        /* \"#utility.yul\":1134:1188   */\n      tag_56\n        /* \"#utility.yul\":1182:1187   */\n      dup3\n        /* \"#utility.yul\":1134:1188   */\n      tag_37\n      jump\t// in\n    tag_56:\n        /* \"#utility.yul\":1204:1290   */\n      tag_57\n        /* \"#utility.yul\":1283:1289   */\n      dup2\n        /* \"#utility.yul\":1278:1281   */\n      dup6\n        /* \"#utility.yul\":1204:1290   */\n      tag_38\n      jump\t// in\n    tag_57:\n        /* \"#utility.yul\":1197:1290   */\n      swap4\n      pop\n        /* \"#utility.yul\":1314:1370   */\n      tag_58\n        /* \"#utility.yul\":1364:1369   */\n      dup4\n        /* \"#utility.yul\":1314:1370   */\n      tag_39\n      jump\t// in\n    tag_58:\n        /* \"#utility.yul\":1393:1400   */\n      dup1\n        /* \"#utility.yul\":1424:1425   */\n      0x00\n        /* \"#utility.yul\":1409:1693   */\n    tag_59:\n        /* \"#utility.yul\":1434:1440   */\n      dup4\n        /* \"#utility.yul\":1431:1432   */\n      dup2\n        /* \"#utility.yul\":1428:1441   */\n      lt\n        /* \"#utility.yul\":1409:1693   */\n      iszero\n      tag_61\n      jumpi\n        /* \"#utility.yul\":1510:1516   */\n      dup2\n        /* \"#utility.yul\":1504:1517   */\n      mload\n        /* \"#utility.yul\":1537:1600   */\n      tag_62\n        /* \"#utility.yul\":1596:1599   */\n      dup9\n        /* \"#utility.yul\":1581:1594   */\n      dup3\n        /* \"#utility.yul\":1537:1600   */\n      tag_42\n      jump\t// in\n    tag_62:\n        /* \"#utility.yul\":1530:1600   */\n      swap8\n      pop\n        /* \"#utility.yul\":1623:1683   */\n      tag_63\n        /* \"#utility.yul\":1676:1682   */\n      dup4\n        /* \"#utility.yul\":1623:1683   */\n      tag_43\n      jump\t// in\n    tag_63:\n        /* \"#utility.yul\":1613:1683   */\n      swap3\n      pop\n        /* \"#utility.yul\":1469:1693   */\n      pop\n        /* \"#utility.yul\":1456:1457   */\n      0x01\n        /* \"#utility.yul\":1453:1454   */\n      dup2\n        /* \"#utility.yul\":1449:1458   */\n      add\n        /* \"#utility.yul\":1444:1458   */\n      swap1\n      pop\n        /* \"#utility.yul\":1409:1693   */\n      jump(tag_59)\n    tag_61:\n        /* \"#utility.yul\":1413:1427   */\n      pop\n        /* \"#utility.yul\":1709:1712   */\n      dup6\n        /* \"#utility.yul\":1702:1712   */\n      swap4\n      pop\n        /* \"#utility.yul\":1110:1718   */\n      pop\n      pop\n      pop\n        /* \"#utility.yul\":986:1718   */\n      swap3\n      swap2\n      pop\n      pop\n      jump\t// out\n        /* \"#utility.yul\":1724:2097   */\n    tag_8:\n        /* \"#utility.yul\":1867:1871   */\n      0x00\n        /* \"#utility.yul\":1905:1907   */\n      0x20\n        /* \"#utility.yul\":1894:1903   */\n      dup3\n        /* \"#utility.yul\":1890:1908   */\n      add\n        /* \"#utility.yul\":1882:1908   */\n      swap1\n      pop\n        /* \"#utility.yul\":1954:1963   */\n      dup2\n        /* \"#utility.yul\":1948:1952   */\n      dup2\n        /* \"#utility.yul\":1944:1964   */\n      sub\n        /* \"#utility.yul\":1940:1941   */\n      0x00\n        /* \"#utility.yul\":1929:1938   */\n      dup4\n        /* \"#utility.yul\":1925:1942   */\n      add\n        /* \"#utility.yul\":1918:1965   */\n      mstore\n        /* \"#utility.yul\":1982:2090   */\n      tag_65\n        /* \"#utility.yul\":2085:2089   */\n      dup2\n        /* \"#utility.yul\":2076:2082   */\n      dup5\n        /* \"#utility.yul\":1982:2090   */\n      tag_44\n      jump\t// in\n    tag_65:\n        /* \"#utility.yul\":1974:2090   */\n      swap1\n      pop\n        /* \"#utility.yul\":1724:2097   */\n      swap3\n      swap2\n      pop\n      pop\n      jump\t// out\n        /* \"#utility.yul\":2103:2283   */\n    tag_21:\n        /* \"#utility.yul\":2151:2228   */\n      0x4e487b7100000000000000000000000000000000000000000000000000000000\n        /* \"#utility.yul\":2148:2149   */\n      0x00\n        /* \"#utility.yul\":2141:2229   */\n      mstore\n        /* \"#utility.yul\":2248:2252   */\n      0x41\n        /* \"#utility.yul\":2245:2246   */\n      0x04\n        /* \"#utility.yul\":2238:2253   */\n      mstore\n        /* \"#utility.yul\":2272:2276   */\n      0x24\n        /* \"#utility.yul\":2269:2270   */\n      0x00\n        /* \"#utility.yul\":2262:2277   */\n      revert\n        /* \"#utility.yul\":2289:2469   */\n    tag_25:\n        /* \"#utility.yul\":2337:2414   */\n      0x4e487b7100000000000000000000000000000000000000000000000000000000\n        /* \"#utility.yul\":2334:2335   */\n      0x00\n        /* \"#utility.yul\":2327:2415   */\n      mstore\n        /* \"#utility.yul\":2434:2438   */\n      0x32\n        /* \"#utility.yul\":2431:2432   */\n      0x04\n        /* \"#utility.yul\":2424:2439   */\n      mstore\n        /* \"#utility.yul\":2458:2462   */\n      0x24\n        /* \"#utility.yul\":2455:2456   */\n      0x00\n        /* \"#utility.yul\":2448:2463   */\n      revert\n\n    auxdata: 0xa264697066735822122000b982275e8917c5b14b6605e495307880c4c01cdad1625b3c0d6a69e00692b464736f6c63430008120033\n}\n",
				"bytecode": {
					"linkReferences": {},
					"object": "6080604052600567ffffffffffffffff81111562000022576200002162000152565b5b604051908082528060200260200182016040528015620000515781602001602082028036833780820191505090505b506071908051906020019062000069929190620000e1565b50600967ffffffffffffffff81111562000088576200008762000152565b5b6040519080825280601f01601f191660200182016040528015620000bb5781602001600182028036833780820191505090505b5060729081620000cc9190620003cc565b50348015620000da57600080fd5b50620004b3565b82805482825590600052602060002090810192821562000120579160200282015b828111156200011f57825182559160200191906001019062000102565b5b5090506200012f919062000133565b5090565b5b808211156200014e57600081600090555060010162000134565b5090565b7f4e487b7100000000000000000000000000000000000000000000000000000000600052604160045260246000fd5b600081519050919050565b7f4e487b7100000000000000000000000000000000000000000000000000000000600052602260045260246000fd5b60006002820490506001821680620001d457607f821691505b602082108103620001ea57620001e96200018c565b5b50919050565b60008190508160005260206000209050919050565b60006020601f8301049050919050565b600082821b905092915050565b600060088302620002547fffffffffffffffffffffffffffffffffffffffffffffffffffffffffffffffff8262000215565b62000260868362000215565b95508019841693508086168417925050509392505050565b6000819050919050565b6000819050919050565b6000620002ad620002a7620002a18462000278565b62000282565b62000278565b9050919050565b6000819050919050565b620002c9836200028c565b620002e1620002d882620002b4565b84845462000222565b825550505050565b600090565b620002f8620002e9565b62000305818484620002be565b505050565b5b818110156200032d5762000321600082620002ee565b6001810190506200030b565b5050565b601f8211156200037c576200034681620001f0565b620003518462000205565b8101602085101562000361578190505b62000379620003708562000205565b8301826200030a565b50505b505050565b600082821c905092915050565b6000620003a16000198460080262000381565b1980831691505092915050565b6000620003bc83836200038e565b9150826002028217905092915050565b620003d78262000181565b67ffffffffffffffff811115620003f357620003f262000152565b5b620003ff8254620001bb565b6200040c82828562000331565b600060209050601f8311600181146200044457600084156200042f578287015190505b6200043b8582620003ae565b865550620004ab565b601f1984166200045486620001f0565b60005b828110156200047e5784890151825560018201915060208501945060208101905062000457565b868310156200049e57848901516200049a601f8916826200038e565b8355505b6001600288020188555050505b505050505050565b6103cc80620004c36000396000f3fe608060405234801561001057600080fd5b50600436106100365760003560e01c806347f6ac111461003b57806382a8181b14610059575b600080fd5b610043610077565b6040516100509190610316565b60405180910390f35b610061610127565b60405161006e9190610316565b60405180910390f35b606060006040518060400160405280600181526020016002815250905080606d9060026100a59291906101e4565b50606d60039080600181540180825580915050600190039060005260206000200160009091909190915055606d80548060200260200160405190810160405280929190818152602001828054801561011c57602002820191906000526020600020905b815481526020019060010190808311610108575b505050505091505090565b60606000600367ffffffffffffffff81111561014657610145610338565b5b6040519080825280602002602001820160405280156101745781602001602082028036833780820191505090505b50905060018160008151811061018d5761018c610367565b5b6020026020010181815250506003816001815181106101af576101ae610367565b5b6020026020010181815250506004816002815181106101d1576101d0610367565b5b6020026020010181815250508091505090565b828054828255906000526020600020908101928215610220579160200282015b8281111561021f578251825591602001919060010190610204565b5b50905061022d9190610231565b5090565b5b8082111561024a576000816000905550600101610232565b5090565b600081519050919050565b600082825260208201905092915050565b6000819050602082019050919050565b6000819050919050565b61028d8161027a565b82525050565b600061029f8383610284565b60208301905092915050565b6000602082019050919050565b60006102c38261024e565b6102cd8185610259565b93506102d88361026a565b8060005b838110156103095781516102f08882610293565b97506102fb836102ab565b9250506001810190506102dc565b5085935050505092915050565b6000602082019050818103600083015261033081846102b8565b905092915050565b7f4e487b7100000000000000000000000000000000000000000000000000000000600052604160045260246000fd5b7f4e487b7100000000000000000000000000000000000000000000000000000000600052603260045260246000fdfea264697066735822122000b982275e8917c5b14b6605e495307880c4c01cdad1625b3c0d6a69e00692b464736f6c63430008120033",
					"opcodes": "PUSH1 0x80 PUSH1 0x40 MSTORE PUSH1 0x5 PUSH8 0xFFFFFFFFFFFFFFFF DUP2 GT ISZERO PUSH3 0x22 JUMPI PUSH3 0x21 PUSH3 0x152 JUMP JUMPDEST JUMPDEST PUSH1 0x40 MLOAD SWAP1 DUP1 DUP3 MSTORE DUP1 PUSH1 0x20 MUL PUSH1 0x20 ADD DUP3 ADD PUSH1 0x40 MSTORE DUP1 ISZERO PUSH3 0x51 JUMPI DUP2 PUSH1 0x20 ADD PUSH1 0x20 DUP3 MUL DUP1 CALLDATASIZE DUP4 CALLDATACOPY DUP1 DUP3 ADD SWAP2 POP POP SWAP1 POP JUMPDEST POP PUSH1 0x71 SWAP1 DUP1 MLOAD SWAP1 PUSH1 0x20 ADD SWAP1 PUSH3 0x69 SWAP3 SWAP2 SWAP1 PUSH3 0xE1 JUMP JUMPDEST POP PUSH1 0x9 PUSH8 0xFFFFFFFFFFFFFFFF DUP2 GT ISZERO PUSH3 0x88 JUMPI PUSH3 0x87 PUSH3 0x152 JUMP JUMPDEST JUMPDEST PUSH1 0x40 MLOAD SWAP1 DUP1 DUP3 MSTORE DUP1 PUSH1 0x1F ADD PUSH1 0x1F NOT AND PUSH1 0x20 ADD DUP3 ADD PUSH1 0x40 MSTORE DUP1 ISZERO PUSH3 0xBB JUMPI DUP2 PUSH1 0x20 ADD PUSH1 0x1 DUP3 MUL DUP1 CALLDATASIZE DUP4 CALLDATACOPY DUP1 DUP3 ADD SWAP2 POP POP SWAP1 POP JUMPDEST POP PUSH1 0x72 SWAP1 DUP2 PUSH3 0xCC SWAP2 SWAP1 PUSH3 0x3CC JUMP JUMPDEST POP CALLVALUE DUP1 ISZERO PUSH3 0xDA JUMPI PUSH1 0x0 DUP1 REVERT JUMPDEST POP PUSH3 0x4B3 JUMP JUMPDEST DUP3 DUP1 SLOAD DUP3 DUP3 SSTORE SWAP1 PUSH1 0x0 MSTORE PUSH1 0x20 PUSH1 0x0 KECCAK256 SWAP1 DUP2 ADD SWAP3 DUP3 ISZERO PUSH3 0x120 JUMPI SWAP2 PUSH1 0x20 MUL DUP3 ADD JUMPDEST DUP3 DUP2 GT ISZERO PUSH3 0x11F JUMPI DUP3 MLOAD DUP3 SSTORE SWAP2 PUSH1 0x20 ADD SWAP2 SWAP1 PUSH1 0x1 ADD SWAP1 PUSH3 0x102 JUMP JUMPDEST JUMPDEST POP SWAP1 POP PUSH3 0x12F SWAP2 SWAP1 PUSH3 0x133 JUMP JUMPDEST POP SWAP1 JUMP JUMPDEST JUMPDEST DUP1 DUP3 GT ISZERO PUSH3 0x14E JUMPI PUSH1 0x0 DUP2 PUSH1 0x0 SWAP1 SSTORE POP PUSH1 0x1 ADD PUSH3 0x134 JUMP JUMPDEST POP SWAP1 JUMP JUMPDEST PUSH32 0x4E487B7100000000000000000000000000000000000000000000000000000000 PUSH1 0x0 MSTORE PUSH1 0x41 PUSH1 0x4 MSTORE PUSH1 0x24 PUSH1 0x0 REVERT JUMPDEST PUSH1 0x0 DUP2 MLOAD SWAP1 POP SWAP2 SWAP1 POP JUMP JUMPDEST PUSH32 0x4E487B7100000000000000000000000000000000000000000000000000000000 PUSH1 0x0 MSTORE PUSH1 0x22 PUSH1 0x4 MSTORE PUSH1 0x24 PUSH1 0x0 REVERT JUMPDEST PUSH1 0x0 PUSH1 0x2 DUP3 DIV SWAP1 POP PUSH1 0x1 DUP3 AND DUP1 PUSH3 0x1D4 JUMPI PUSH1 0x7F DUP3 AND SWAP2 POP JUMPDEST PUSH1 0x20 DUP3 LT DUP2 SUB PUSH3 0x1EA JUMPI PUSH3 0x1E9 PUSH3 0x18C JUMP JUMPDEST JUMPDEST POP SWAP2 SWAP1 POP JUMP JUMPDEST PUSH1 0x0 DUP2 SWAP1 POP DUP2 PUSH1 0x0 MSTORE PUSH1 0x20 PUSH1 0x0 KECCAK256 SWAP1 POP SWAP2 SWAP1 POP JUMP JUMPDEST PUSH1 0x0 PUSH1 0x20 PUSH1 0x1F DUP4 ADD DIV SWAP1 POP SWAP2 SWAP1 POP JUMP JUMPDEST PUSH1 0x0 DUP3 DUP3 SHL SWAP1 POP SWAP3 SWAP2 POP POP JUMP JUMPDEST PUSH1 0x0 PUSH1 0x8 DUP4 MUL PUSH3 0x254 PUSH32 0xFFFFFFFFFFFFFFFFFFFFFFFFFFFFFFFFFFFFFFFFFFFFFFFFFFFFFFFFFFFFFFFF DUP3 PUSH3 0x215 JUMP JUMPDEST PUSH3 0x260 DUP7 DUP4 PUSH3 0x215 JUMP JUMPDEST SWAP6 POP DUP1 NOT DUP5 AND SWAP4 POP DUP1 DUP7 AND DUP5 OR SWAP3 POP POP POP SWAP4 SWAP3 POP POP POP JUMP JUMPDEST PUSH1 0x0 DUP2 SWAP1 POP SWAP2 SWAP1 POP JUMP JUMPDEST PUSH1 0x0 DUP2 SWAP1 POP SWAP2 SWAP1 POP JUMP JUMPDEST PUSH1 0x0 PUSH3 0x2AD PUSH3 0x2A7 PUSH3 0x2A1 DUP5 PUSH3 0x278 JUMP JUMPDEST PUSH3 0x282 JUMP JUMPDEST PUSH3 0x278 JUMP JUMPDEST SWAP1 POP SWAP2 SWAP1 POP JUMP JUMPDEST PUSH1 0x0 DUP2 SWAP1 POP SWAP2 SWAP1 POP JUMP JUMPDEST PUSH3 0x2C9 DUP4 PUSH3 0x28C JUMP JUMPDEST PUSH3 0x2E1 PUSH3 0x2D8 DUP3 PUSH3 0x2B4 JUMP JUMPDEST DUP5 DUP5 SLOAD PUSH3 0x222 JUMP JUMPDEST DUP3 SSTORE POP POP POP POP JUMP JUMPDEST PUSH1 0x0 SWAP1 JUMP JUMPDEST PUSH3 0x2F8 PUSH3 0x2E9 JUMP JUMPDEST PUSH3 0x305 DUP2 DUP5 DUP5 PUSH3 0x2BE JUMP JUMPDEST POP POP POP JUMP JUMPDEST JUMPDEST DUP2 DUP2 LT ISZERO PUSH3 0x32D JUMPI PUSH3 0x321 PUSH1 0x0 DUP3 PUSH3 0x2EE JUMP JUMPDEST PUSH1 0x1 DUP2 ADD SWAP1 POP PUSH3 0x30B JUMP JUMPDEST POP POP JUMP JUMPDEST PUSH1 0x1F DUP3 GT ISZERO PUSH3 0x37C JUMPI PUSH3 0x346 DUP2 PUSH3 0x1F0 JUMP JUMPDEST PUSH3 0x351 DUP5 PUSH3 0x205 JUMP JUMPDEST DUP2 ADD PUSH1 0x20 DUP6 LT ISZERO PUSH3 0x361 JUMPI DUP2 SWAP1 POP JUMPDEST PUSH3 0x379 PUSH3 0x370 DUP6 PUSH3 0x205 JUMP JUMPDEST DUP4 ADD DUP3 PUSH3 0x30A JUMP JUMPDEST POP POP JUMPDEST POP POP POP JUMP JUMPDEST PUSH1 0x0 DUP3 DUP3 SHR SWAP1 POP SWAP3 SWAP2 POP POP JUMP JUMPDEST PUSH1 0x0 PUSH3 0x3A1 PUSH1 0x0 NOT DUP5 PUSH1 0x8 MUL PUSH3 0x381 JUMP JUMPDEST NOT DUP1 DUP4 AND SWAP2 POP POP SWAP3 SWAP2 POP POP JUMP JUMPDEST PUSH1 0x0 PUSH3 0x3BC DUP4 DUP4 PUSH3 0x38E JUMP JUMPDEST SWAP2 POP DUP3 PUSH1 0x2 MUL DUP3 OR SWAP1 POP SWAP3 SWAP2 POP POP JUMP JUMPDEST PUSH3 0x3D7 DUP3 PUSH3 0x181 JUMP JUMPDEST PUSH8 0xFFFFFFFFFFFFFFFF DUP2 GT ISZERO PUSH3 0x3F3 JUMPI PUSH3 0x3F2 PUSH3 0x152 JUMP JUMPDEST JUMPDEST PUSH3 0x3FF DUP3 SLOAD PUSH3 0x1BB JUMP JUMPDEST PUSH3 0x40C DUP3 DUP3 DUP6 PUSH3 0x331 JUMP JUMPDEST PUSH1 0x0 PUSH1 0x20 SWAP1 POP PUSH1 0x1F DUP4 GT PUSH1 0x1 DUP2 EQ PUSH3 0x444 JUMPI PUSH1 0x0 DUP5 ISZERO PUSH3 0x42F JUMPI DUP3 DUP8 ADD MLOAD SWAP1 POP JUMPDEST PUSH3 0x43B DUP6 DUP3 PUSH3 0x3AE JUMP JUMPDEST DUP7 SSTORE POP PUSH3 0x4AB JUMP JUMPDEST PUSH1 0x1F NOT DUP5 AND PUSH3 0x454 DUP7 PUSH3 0x1F0 JUMP JUMPDEST PUSH1 0x0 JUMPDEST DUP3 DUP2 LT ISZERO PUSH3 0x47E JUMPI DUP5 DUP10 ADD MLOAD DUP3 SSTORE PUSH1 0x1 DUP3 ADD SWAP2 POP PUSH1 0x20 DUP6 ADD SWAP5 POP PUSH1 0x20 DUP2 ADD SWAP1 POP PUSH3 0x457 JUMP JUMPDEST DUP7 DUP4 LT ISZERO PUSH3 0x49E JUMPI DUP5 DUP10 ADD MLOAD PUSH3 0x49A PUSH1 0x1F DUP10 AND DUP3 PUSH3 0x38E JUMP JUMPDEST DUP4 SSTORE POP JUMPDEST PUSH1 0x1 PUSH1 0x2 DUP9 MUL ADD DUP9 SSTORE POP POP POP JUMPDEST POP POP POP POP POP POP JUMP JUMPDEST PUSH2 0x3CC DUP1 PUSH3 0x4C3 PUSH1 0x0 CODECOPY PUSH1 0x0 RETURN INVALID PUSH1 0x80 PUSH1 0x40 MSTORE CALLVALUE DUP1 ISZERO PUSH2 0x10 JUMPI PUSH1 0x0 DUP1 REVERT JUMPDEST POP PUSH1 0x4 CALLDATASIZE LT PUSH2 0x36 JUMPI PUSH1 0x0 CALLDATALOAD PUSH1 0xE0 SHR DUP1 PUSH4 0x47F6AC11 EQ PUSH2 0x3B JUMPI DUP1 PUSH4 0x82A8181B EQ PUSH2 0x59 JUMPI JUMPDEST PUSH1 0x0 DUP1 REVERT JUMPDEST PUSH2 0x43 PUSH2 0x77 JUMP JUMPDEST PUSH1 0x40 MLOAD PUSH2 0x50 SWAP2 SWAP1 PUSH2 0x316 JUMP JUMPDEST PUSH1 0x40 MLOAD DUP1 SWAP2 SUB SWAP1 RETURN JUMPDEST PUSH2 0x61 PUSH2 0x127 JUMP JUMPDEST PUSH1 0x40 MLOAD PUSH2 0x6E SWAP2 SWAP1 PUSH2 0x316 JUMP JUMPDEST PUSH1 0x40 MLOAD DUP1 SWAP2 SUB SWAP1 RETURN JUMPDEST PUSH1 0x60 PUSH1 0x0 PUSH1 0x40 MLOAD DUP1 PUSH1 0x40 ADD PUSH1 0x40 MSTORE DUP1 PUSH1 0x1 DUP2 MSTORE PUSH1 0x20 ADD PUSH1 0x2 DUP2 MSTORE POP SWAP1 POP DUP1 PUSH1 0x6D SWAP1 PUSH1 0x2 PUSH2 0xA5 SWAP3 SWAP2 SWAP1 PUSH2 0x1E4 JUMP JUMPDEST POP PUSH1 0x6D PUSH1 0x3 SWAP1 DUP1 PUSH1 0x1 DUP2 SLOAD ADD DUP1 DUP3 SSTORE DUP1 SWAP2 POP POP PUSH1 0x1 SWAP1 SUB SWAP1 PUSH1 0x0 MSTORE PUSH1 0x20 PUSH1 0x0 KECCAK256 ADD PUSH1 0x0 SWAP1 SWAP2 SWAP1 SWAP2 SWAP1 SWAP2 POP SSTORE PUSH1 0x6D DUP1 SLOAD DUP1 PUSH1 0x20 MUL PUSH1 0x20 ADD PUSH1 0x40 MLOAD SWAP1 DUP2 ADD PUSH1 0x40 MSTORE DUP1 SWAP3 SWAP2 SWAP1 DUP2 DUP2 MSTORE PUSH1 0x20 ADD DUP3 DUP1 SLOAD DUP1 ISZERO PUSH2 0x11C JUMPI PUSH1 0x20 MUL DUP3 ADD SWAP2 SWAP1 PUSH1 0x0 MSTORE PUSH1 0x20 PUSH1 0x0 KECCAK256 SWAP1 JUMPDEST DUP2 SLOAD DUP2 MSTORE PUSH1 0x20 ADD SWAP1 PUSH1 0x1 ADD SWAP1 DUP1 DUP4 GT PUSH2 0x108 JUMPI JUMPDEST POP POP POP POP POP SWAP2 POP POP SWAP1 JUMP JUMPDEST PUSH1 0x60 PUSH1 0x0 PUSH1 0x3 PUSH8 0xFFFFFFFFFFFFFFFF DUP2 GT ISZERO PUSH2 0x146 JUMPI PUSH2 0x145 PUSH2 0x338 JUMP JUMPDEST JUMPDEST PUSH1 0x40 MLOAD SWAP1 DUP1 DUP3 MSTORE DUP1 PUSH1 0x20 MUL PUSH1 0x20 ADD DUP3 ADD PUSH1 0x40 MSTORE DUP1 ISZERO PUSH2 0x174 JUMPI DUP2 PUSH1 0x20 ADD PUSH1 0x20 DUP3 MUL DUP1 CALLDATASIZE DUP4 CALLDATACOPY DUP1 DUP3 ADD SWAP2 POP POP SWAP1 POP JUMPDEST POP SWAP1 POP PUSH1 0x1 DUP2 PUSH1 0x0 DUP2 MLOAD DUP2 LT PUSH2 0x18D JUMPI PUSH2 0x18C PUSH2 0x367 JUMP JUMPDEST JUMPDEST PUSH1 0x20 MUL PUSH1 0x20 ADD ADD DUP2 DUP2 MSTORE POP POP PUSH1 0x3 DUP2 PUSH1 0x1 DUP2 MLOAD DUP2 LT PUSH2 0x1AF JUMPI PUSH2 0x1AE PUSH2 0x367 JUMP JUMPDEST JUMPDEST PUSH1 0x20 MUL PUSH1 0x20 ADD ADD DUP2 DUP2 MSTORE POP POP PUSH1 0x4 DUP2 PUSH1 0x2 DUP2 MLOAD DUP2 LT PUSH2 0x1D1 JUMPI PUSH2 0x1D0 PUSH2 0x367 JUMP JUMPDEST JUMPDEST PUSH1 0x20 MUL PUSH1 0x20 ADD ADD DUP2 DUP2 MSTORE POP POP DUP1 SWAP2 POP POP SWAP1 JUMP JUMPDEST DUP3 DUP1 SLOAD DUP3 DUP3 SSTORE SWAP1 PUSH1 0x0 MSTORE PUSH1 0x20 PUSH1 0x0 KECCAK256 SWAP1 DUP2 ADD SWAP3 DUP3 ISZERO PUSH2 0x220 JUMPI SWAP2 PUSH1 0x20 MUL DUP3 ADD JUMPDEST DUP3 DUP2 GT ISZERO PUSH2 0x21F JUMPI DUP3 MLOAD DUP3 SSTORE SWAP2 PUSH1 0x20 ADD SWAP2 SWAP1 PUSH1 0x1 ADD SWAP1 PUSH2 0x204 JUMP JUMPDEST JUMPDEST POP SWAP1 POP PUSH2 0x22D SWAP2 SWAP1 PUSH2 0x231 JUMP JUMPDEST POP SWAP1 JUMP JUMPDEST JUMPDEST DUP1 DUP3 GT ISZERO PUSH2 0x24A JUMPI PUSH1 0x0 DUP2 PUSH1 0x0 SWAP1 SSTORE POP PUSH1 0x1 ADD PUSH2 0x232 JUMP JUMPDEST POP SWAP1 JUMP JUMPDEST PUSH1 0x0 DUP2 MLOAD SWAP1 POP SWAP2 SWAP1 POP JUMP JUMPDEST PUSH1 0x0 DUP3 DUP3 MSTORE PUSH1 0x20 DUP3 ADD SWAP1 POP SWAP3 SWAP2 POP POP JUMP JUMPDEST PUSH1 0x0 DUP2 SWAP1 POP PUSH1 0x20 DUP3 ADD SWAP1 POP SWAP2 SWAP1 POP JUMP JUMPDEST PUSH1 0x0 DUP2 SWAP1 POP SWAP2 SWAP1 POP JUMP JUMPDEST PUSH2 0x28D DUP2 PUSH2 0x27A JUMP JUMPDEST DUP3 MSTORE POP POP JUMP JUMPDEST PUSH1 0x0 PUSH2 0x29F DUP4 DUP4 PUSH2 0x284 JUMP JUMPDEST PUSH1 0x20 DUP4 ADD SWAP1 POP SWAP3 SWAP2 POP POP JUMP JUMPDEST PUSH1 0x0 PUSH1 0x20 DUP3 ADD SWAP1 POP SWAP2 SWAP1 POP JUMP JUMPDEST PUSH1 0x0 PUSH2 0x2C3 DUP3 PUSH2 0x24E JUMP JUMPDEST PUSH2 0x2CD DUP2 DUP6 PUSH2 0x259 JUMP JUMPDEST SWAP4 POP PUSH2 0x2D8 DUP4 PUSH2 0x26A JUMP JUMPDEST DUP1 PUSH1 0x0 JUMPDEST DUP4 DUP2 LT ISZERO PUSH2 0x309 JUMPI DUP2 MLOAD PUSH2 0x2F0 DUP9 DUP3 PUSH2 0x293 JUMP JUMPDEST SWAP8 POP PUSH2 0x2FB DUP4 PUSH2 0x2AB JUMP JUMPDEST SWAP3 POP POP PUSH1 0x1 DUP2 ADD SWAP1 POP PUSH2 0x2DC JUMP JUMPDEST POP DUP6 SWAP4 POP POP POP POP SWAP3 SWAP2 POP POP JUMP JUMPDEST PUSH1 0x0 PUSH1 0x20 DUP3 ADD SWAP1 POP DUP2 DUP2 SUB PUSH1 0x0 DUP4 ADD MSTORE PUSH2 0x330 DUP2 DUP5 PUSH2 0x2B8 JUMP JUMPDEST SWAP1 POP SWAP3 SWAP2 POP POP JUMP JUMPDEST PUSH32 0x4E487B7100000000000000000000000000000000000000000000000000000000 PUSH1 0x0 MSTORE PUSH1 0x41 PUSH1 0x4 MSTORE PUSH1 0x24 PUSH1 0x0 REVERT JUMPDEST PUSH32 0x4E487B7100000000000000000000000000000000000000000000000000000000 PUSH1 0x0 MSTORE PUSH1 0x32 PUSH1 0x4 MSTORE PUSH1 0x24 PUSH1 0x0 REVERT INVALID LOG2 PUSH5 0x6970667358 0x22 SLT KECCAK256 STOP 0xB9 DUP3 0x27 0x5E DUP10 OR 0xC5 0xB1 0x4B PUSH7 0x5E495307880C4 0xC0 SHR 0xDA 0xD1 PUSH3 0x5B3C0D PUSH11 0x69E00692B464736F6C6343 STOP ADDMOD SLT STOP CALLER "
				},
				"gasEstimates": {
					"creation": {
						"codeDepositCost": "194400",
						"executionCost": "infinite",
						"totalCost": "infinite"
					},
					"external": {
						"arrayPush()": "infinite",
						"initArray()": "infinite"
					}
				},
				"methodIdentifiers": {
					"arrayPush()": "47f6ac11",
					"initArray()": "82a8181b"
				}
			},
			"storageLayout": {
				"storage": [
					{
						"astId": 5,
						"contract": "6.引用类型/ArrayTypes.sol:ArrayTypes",
						"label": "array1",
						"offset": 0,
						"slot": "0",
						"type": "t_array(t_uint256)8_storage"
					},
					{
						"astId": 9,
						"contract": "6.引用类型/ArrayTypes.sol:ArrayTypes",
						"label": "array2",
						"offset": 0,
						"slot": "8",
						"type": "t_array(t_bytes1)5_storage"
					},
					{
						"astId": 13,
						"contract": "6.引用类型/ArrayTypes.sol:ArrayTypes",
						"label": "array3",
						"offset": 0,
						"slot": "9",
						"type": "t_array(t_address)100_storage"
					},
					{
						"astId": 16,
						"contract": "6.引用类型/ArrayTypes.sol:ArrayTypes",
						"label": "array4",
						"offset": 0,
						"slot": "109",
						"type": "t_array(t_uint256)dyn_storage"
					},
					{
						"astId": 19,
						"contract": "6.引用类型/ArrayTypes.sol:ArrayTypes",
						"label": "array5",
						"offset": 0,
						"slot": "110",
						"type": "t_array(t_bytes1)dyn_storage"
					},
					{
						"astId": 22,
						"contract": "6.引用类型/ArrayTypes.sol:ArrayTypes",
						"label": "array6",
						"offset": 0,
						"slot": "111",
						"type": "t_array(t_address)dyn_storage"
					},
					{
						"astId": 24,
						"contract": "6.引用类型/ArrayTypes.sol:ArrayTypes",
						"label": "array7",
						"offset": 0,
						"slot": "112",
						"type": "t_bytes_storage"
					},
					{
						"astId": 32,
						"contract": "6.引用类型/ArrayTypes.sol:ArrayTypes",
						"label": "array8",
						"offset": 0,
						"slot": "113",
						"type": "t_array(t_uint256)dyn_storage"
					},
					{
						"astId": 38,
						"contract": "6.引用类型/ArrayTypes.sol:ArrayTypes",
						"label": "array9",
						"offset": 0,
						"slot": "114",
						"type": "t_bytes_storage"
					}
				],
				"types": {
					"t_address": {
						"encoding": "inplace",
						"label": "address",
						"numberOfBytes": "20"
					},
					"t_array(t_address)100_storage": {
						"base": "t_address",
						"encoding": "inplace",
						"label": "address[100]",
						"numberOfBytes": "3200"
					},
					"t_array(t_address)dyn_storage": {
						"base": "t_address",
						"encoding": "dynamic_array",
						"label": "address[]",
						"numberOfBytes": "32"
					},
					"t_array(t_bytes1)5_storage": {
						"base": "t_bytes1",
						"encoding": "inplace",
						"label": "bytes1[5]",
						"numberOfBytes": "32"
					},
					"t_array(t_bytes1)dyn_storage": {
						"base": "t_bytes1",
						"encoding": "dynamic_array",
						"label": "bytes1[]",
						"numberOfBytes": "32"
					},
					"t_array(t_uint256)8_storage": {
						"base": "t_uint256",
						"encoding": "inplace",
						"label": "uint256[8]",
						"numberOfBytes": "256"
					},
					"t_array(t_uint256)dyn_storage": {
						"base": "t_uint256",
						"encoding": "dynamic_array",
						"label": "uint256[]",
						"numberOfBytes": "32"
					},
					"t_bytes1": {
						"encoding": "inplace",
						"label": "bytes1",
						"numberOfBytes": "1"
					},
					"t_bytes_storage": {
						"encoding": "bytes",
						"label": "bytes",
						"numberOfBytes": "32"
					},
					"t_uint256": {
						"encoding": "inplace",
						"label": "uint256",
						"numberOfBytes": "32"
					}
				}
			},
			"userdoc": {
				"kind": "user",
				"methods": {},
				"version": 1
			}
		}
	}
}