{
	"6.引用类型/ArrayTypes.sol": {
		"StructTypes": {
			"abi": [
				{
					"inputs": [],
					"name": "initStudent1",
					"outputs": [],
					"stateMutability": "nonpayable",
					"type": "function"
				},
				{
					"inputs": [],
					"name": "initStudent2",
					"outputs": [],
					"stateMutability": "nonpayable",
					"type": "function"
				},
				{
					"inputs": [],
					"name": "initStudent3",
					"outputs": [],
					"stateMutability": "nonpayable",
					"type": "function"
				},
				{
					"inputs": [],
					"name": "initStudent4",
					"outputs": [],
					"stateMutability": "nonpayable",
					"type": "function"
				},
				{
					"inputs": [],
					"name": "student",
					"outputs": [
						{
							"internalType": "uint256",
							"name": "id",
							"type": "uint256"
						},
						{
							"internalType": "uint256",
							"name": "score",
							"type": "uint256"
						}
					],
					"stateMutability": "view",
					"type": "function"
				}
			],
			"devdoc": {
				"kind": "dev",
				"methods": {},
				"version": 1
			},
			"evm": {
				"assembly": "    /* \"6.\\xe5\\xbc\\x95\\xe7\\x94\\xa8\\xe7\\xb1\\xbb\\xe5\\x9e\\x8b/ArrayTypes.sol\":821:1689  contract StructTypes {... */\n  mstore(0x40, 0x80)\n  callvalue\n  dup1\n  iszero\n  tag_1\n  jumpi\n  0x00\n  dup1\n  revert\ntag_1:\n  pop\n  dataSize(sub_0)\n  dup1\n  dataOffset(sub_0)\n  0x00\n  codecopy\n  0x00\n  return\nstop\n\nsub_0: assembly {\n        /* \"6.\\xe5\\xbc\\x95\\xe7\\x94\\xa8\\xe7\\xb1\\xbb\\xe5\\x9e\\x8b/ArrayTypes.sol\":821:1689  contract StructTypes {... */\n      mstore(0x40, 0x80)\n      callvalue\n      dup1\n      iszero\n      tag_1\n      jumpi\n      0x00\n      dup1\n      revert\n    tag_1:\n      pop\n      jumpi(tag_2, lt(calldatasize, 0x04))\n      shr(0xe0, calldataload(0x00))\n      dup1\n      0x1a8d7dc3\n      eq\n      tag_3\n      jumpi\n      dup1\n      0x5a4236b1\n      eq\n      tag_4\n      jumpi\n      dup1\n      0x699450e8\n      eq\n      tag_5\n      jumpi\n      dup1\n      0x9ebb8d20\n      eq\n      tag_6\n      jumpi\n      dup1\n      0xa8b63e6f\n      eq\n      tag_7\n      jumpi\n    tag_2:\n      0x00\n      dup1\n      revert\n        /* \"6.\\xe5\\xbc\\x95\\xe7\\x94\\xa8\\xe7\\xb1\\xbb\\xe5\\x9e\\x8b/ArrayTypes.sol\":1348:1443  function initStudent2() external {... */\n    tag_3:\n      tag_8\n      tag_9\n      jump\t// in\n    tag_8:\n      stop\n        /* \"6.\\xe5\\xbc\\x95\\xe7\\x94\\xa8\\xe7\\xb1\\xbb\\xe5\\x9e\\x8b/ArrayTypes.sol\":1486:1561  function initStudent3() external {... */\n    tag_4:\n      tag_10\n      tag_11\n      jump\t// in\n    tag_10:\n      stop\n        /* \"6.\\xe5\\xbc\\x95\\xe7\\x94\\xa8\\xe7\\xb1\\xbb\\xe5\\x9e\\x8b/ArrayTypes.sol\":950:972  Student public student */\n    tag_5:\n      tag_12\n      tag_13\n      jump\t// in\n    tag_12:\n      mload(0x40)\n      tag_14\n      swap3\n      swap2\n      swap1\n      tag_15\n      jump\t// in\n    tag_14:\n      mload(0x40)\n      dup1\n      swap2\n      sub\n      swap1\n      return\n        /* \"6.\\xe5\\xbc\\x95\\xe7\\x94\\xa8\\xe7\\xb1\\xbb\\xe5\\x9e\\x8b/ArrayTypes.sol\":1598:1684  function initStudent4() external {... */\n    tag_6:\n      tag_16\n      tag_17\n      jump\t// in\n    tag_16:\n      stop\n        /* \"6.\\xe5\\xbc\\x95\\xe7\\x94\\xa8\\xe7\\xb1\\xbb\\xe5\\x9e\\x8b/ArrayTypes.sol\":1111:1284  function initStudent1() external {... */\n    tag_7:\n      tag_18\n      tag_19\n      jump\t// in\n    tag_18:\n      stop\n        /* \"6.\\xe5\\xbc\\x95\\xe7\\x94\\xa8\\xe7\\xb1\\xbb\\xe5\\x9e\\x8b/ArrayTypes.sol\":1348:1443  function initStudent2() external {... */\n    tag_9:\n        /* \"6.\\xe5\\xbc\\x95\\xe7\\x94\\xa8\\xe7\\xb1\\xbb\\xe5\\x9e\\x8b/ArrayTypes.sol\":1405:1406  1 */\n      0x01\n        /* \"6.\\xe5\\xbc\\x95\\xe7\\x94\\xa8\\xe7\\xb1\\xbb\\xe5\\x9e\\x8b/ArrayTypes.sol\":1392:1399  student */\n      0x00\n        /* \"6.\\xe5\\xbc\\x95\\xe7\\x94\\xa8\\xe7\\xb1\\xbb\\xe5\\x9e\\x8b/ArrayTypes.sol\":1392:1402  student.id */\n      dup1\n      add\n        /* \"6.\\xe5\\xbc\\x95\\xe7\\x94\\xa8\\xe7\\xb1\\xbb\\xe5\\x9e\\x8b/ArrayTypes.sol\":1392:1406  student.id = 1 */\n      dup2\n      swap1\n      sstore\n      pop\n        /* \"6.\\xe5\\xbc\\x95\\xe7\\x94\\xa8\\xe7\\xb1\\xbb\\xe5\\x9e\\x8b/ArrayTypes.sol\":1433:1435  80 */\n      0x50\n        /* \"6.\\xe5\\xbc\\x95\\xe7\\x94\\xa8\\xe7\\xb1\\xbb\\xe5\\x9e\\x8b/ArrayTypes.sol\":1417:1424  student */\n      0x00\n        /* \"6.\\xe5\\xbc\\x95\\xe7\\x94\\xa8\\xe7\\xb1\\xbb\\xe5\\x9e\\x8b/ArrayTypes.sol\":1417:1430  student.score */\n      0x01\n      add\n        /* \"6.\\xe5\\xbc\\x95\\xe7\\x94\\xa8\\xe7\\xb1\\xbb\\xe5\\x9e\\x8b/ArrayTypes.sol\":1417:1435  student.score = 80 */\n      dup2\n      swap1\n      sstore\n      pop\n        /* \"6.\\xe5\\xbc\\x95\\xe7\\x94\\xa8\\xe7\\xb1\\xbb\\xe5\\x9e\\x8b/ArrayTypes.sol\":1348:1443  function initStudent2() external {... */\n      jump\t// out\n        /* \"6.\\xe5\\xbc\\x95\\xe7\\x94\\xa8\\xe7\\xb1\\xbb\\xe5\\x9e\\x8b/ArrayTypes.sol\":1486:1561  function initStudent3() external {... */\n    tag_11:\n        /* \"6.\\xe5\\xbc\\x95\\xe7\\x94\\xa8\\xe7\\xb1\\xbb\\xe5\\x9e\\x8b/ArrayTypes.sol\":1540:1553  Student(3,90) */\n      mload(0x40)\n      dup1\n      0x40\n      add\n      0x40\n      mstore\n      dup1\n        /* \"6.\\xe5\\xbc\\x95\\xe7\\x94\\xa8\\xe7\\xb1\\xbb\\xe5\\x9e\\x8b/ArrayTypes.sol\":1548:1549  3 */\n      0x03\n        /* \"6.\\xe5\\xbc\\x95\\xe7\\x94\\xa8\\xe7\\xb1\\xbb\\xe5\\x9e\\x8b/ArrayTypes.sol\":1540:1553  Student(3,90) */\n      dup2\n      mstore\n      0x20\n      add\n        /* \"6.\\xe5\\xbc\\x95\\xe7\\x94\\xa8\\xe7\\xb1\\xbb\\xe5\\x9e\\x8b/ArrayTypes.sol\":1550:1552  90 */\n      0x5a\n        /* \"6.\\xe5\\xbc\\x95\\xe7\\x94\\xa8\\xe7\\xb1\\xbb\\xe5\\x9e\\x8b/ArrayTypes.sol\":1540:1553  Student(3,90) */\n      dup2\n      mstore\n      pop\n        /* \"6.\\xe5\\xbc\\x95\\xe7\\x94\\xa8\\xe7\\xb1\\xbb\\xe5\\x9e\\x8b/ArrayTypes.sol\":1530:1537  student */\n      0x00\n        /* \"6.\\xe5\\xbc\\x95\\xe7\\x94\\xa8\\xe7\\xb1\\xbb\\xe5\\x9e\\x8b/ArrayTypes.sol\":1530:1553  student = Student(3,90) */\n      dup1\n      dup3\n      add\n      mload\n      dup2\n      0x00\n      add\n      sstore\n      0x20\n      dup3\n      add\n      mload\n      dup2\n      0x01\n      add\n      sstore\n      swap1\n      pop\n      pop\n        /* \"6.\\xe5\\xbc\\x95\\xe7\\x94\\xa8\\xe7\\xb1\\xbb\\xe5\\x9e\\x8b/ArrayTypes.sol\":1486:1561  function initStudent3() external {... */\n      jump\t// out\n        /* \"6.\\xe5\\xbc\\x95\\xe7\\x94\\xa8\\xe7\\xb1\\xbb\\xe5\\x9e\\x8b/ArrayTypes.sol\":950:972  Student public student */\n    tag_13:\n      0x00\n      dup1\n      0x00\n      add\n      sload\n      swap1\n      dup1\n      0x01\n      add\n      sload\n      swap1\n      pop\n      dup3\n      jump\t// out\n        /* \"6.\\xe5\\xbc\\x95\\xe7\\x94\\xa8\\xe7\\xb1\\xbb\\xe5\\x9e\\x8b/ArrayTypes.sol\":1598:1684  function initStudent4() external {... */\n    tag_17:\n        /* \"6.\\xe5\\xbc\\x95\\xe7\\x94\\xa8\\xe7\\xb1\\xbb\\xe5\\x9e\\x8b/ArrayTypes.sol\":1652:1676  Student({id:4,score:60}) */\n      mload(0x40)\n      dup1\n      0x40\n      add\n      0x40\n      mstore\n      dup1\n        /* \"6.\\xe5\\xbc\\x95\\xe7\\x94\\xa8\\xe7\\xb1\\xbb\\xe5\\x9e\\x8b/ArrayTypes.sol\":1664:1665  4 */\n      0x04\n        /* \"6.\\xe5\\xbc\\x95\\xe7\\x94\\xa8\\xe7\\xb1\\xbb\\xe5\\x9e\\x8b/ArrayTypes.sol\":1652:1676  Student({id:4,score:60}) */\n      dup2\n      mstore\n      0x20\n      add\n        /* \"6.\\xe5\\xbc\\x95\\xe7\\x94\\xa8\\xe7\\xb1\\xbb\\xe5\\x9e\\x8b/ArrayTypes.sol\":1672:1674  60 */\n      0x3c\n        /* \"6.\\xe5\\xbc\\x95\\xe7\\x94\\xa8\\xe7\\xb1\\xbb\\xe5\\x9e\\x8b/ArrayTypes.sol\":1652:1676  Student({id:4,score:60}) */\n      dup2\n      mstore\n      pop\n        /* \"6.\\xe5\\xbc\\x95\\xe7\\x94\\xa8\\xe7\\xb1\\xbb\\xe5\\x9e\\x8b/ArrayTypes.sol\":1642:1649  student */\n      0x00\n        /* \"6.\\xe5\\xbc\\x95\\xe7\\x94\\xa8\\xe7\\xb1\\xbb\\xe5\\x9e\\x8b/ArrayTypes.sol\":1642:1676  student = Student({id:4,score:60}) */\n      dup1\n      dup3\n      add\n      mload\n      dup2\n      0x00\n      add\n      sstore\n      0x20\n      dup3\n      add\n      mload\n      dup2\n      0x01\n      add\n      sstore\n      swap1\n      pop\n      pop\n        /* \"6.\\xe5\\xbc\\x95\\xe7\\x94\\xa8\\xe7\\xb1\\xbb\\xe5\\x9e\\x8b/ArrayTypes.sol\":1598:1684  function initStudent4() external {... */\n      jump\t// out\n        /* \"6.\\xe5\\xbc\\x95\\xe7\\x94\\xa8\\xe7\\xb1\\xbb\\xe5\\x9e\\x8b/ArrayTypes.sol\":1111:1284  function initStudent1() external {... */\n    tag_19:\n        /* \"6.\\xe5\\xbc\\x95\\xe7\\x94\\xa8\\xe7\\xb1\\xbb\\xe5\\x9e\\x8b/ArrayTypes.sol\":1155:1179  Student storage _student */\n      0x00\n        /* \"6.\\xe5\\xbc\\x95\\xe7\\x94\\xa8\\xe7\\xb1\\xbb\\xe5\\x9e\\x8b/ArrayTypes.sol\":1243:1245  11 */\n      0x0b\n        /* \"6.\\xe5\\xbc\\x95\\xe7\\x94\\xa8\\xe7\\xb1\\xbb\\xe5\\x9e\\x8b/ArrayTypes.sol\":1229:1237  _student */\n      dup2\n        /* \"6.\\xe5\\xbc\\x95\\xe7\\x94\\xa8\\xe7\\xb1\\xbb\\xe5\\x9e\\x8b/ArrayTypes.sol\":1229:1240  _student.id */\n      0x00\n      add\n        /* \"6.\\xe5\\xbc\\x95\\xe7\\x94\\xa8\\xe7\\xb1\\xbb\\xe5\\x9e\\x8b/ArrayTypes.sol\":1229:1245  _student.id = 11 */\n      dup2\n      swap1\n      sstore\n      pop\n        /* \"6.\\xe5\\xbc\\x95\\xe7\\x94\\xa8\\xe7\\xb1\\xbb\\xe5\\x9e\\x8b/ArrayTypes.sol\":1273:1276  100 */\n      0x64\n        /* \"6.\\xe5\\xbc\\x95\\xe7\\x94\\xa8\\xe7\\xb1\\xbb\\xe5\\x9e\\x8b/ArrayTypes.sol\":1256:1264  _student */\n      dup2\n        /* \"6.\\xe5\\xbc\\x95\\xe7\\x94\\xa8\\xe7\\xb1\\xbb\\xe5\\x9e\\x8b/ArrayTypes.sol\":1256:1270  _student.score */\n      0x01\n      add\n        /* \"6.\\xe5\\xbc\\x95\\xe7\\x94\\xa8\\xe7\\xb1\\xbb\\xe5\\x9e\\x8b/ArrayTypes.sol\":1256:1276  _student.score = 100 */\n      dup2\n      swap1\n      sstore\n      pop\n        /* \"6.\\xe5\\xbc\\x95\\xe7\\x94\\xa8\\xe7\\xb1\\xbb\\xe5\\x9e\\x8b/ArrayTypes.sol\":1144:1284  {... */\n      pop\n        /* \"6.\\xe5\\xbc\\x95\\xe7\\x94\\xa8\\xe7\\xb1\\xbb\\xe5\\x9e\\x8b/ArrayTypes.sol\":1111:1284  function initStudent1() external {... */\n      jump\t// out\n        /* \"#utility.yul\":7:84   */\n    tag_24:\n        /* \"#utility.yul\":44:51   */\n      0x00\n        /* \"#utility.yul\":73:78   */\n      dup2\n        /* \"#utility.yul\":62:78   */\n      swap1\n      pop\n        /* \"#utility.yul\":7:84   */\n      swap2\n      swap1\n      pop\n      jump\t// out\n        /* \"#utility.yul\":90:208   */\n    tag_25:\n        /* \"#utility.yul\":177:201   */\n      tag_29\n        /* \"#utility.yul\":195:200   */\n      dup2\n        /* \"#utility.yul\":177:201   */\n      tag_24\n      jump\t// in\n    tag_29:\n        /* \"#utility.yul\":172:175   */\n      dup3\n        /* \"#utility.yul\":165:202   */\n      mstore\n        /* \"#utility.yul\":90:208   */\n      pop\n      pop\n      jump\t// out\n        /* \"#utility.yul\":214:546   */\n    tag_15:\n        /* \"#utility.yul\":335:339   */\n      0x00\n        /* \"#utility.yul\":373:375   */\n      0x40\n        /* \"#utility.yul\":362:371   */\n      dup3\n        /* \"#utility.yul\":358:376   */\n      add\n        /* \"#utility.yul\":350:376   */\n      swap1\n      pop\n        /* \"#utility.yul\":386:457   */\n      tag_31\n        /* \"#utility.yul\":454:455   */\n      0x00\n        /* \"#utility.yul\":443:452   */\n      dup4\n        /* \"#utility.yul\":439:456   */\n      add\n        /* \"#utility.yul\":430:436   */\n      dup6\n        /* \"#utility.yul\":386:457   */\n      tag_25\n      jump\t// in\n    tag_31:\n        /* \"#utility.yul\":467:539   */\n      tag_32\n        /* \"#utility.yul\":535:537   */\n      0x20\n        /* \"#utility.yul\":524:533   */\n      dup4\n        /* \"#utility.yul\":520:538   */\n      add\n        /* \"#utility.yul\":511:517   */\n      dup5\n        /* \"#utility.yul\":467:539   */\n      tag_25\n      jump\t// in\n    tag_32:\n        /* \"#utility.yul\":214:546   */\n      swap4\n      swap3\n      pop\n      pop\n      pop\n      jump\t// out\n\n    auxdata: 0xa2646970667358221220e9e705aa82b2cd9ac5a9e83f8dea72380adec65e1f0dedd237e63e08cc46597764736f6c63430008120033\n}\n",
				"bytecode": {
					"linkReferences": {},
					"object": "608060405234801561001057600080fd5b506101bf806100206000396000f3fe608060405234801561001057600080fd5b50600436106100575760003560e01c80631a8d7dc31461005c5780635a4236b114610066578063699450e8146100705780639ebb8d201461008f578063a8b63e6f14610099575b600080fd5b6100646100a3565b005b61006e6100ba565b005b6100786100eb565b604051610086929190610160565b60405180910390f35b6100976100fd565b005b6100a161012e565b005b600160008001819055506050600060010181905550565b604051806040016040528060038152602001605a815250600080820151816000015560208201518160010155905050565b60008060000154908060010154905082565b604051806040016040528060048152602001603c815250600080820151816000015560208201518160010155905050565b6000600b81600001819055506064816001018190555050565b6000819050919050565b61015a81610147565b82525050565b60006040820190506101756000830185610151565b6101826020830184610151565b939250505056fea2646970667358221220e9e705aa82b2cd9ac5a9e83f8dea72380adec65e1f0dedd237e63e08cc46597764736f6c63430008120033",
					"opcodes": "PUSH1 0x80 PUSH1 0x40 MSTORE CALLVALUE DUP1 ISZERO PUSH2 0x10 JUMPI PUSH1 0x0 DUP1 REVERT JUMPDEST POP PUSH2 0x1BF DUP1 PUSH2 0x20 PUSH1 0x0 CODECOPY PUSH1 0x0 RETURN INVALID PUSH1 0x80 PUSH1 0x40 MSTORE CALLVALUE DUP1 ISZERO PUSH2 0x10 JUMPI PUSH1 0x0 DUP1 REVERT JUMPDEST POP PUSH1 0x4 CALLDATASIZE LT PUSH2 0x57 JUMPI PUSH1 0x0 CALLDATALOAD PUSH1 0xE0 SHR DUP1 PUSH4 0x1A8D7DC3 EQ PUSH2 0x5C JUMPI DUP1 PUSH4 0x5A4236B1 EQ PUSH2 0x66 JUMPI DUP1 PUSH4 0x699450E8 EQ PUSH2 0x70 JUMPI DUP1 PUSH4 0x9EBB8D20 EQ PUSH2 0x8F JUMPI DUP1 PUSH4 0xA8B63E6F EQ PUSH2 0x99 JUMPI JUMPDEST PUSH1 0x0 DUP1 REVERT JUMPDEST PUSH2 0x64 PUSH2 0xA3 JUMP JUMPDEST STOP JUMPDEST PUSH2 0x6E PUSH2 0xBA JUMP JUMPDEST STOP JUMPDEST PUSH2 0x78 PUSH2 0xEB JUMP JUMPDEST PUSH1 0x40 MLOAD PUSH2 0x86 SWAP3 SWAP2 SWAP1 PUSH2 0x160 JUMP JUMPDEST PUSH1 0x40 MLOAD DUP1 SWAP2 SUB SWAP1 RETURN JUMPDEST PUSH2 0x97 PUSH2 0xFD JUMP JUMPDEST STOP JUMPDEST PUSH2 0xA1 PUSH2 0x12E JUMP JUMPDEST STOP JUMPDEST PUSH1 0x1 PUSH1 0x0 DUP1 ADD DUP2 SWAP1 SSTORE POP PUSH1 0x50 PUSH1 0x0 PUSH1 0x1 ADD DUP2 SWAP1 SSTORE POP JUMP JUMPDEST PUSH1 0x40 MLOAD DUP1 PUSH1 0x40 ADD PUSH1 0x40 MSTORE DUP1 PUSH1 0x3 DUP2 MSTORE PUSH1 0x20 ADD PUSH1 0x5A DUP2 MSTORE POP PUSH1 0x0 DUP1 DUP3 ADD MLOAD DUP2 PUSH1 0x0 ADD SSTORE PUSH1 0x20 DUP3 ADD MLOAD DUP2 PUSH1 0x1 ADD SSTORE SWAP1 POP POP JUMP JUMPDEST PUSH1 0x0 DUP1 PUSH1 0x0 ADD SLOAD SWAP1 DUP1 PUSH1 0x1 ADD SLOAD SWAP1 POP DUP3 JUMP JUMPDEST PUSH1 0x40 MLOAD DUP1 PUSH1 0x40 ADD PUSH1 0x40 MSTORE DUP1 PUSH1 0x4 DUP2 MSTORE PUSH1 0x20 ADD PUSH1 0x3C DUP2 MSTORE POP PUSH1 0x0 DUP1 DUP3 ADD MLOAD DUP2 PUSH1 0x0 ADD SSTORE PUSH1 0x20 DUP3 ADD MLOAD DUP2 PUSH1 0x1 ADD SSTORE SWAP1 POP POP JUMP JUMPDEST PUSH1 0x0 PUSH1 0xB DUP2 PUSH1 0x0 ADD DUP2 SWAP1 SSTORE POP PUSH1 0x64 DUP2 PUSH1 0x1 ADD DUP2 SWAP1 SSTORE POP POP JUMP JUMPDEST PUSH1 0x0 DUP2 SWAP1 POP SWAP2 SWAP1 POP JUMP JUMPDEST PUSH2 0x15A DUP2 PUSH2 0x147 JUMP JUMPDEST DUP3 MSTORE POP POP JUMP JUMPDEST PUSH1 0x0 PUSH1 0x40 DUP3 ADD SWAP1 POP PUSH2 0x175 PUSH1 0x0 DUP4 ADD DUP6 PUSH2 0x151 JUMP JUMPDEST PUSH2 0x182 PUSH1 0x20 DUP4 ADD DUP5 PUSH2 0x151 JUMP JUMPDEST SWAP4 SWAP3 POP POP POP JUMP INVALID LOG2 PUSH5 0x6970667358 0x22 SLT KECCAK256 0xE9 0xE7 SDIV 0xAA DUP3 0xB2 0xCD SWAP11 0xC5 0xA9 0xE8 EXTCODEHASH DUP14 0xEA PUSH19 0x380ADEC65E1F0DEDD237E63E08CC4659776473 PUSH16 0x6C634300081200330000000000000000 "
				},
				"gasEstimates": {
					"creation": {
						"codeDepositCost": "89400",
						"executionCost": "135",
						"totalCost": "89535"
					},
					"external": {
						"initStudent1()": "44455",
						"initStudent2()": "44362",
						"initStudent3()": "44455",
						"initStudent4()": "44499",
						"student()": "infinite"
					}
				},
				"methodIdentifiers": {
					"initStudent1()": "a8b63e6f",
					"initStudent2()": "1a8d7dc3",
					"initStudent3()": "5a4236b1",
					"initStudent4()": "9ebb8d20",
					"student()": "699450e8"
				}
			},
			"storageLayout": {
				"storage": [
					{
						"astId": 118,
						"contract": "6.引用类型/ArrayTypes.sol:StructTypes",
						"label": "student",
						"offset": 0,
						"slot": "0",
						"type": "t_struct(Student)115_storage"
					}
				],
				"types": {
					"t_struct(Student)115_storage": {
						"encoding": "inplace",
						"label": "struct StructTypes.Student",
						"members": [
							{
								"astId": 112,
								"contract": "6.引用类型/ArrayTypes.sol:StructTypes",
								"label": "id",
								"offset": 0,
								"slot": "0",
								"type": "t_uint256"
							},
							{
								"astId": 114,
								"contract": "6.引用类型/ArrayTypes.sol:StructTypes",
								"label": "score",
								"offset": 0,
								"slot": "1",
								"type": "t_uint256"
							}
						],
						"numberOfBytes": "64"
					},
					"t_uint256": {
						"encoding": "inplace",
						"label": "uint256",
						"numberOfBytes": "32"
					}
				}
			},
			"userdoc": {
				"kind": "user",
				"methods": {},
				"version": 1
			}
		}
	}
}