{
	"accidence/4.函数输出/Return.sol": {
		"Return": {
			"abi": [
				{
					"inputs": [],
					"name": "readReturn",
					"outputs": [],
					"stateMutability": "pure",
					"type": "function"
				},
				{
					"inputs": [],
					"name": "returnMultiple",
					"outputs": [
						{
							"internalType": "uint256",
							"name": "",
							"type": "uint256"
						},
						{
							"internalType": "bool",
							"name": "",
							"type": "bool"
						},
						{
							"internalType": "uint256[3]",
							"name": "",
							"type": "uint256[3]"
						}
					],
					"stateMutability": "pure",
					"type": "function"
				},
				{
					"inputs": [],
					"name": "returnNamed",
					"outputs": [
						{
							"internalType": "uint256",
							"name": "_number",
							"type": "uint256"
						},
						{
							"internalType": "bool",
							"name": "_bool",
							"type": "bool"
						},
						{
							"internalType": "uint256[3]",
							"name": "_array",
							"type": "uint256[3]"
						}
					],
					"stateMutability": "pure",
					"type": "function"
				},
				{
					"inputs": [],
					"name": "returnNamed2",
					"outputs": [
						{
							"internalType": "uint256",
							"name": "_number",
							"type": "uint256"
						},
						{
							"internalType": "bool",
							"name": "_bool",
							"type": "bool"
						},
						{
							"internalType": "uint256[3]",
							"name": "_array",
							"type": "uint256[3]"
						}
					],
					"stateMutability": "pure",
					"type": "function"
				}
			],
			"devdoc": {
				"kind": "dev",
				"methods": {},
				"version": 1
			},
			"evm": {
				"assembly": "    /* \"accidence/4.\\xe5\\x87\\xbd\\xe6\\x95\\xb0\\xe8\\xbe\\x93\\xe5\\x87\\xba/Return.sol\":60:1048  contract Return {... */\n  mstore(0x40, 0x80)\n  callvalue\n  dup1\n  iszero\n  tag_1\n  jumpi\n  0x00\n  dup1\n  revert\ntag_1:\n  pop\n  dataSize(sub_0)\n  dup1\n  dataOffset(sub_0)\n  0x00\n  codecopy\n  0x00\n  return\nstop\n\nsub_0: assembly {\n        /* \"accidence/4.\\xe5\\x87\\xbd\\xe6\\x95\\xb0\\xe8\\xbe\\x93\\xe5\\x87\\xba/Return.sol\":60:1048  contract Return {... */\n      mstore(0x40, 0x80)\n      callvalue\n      dup1\n      iszero\n      tag_1\n      jumpi\n      0x00\n      dup1\n      revert\n    tag_1:\n      pop\n      jumpi(tag_2, lt(calldatasize, 0x04))\n      shr(0xe0, calldataload(0x00))\n      dup1\n      0x3dece511\n      eq\n      tag_3\n      jumpi\n      dup1\n      0x6f590330\n      eq\n      tag_4\n      jumpi\n      dup1\n      0x8552dc08\n      eq\n      tag_5\n      jumpi\n      dup1\n      0xe61e4008\n      eq\n      tag_6\n      jumpi\n    tag_2:\n      0x00\n      dup1\n      revert\n        /* \"accidence/4.\\xe5\\x87\\xbd\\xe6\\x95\\xb0\\xe8\\xbe\\x93\\xe5\\x87\\xba/Return.sol\":276:464  function returnNamed() public pure returns(uint256 _number, bool _bool, uint256[3] memory _array) {... */\n    tag_3:\n      tag_7\n      tag_8\n      jump\t// in\n    tag_7:\n      mload(0x40)\n      tag_9\n      swap4\n      swap3\n      swap2\n      swap1\n      tag_10\n      jump\t// in\n    tag_9:\n      mload(0x40)\n      dup1\n      swap2\n      sub\n      swap1\n      return\n        /* \"accidence/4.\\xe5\\x87\\xbd\\xe6\\x95\\xb0\\xe8\\xbe\\x93\\xe5\\x87\\xba/Return.sol\":719:1045  function readReturn() public pure {... */\n    tag_4:\n      tag_11\n      tag_12\n      jump\t// in\n    tag_11:\n      stop\n        /* \"accidence/4.\\xe5\\x87\\xbd\\xe6\\x95\\xb0\\xe8\\xbe\\x93\\xe5\\x87\\xba/Return.sol\":518:668  function returnNamed2() public pure returns(uint256 _number, bool _bool, uint256[3] memory _array) {... */\n    tag_5:\n      tag_13\n      tag_14\n      jump\t// in\n    tag_13:\n      mload(0x40)\n      tag_15\n      swap4\n      swap3\n      swap2\n      swap1\n      tag_10\n      jump\t// in\n    tag_15:\n      mload(0x40)\n      dup1\n      swap2\n      sub\n      swap1\n      return\n        /* \"accidence/4.\\xe5\\x87\\xbd\\xe6\\x95\\xb0\\xe8\\xbe\\x93\\xe5\\x87\\xba/Return.sol\":113:243  function returnMultiple() public pure returns(uint256, bool, uint256[3] memory) {... */\n    tag_6:\n      tag_16\n      tag_17\n      jump\t// in\n    tag_16:\n      mload(0x40)\n      tag_18\n      swap4\n      swap3\n      swap2\n      swap1\n      tag_10\n      jump\t// in\n    tag_18:\n      mload(0x40)\n      dup1\n      swap2\n      sub\n      swap1\n      return\n        /* \"accidence/4.\\xe5\\x87\\xbd\\xe6\\x95\\xb0\\xe8\\xbe\\x93\\xe5\\x87\\xba/Return.sol\":276:464  function returnNamed() public pure returns(uint256 _number, bool _bool, uint256[3] memory _array) {... */\n    tag_8:\n        /* \"accidence/4.\\xe5\\x87\\xbd\\xe6\\x95\\xb0\\xe8\\xbe\\x93\\xe5\\x87\\xba/Return.sol\":319:334  uint256 _number */\n      0x00\n        /* \"accidence/4.\\xe5\\x87\\xbd\\xe6\\x95\\xb0\\xe8\\xbe\\x93\\xe5\\x87\\xba/Return.sol\":336:346  bool _bool */\n      dup1\n        /* \"accidence/4.\\xe5\\x87\\xbd\\xe6\\x95\\xb0\\xe8\\xbe\\x93\\xe5\\x87\\xba/Return.sol\":348:372  uint256[3] memory _array */\n      tag_19\n      tag_20\n      jump\t// in\n    tag_19:\n        /* \"accidence/4.\\xe5\\x87\\xbd\\xe6\\x95\\xb0\\xe8\\xbe\\x93\\xe5\\x87\\xba/Return.sol\":395:396  2 */\n      0x02\n        /* \"accidence/4.\\xe5\\x87\\xbd\\xe6\\x95\\xb0\\xe8\\xbe\\x93\\xe5\\x87\\xba/Return.sol\":385:396  _number = 2 */\n      swap3\n      pop\n        /* \"accidence/4.\\xe5\\x87\\xbd\\xe6\\x95\\xb0\\xe8\\xbe\\x93\\xe5\\x87\\xba/Return.sol\":415:420  false */\n      0x00\n        /* \"accidence/4.\\xe5\\x87\\xbd\\xe6\\x95\\xb0\\xe8\\xbe\\x93\\xe5\\x87\\xba/Return.sol\":407:420  _bool = false */\n      swap2\n      pop\n        /* \"accidence/4.\\xe5\\x87\\xbd\\xe6\\x95\\xb0\\xe8\\xbe\\x93\\xe5\\x87\\xba/Return.sol\":431:456  _array = [uint256(3),2,1] */\n      mload(0x40)\n      dup1\n      0x60\n      add\n      0x40\n      mstore\n      dup1\n        /* \"accidence/4.\\xe5\\x87\\xbd\\xe6\\x95\\xb0\\xe8\\xbe\\x93\\xe5\\x87\\xba/Return.sol\":449:450  3 */\n      0x03\n        /* \"accidence/4.\\xe5\\x87\\xbd\\xe6\\x95\\xb0\\xe8\\xbe\\x93\\xe5\\x87\\xba/Return.sol\":431:456  _array = [uint256(3),2,1] */\n      dup2\n      mstore\n      0x20\n      add\n        /* \"accidence/4.\\xe5\\x87\\xbd\\xe6\\x95\\xb0\\xe8\\xbe\\x93\\xe5\\x87\\xba/Return.sol\":452:453  2 */\n      0x02\n        /* \"accidence/4.\\xe5\\x87\\xbd\\xe6\\x95\\xb0\\xe8\\xbe\\x93\\xe5\\x87\\xba/Return.sol\":431:456  _array = [uint256(3),2,1] */\n      dup2\n      mstore\n      0x20\n      add\n        /* \"accidence/4.\\xe5\\x87\\xbd\\xe6\\x95\\xb0\\xe8\\xbe\\x93\\xe5\\x87\\xba/Return.sol\":454:455  1 */\n      0x01\n        /* \"accidence/4.\\xe5\\x87\\xbd\\xe6\\x95\\xb0\\xe8\\xbe\\x93\\xe5\\x87\\xba/Return.sol\":431:456  _array = [uint256(3),2,1] */\n      dup2\n      mstore\n      pop\n      swap1\n      pop\n        /* \"accidence/4.\\xe5\\x87\\xbd\\xe6\\x95\\xb0\\xe8\\xbe\\x93\\xe5\\x87\\xba/Return.sol\":276:464  function returnNamed() public pure returns(uint256 _number, bool _bool, uint256[3] memory _array) {... */\n      swap1\n      swap2\n      swap3\n      jump\t// out\n        /* \"accidence/4.\\xe5\\x87\\xbd\\xe6\\x95\\xb0\\xe8\\xbe\\x93\\xe5\\x87\\xba/Return.sol\":719:1045  function readReturn() public pure {... */\n    tag_12:\n        /* \"accidence/4.\\xe5\\x87\\xbd\\xe6\\x95\\xb0\\xe8\\xbe\\x93\\xe5\\x87\\xba/Return.sol\":799:814  uint256 _number */\n      0x00\n        /* \"accidence/4.\\xe5\\x87\\xbd\\xe6\\x95\\xb0\\xe8\\xbe\\x93\\xe5\\x87\\xba/Return.sol\":825:835  bool _bool */\n      dup1\n        /* \"accidence/4.\\xe5\\x87\\xbd\\xe6\\x95\\xb0\\xe8\\xbe\\x93\\xe5\\x87\\xba/Return.sol\":846:857  bool _bool2 */\n      0x00\n        /* \"accidence/4.\\xe5\\x87\\xbd\\xe6\\x95\\xb0\\xe8\\xbe\\x93\\xe5\\x87\\xba/Return.sol\":868:892  uint256[3] memory _array */\n      tag_23\n      tag_20\n      jump\t// in\n    tag_23:\n        /* \"accidence/4.\\xe5\\x87\\xbd\\xe6\\x95\\xb0\\xe8\\xbe\\x93\\xe5\\x87\\xba/Return.sol\":930:943  returnNamed() */\n      tag_24\n        /* \"accidence/4.\\xe5\\x87\\xbd\\xe6\\x95\\xb0\\xe8\\xbe\\x93\\xe5\\x87\\xba/Return.sol\":930:941  returnNamed */\n      tag_8\n        /* \"accidence/4.\\xe5\\x87\\xbd\\xe6\\x95\\xb0\\xe8\\xbe\\x93\\xe5\\x87\\xba/Return.sol\":930:943  returnNamed() */\n      jump\t// in\n    tag_24:\n        /* \"accidence/4.\\xe5\\x87\\xbd\\xe6\\x95\\xb0\\xe8\\xbe\\x93\\xe5\\x87\\xba/Return.sol\":903:943  (_number, _bool, _array) = returnNamed() */\n      dup1\n      swap4\n      pop\n      dup2\n      swap6\n      pop\n      dup3\n      swap7\n      pop\n      pop\n      pop\n      pop\n        /* \"accidence/4.\\xe5\\x87\\xbd\\xe6\\x95\\xb0\\xe8\\xbe\\x93\\xe5\\x87\\xba/Return.sol\":1024:1037  returnNamed() */\n      tag_25\n        /* \"accidence/4.\\xe5\\x87\\xbd\\xe6\\x95\\xb0\\xe8\\xbe\\x93\\xe5\\x87\\xba/Return.sol\":1024:1035  returnNamed */\n      tag_8\n        /* \"accidence/4.\\xe5\\x87\\xbd\\xe6\\x95\\xb0\\xe8\\xbe\\x93\\xe5\\x87\\xba/Return.sol\":1024:1037  returnNamed() */\n      jump\t// in\n    tag_25:\n        /* \"accidence/4.\\xe5\\x87\\xbd\\xe6\\x95\\xb0\\xe8\\xbe\\x93\\xe5\\x87\\xba/Return.sol\":1009:1037  (, _bool2, ) = returnNamed() */\n      swap1\n      swap2\n      pop\n      pop\n      dup1\n      swap3\n      pop\n      pop\n        /* \"accidence/4.\\xe5\\x87\\xbd\\xe6\\x95\\xb0\\xe8\\xbe\\x93\\xe5\\x87\\xba/Return.sol\":753:1045  {... */\n      pop\n      pop\n      pop\n      pop\n        /* \"accidence/4.\\xe5\\x87\\xbd\\xe6\\x95\\xb0\\xe8\\xbe\\x93\\xe5\\x87\\xba/Return.sol\":719:1045  function readReturn() public pure {... */\n      jump\t// out\n        /* \"accidence/4.\\xe5\\x87\\xbd\\xe6\\x95\\xb0\\xe8\\xbe\\x93\\xe5\\x87\\xba/Return.sol\":518:668  function returnNamed2() public pure returns(uint256 _number, bool _bool, uint256[3] memory _array) {... */\n    tag_14:\n        /* \"accidence/4.\\xe5\\x87\\xbd\\xe6\\x95\\xb0\\xe8\\xbe\\x93\\xe5\\x87\\xba/Return.sol\":562:577  uint256 _number */\n      0x00\n        /* \"accidence/4.\\xe5\\x87\\xbd\\xe6\\x95\\xb0\\xe8\\xbe\\x93\\xe5\\x87\\xba/Return.sol\":579:589  bool _bool */\n      dup1\n        /* \"accidence/4.\\xe5\\x87\\xbd\\xe6\\x95\\xb0\\xe8\\xbe\\x93\\xe5\\x87\\xba/Return.sol\":591:615  uint256[3] memory _array */\n      tag_26\n      tag_20\n      jump\t// in\n    tag_26:\n        /* \"accidence/4.\\xe5\\x87\\xbd\\xe6\\x95\\xb0\\xe8\\xbe\\x93\\xe5\\x87\\xba/Return.sol\":636:637  1 */\n      0x01\n        /* \"accidence/4.\\xe5\\x87\\xbd\\xe6\\x95\\xb0\\xe8\\xbe\\x93\\xe5\\x87\\xba/Return.sol\":638:642  true */\n      dup1\n        /* \"accidence/4.\\xe5\\x87\\xbd\\xe6\\x95\\xb0\\xe8\\xbe\\x93\\xe5\\x87\\xba/Return.sol\":628:660  return (1,true,[uint256(1),2,3]) */\n      mload(0x40)\n      dup1\n      0x60\n      add\n      0x40\n      mstore\n      dup1\n        /* \"accidence/4.\\xe5\\x87\\xbd\\xe6\\x95\\xb0\\xe8\\xbe\\x93\\xe5\\x87\\xba/Return.sol\":652:653  1 */\n      0x01\n        /* \"accidence/4.\\xe5\\x87\\xbd\\xe6\\x95\\xb0\\xe8\\xbe\\x93\\xe5\\x87\\xba/Return.sol\":628:660  return (1,true,[uint256(1),2,3]) */\n      dup2\n      mstore\n      0x20\n      add\n        /* \"accidence/4.\\xe5\\x87\\xbd\\xe6\\x95\\xb0\\xe8\\xbe\\x93\\xe5\\x87\\xba/Return.sol\":655:656  2 */\n      0x02\n        /* \"accidence/4.\\xe5\\x87\\xbd\\xe6\\x95\\xb0\\xe8\\xbe\\x93\\xe5\\x87\\xba/Return.sol\":628:660  return (1,true,[uint256(1),2,3]) */\n      dup2\n      mstore\n      0x20\n      add\n        /* \"accidence/4.\\xe5\\x87\\xbd\\xe6\\x95\\xb0\\xe8\\xbe\\x93\\xe5\\x87\\xba/Return.sol\":657:658  3 */\n      0x03\n        /* \"accidence/4.\\xe5\\x87\\xbd\\xe6\\x95\\xb0\\xe8\\xbe\\x93\\xe5\\x87\\xba/Return.sol\":628:660  return (1,true,[uint256(1),2,3]) */\n      dup2\n      mstore\n      pop\n      swap3\n      pop\n      swap3\n      pop\n      swap3\n      pop\n        /* \"accidence/4.\\xe5\\x87\\xbd\\xe6\\x95\\xb0\\xe8\\xbe\\x93\\xe5\\x87\\xba/Return.sol\":518:668  function returnNamed2() public pure returns(uint256 _number, bool _bool, uint256[3] memory _array) {... */\n      swap1\n      swap2\n      swap3\n      jump\t// out\n        /* \"accidence/4.\\xe5\\x87\\xbd\\xe6\\x95\\xb0\\xe8\\xbe\\x93\\xe5\\x87\\xba/Return.sol\":113:243  function returnMultiple() public pure returns(uint256, bool, uint256[3] memory) {... */\n    tag_17:\n        /* \"accidence/4.\\xe5\\x87\\xbd\\xe6\\x95\\xb0\\xe8\\xbe\\x93\\xe5\\x87\\xba/Return.sol\":159:166  uint256 */\n      0x00\n        /* \"accidence/4.\\xe5\\x87\\xbd\\xe6\\x95\\xb0\\xe8\\xbe\\x93\\xe5\\x87\\xba/Return.sol\":168:172  bool */\n      dup1\n        /* \"accidence/4.\\xe5\\x87\\xbd\\xe6\\x95\\xb0\\xe8\\xbe\\x93\\xe5\\x87\\xba/Return.sol\":174:191  uint256[3] memory */\n      tag_28\n      tag_20\n      jump\t// in\n    tag_28:\n        /* \"accidence/4.\\xe5\\x87\\xbd\\xe6\\x95\\xb0\\xe8\\xbe\\x93\\xe5\\x87\\xba/Return.sol\":211:212  1 */\n      0x01\n        /* \"accidence/4.\\xe5\\x87\\xbd\\xe6\\x95\\xb0\\xe8\\xbe\\x93\\xe5\\x87\\xba/Return.sol\":213:217  true */\n      dup1\n        /* \"accidence/4.\\xe5\\x87\\xbd\\xe6\\x95\\xb0\\xe8\\xbe\\x93\\xe5\\x87\\xba/Return.sol\":204:235  return(1,true,[uint256(1),2,5]) */\n      mload(0x40)\n      dup1\n      0x60\n      add\n      0x40\n      mstore\n      dup1\n        /* \"accidence/4.\\xe5\\x87\\xbd\\xe6\\x95\\xb0\\xe8\\xbe\\x93\\xe5\\x87\\xba/Return.sol\":227:228  1 */\n      0x01\n        /* \"accidence/4.\\xe5\\x87\\xbd\\xe6\\x95\\xb0\\xe8\\xbe\\x93\\xe5\\x87\\xba/Return.sol\":204:235  return(1,true,[uint256(1),2,5]) */\n      dup2\n      mstore\n      0x20\n      add\n        /* \"accidence/4.\\xe5\\x87\\xbd\\xe6\\x95\\xb0\\xe8\\xbe\\x93\\xe5\\x87\\xba/Return.sol\":230:231  2 */\n      0x02\n        /* \"accidence/4.\\xe5\\x87\\xbd\\xe6\\x95\\xb0\\xe8\\xbe\\x93\\xe5\\x87\\xba/Return.sol\":204:235  return(1,true,[uint256(1),2,5]) */\n      dup2\n      mstore\n      0x20\n      add\n        /* \"accidence/4.\\xe5\\x87\\xbd\\xe6\\x95\\xb0\\xe8\\xbe\\x93\\xe5\\x87\\xba/Return.sol\":232:233  5 */\n      0x05\n        /* \"accidence/4.\\xe5\\x87\\xbd\\xe6\\x95\\xb0\\xe8\\xbe\\x93\\xe5\\x87\\xba/Return.sol\":204:235  return(1,true,[uint256(1),2,5]) */\n      dup2\n      mstore\n      pop\n      swap3\n      pop\n      swap3\n      pop\n      swap3\n      pop\n        /* \"accidence/4.\\xe5\\x87\\xbd\\xe6\\x95\\xb0\\xe8\\xbe\\x93\\xe5\\x87\\xba/Return.sol\":113:243  function returnMultiple() public pure returns(uint256, bool, uint256[3] memory) {... */\n      swap1\n      swap2\n      swap3\n      jump\t// out\n    tag_20:\n      mload(0x40)\n      dup1\n      0x60\n      add\n      0x40\n      mstore\n      dup1\n      0x03\n      swap1\n      0x20\n      dup3\n      mul\n      dup1\n      calldatasize\n      dup4\n      calldatacopy\n      dup1\n      dup3\n      add\n      swap2\n      pop\n      pop\n      swap1\n      pop\n      pop\n      swap1\n      jump\t// out\n        /* \"#utility.yul\":7:84   */\n    tag_30:\n        /* \"#utility.yul\":44:51   */\n      0x00\n        /* \"#utility.yul\":73:78   */\n      dup2\n        /* \"#utility.yul\":62:78   */\n      swap1\n      pop\n        /* \"#utility.yul\":7:84   */\n      swap2\n      swap1\n      pop\n      jump\t// out\n        /* \"#utility.yul\":90:208   */\n    tag_31:\n        /* \"#utility.yul\":177:201   */\n      tag_44\n        /* \"#utility.yul\":195:200   */\n      dup2\n        /* \"#utility.yul\":177:201   */\n      tag_30\n      jump\t// in\n    tag_44:\n        /* \"#utility.yul\":172:175   */\n      dup3\n        /* \"#utility.yul\":165:202   */\n      mstore\n        /* \"#utility.yul\":90:208   */\n      pop\n      pop\n      jump\t// out\n        /* \"#utility.yul\":214:304   */\n    tag_32:\n        /* \"#utility.yul\":248:255   */\n      0x00\n        /* \"#utility.yul\":291:296   */\n      dup2\n        /* \"#utility.yul\":284:297   */\n      iszero\n        /* \"#utility.yul\":277:298   */\n      iszero\n        /* \"#utility.yul\":266:298   */\n      swap1\n      pop\n        /* \"#utility.yul\":214:304   */\n      swap2\n      swap1\n      pop\n      jump\t// out\n        /* \"#utility.yul\":310:419   */\n    tag_33:\n        /* \"#utility.yul\":391:412   */\n      tag_47\n        /* \"#utility.yul\":406:411   */\n      dup2\n        /* \"#utility.yul\":391:412   */\n      tag_32\n      jump\t// in\n    tag_47:\n        /* \"#utility.yul\":386:389   */\n      dup3\n        /* \"#utility.yul\":379:413   */\n      mstore\n        /* \"#utility.yul\":310:419   */\n      pop\n      pop\n      jump\t// out\n        /* \"#utility.yul\":425:529   */\n    tag_34:\n        /* \"#utility.yul\":490:496   */\n      0x00\n        /* \"#utility.yul\":518:522   */\n      0x03\n        /* \"#utility.yul\":508:522   */\n      swap1\n      pop\n        /* \"#utility.yul\":425:529   */\n      swap2\n      swap1\n      pop\n      jump\t// out\n        /* \"#utility.yul\":535:678   */\n    tag_35:\n        /* \"#utility.yul\":632:643   */\n      0x00\n        /* \"#utility.yul\":669:672   */\n      dup2\n        /* \"#utility.yul\":654:672   */\n      swap1\n      pop\n        /* \"#utility.yul\":535:678   */\n      swap3\n      swap2\n      pop\n      pop\n      jump\t// out\n        /* \"#utility.yul\":684:782   */\n    tag_36:\n        /* \"#utility.yul\":749:753   */\n      0x00\n        /* \"#utility.yul\":772:775   */\n      dup2\n        /* \"#utility.yul\":764:775   */\n      swap1\n      pop\n        /* \"#utility.yul\":684:782   */\n      swap2\n      swap1\n      pop\n      jump\t// out\n        /* \"#utility.yul\":788:896   */\n    tag_37:\n        /* \"#utility.yul\":865:889   */\n      tag_52\n        /* \"#utility.yul\":883:888   */\n      dup2\n        /* \"#utility.yul\":865:889   */\n      tag_30\n      jump\t// in\n    tag_52:\n        /* \"#utility.yul\":860:863   */\n      dup3\n        /* \"#utility.yul\":853:890   */\n      mstore\n        /* \"#utility.yul\":788:896   */\n      pop\n      pop\n      jump\t// out\n        /* \"#utility.yul\":902:1081   */\n    tag_38:\n        /* \"#utility.yul\":971:981   */\n      0x00\n        /* \"#utility.yul\":992:1038   */\n      tag_54\n        /* \"#utility.yul\":1034:1037   */\n      dup4\n        /* \"#utility.yul\":1026:1032   */\n      dup4\n        /* \"#utility.yul\":992:1038   */\n      tag_37\n      jump\t// in\n    tag_54:\n        /* \"#utility.yul\":1070:1074   */\n      0x20\n        /* \"#utility.yul\":1065:1068   */\n      dup4\n        /* \"#utility.yul\":1061:1075   */\n      add\n        /* \"#utility.yul\":1047:1075   */\n      swap1\n      pop\n        /* \"#utility.yul\":902:1081   */\n      swap3\n      swap2\n      pop\n      pop\n      jump\t// out\n        /* \"#utility.yul\":1087:1198   */\n    tag_39:\n        /* \"#utility.yul\":1155:1159   */\n      0x00\n        /* \"#utility.yul\":1187:1191   */\n      0x20\n        /* \"#utility.yul\":1182:1185   */\n      dup3\n        /* \"#utility.yul\":1178:1192   */\n      add\n        /* \"#utility.yul\":1170:1192   */\n      swap1\n      pop\n        /* \"#utility.yul\":1087:1198   */\n      swap2\n      swap1\n      pop\n      jump\t// out\n        /* \"#utility.yul\":1236:1930   */\n    tag_40:\n        /* \"#utility.yul\":1372:1424   */\n      tag_57\n        /* \"#utility.yul\":1418:1423   */\n      dup2\n        /* \"#utility.yul\":1372:1424   */\n      tag_34\n      jump\t// in\n    tag_57:\n        /* \"#utility.yul\":1440:1524   */\n      tag_58\n        /* \"#utility.yul\":1517:1523   */\n      dup2\n        /* \"#utility.yul\":1512:1515   */\n      dup5\n        /* \"#utility.yul\":1440:1524   */\n      tag_35\n      jump\t// in\n    tag_58:\n        /* \"#utility.yul\":1433:1524   */\n      swap3\n      pop\n        /* \"#utility.yul\":1548:1602   */\n      tag_59\n        /* \"#utility.yul\":1596:1601   */\n      dup3\n        /* \"#utility.yul\":1548:1602   */\n      tag_36\n      jump\t// in\n    tag_59:\n        /* \"#utility.yul\":1625:1632   */\n      dup1\n        /* \"#utility.yul\":1656:1657   */\n      0x00\n        /* \"#utility.yul\":1641:1923   */\n    tag_60:\n        /* \"#utility.yul\":1666:1672   */\n      dup4\n        /* \"#utility.yul\":1663:1664   */\n      dup2\n        /* \"#utility.yul\":1660:1673   */\n      lt\n        /* \"#utility.yul\":1641:1923   */\n      iszero\n      tag_62\n      jumpi\n        /* \"#utility.yul\":1742:1748   */\n      dup2\n        /* \"#utility.yul\":1736:1749   */\n      mload\n        /* \"#utility.yul\":1769:1832   */\n      tag_63\n        /* \"#utility.yul\":1828:1831   */\n      dup8\n        /* \"#utility.yul\":1813:1826   */\n      dup3\n        /* \"#utility.yul\":1769:1832   */\n      tag_38\n      jump\t// in\n    tag_63:\n        /* \"#utility.yul\":1762:1832   */\n      swap7\n      pop\n        /* \"#utility.yul\":1855:1913   */\n      tag_64\n        /* \"#utility.yul\":1906:1912   */\n      dup4\n        /* \"#utility.yul\":1855:1913   */\n      tag_39\n      jump\t// in\n    tag_64:\n        /* \"#utility.yul\":1845:1913   */\n      swap3\n      pop\n        /* \"#utility.yul\":1701:1923   */\n      pop\n        /* \"#utility.yul\":1688:1689   */\n      0x01\n        /* \"#utility.yul\":1685:1686   */\n      dup2\n        /* \"#utility.yul\":1681:1690   */\n      add\n        /* \"#utility.yul\":1676:1690   */\n      swap1\n      pop\n        /* \"#utility.yul\":1641:1923   */\n      jump(tag_60)\n    tag_62:\n        /* \"#utility.yul\":1645:1659   */\n      pop\n        /* \"#utility.yul\":1348:1930   */\n      pop\n      pop\n      pop\n        /* \"#utility.yul\":1236:1930   */\n      pop\n      pop\n      jump\t// out\n        /* \"#utility.yul\":1936:2459   */\n    tag_10:\n        /* \"#utility.yul\":2125:2129   */\n      0x00\n        /* \"#utility.yul\":2163:2166   */\n      0xa0\n        /* \"#utility.yul\":2152:2161   */\n      dup3\n        /* \"#utility.yul\":2148:2167   */\n      add\n        /* \"#utility.yul\":2140:2167   */\n      swap1\n      pop\n        /* \"#utility.yul\":2177:2248   */\n      tag_66\n        /* \"#utility.yul\":2245:2246   */\n      0x00\n        /* \"#utility.yul\":2234:2243   */\n      dup4\n        /* \"#utility.yul\":2230:2247   */\n      add\n        /* \"#utility.yul\":2221:2227   */\n      dup7\n        /* \"#utility.yul\":2177:2248   */\n      tag_31\n      jump\t// in\n    tag_66:\n        /* \"#utility.yul\":2258:2324   */\n      tag_67\n        /* \"#utility.yul\":2320:2322   */\n      0x20\n        /* \"#utility.yul\":2309:2318   */\n      dup4\n        /* \"#utility.yul\":2305:2323   */\n      add\n        /* \"#utility.yul\":2296:2302   */\n      dup6\n        /* \"#utility.yul\":2258:2324   */\n      tag_33\n      jump\t// in\n    tag_67:\n        /* \"#utility.yul\":2334:2452   */\n      tag_68\n        /* \"#utility.yul\":2448:2450   */\n      0x40\n        /* \"#utility.yul\":2437:2446   */\n      dup4\n        /* \"#utility.yul\":2433:2451   */\n      add\n        /* \"#utility.yul\":2424:2430   */\n      dup5\n        /* \"#utility.yul\":2334:2452   */\n      tag_40\n      jump\t// in\n    tag_68:\n        /* \"#utility.yul\":1936:2459   */\n      swap5\n      swap4\n      pop\n      pop\n      pop\n      pop\n      jump\t// out\n\n    auxdata: 0xa26469706673582212202f444cd8b94fe23240e01469681732bcfa3bedea90f6ecafb00659178b7a5c0464736f6c63430008120033\n}\n",
				"bytecode": {
					"linkReferences": {},
					"object": "608060405234801561001057600080fd5b50610306806100206000396000f3fe608060405234801561001057600080fd5b506004361061004c5760003560e01c80633dece511146100515780636f590330146100715780638552dc081461007b578063e61e40081461009b575b600080fd5b6100596100bb565b60405161006893929190610299565b60405180910390f35b6100796100f3565b005b61008361012a565b60405161009293929190610299565b60405180910390f35b6100a3610161565b6040516100b293929190610299565b60405180910390f35b6000806100c6610198565b60029250600091506040518060600160405280600381526020016002815260200160018152509050909192565b6000806000610100610198565b6101086100bb565b80935081955082965050505061011c6100bb565b909150508092505050505050565b600080610135610198565b600180604051806060016040528060018152602001600281526020016003815250925092509250909192565b60008061016c610198565b600180604051806060016040528060018152602001600281526020016005815250925092509250909192565b6040518060600160405280600390602082028036833780820191505090505090565b6000819050919050565b6101cd816101ba565b82525050565b60008115159050919050565b6101e8816101d3565b82525050565b600060039050919050565b600081905092915050565b6000819050919050565b610217816101ba565b82525050565b6000610229838361020e565b60208301905092915050565b6000602082019050919050565b61024b816101ee565b61025581846101f9565b925061026082610204565b8060005b83811015610291578151610278878261021d565b965061028383610235565b925050600181019050610264565b505050505050565b600060a0820190506102ae60008301866101c4565b6102bb60208301856101df565b6102c86040830184610242565b94935050505056fea26469706673582212202f444cd8b94fe23240e01469681732bcfa3bedea90f6ecafb00659178b7a5c0464736f6c63430008120033",
					"opcodes": "PUSH1 0x80 PUSH1 0x40 MSTORE CALLVALUE DUP1 ISZERO PUSH2 0x10 JUMPI PUSH1 0x0 DUP1 REVERT JUMPDEST POP PUSH2 0x306 DUP1 PUSH2 0x20 PUSH1 0x0 CODECOPY PUSH1 0x0 RETURN INVALID PUSH1 0x80 PUSH1 0x40 MSTORE CALLVALUE DUP1 ISZERO PUSH2 0x10 JUMPI PUSH1 0x0 DUP1 REVERT JUMPDEST POP PUSH1 0x4 CALLDATASIZE LT PUSH2 0x4C JUMPI PUSH1 0x0 CALLDATALOAD PUSH1 0xE0 SHR DUP1 PUSH4 0x3DECE511 EQ PUSH2 0x51 JUMPI DUP1 PUSH4 0x6F590330 EQ PUSH2 0x71 JUMPI DUP1 PUSH4 0x8552DC08 EQ PUSH2 0x7B JUMPI DUP1 PUSH4 0xE61E4008 EQ PUSH2 0x9B JUMPI JUMPDEST PUSH1 0x0 DUP1 REVERT JUMPDEST PUSH2 0x59 PUSH2 0xBB JUMP JUMPDEST PUSH1 0x40 MLOAD PUSH2 0x68 SWAP4 SWAP3 SWAP2 SWAP1 PUSH2 0x299 JUMP JUMPDEST PUSH1 0x40 MLOAD DUP1 SWAP2 SUB SWAP1 RETURN JUMPDEST PUSH2 0x79 PUSH2 0xF3 JUMP JUMPDEST STOP JUMPDEST PUSH2 0x83 PUSH2 0x12A JUMP JUMPDEST PUSH1 0x40 MLOAD PUSH2 0x92 SWAP4 SWAP3 SWAP2 SWAP1 PUSH2 0x299 JUMP JUMPDEST PUSH1 0x40 MLOAD DUP1 SWAP2 SUB SWAP1 RETURN JUMPDEST PUSH2 0xA3 PUSH2 0x161 JUMP JUMPDEST PUSH1 0x40 MLOAD PUSH2 0xB2 SWAP4 SWAP3 SWAP2 SWAP1 PUSH2 0x299 JUMP JUMPDEST PUSH1 0x40 MLOAD DUP1 SWAP2 SUB SWAP1 RETURN JUMPDEST PUSH1 0x0 DUP1 PUSH2 0xC6 PUSH2 0x198 JUMP JUMPDEST PUSH1 0x2 SWAP3 POP PUSH1 0x0 SWAP2 POP PUSH1 0x40 MLOAD DUP1 PUSH1 0x60 ADD PUSH1 0x40 MSTORE DUP1 PUSH1 0x3 DUP2 MSTORE PUSH1 0x20 ADD PUSH1 0x2 DUP2 MSTORE PUSH1 0x20 ADD PUSH1 0x1 DUP2 MSTORE POP SWAP1 POP SWAP1 SWAP2 SWAP3 JUMP JUMPDEST PUSH1 0x0 DUP1 PUSH1 0x0 PUSH2 0x100 PUSH2 0x198 JUMP JUMPDEST PUSH2 0x108 PUSH2 0xBB JUMP JUMPDEST DUP1 SWAP4 POP DUP2 SWAP6 POP DUP3 SWAP7 POP POP POP POP PUSH2 0x11C PUSH2 0xBB JUMP JUMPDEST SWAP1 SWAP2 POP POP DUP1 SWAP3 POP POP POP POP POP POP JUMP JUMPDEST PUSH1 0x0 DUP1 PUSH2 0x135 PUSH2 0x198 JUMP JUMPDEST PUSH1 0x1 DUP1 PUSH1 0x40 MLOAD DUP1 PUSH1 0x60 ADD PUSH1 0x40 MSTORE DUP1 PUSH1 0x1 DUP2 MSTORE PUSH1 0x20 ADD PUSH1 0x2 DUP2 MSTORE PUSH1 0x20 ADD PUSH1 0x3 DUP2 MSTORE POP SWAP3 POP SWAP3 POP SWAP3 POP SWAP1 SWAP2 SWAP3 JUMP JUMPDEST PUSH1 0x0 DUP1 PUSH2 0x16C PUSH2 0x198 JUMP JUMPDEST PUSH1 0x1 DUP1 PUSH1 0x40 MLOAD DUP1 PUSH1 0x60 ADD PUSH1 0x40 MSTORE DUP1 PUSH1 0x1 DUP2 MSTORE PUSH1 0x20 ADD PUSH1 0x2 DUP2 MSTORE PUSH1 0x20 ADD PUSH1 0x5 DUP2 MSTORE POP SWAP3 POP SWAP3 POP SWAP3 POP SWAP1 SWAP2 SWAP3 JUMP JUMPDEST PUSH1 0x40 MLOAD DUP1 PUSH1 0x60 ADD PUSH1 0x40 MSTORE DUP1 PUSH1 0x3 SWAP1 PUSH1 0x20 DUP3 MUL DUP1 CALLDATASIZE DUP4 CALLDATACOPY DUP1 DUP3 ADD SWAP2 POP POP SWAP1 POP POP SWAP1 JUMP JUMPDEST PUSH1 0x0 DUP2 SWAP1 POP SWAP2 SWAP1 POP JUMP JUMPDEST PUSH2 0x1CD DUP2 PUSH2 0x1BA JUMP JUMPDEST DUP3 MSTORE POP POP JUMP JUMPDEST PUSH1 0x0 DUP2 ISZERO ISZERO SWAP1 POP SWAP2 SWAP1 POP JUMP JUMPDEST PUSH2 0x1E8 DUP2 PUSH2 0x1D3 JUMP JUMPDEST DUP3 MSTORE POP POP JUMP JUMPDEST PUSH1 0x0 PUSH1 0x3 SWAP1 POP SWAP2 SWAP1 POP JUMP JUMPDEST PUSH1 0x0 DUP2 SWAP1 POP SWAP3 SWAP2 POP POP JUMP JUMPDEST PUSH1 0x0 DUP2 SWAP1 POP SWAP2 SWAP1 POP JUMP JUMPDEST PUSH2 0x217 DUP2 PUSH2 0x1BA JUMP JUMPDEST DUP3 MSTORE POP POP JUMP JUMPDEST PUSH1 0x0 PUSH2 0x229 DUP4 DUP4 PUSH2 0x20E JUMP JUMPDEST PUSH1 0x20 DUP4 ADD SWAP1 POP SWAP3 SWAP2 POP POP JUMP JUMPDEST PUSH1 0x0 PUSH1 0x20 DUP3 ADD SWAP1 POP SWAP2 SWAP1 POP JUMP JUMPDEST PUSH2 0x24B DUP2 PUSH2 0x1EE JUMP JUMPDEST PUSH2 0x255 DUP2 DUP5 PUSH2 0x1F9 JUMP JUMPDEST SWAP3 POP PUSH2 0x260 DUP3 PUSH2 0x204 JUMP JUMPDEST DUP1 PUSH1 0x0 JUMPDEST DUP4 DUP2 LT ISZERO PUSH2 0x291 JUMPI DUP2 MLOAD PUSH2 0x278 DUP8 DUP3 PUSH2 0x21D JUMP JUMPDEST SWAP7 POP PUSH2 0x283 DUP4 PUSH2 0x235 JUMP JUMPDEST SWAP3 POP POP PUSH1 0x1 DUP2 ADD SWAP1 POP PUSH2 0x264 JUMP JUMPDEST POP POP POP POP POP POP JUMP JUMPDEST PUSH1 0x0 PUSH1 0xA0 DUP3 ADD SWAP1 POP PUSH2 0x2AE PUSH1 0x0 DUP4 ADD DUP7 PUSH2 0x1C4 JUMP JUMPDEST PUSH2 0x2BB PUSH1 0x20 DUP4 ADD DUP6 PUSH2 0x1DF JUMP JUMPDEST PUSH2 0x2C8 PUSH1 0x40 DUP4 ADD DUP5 PUSH2 0x242 JUMP JUMPDEST SWAP5 SWAP4 POP POP POP POP JUMP INVALID LOG2 PUSH5 0x6970667358 0x22 SLT KECCAK256 0x2F PREVRANDAO 0x4C 0xD8 0xB9 0x4F 0xE2 ORIGIN BLOCKHASH 0xE0 EQ PUSH10 0x681732BCFA3BEDEA90F6 0xEC 0xAF 0xB0 MOD MSIZE OR DUP12 PUSH27 0x5C0464736F6C634300081200330000000000000000000000000000 "
				},
				"gasEstimates": {
					"creation": {
						"codeDepositCost": "154800",
						"executionCost": "202",
						"totalCost": "155002"
					},
					"external": {
						"readReturn()": "infinite",
						"returnMultiple()": "infinite",
						"returnNamed()": "infinite",
						"returnNamed2()": "infinite"
					}
				},
				"methodIdentifiers": {
					"readReturn()": "6f590330",
					"returnMultiple()": "e61e4008",
					"returnNamed()": "3dece511",
					"returnNamed2()": "8552dc08"
				}
			},
			"storageLayout": {
				"storage": [],
				"types": null
			},
			"userdoc": {
				"kind": "user",
				"methods": {},
				"version": 1
			}
		}
	}
}