{
	"7.映射类型/LibraryExample.sol": {
		"Token": {
			"abi": [
				{
					"anonymous": false,
					"inputs": [
						{
							"indexed": false,
							"internalType": "address",
							"name": "owner",
							"type": "address"
						},
						{
							"indexed": false,
							"internalType": "address",
							"name": "spender",
							"type": "address"
						},
						{
							"indexed": false,
							"internalType": "uint256",
							"name": "amount",
							"type": "uint256"
						}
					],
					"name": "Approval",
					"type": "event"
				},
				{
					"anonymous": false,
					"inputs": [
						{
							"indexed": false,
							"internalType": "address",
							"name": "from",
							"type": "address"
						},
						{
							"indexed": false,
							"internalType": "address",
							"name": "to",
							"type": "address"
						},
						{
							"indexed": false,
							"internalType": "uint256",
							"name": "amount",
							"type": "uint256"
						}
					],
					"name": "Transfer",
					"type": "event"
				},
				{
					"inputs": [
						{
							"internalType": "address",
							"name": "spender",
							"type": "address"
						},
						{
							"internalType": "uint256",
							"name": "tokens",
							"type": "uint256"
						}
					],
					"name": "approve",
					"outputs": [
						{
							"internalType": "bool",
							"name": "success",
							"type": "bool"
						}
					],
					"stateMutability": "nonpayable",
					"type": "function"
				},
				{
					"inputs": [
						{
							"internalType": "address",
							"name": "tokenOwner",
							"type": "address"
						}
					],
					"name": "balanceOf",
					"outputs": [
						{
							"internalType": "uint256",
							"name": "balance",
							"type": "uint256"
						}
					],
					"stateMutability": "nonpayable",
					"type": "function"
				},
				{
					"inputs": [
						{
							"internalType": "address",
							"name": "to",
							"type": "address"
						},
						{
							"internalType": "uint256",
							"name": "amount",
							"type": "uint256"
						}
					],
					"name": "transfer",
					"outputs": [
						{
							"internalType": "bool",
							"name": "success",
							"type": "bool"
						}
					],
					"stateMutability": "nonpayable",
					"type": "function"
				},
				{
					"inputs": [
						{
							"internalType": "address",
							"name": "from",
							"type": "address"
						},
						{
							"internalType": "address",
							"name": "to",
							"type": "address"
						},
						{
							"internalType": "uint256",
							"name": "amount",
							"type": "uint256"
						}
					],
					"name": "transferFrom",
					"outputs": [
						{
							"internalType": "bool",
							"name": "success",
							"type": "bool"
						}
					],
					"stateMutability": "nonpayable",
					"type": "function"
				}
			],
			"devdoc": {
				"kind": "dev",
				"methods": {},
				"version": 1
			},
			"evm": {
				"assembly": "    /* \"7.\\xe6\\x98\\xa0\\xe5\\xb0\\x84\\xe7\\xb1\\xbb\\xe5\\x9e\\x8b/LibraryExample.sol\":1069:2834  contract Token {... */\n  mstore(0x40, 0x80)\n  callvalue\n  dup1\n  iszero\n  tag_1\n  jumpi\n  0x00\n  dup1\n  revert\ntag_1:\n  pop\n  dataSize(sub_0)\n  dup1\n  dataOffset(sub_0)\n  0x00\n  codecopy\n  0x00\n  return\nstop\n\nsub_0: assembly {\n        /* \"7.\\xe6\\x98\\xa0\\xe5\\xb0\\x84\\xe7\\xb1\\xbb\\xe5\\x9e\\x8b/LibraryExample.sol\":1069:2834  contract Token {... */\n      mstore(0x40, 0x80)\n      callvalue\n      dup1\n      iszero\n      tag_1\n      jumpi\n      0x00\n      dup1\n      revert\n    tag_1:\n      pop\n      jumpi(tag_2, lt(calldatasize, 0x04))\n      shr(0xe0, calldataload(0x00))\n      dup1\n      0x095ea7b3\n      eq\n      tag_3\n      jumpi\n      dup1\n      0x23b872dd\n      eq\n      tag_4\n      jumpi\n      dup1\n      0x70a08231\n      eq\n      tag_5\n      jumpi\n      dup1\n      0xa9059cbb\n      eq\n      tag_6\n      jumpi\n    tag_2:\n      0x00\n      dup1\n      revert\n        /* \"7.\\xe6\\x98\\xa0\\xe5\\xb0\\x84\\xe7\\xb1\\xbb\\xe5\\x9e\\x8b/LibraryExample.sol\":2564:2829  function approve(address spender, uint tokens) public returns (bool success) {... */\n    tag_3:\n      tag_7\n      0x04\n      dup1\n      calldatasize\n      sub\n      dup2\n      add\n      swap1\n      tag_8\n      swap2\n      swap1\n      tag_9\n      jump\t// in\n    tag_8:\n      tag_10\n      jump\t// in\n    tag_7:\n      mload(0x40)\n      tag_11\n      swap2\n      swap1\n      tag_12\n      jump\t// in\n    tag_11:\n      mload(0x40)\n      dup1\n      swap2\n      sub\n      swap1\n      return\n        /* \"7.\\xe6\\x98\\xa0\\xe5\\xb0\\x84\\xe7\\xb1\\xbb\\xe5\\x9e\\x8b/LibraryExample.sol\":2072:2378  function transferFrom(address from, address to, uint amount) public returns (bool success) {... */\n    tag_4:\n      tag_13\n      0x04\n      dup1\n      calldatasize\n      sub\n      dup2\n      add\n      swap1\n      tag_14\n      swap2\n      swap1\n      tag_15\n      jump\t// in\n    tag_14:\n      tag_16\n      jump\t// in\n    tag_13:\n      mload(0x40)\n      tag_17\n      swap2\n      swap1\n      tag_12\n      jump\t// in\n    tag_17:\n      mload(0x40)\n      dup1\n      swap2\n      sub\n      swap1\n      return\n        /* \"7.\\xe6\\x98\\xa0\\xe5\\xb0\\x84\\xe7\\xb1\\xbb\\xe5\\x9e\\x8b/LibraryExample.sol\":1419:1534  function balanceOf(address tokenOwner) public returns (uint balance) {... */\n    tag_5:\n      tag_18\n      0x04\n      dup1\n      calldatasize\n      sub\n      dup2\n      add\n      swap1\n      tag_19\n      swap2\n      swap1\n      tag_20\n      jump\t// in\n    tag_19:\n      tag_21\n      jump\t// in\n    tag_18:\n      mload(0x40)\n      tag_22\n      swap2\n      swap1\n      tag_23\n      jump\t// in\n    tag_22:\n      mload(0x40)\n      dup1\n      swap2\n      sub\n      swap1\n      return\n        /* \"7.\\xe6\\x98\\xa0\\xe5\\xb0\\x84\\xe7\\xb1\\xbb\\xe5\\x9e\\x8b/LibraryExample.sol\":1688:1887  function transfer(address to, uint amount) public returns (bool success) {... */\n    tag_6:\n      tag_24\n      0x04\n      dup1\n      calldatasize\n      sub\n      dup2\n      add\n      swap1\n      tag_25\n      swap2\n      swap1\n      tag_9\n      jump\t// in\n    tag_25:\n      tag_26\n      jump\t// in\n    tag_24:\n      mload(0x40)\n      tag_27\n      swap2\n      swap1\n      tag_12\n      jump\t// in\n    tag_27:\n      mload(0x40)\n      dup1\n      swap2\n      sub\n      swap1\n      return\n        /* \"7.\\xe6\\x98\\xa0\\xe5\\xb0\\x84\\xe7\\xb1\\xbb\\xe5\\x9e\\x8b/LibraryExample.sol\":2564:2829  function approve(address spender, uint tokens) public returns (bool success) {... */\n    tag_10:\n        /* \"7.\\xe6\\x98\\xa0\\xe5\\xb0\\x84\\xe7\\xb1\\xbb\\xe5\\x9e\\x8b/LibraryExample.sol\":2627:2639  bool success */\n      0x00\n        /* \"7.\\xe6\\x98\\xa0\\xe5\\xb0\\x84\\xe7\\xb1\\xbb\\xe5\\x9e\\x8b/LibraryExample.sol\":2692:2693  0 */\n      dup1\n        /* \"7.\\xe6\\x98\\xa0\\xe5\\xb0\\x84\\xe7\\xb1\\xbb\\xe5\\x9e\\x8b/LibraryExample.sol\":2660:2667  allowed */\n      0x01\n        /* \"7.\\xe6\\x98\\xa0\\xe5\\xb0\\x84\\xe7\\xb1\\xbb\\xe5\\x9e\\x8b/LibraryExample.sol\":2660:2679  allowed[msg.sender] */\n      0x00\n        /* \"7.\\xe6\\x98\\xa0\\xe5\\xb0\\x84\\xe7\\xb1\\xbb\\xe5\\x9e\\x8b/LibraryExample.sol\":2668:2678  msg.sender */\n      caller\n        /* \"7.\\xe6\\x98\\xa0\\xe5\\xb0\\x84\\xe7\\xb1\\xbb\\xe5\\x9e\\x8b/LibraryExample.sol\":2660:2679  allowed[msg.sender] */\n      0xffffffffffffffffffffffffffffffffffffffff\n      and\n      0xffffffffffffffffffffffffffffffffffffffff\n      and\n      dup2\n      mstore\n      0x20\n      add\n      swap1\n      dup2\n      mstore\n      0x20\n      add\n      0x00\n      keccak256\n        /* \"7.\\xe6\\x98\\xa0\\xe5\\xb0\\x84\\xe7\\xb1\\xbb\\xe5\\x9e\\x8b/LibraryExample.sol\":2660:2688  allowed[msg.sender][spender] */\n      0x00\n        /* \"7.\\xe6\\x98\\xa0\\xe5\\xb0\\x84\\xe7\\xb1\\xbb\\xe5\\x9e\\x8b/LibraryExample.sol\":2680:2687  spender */\n      dup6\n        /* \"7.\\xe6\\x98\\xa0\\xe5\\xb0\\x84\\xe7\\xb1\\xbb\\xe5\\x9e\\x8b/LibraryExample.sol\":2660:2688  allowed[msg.sender][spender] */\n      0xffffffffffffffffffffffffffffffffffffffff\n      and\n      0xffffffffffffffffffffffffffffffffffffffff\n      and\n      dup2\n      mstore\n      0x20\n      add\n      swap1\n      dup2\n      mstore\n      0x20\n      add\n      0x00\n      keccak256\n      sload\n        /* \"7.\\xe6\\x98\\xa0\\xe5\\xb0\\x84\\xe7\\xb1\\xbb\\xe5\\x9e\\x8b/LibraryExample.sol\":2660:2693  allowed[msg.sender][spender] == 0 */\n      eq\n        /* \"7.\\xe6\\x98\\xa0\\xe5\\xb0\\x84\\xe7\\xb1\\xbb\\xe5\\x9e\\x8b/LibraryExample.sol\":2652:2698  require(allowed[msg.sender][spender] == 0, \"\") */\n      tag_29\n      jumpi\n      mload(0x40)\n      0x08c379a000000000000000000000000000000000000000000000000000000000\n      dup2\n      mstore\n      0x04\n      add\n      tag_30\n      swap1\n      tag_31\n      jump\t// in\n    tag_30:\n      mload(0x40)\n      dup1\n      swap2\n      sub\n      swap1\n      revert\n    tag_29:\n        /* \"7.\\xe6\\x98\\xa0\\xe5\\xb0\\x84\\xe7\\xb1\\xbb\\xe5\\x9e\\x8b/LibraryExample.sol\":2740:2746  tokens */\n      dup2\n        /* \"7.\\xe6\\x98\\xa0\\xe5\\xb0\\x84\\xe7\\xb1\\xbb\\xe5\\x9e\\x8b/LibraryExample.sol\":2709:2716  allowed */\n      0x01\n        /* \"7.\\xe6\\x98\\xa0\\xe5\\xb0\\x84\\xe7\\xb1\\xbb\\xe5\\x9e\\x8b/LibraryExample.sol\":2709:2728  allowed[msg.sender] */\n      0x00\n        /* \"7.\\xe6\\x98\\xa0\\xe5\\xb0\\x84\\xe7\\xb1\\xbb\\xe5\\x9e\\x8b/LibraryExample.sol\":2717:2727  msg.sender */\n      caller\n        /* \"7.\\xe6\\x98\\xa0\\xe5\\xb0\\x84\\xe7\\xb1\\xbb\\xe5\\x9e\\x8b/LibraryExample.sol\":2709:2728  allowed[msg.sender] */\n      0xffffffffffffffffffffffffffffffffffffffff\n      and\n      0xffffffffffffffffffffffffffffffffffffffff\n      and\n      dup2\n      mstore\n      0x20\n      add\n      swap1\n      dup2\n      mstore\n      0x20\n      add\n      0x00\n      keccak256\n        /* \"7.\\xe6\\x98\\xa0\\xe5\\xb0\\x84\\xe7\\xb1\\xbb\\xe5\\x9e\\x8b/LibraryExample.sol\":2709:2737  allowed[msg.sender][spender] */\n      0x00\n        /* \"7.\\xe6\\x98\\xa0\\xe5\\xb0\\x84\\xe7\\xb1\\xbb\\xe5\\x9e\\x8b/LibraryExample.sol\":2729:2736  spender */\n      dup6\n        /* \"7.\\xe6\\x98\\xa0\\xe5\\xb0\\x84\\xe7\\xb1\\xbb\\xe5\\x9e\\x8b/LibraryExample.sol\":2709:2737  allowed[msg.sender][spender] */\n      0xffffffffffffffffffffffffffffffffffffffff\n      and\n      0xffffffffffffffffffffffffffffffffffffffff\n      and\n      dup2\n      mstore\n      0x20\n      add\n      swap1\n      dup2\n      mstore\n      0x20\n      add\n      0x00\n      keccak256\n        /* \"7.\\xe6\\x98\\xa0\\xe5\\xb0\\x84\\xe7\\xb1\\xbb\\xe5\\x9e\\x8b/LibraryExample.sol\":2709:2746  allowed[msg.sender][spender] = tokens */\n      dup2\n      swap1\n      sstore\n      pop\n        /* \"7.\\xe6\\x98\\xa0\\xe5\\xb0\\x84\\xe7\\xb1\\xbb\\xe5\\x9e\\x8b/LibraryExample.sol\":2762:2799  Approval(msg.sender, spender, tokens) */\n      0x8c5be1e5ebec7d5bd14f71427d1e84f3dd0314c0f7b2291e5b200ac8c7c3b925\n        /* \"7.\\xe6\\x98\\xa0\\xe5\\xb0\\x84\\xe7\\xb1\\xbb\\xe5\\x9e\\x8b/LibraryExample.sol\":2771:2781  msg.sender */\n      caller\n        /* \"7.\\xe6\\x98\\xa0\\xe5\\xb0\\x84\\xe7\\xb1\\xbb\\xe5\\x9e\\x8b/LibraryExample.sol\":2783:2790  spender */\n      dup5\n        /* \"7.\\xe6\\x98\\xa0\\xe5\\xb0\\x84\\xe7\\xb1\\xbb\\xe5\\x9e\\x8b/LibraryExample.sol\":2792:2798  tokens */\n      dup5\n        /* \"7.\\xe6\\x98\\xa0\\xe5\\xb0\\x84\\xe7\\xb1\\xbb\\xe5\\x9e\\x8b/LibraryExample.sol\":2762:2799  Approval(msg.sender, spender, tokens) */\n      mload(0x40)\n      tag_32\n      swap4\n      swap3\n      swap2\n      swap1\n      tag_33\n      jump\t// in\n    tag_32:\n      mload(0x40)\n      dup1\n      swap2\n      sub\n      swap1\n      log1\n        /* \"7.\\xe6\\x98\\xa0\\xe5\\xb0\\x84\\xe7\\xb1\\xbb\\xe5\\x9e\\x8b/LibraryExample.sol\":2817:2821  true */\n      0x01\n        /* \"7.\\xe6\\x98\\xa0\\xe5\\xb0\\x84\\xe7\\xb1\\xbb\\xe5\\x9e\\x8b/LibraryExample.sol\":2810:2821  return true */\n      swap1\n      pop\n        /* \"7.\\xe6\\x98\\xa0\\xe5\\xb0\\x84\\xe7\\xb1\\xbb\\xe5\\x9e\\x8b/LibraryExample.sol\":2564:2829  function approve(address spender, uint tokens) public returns (bool success) {... */\n      swap3\n      swap2\n      pop\n      pop\n      jump\t// out\n        /* \"7.\\xe6\\x98\\xa0\\xe5\\xb0\\x84\\xe7\\xb1\\xbb\\xe5\\x9e\\x8b/LibraryExample.sol\":2072:2378  function transferFrom(address from, address to, uint amount) public returns (bool success) {... */\n    tag_16:\n        /* \"7.\\xe6\\x98\\xa0\\xe5\\xb0\\x84\\xe7\\xb1\\xbb\\xe5\\x9e\\x8b/LibraryExample.sol\":2149:2161  bool success */\n      0x00\n        /* \"7.\\xe6\\x98\\xa0\\xe5\\xb0\\x84\\xe7\\xb1\\xbb\\xe5\\x9e\\x8b/LibraryExample.sol\":2211:2217  amount */\n      dup2\n        /* \"7.\\xe6\\x98\\xa0\\xe5\\xb0\\x84\\xe7\\xb1\\xbb\\xe5\\x9e\\x8b/LibraryExample.sol\":2182:2189  allowed */\n      0x01\n        /* \"7.\\xe6\\x98\\xa0\\xe5\\xb0\\x84\\xe7\\xb1\\xbb\\xe5\\x9e\\x8b/LibraryExample.sol\":2182:2195  allowed[from] */\n      0x00\n        /* \"7.\\xe6\\x98\\xa0\\xe5\\xb0\\x84\\xe7\\xb1\\xbb\\xe5\\x9e\\x8b/LibraryExample.sol\":2190:2194  from */\n      dup7\n        /* \"7.\\xe6\\x98\\xa0\\xe5\\xb0\\x84\\xe7\\xb1\\xbb\\xe5\\x9e\\x8b/LibraryExample.sol\":2182:2195  allowed[from] */\n      0xffffffffffffffffffffffffffffffffffffffff\n      and\n      0xffffffffffffffffffffffffffffffffffffffff\n      and\n      dup2\n      mstore\n      0x20\n      add\n      swap1\n      dup2\n      mstore\n      0x20\n      add\n      0x00\n      keccak256\n        /* \"7.\\xe6\\x98\\xa0\\xe5\\xb0\\x84\\xe7\\xb1\\xbb\\xe5\\x9e\\x8b/LibraryExample.sol\":2182:2207  allowed[from][msg.sender] */\n      0x00\n        /* \"7.\\xe6\\x98\\xa0\\xe5\\xb0\\x84\\xe7\\xb1\\xbb\\xe5\\x9e\\x8b/LibraryExample.sol\":2196:2206  msg.sender */\n      caller\n        /* \"7.\\xe6\\x98\\xa0\\xe5\\xb0\\x84\\xe7\\xb1\\xbb\\xe5\\x9e\\x8b/LibraryExample.sol\":2182:2207  allowed[from][msg.sender] */\n      0xffffffffffffffffffffffffffffffffffffffff\n      and\n      0xffffffffffffffffffffffffffffffffffffffff\n      and\n      dup2\n      mstore\n      0x20\n      add\n      swap1\n      dup2\n      mstore\n      0x20\n      add\n      0x00\n      keccak256\n      sload\n        /* \"7.\\xe6\\x98\\xa0\\xe5\\xb0\\x84\\xe7\\xb1\\xbb\\xe5\\x9e\\x8b/LibraryExample.sol\":2182:2217  allowed[from][msg.sender] >= amount */\n      lt\n      iszero\n        /* \"7.\\xe6\\x98\\xa0\\xe5\\xb0\\x84\\xe7\\xb1\\xbb\\xe5\\x9e\\x8b/LibraryExample.sol\":2174:2218  require(allowed[from][msg.sender] >= amount) */\n      tag_35\n      jumpi\n      0x00\n      dup1\n      revert\n    tag_35:\n        /* \"7.\\xe6\\x98\\xa0\\xe5\\xb0\\x84\\xe7\\xb1\\xbb\\xe5\\x9e\\x8b/LibraryExample.sol\":2258:2264  amount */\n      dup2\n        /* \"7.\\xe6\\x98\\xa0\\xe5\\xb0\\x84\\xe7\\xb1\\xbb\\xe5\\x9e\\x8b/LibraryExample.sol\":2229:2236  allowed */\n      0x01\n        /* \"7.\\xe6\\x98\\xa0\\xe5\\xb0\\x84\\xe7\\xb1\\xbb\\xe5\\x9e\\x8b/LibraryExample.sol\":2229:2242  allowed[from] */\n      0x00\n        /* \"7.\\xe6\\x98\\xa0\\xe5\\xb0\\x84\\xe7\\xb1\\xbb\\xe5\\x9e\\x8b/LibraryExample.sol\":2237:2241  from */\n      dup7\n        /* \"7.\\xe6\\x98\\xa0\\xe5\\xb0\\x84\\xe7\\xb1\\xbb\\xe5\\x9e\\x8b/LibraryExample.sol\":2229:2242  allowed[from] */\n      0xffffffffffffffffffffffffffffffffffffffff\n      and\n      0xffffffffffffffffffffffffffffffffffffffff\n      and\n      dup2\n      mstore\n      0x20\n      add\n      swap1\n      dup2\n      mstore\n      0x20\n      add\n      0x00\n      keccak256\n        /* \"7.\\xe6\\x98\\xa0\\xe5\\xb0\\x84\\xe7\\xb1\\xbb\\xe5\\x9e\\x8b/LibraryExample.sol\":2229:2254  allowed[from][msg.sender] */\n      0x00\n        /* \"7.\\xe6\\x98\\xa0\\xe5\\xb0\\x84\\xe7\\xb1\\xbb\\xe5\\x9e\\x8b/LibraryExample.sol\":2243:2253  msg.sender */\n      caller\n        /* \"7.\\xe6\\x98\\xa0\\xe5\\xb0\\x84\\xe7\\xb1\\xbb\\xe5\\x9e\\x8b/LibraryExample.sol\":2229:2254  allowed[from][msg.sender] */\n      0xffffffffffffffffffffffffffffffffffffffff\n      and\n      0xffffffffffffffffffffffffffffffffffffffff\n      and\n      dup2\n      mstore\n      0x20\n      add\n      swap1\n      dup2\n      mstore\n      0x20\n      add\n      0x00\n      keccak256\n      0x00\n        /* \"7.\\xe6\\x98\\xa0\\xe5\\xb0\\x84\\xe7\\xb1\\xbb\\xe5\\x9e\\x8b/LibraryExample.sol\":2229:2264  allowed[from][msg.sender] -= amount */\n      dup3\n      dup3\n      sload\n      tag_36\n      swap2\n      swap1\n      tag_37\n      jump\t// in\n    tag_36:\n      swap3\n      pop\n      pop\n      dup2\n      swap1\n      sstore\n      pop\n        /* \"7.\\xe6\\x98\\xa0\\xe5\\xb0\\x84\\xe7\\xb1\\xbb\\xe5\\x9e\\x8b/LibraryExample.sol\":2275:2306  balances.send(from, to, amount) */\n      tag_38\n        /* \"7.\\xe6\\x98\\xa0\\xe5\\xb0\\x84\\xe7\\xb1\\xbb\\xe5\\x9e\\x8b/LibraryExample.sol\":2289:2293  from */\n      dup5\n        /* \"7.\\xe6\\x98\\xa0\\xe5\\xb0\\x84\\xe7\\xb1\\xbb\\xe5\\x9e\\x8b/LibraryExample.sol\":2295:2297  to */\n      dup5\n        /* \"7.\\xe6\\x98\\xa0\\xe5\\xb0\\x84\\xe7\\xb1\\xbb\\xe5\\x9e\\x8b/LibraryExample.sol\":2299:2305  amount */\n      dup5\n        /* \"7.\\xe6\\x98\\xa0\\xe5\\xb0\\x84\\xe7\\xb1\\xbb\\xe5\\x9e\\x8b/LibraryExample.sol\":2275:2283  balances */\n      0x00\n        /* \"7.\\xe6\\x98\\xa0\\xe5\\xb0\\x84\\xe7\\xb1\\xbb\\xe5\\x9e\\x8b/LibraryExample.sol\":2275:2288  balances.send */\n      tag_39\n      swap1\n        /* \"7.\\xe6\\x98\\xa0\\xe5\\xb0\\x84\\xe7\\xb1\\xbb\\xe5\\x9e\\x8b/LibraryExample.sol\":2275:2306  balances.send(from, to, amount) */\n      swap4\n      swap3\n      swap2\n      swap1\n      0xffffffff\n      and\n      jump\t// in\n    tag_38:\n        /* \"7.\\xe6\\x98\\xa0\\xe5\\xb0\\x84\\xe7\\xb1\\xbb\\xe5\\x9e\\x8b/LibraryExample.sol\":2322:2348  Transfer(from, to, amount) */\n      0xddf252ad1be2c89b69c2b068fc378daa952ba7f163c4a11628f55a4df523b3ef\n        /* \"7.\\xe6\\x98\\xa0\\xe5\\xb0\\x84\\xe7\\xb1\\xbb\\xe5\\x9e\\x8b/LibraryExample.sol\":2331:2335  from */\n      dup5\n        /* \"7.\\xe6\\x98\\xa0\\xe5\\xb0\\x84\\xe7\\xb1\\xbb\\xe5\\x9e\\x8b/LibraryExample.sol\":2337:2339  to */\n      dup5\n        /* \"7.\\xe6\\x98\\xa0\\xe5\\xb0\\x84\\xe7\\xb1\\xbb\\xe5\\x9e\\x8b/LibraryExample.sol\":2341:2347  amount */\n      dup5\n        /* \"7.\\xe6\\x98\\xa0\\xe5\\xb0\\x84\\xe7\\xb1\\xbb\\xe5\\x9e\\x8b/LibraryExample.sol\":2322:2348  Transfer(from, to, amount) */\n      mload(0x40)\n      tag_40\n      swap4\n      swap3\n      swap2\n      swap1\n      tag_33\n      jump\t// in\n    tag_40:\n      mload(0x40)\n      dup1\n      swap2\n      sub\n      swap1\n      log1\n        /* \"7.\\xe6\\x98\\xa0\\xe5\\xb0\\x84\\xe7\\xb1\\xbb\\xe5\\x9e\\x8b/LibraryExample.sol\":2366:2370  true */\n      0x01\n        /* \"7.\\xe6\\x98\\xa0\\xe5\\xb0\\x84\\xe7\\xb1\\xbb\\xe5\\x9e\\x8b/LibraryExample.sol\":2359:2370  return true */\n      swap1\n      pop\n        /* \"7.\\xe6\\x98\\xa0\\xe5\\xb0\\x84\\xe7\\xb1\\xbb\\xe5\\x9e\\x8b/LibraryExample.sol\":2072:2378  function transferFrom(address from, address to, uint amount) public returns (bool success) {... */\n      swap4\n      swap3\n      pop\n      pop\n      pop\n      jump\t// out\n        /* \"7.\\xe6\\x98\\xa0\\xe5\\xb0\\x84\\xe7\\xb1\\xbb\\xe5\\x9e\\x8b/LibraryExample.sol\":1419:1534  function balanceOf(address tokenOwner) public returns (uint balance) {... */\n    tag_21:\n        /* \"7.\\xe6\\x98\\xa0\\xe5\\xb0\\x84\\xe7\\xb1\\xbb\\xe5\\x9e\\x8b/LibraryExample.sol\":1474:1486  uint balance */\n      0x00\n        /* \"7.\\xe6\\x98\\xa0\\xe5\\xb0\\x84\\xe7\\xb1\\xbb\\xe5\\x9e\\x8b/LibraryExample.sol\":1506:1514  balances */\n      dup1\n        /* \"7.\\xe6\\x98\\xa0\\xe5\\xb0\\x84\\xe7\\xb1\\xbb\\xe5\\x9e\\x8b/LibraryExample.sol\":1506:1526  balances[tokenOwner] */\n      0x00\n        /* \"7.\\xe6\\x98\\xa0\\xe5\\xb0\\x84\\xe7\\xb1\\xbb\\xe5\\x9e\\x8b/LibraryExample.sol\":1515:1525  tokenOwner */\n      dup4\n        /* \"7.\\xe6\\x98\\xa0\\xe5\\xb0\\x84\\xe7\\xb1\\xbb\\xe5\\x9e\\x8b/LibraryExample.sol\":1506:1526  balances[tokenOwner] */\n      0xffffffffffffffffffffffffffffffffffffffff\n      and\n      0xffffffffffffffffffffffffffffffffffffffff\n      and\n      dup2\n      mstore\n      0x20\n      add\n      swap1\n      dup2\n      mstore\n      0x20\n      add\n      0x00\n      keccak256\n      sload\n        /* \"7.\\xe6\\x98\\xa0\\xe5\\xb0\\x84\\xe7\\xb1\\xbb\\xe5\\x9e\\x8b/LibraryExample.sol\":1499:1526  return balances[tokenOwner] */\n      swap1\n      pop\n        /* \"7.\\xe6\\x98\\xa0\\xe5\\xb0\\x84\\xe7\\xb1\\xbb\\xe5\\x9e\\x8b/LibraryExample.sol\":1419:1534  function balanceOf(address tokenOwner) public returns (uint balance) {... */\n      swap2\n      swap1\n      pop\n      jump\t// out\n        /* \"7.\\xe6\\x98\\xa0\\xe5\\xb0\\x84\\xe7\\xb1\\xbb\\xe5\\x9e\\x8b/LibraryExample.sol\":1688:1887  function transfer(address to, uint amount) public returns (bool success) {... */\n    tag_26:\n        /* \"7.\\xe6\\x98\\xa0\\xe5\\xb0\\x84\\xe7\\xb1\\xbb\\xe5\\x9e\\x8b/LibraryExample.sol\":1747:1759  bool success */\n      0x00\n        /* \"7.\\xe6\\x98\\xa0\\xe5\\xb0\\x84\\xe7\\xb1\\xbb\\xe5\\x9e\\x8b/LibraryExample.sol\":1772:1809  balances.send(msg.sender, to, amount) */\n      tag_43\n        /* \"7.\\xe6\\x98\\xa0\\xe5\\xb0\\x84\\xe7\\xb1\\xbb\\xe5\\x9e\\x8b/LibraryExample.sol\":1786:1796  msg.sender */\n      caller\n        /* \"7.\\xe6\\x98\\xa0\\xe5\\xb0\\x84\\xe7\\xb1\\xbb\\xe5\\x9e\\x8b/LibraryExample.sol\":1798:1800  to */\n      dup5\n        /* \"7.\\xe6\\x98\\xa0\\xe5\\xb0\\x84\\xe7\\xb1\\xbb\\xe5\\x9e\\x8b/LibraryExample.sol\":1802:1808  amount */\n      dup5\n        /* \"7.\\xe6\\x98\\xa0\\xe5\\xb0\\x84\\xe7\\xb1\\xbb\\xe5\\x9e\\x8b/LibraryExample.sol\":1772:1780  balances */\n      0x00\n        /* \"7.\\xe6\\x98\\xa0\\xe5\\xb0\\x84\\xe7\\xb1\\xbb\\xe5\\x9e\\x8b/LibraryExample.sol\":1772:1785  balances.send */\n      tag_39\n      swap1\n        /* \"7.\\xe6\\x98\\xa0\\xe5\\xb0\\x84\\xe7\\xb1\\xbb\\xe5\\x9e\\x8b/LibraryExample.sol\":1772:1809  balances.send(msg.sender, to, amount) */\n      swap4\n      swap3\n      swap2\n      swap1\n      0xffffffff\n      and\n      jump\t// in\n    tag_43:\n        /* \"7.\\xe6\\x98\\xa0\\xe5\\xb0\\x84\\xe7\\xb1\\xbb\\xe5\\x9e\\x8b/LibraryExample.sol\":1825:1857  Transfer(msg.sender, to, amount) */\n      0xddf252ad1be2c89b69c2b068fc378daa952ba7f163c4a11628f55a4df523b3ef\n        /* \"7.\\xe6\\x98\\xa0\\xe5\\xb0\\x84\\xe7\\xb1\\xbb\\xe5\\x9e\\x8b/LibraryExample.sol\":1834:1844  msg.sender */\n      caller\n        /* \"7.\\xe6\\x98\\xa0\\xe5\\xb0\\x84\\xe7\\xb1\\xbb\\xe5\\x9e\\x8b/LibraryExample.sol\":1846:1848  to */\n      dup5\n        /* \"7.\\xe6\\x98\\xa0\\xe5\\xb0\\x84\\xe7\\xb1\\xbb\\xe5\\x9e\\x8b/LibraryExample.sol\":1850:1856  amount */\n      dup5\n        /* \"7.\\xe6\\x98\\xa0\\xe5\\xb0\\x84\\xe7\\xb1\\xbb\\xe5\\x9e\\x8b/LibraryExample.sol\":1825:1857  Transfer(msg.sender, to, amount) */\n      mload(0x40)\n      tag_44\n      swap4\n      swap3\n      swap2\n      swap1\n      tag_33\n      jump\t// in\n    tag_44:\n      mload(0x40)\n      dup1\n      swap2\n      sub\n      swap1\n      log1\n        /* \"7.\\xe6\\x98\\xa0\\xe5\\xb0\\x84\\xe7\\xb1\\xbb\\xe5\\x9e\\x8b/LibraryExample.sol\":1875:1879  true */\n      0x01\n        /* \"7.\\xe6\\x98\\xa0\\xe5\\xb0\\x84\\xe7\\xb1\\xbb\\xe5\\x9e\\x8b/LibraryExample.sol\":1868:1879  return true */\n      swap1\n      pop\n        /* \"7.\\xe6\\x98\\xa0\\xe5\\xb0\\x84\\xe7\\xb1\\xbb\\xe5\\x9e\\x8b/LibraryExample.sol\":1688:1887  function transfer(address to, uint amount) public returns (bool success) {... */\n      swap3\n      swap2\n      pop\n      pop\n      jump\t// out\n        /* \"7.\\xe6\\x98\\xa0\\xe5\\xb0\\x84\\xe7\\xb1\\xbb\\xe5\\x9e\\x8b/LibraryExample.sol\":770:1061  function send(mapping(address => uint256) storage balances, ... */\n    tag_39:\n        /* \"7.\\xe6\\x98\\xa0\\xe5\\xb0\\x84\\xe7\\xb1\\xbb\\xe5\\x9e\\x8b/LibraryExample.sol\":921:927  amount */\n      dup1\n        /* \"7.\\xe6\\x98\\xa0\\xe5\\xb0\\x84\\xe7\\xb1\\xbb\\xe5\\x9e\\x8b/LibraryExample.sol\":903:911  balances */\n      dup5\n        /* \"7.\\xe6\\x98\\xa0\\xe5\\xb0\\x84\\xe7\\xb1\\xbb\\xe5\\x9e\\x8b/LibraryExample.sol\":903:917  balances[from] */\n      0x00\n        /* \"7.\\xe6\\x98\\xa0\\xe5\\xb0\\x84\\xe7\\xb1\\xbb\\xe5\\x9e\\x8b/LibraryExample.sol\":912:916  from */\n      dup6\n        /* \"7.\\xe6\\x98\\xa0\\xe5\\xb0\\x84\\xe7\\xb1\\xbb\\xe5\\x9e\\x8b/LibraryExample.sol\":903:917  balances[from] */\n      0xffffffffffffffffffffffffffffffffffffffff\n      and\n      0xffffffffffffffffffffffffffffffffffffffff\n      and\n      dup2\n      mstore\n      0x20\n      add\n      swap1\n      dup2\n      mstore\n      0x20\n      add\n      0x00\n      keccak256\n      sload\n        /* \"7.\\xe6\\x98\\xa0\\xe5\\xb0\\x84\\xe7\\xb1\\xbb\\xe5\\x9e\\x8b/LibraryExample.sol\":903:927  balances[from] >= amount */\n      lt\n      iszero\n        /* \"7.\\xe6\\x98\\xa0\\xe5\\xb0\\x84\\xe7\\xb1\\xbb\\xe5\\x9e\\x8b/LibraryExample.sol\":895:928  require(balances[from] >= amount) */\n      tag_46\n      jumpi\n      0x00\n      dup1\n      revert\n    tag_46:\n        /* \"7.\\xe6\\x98\\xa0\\xe5\\xb0\\x84\\xe7\\xb1\\xbb\\xe5\\x9e\\x8b/LibraryExample.sol\":972:980  balances */\n      dup4\n        /* \"7.\\xe6\\x98\\xa0\\xe5\\xb0\\x84\\xe7\\xb1\\xbb\\xe5\\x9e\\x8b/LibraryExample.sol\":972:984  balances[to] */\n      0x00\n        /* \"7.\\xe6\\x98\\xa0\\xe5\\xb0\\x84\\xe7\\xb1\\xbb\\xe5\\x9e\\x8b/LibraryExample.sol\":981:983  to */\n      dup4\n        /* \"7.\\xe6\\x98\\xa0\\xe5\\xb0\\x84\\xe7\\xb1\\xbb\\xe5\\x9e\\x8b/LibraryExample.sol\":972:984  balances[to] */\n      0xffffffffffffffffffffffffffffffffffffffff\n      and\n      0xffffffffffffffffffffffffffffffffffffffff\n      and\n      dup2\n      mstore\n      0x20\n      add\n      swap1\n      dup2\n      mstore\n      0x20\n      add\n      0x00\n      keccak256\n      sload\n        /* \"7.\\xe6\\x98\\xa0\\xe5\\xb0\\x84\\xe7\\xb1\\xbb\\xe5\\x9e\\x8b/LibraryExample.sol\":962:968  amount */\n      dup2\n        /* \"7.\\xe6\\x98\\xa0\\xe5\\xb0\\x84\\xe7\\xb1\\xbb\\xe5\\x9e\\x8b/LibraryExample.sol\":947:955  balances */\n      dup6\n        /* \"7.\\xe6\\x98\\xa0\\xe5\\xb0\\x84\\xe7\\xb1\\xbb\\xe5\\x9e\\x8b/LibraryExample.sol\":947:959  balances[to] */\n      0x00\n        /* \"7.\\xe6\\x98\\xa0\\xe5\\xb0\\x84\\xe7\\xb1\\xbb\\xe5\\x9e\\x8b/LibraryExample.sol\":956:958  to */\n      dup6\n        /* \"7.\\xe6\\x98\\xa0\\xe5\\xb0\\x84\\xe7\\xb1\\xbb\\xe5\\x9e\\x8b/LibraryExample.sol\":947:959  balances[to] */\n      0xffffffffffffffffffffffffffffffffffffffff\n      and\n      0xffffffffffffffffffffffffffffffffffffffff\n      and\n      dup2\n      mstore\n      0x20\n      add\n      swap1\n      dup2\n      mstore\n      0x20\n      add\n      0x00\n      keccak256\n      sload\n        /* \"7.\\xe6\\x98\\xa0\\xe5\\xb0\\x84\\xe7\\xb1\\xbb\\xe5\\x9e\\x8b/LibraryExample.sol\":947:968  balances[to] + amount */\n      tag_47\n      swap2\n      swap1\n      tag_48\n      jump\t// in\n    tag_47:\n        /* \"7.\\xe6\\x98\\xa0\\xe5\\xb0\\x84\\xe7\\xb1\\xbb\\xe5\\x9e\\x8b/LibraryExample.sol\":947:984  balances[to] + amount >= balances[to] */\n      lt\n      iszero\n        /* \"7.\\xe6\\x98\\xa0\\xe5\\xb0\\x84\\xe7\\xb1\\xbb\\xe5\\x9e\\x8b/LibraryExample.sol\":939:985  require(balances[to] + amount >= balances[to]) */\n      tag_49\n      jumpi\n      0x00\n      dup1\n      revert\n    tag_49:\n        /* \"7.\\xe6\\x98\\xa0\\xe5\\xb0\\x84\\xe7\\xb1\\xbb\\xe5\\x9e\\x8b/LibraryExample.sol\":1014:1020  amount */\n      dup1\n        /* \"7.\\xe6\\x98\\xa0\\xe5\\xb0\\x84\\xe7\\xb1\\xbb\\xe5\\x9e\\x8b/LibraryExample.sol\":996:1004  balances */\n      dup5\n        /* \"7.\\xe6\\x98\\xa0\\xe5\\xb0\\x84\\xe7\\xb1\\xbb\\xe5\\x9e\\x8b/LibraryExample.sol\":996:1010  balances[from] */\n      0x00\n        /* \"7.\\xe6\\x98\\xa0\\xe5\\xb0\\x84\\xe7\\xb1\\xbb\\xe5\\x9e\\x8b/LibraryExample.sol\":1005:1009  from */\n      dup6\n        /* \"7.\\xe6\\x98\\xa0\\xe5\\xb0\\x84\\xe7\\xb1\\xbb\\xe5\\x9e\\x8b/LibraryExample.sol\":996:1010  balances[from] */\n      0xffffffffffffffffffffffffffffffffffffffff\n      and\n      0xffffffffffffffffffffffffffffffffffffffff\n      and\n      dup2\n      mstore\n      0x20\n      add\n      swap1\n      dup2\n      mstore\n      0x20\n      add\n      0x00\n      keccak256\n      0x00\n        /* \"7.\\xe6\\x98\\xa0\\xe5\\xb0\\x84\\xe7\\xb1\\xbb\\xe5\\x9e\\x8b/LibraryExample.sol\":996:1020  balances[from] -= amount */\n      dup3\n      dup3\n      sload\n      tag_50\n      swap2\n      swap1\n      tag_37\n      jump\t// in\n    tag_50:\n      swap3\n      pop\n      pop\n      dup2\n      swap1\n      sstore\n      pop\n        /* \"7.\\xe6\\x98\\xa0\\xe5\\xb0\\x84\\xe7\\xb1\\xbb\\xe5\\x9e\\x8b/LibraryExample.sol\":1047:1053  amount */\n      dup1\n        /* \"7.\\xe6\\x98\\xa0\\xe5\\xb0\\x84\\xe7\\xb1\\xbb\\xe5\\x9e\\x8b/LibraryExample.sol\":1031:1039  balances */\n      dup5\n        /* \"7.\\xe6\\x98\\xa0\\xe5\\xb0\\x84\\xe7\\xb1\\xbb\\xe5\\x9e\\x8b/LibraryExample.sol\":1031:1043  balances[to] */\n      0x00\n        /* \"7.\\xe6\\x98\\xa0\\xe5\\xb0\\x84\\xe7\\xb1\\xbb\\xe5\\x9e\\x8b/LibraryExample.sol\":1040:1042  to */\n      dup5\n        /* \"7.\\xe6\\x98\\xa0\\xe5\\xb0\\x84\\xe7\\xb1\\xbb\\xe5\\x9e\\x8b/LibraryExample.sol\":1031:1043  balances[to] */\n      0xffffffffffffffffffffffffffffffffffffffff\n      and\n      0xffffffffffffffffffffffffffffffffffffffff\n      and\n      dup2\n      mstore\n      0x20\n      add\n      swap1\n      dup2\n      mstore\n      0x20\n      add\n      0x00\n      keccak256\n      0x00\n        /* \"7.\\xe6\\x98\\xa0\\xe5\\xb0\\x84\\xe7\\xb1\\xbb\\xe5\\x9e\\x8b/LibraryExample.sol\":1031:1053  balances[to] += amount */\n      dup3\n      dup3\n      sload\n      tag_51\n      swap2\n      swap1\n      tag_48\n      jump\t// in\n    tag_51:\n      swap3\n      pop\n      pop\n      dup2\n      swap1\n      sstore\n      pop\n        /* \"7.\\xe6\\x98\\xa0\\xe5\\xb0\\x84\\xe7\\xb1\\xbb\\xe5\\x9e\\x8b/LibraryExample.sol\":770:1061  function send(mapping(address => uint256) storage balances, ... */\n      pop\n      pop\n      pop\n      pop\n      jump\t// out\n        /* \"#utility.yul\":88:205   */\n    tag_53:\n        /* \"#utility.yul\":197:198   */\n      0x00\n        /* \"#utility.yul\":194:195   */\n      dup1\n        /* \"#utility.yul\":187:199   */\n      revert\n        /* \"#utility.yul\":334:460   */\n    tag_55:\n        /* \"#utility.yul\":371:378   */\n      0x00\n        /* \"#utility.yul\":411:453   */\n      0xffffffffffffffffffffffffffffffffffffffff\n        /* \"#utility.yul\":404:409   */\n      dup3\n        /* \"#utility.yul\":400:454   */\n      and\n        /* \"#utility.yul\":389:454   */\n      swap1\n      pop\n        /* \"#utility.yul\":334:460   */\n      swap2\n      swap1\n      pop\n      jump\t// out\n        /* \"#utility.yul\":466:562   */\n    tag_56:\n        /* \"#utility.yul\":503:510   */\n      0x00\n        /* \"#utility.yul\":532:556   */\n      tag_76\n        /* \"#utility.yul\":550:555   */\n      dup3\n        /* \"#utility.yul\":532:556   */\n      tag_55\n      jump\t// in\n    tag_76:\n        /* \"#utility.yul\":521:556   */\n      swap1\n      pop\n        /* \"#utility.yul\":466:562   */\n      swap2\n      swap1\n      pop\n      jump\t// out\n        /* \"#utility.yul\":568:690   */\n    tag_57:\n        /* \"#utility.yul\":641:665   */\n      tag_78\n        /* \"#utility.yul\":659:664   */\n      dup2\n        /* \"#utility.yul\":641:665   */\n      tag_56\n      jump\t// in\n    tag_78:\n        /* \"#utility.yul\":634:639   */\n      dup2\n        /* \"#utility.yul\":631:666   */\n      eq\n        /* \"#utility.yul\":621:684   */\n      tag_79\n      jumpi\n        /* \"#utility.yul\":680:681   */\n      0x00\n        /* \"#utility.yul\":677:678   */\n      dup1\n        /* \"#utility.yul\":670:682   */\n      revert\n        /* \"#utility.yul\":621:684   */\n    tag_79:\n        /* \"#utility.yul\":568:690   */\n      pop\n      jump\t// out\n        /* \"#utility.yul\":696:835   */\n    tag_58:\n        /* \"#utility.yul\":742:747   */\n      0x00\n        /* \"#utility.yul\":780:786   */\n      dup2\n        /* \"#utility.yul\":767:787   */\n      calldataload\n        /* \"#utility.yul\":758:787   */\n      swap1\n      pop\n        /* \"#utility.yul\":796:829   */\n      tag_81\n        /* \"#utility.yul\":823:828   */\n      dup2\n        /* \"#utility.yul\":796:829   */\n      tag_57\n      jump\t// in\n    tag_81:\n        /* \"#utility.yul\":696:835   */\n      swap3\n      swap2\n      pop\n      pop\n      jump\t// out\n        /* \"#utility.yul\":841:918   */\n    tag_59:\n        /* \"#utility.yul\":878:885   */\n      0x00\n        /* \"#utility.yul\":907:912   */\n      dup2\n        /* \"#utility.yul\":896:912   */\n      swap1\n      pop\n        /* \"#utility.yul\":841:918   */\n      swap2\n      swap1\n      pop\n      jump\t// out\n        /* \"#utility.yul\":924:1046   */\n    tag_60:\n        /* \"#utility.yul\":997:1021   */\n      tag_84\n        /* \"#utility.yul\":1015:1020   */\n      dup2\n        /* \"#utility.yul\":997:1021   */\n      tag_59\n      jump\t// in\n    tag_84:\n        /* \"#utility.yul\":990:995   */\n      dup2\n        /* \"#utility.yul\":987:1022   */\n      eq\n        /* \"#utility.yul\":977:1040   */\n      tag_85\n      jumpi\n        /* \"#utility.yul\":1036:1037   */\n      0x00\n        /* \"#utility.yul\":1033:1034   */\n      dup1\n        /* \"#utility.yul\":1026:1038   */\n      revert\n        /* \"#utility.yul\":977:1040   */\n    tag_85:\n        /* \"#utility.yul\":924:1046   */\n      pop\n      jump\t// out\n        /* \"#utility.yul\":1052:1191   */\n    tag_61:\n        /* \"#utility.yul\":1098:1103   */\n      0x00\n        /* \"#utility.yul\":1136:1142   */\n      dup2\n        /* \"#utility.yul\":1123:1143   */\n      calldataload\n        /* \"#utility.yul\":1114:1143   */\n      swap1\n      pop\n        /* \"#utility.yul\":1152:1185   */\n      tag_87\n        /* \"#utility.yul\":1179:1184   */\n      dup2\n        /* \"#utility.yul\":1152:1185   */\n      tag_60\n      jump\t// in\n    tag_87:\n        /* \"#utility.yul\":1052:1191   */\n      swap3\n      swap2\n      pop\n      pop\n      jump\t// out\n        /* \"#utility.yul\":1197:1671   */\n    tag_9:\n        /* \"#utility.yul\":1265:1271   */\n      0x00\n        /* \"#utility.yul\":1273:1279   */\n      dup1\n        /* \"#utility.yul\":1322:1324   */\n      0x40\n        /* \"#utility.yul\":1310:1319   */\n      dup4\n        /* \"#utility.yul\":1301:1308   */\n      dup6\n        /* \"#utility.yul\":1297:1320   */\n      sub\n        /* \"#utility.yul\":1293:1325   */\n      slt\n        /* \"#utility.yul\":1290:1409   */\n      iszero\n      tag_89\n      jumpi\n        /* \"#utility.yul\":1328:1407   */\n      tag_90\n      tag_53\n      jump\t// in\n    tag_90:\n        /* \"#utility.yul\":1290:1409   */\n    tag_89:\n        /* \"#utility.yul\":1448:1449   */\n      0x00\n        /* \"#utility.yul\":1473:1526   */\n      tag_91\n        /* \"#utility.yul\":1518:1525   */\n      dup6\n        /* \"#utility.yul\":1509:1515   */\n      dup3\n        /* \"#utility.yul\":1498:1507   */\n      dup7\n        /* \"#utility.yul\":1494:1516   */\n      add\n        /* \"#utility.yul\":1473:1526   */\n      tag_58\n      jump\t// in\n    tag_91:\n        /* \"#utility.yul\":1463:1526   */\n      swap3\n      pop\n        /* \"#utility.yul\":1419:1536   */\n      pop\n        /* \"#utility.yul\":1575:1577   */\n      0x20\n        /* \"#utility.yul\":1601:1654   */\n      tag_92\n        /* \"#utility.yul\":1646:1653   */\n      dup6\n        /* \"#utility.yul\":1637:1643   */\n      dup3\n        /* \"#utility.yul\":1626:1635   */\n      dup7\n        /* \"#utility.yul\":1622:1644   */\n      add\n        /* \"#utility.yul\":1601:1654   */\n      tag_61\n      jump\t// in\n    tag_92:\n        /* \"#utility.yul\":1591:1654   */\n      swap2\n      pop\n        /* \"#utility.yul\":1546:1664   */\n      pop\n        /* \"#utility.yul\":1197:1671   */\n      swap3\n      pop\n      swap3\n      swap1\n      pop\n      jump\t// out\n        /* \"#utility.yul\":1677:1767   */\n    tag_62:\n        /* \"#utility.yul\":1711:1718   */\n      0x00\n        /* \"#utility.yul\":1754:1759   */\n      dup2\n        /* \"#utility.yul\":1747:1760   */\n      iszero\n        /* \"#utility.yul\":1740:1761   */\n      iszero\n        /* \"#utility.yul\":1729:1761   */\n      swap1\n      pop\n        /* \"#utility.yul\":1677:1767   */\n      swap2\n      swap1\n      pop\n      jump\t// out\n        /* \"#utility.yul\":1773:1882   */\n    tag_63:\n        /* \"#utility.yul\":1854:1875   */\n      tag_95\n        /* \"#utility.yul\":1869:1874   */\n      dup2\n        /* \"#utility.yul\":1854:1875   */\n      tag_62\n      jump\t// in\n    tag_95:\n        /* \"#utility.yul\":1849:1852   */\n      dup3\n        /* \"#utility.yul\":1842:1876   */\n      mstore\n        /* \"#utility.yul\":1773:1882   */\n      pop\n      pop\n      jump\t// out\n        /* \"#utility.yul\":1888:2098   */\n    tag_12:\n        /* \"#utility.yul\":1975:1979   */\n      0x00\n        /* \"#utility.yul\":2013:2015   */\n      0x20\n        /* \"#utility.yul\":2002:2011   */\n      dup3\n        /* \"#utility.yul\":1998:2016   */\n      add\n        /* \"#utility.yul\":1990:2016   */\n      swap1\n      pop\n        /* \"#utility.yul\":2026:2091   */\n      tag_97\n        /* \"#utility.yul\":2088:2089   */\n      0x00\n        /* \"#utility.yul\":2077:2086   */\n      dup4\n        /* \"#utility.yul\":2073:2090   */\n      add\n        /* \"#utility.yul\":2064:2070   */\n      dup5\n        /* \"#utility.yul\":2026:2091   */\n      tag_63\n      jump\t// in\n    tag_97:\n        /* \"#utility.yul\":1888:2098   */\n      swap3\n      swap2\n      pop\n      pop\n      jump\t// out\n        /* \"#utility.yul\":2104:2723   */\n    tag_15:\n        /* \"#utility.yul\":2181:2187   */\n      0x00\n        /* \"#utility.yul\":2189:2195   */\n      dup1\n        /* \"#utility.yul\":2197:2203   */\n      0x00\n        /* \"#utility.yul\":2246:2248   */\n      0x60\n        /* \"#utility.yul\":2234:2243   */\n      dup5\n        /* \"#utility.yul\":2225:2232   */\n      dup7\n        /* \"#utility.yul\":2221:2244   */\n      sub\n        /* \"#utility.yul\":2217:2249   */\n      slt\n        /* \"#utility.yul\":2214:2333   */\n      iszero\n      tag_99\n      jumpi\n        /* \"#utility.yul\":2252:2331   */\n      tag_100\n      tag_53\n      jump\t// in\n    tag_100:\n        /* \"#utility.yul\":2214:2333   */\n    tag_99:\n        /* \"#utility.yul\":2372:2373   */\n      0x00\n        /* \"#utility.yul\":2397:2450   */\n      tag_101\n        /* \"#utility.yul\":2442:2449   */\n      dup7\n        /* \"#utility.yul\":2433:2439   */\n      dup3\n        /* \"#utility.yul\":2422:2431   */\n      dup8\n        /* \"#utility.yul\":2418:2440   */\n      add\n        /* \"#utility.yul\":2397:2450   */\n      tag_58\n      jump\t// in\n    tag_101:\n        /* \"#utility.yul\":2387:2450   */\n      swap4\n      pop\n        /* \"#utility.yul\":2343:2460   */\n      pop\n        /* \"#utility.yul\":2499:2501   */\n      0x20\n        /* \"#utility.yul\":2525:2578   */\n      tag_102\n        /* \"#utility.yul\":2570:2577   */\n      dup7\n        /* \"#utility.yul\":2561:2567   */\n      dup3\n        /* \"#utility.yul\":2550:2559   */\n      dup8\n        /* \"#utility.yul\":2546:2568   */\n      add\n        /* \"#utility.yul\":2525:2578   */\n      tag_58\n      jump\t// in\n    tag_102:\n        /* \"#utility.yul\":2515:2578   */\n      swap3\n      pop\n        /* \"#utility.yul\":2470:2588   */\n      pop\n        /* \"#utility.yul\":2627:2629   */\n      0x40\n        /* \"#utility.yul\":2653:2706   */\n      tag_103\n        /* \"#utility.yul\":2698:2705   */\n      dup7\n        /* \"#utility.yul\":2689:2695   */\n      dup3\n        /* \"#utility.yul\":2678:2687   */\n      dup8\n        /* \"#utility.yul\":2674:2696   */\n      add\n        /* \"#utility.yul\":2653:2706   */\n      tag_61\n      jump\t// in\n    tag_103:\n        /* \"#utility.yul\":2643:2706   */\n      swap2\n      pop\n        /* \"#utility.yul\":2598:2716   */\n      pop\n        /* \"#utility.yul\":2104:2723   */\n      swap3\n      pop\n      swap3\n      pop\n      swap3\n      jump\t// out\n        /* \"#utility.yul\":2729:3058   */\n    tag_20:\n        /* \"#utility.yul\":2788:2794   */\n      0x00\n        /* \"#utility.yul\":2837:2839   */\n      0x20\n        /* \"#utility.yul\":2825:2834   */\n      dup3\n        /* \"#utility.yul\":2816:2823   */\n      dup5\n        /* \"#utility.yul\":2812:2835   */\n      sub\n        /* \"#utility.yul\":2808:2840   */\n      slt\n        /* \"#utility.yul\":2805:2924   */\n      iszero\n      tag_105\n      jumpi\n        /* \"#utility.yul\":2843:2922   */\n      tag_106\n      tag_53\n      jump\t// in\n    tag_106:\n        /* \"#utility.yul\":2805:2924   */\n    tag_105:\n        /* \"#utility.yul\":2963:2964   */\n      0x00\n        /* \"#utility.yul\":2988:3041   */\n      tag_107\n        /* \"#utility.yul\":3033:3040   */\n      dup5\n        /* \"#utility.yul\":3024:3030   */\n      dup3\n        /* \"#utility.yul\":3013:3022   */\n      dup6\n        /* \"#utility.yul\":3009:3031   */\n      add\n        /* \"#utility.yul\":2988:3041   */\n      tag_58\n      jump\t// in\n    tag_107:\n        /* \"#utility.yul\":2978:3041   */\n      swap2\n      pop\n        /* \"#utility.yul\":2934:3051   */\n      pop\n        /* \"#utility.yul\":2729:3058   */\n      swap3\n      swap2\n      pop\n      pop\n      jump\t// out\n        /* \"#utility.yul\":3064:3182   */\n    tag_64:\n        /* \"#utility.yul\":3151:3175   */\n      tag_109\n        /* \"#utility.yul\":3169:3174   */\n      dup2\n        /* \"#utility.yul\":3151:3175   */\n      tag_59\n      jump\t// in\n    tag_109:\n        /* \"#utility.yul\":3146:3149   */\n      dup3\n        /* \"#utility.yul\":3139:3176   */\n      mstore\n        /* \"#utility.yul\":3064:3182   */\n      pop\n      pop\n      jump\t// out\n        /* \"#utility.yul\":3188:3410   */\n    tag_23:\n        /* \"#utility.yul\":3281:3285   */\n      0x00\n        /* \"#utility.yul\":3319:3321   */\n      0x20\n        /* \"#utility.yul\":3308:3317   */\n      dup3\n        /* \"#utility.yul\":3304:3322   */\n      add\n        /* \"#utility.yul\":3296:3322   */\n      swap1\n      pop\n        /* \"#utility.yul\":3332:3403   */\n      tag_111\n        /* \"#utility.yul\":3400:3401   */\n      0x00\n        /* \"#utility.yul\":3389:3398   */\n      dup4\n        /* \"#utility.yul\":3385:3402   */\n      add\n        /* \"#utility.yul\":3376:3382   */\n      dup5\n        /* \"#utility.yul\":3332:3403   */\n      tag_64\n      jump\t// in\n    tag_111:\n        /* \"#utility.yul\":3188:3410   */\n      swap3\n      swap2\n      pop\n      pop\n      jump\t// out\n        /* \"#utility.yul\":3416:3585   */\n    tag_65:\n        /* \"#utility.yul\":3500:3511   */\n      0x00\n        /* \"#utility.yul\":3534:3540   */\n      dup3\n        /* \"#utility.yul\":3529:3532   */\n      dup3\n        /* \"#utility.yul\":3522:3541   */\n      mstore\n        /* \"#utility.yul\":3574:3578   */\n      0x20\n        /* \"#utility.yul\":3569:3572   */\n      dup3\n        /* \"#utility.yul\":3565:3579   */\n      add\n        /* \"#utility.yul\":3550:3579   */\n      swap1\n      pop\n        /* \"#utility.yul\":3416:3585   */\n      swap3\n      swap2\n      pop\n      pop\n      jump\t// out\n        /* \"#utility.yul\":3591:3705   */\n    tag_66:\n      pop\n      jump\t// out\n        /* \"#utility.yul\":3711:4075   */\n    tag_67:\n        /* \"#utility.yul\":3853:3856   */\n      0x00\n        /* \"#utility.yul\":3874:3940   */\n      tag_115\n        /* \"#utility.yul\":3938:3939   */\n      0x00\n        /* \"#utility.yul\":3933:3936   */\n      dup4\n        /* \"#utility.yul\":3874:3940   */\n      tag_65\n      jump\t// in\n    tag_115:\n        /* \"#utility.yul\":3867:3940   */\n      swap2\n      pop\n        /* \"#utility.yul\":3949:4042   */\n      tag_116\n        /* \"#utility.yul\":4038:4041   */\n      dup3\n        /* \"#utility.yul\":3949:4042   */\n      tag_66\n      jump\t// in\n    tag_116:\n        /* \"#utility.yul\":4067:4068   */\n      0x00\n        /* \"#utility.yul\":4062:4065   */\n      dup3\n        /* \"#utility.yul\":4058:4069   */\n      add\n        /* \"#utility.yul\":4051:4069   */\n      swap1\n      pop\n        /* \"#utility.yul\":3711:4075   */\n      swap2\n      swap1\n      pop\n      jump\t// out\n        /* \"#utility.yul\":4081:4500   */\n    tag_31:\n        /* \"#utility.yul\":4247:4251   */\n      0x00\n        /* \"#utility.yul\":4285:4287   */\n      0x20\n        /* \"#utility.yul\":4274:4283   */\n      dup3\n        /* \"#utility.yul\":4270:4288   */\n      add\n        /* \"#utility.yul\":4262:4288   */\n      swap1\n      pop\n        /* \"#utility.yul\":4334:4343   */\n      dup2\n        /* \"#utility.yul\":4328:4332   */\n      dup2\n        /* \"#utility.yul\":4324:4344   */\n      sub\n        /* \"#utility.yul\":4320:4321   */\n      0x00\n        /* \"#utility.yul\":4309:4318   */\n      dup4\n        /* \"#utility.yul\":4305:4322   */\n      add\n        /* \"#utility.yul\":4298:4345   */\n      mstore\n        /* \"#utility.yul\":4362:4493   */\n      tag_118\n        /* \"#utility.yul\":4488:4492   */\n      dup2\n        /* \"#utility.yul\":4362:4493   */\n      tag_67\n      jump\t// in\n    tag_118:\n        /* \"#utility.yul\":4354:4493   */\n      swap1\n      pop\n        /* \"#utility.yul\":4081:4500   */\n      swap2\n      swap1\n      pop\n      jump\t// out\n        /* \"#utility.yul\":4506:4624   */\n    tag_68:\n        /* \"#utility.yul\":4593:4617   */\n      tag_120\n        /* \"#utility.yul\":4611:4616   */\n      dup2\n        /* \"#utility.yul\":4593:4617   */\n      tag_56\n      jump\t// in\n    tag_120:\n        /* \"#utility.yul\":4588:4591   */\n      dup3\n        /* \"#utility.yul\":4581:4618   */\n      mstore\n        /* \"#utility.yul\":4506:4624   */\n      pop\n      pop\n      jump\t// out\n        /* \"#utility.yul\":4630:5072   */\n    tag_33:\n        /* \"#utility.yul\":4779:4783   */\n      0x00\n        /* \"#utility.yul\":4817:4819   */\n      0x60\n        /* \"#utility.yul\":4806:4815   */\n      dup3\n        /* \"#utility.yul\":4802:4820   */\n      add\n        /* \"#utility.yul\":4794:4820   */\n      swap1\n      pop\n        /* \"#utility.yul\":4830:4901   */\n      tag_122\n        /* \"#utility.yul\":4898:4899   */\n      0x00\n        /* \"#utility.yul\":4887:4896   */\n      dup4\n        /* \"#utility.yul\":4883:4900   */\n      add\n        /* \"#utility.yul\":4874:4880   */\n      dup7\n        /* \"#utility.yul\":4830:4901   */\n      tag_68\n      jump\t// in\n    tag_122:\n        /* \"#utility.yul\":4911:4983   */\n      tag_123\n        /* \"#utility.yul\":4979:4981   */\n      0x20\n        /* \"#utility.yul\":4968:4977   */\n      dup4\n        /* \"#utility.yul\":4964:4982   */\n      add\n        /* \"#utility.yul\":4955:4961   */\n      dup6\n        /* \"#utility.yul\":4911:4983   */\n      tag_68\n      jump\t// in\n    tag_123:\n        /* \"#utility.yul\":4993:5065   */\n      tag_124\n        /* \"#utility.yul\":5061:5063   */\n      0x40\n        /* \"#utility.yul\":5050:5059   */\n      dup4\n        /* \"#utility.yul\":5046:5064   */\n      add\n        /* \"#utility.yul\":5037:5043   */\n      dup5\n        /* \"#utility.yul\":4993:5065   */\n      tag_64\n      jump\t// in\n    tag_124:\n        /* \"#utility.yul\":4630:5072   */\n      swap5\n      swap4\n      pop\n      pop\n      pop\n      pop\n      jump\t// out\n        /* \"#utility.yul\":5078:5258   */\n    tag_69:\n        /* \"#utility.yul\":5126:5203   */\n      0x4e487b7100000000000000000000000000000000000000000000000000000000\n        /* \"#utility.yul\":5123:5124   */\n      0x00\n        /* \"#utility.yul\":5116:5204   */\n      mstore\n        /* \"#utility.yul\":5223:5227   */\n      0x11\n        /* \"#utility.yul\":5220:5221   */\n      0x04\n        /* \"#utility.yul\":5213:5228   */\n      mstore\n        /* \"#utility.yul\":5247:5251   */\n      0x24\n        /* \"#utility.yul\":5244:5245   */\n      0x00\n        /* \"#utility.yul\":5237:5252   */\n      revert\n        /* \"#utility.yul\":5264:5458   */\n    tag_37:\n        /* \"#utility.yul\":5304:5308   */\n      0x00\n        /* \"#utility.yul\":5324:5344   */\n      tag_127\n        /* \"#utility.yul\":5342:5343   */\n      dup3\n        /* \"#utility.yul\":5324:5344   */\n      tag_59\n      jump\t// in\n    tag_127:\n        /* \"#utility.yul\":5319:5344   */\n      swap2\n      pop\n        /* \"#utility.yul\":5358:5378   */\n      tag_128\n        /* \"#utility.yul\":5376:5377   */\n      dup4\n        /* \"#utility.yul\":5358:5378   */\n      tag_59\n      jump\t// in\n    tag_128:\n        /* \"#utility.yul\":5353:5378   */\n      swap3\n      pop\n        /* \"#utility.yul\":5402:5403   */\n      dup3\n        /* \"#utility.yul\":5399:5400   */\n      dup3\n        /* \"#utility.yul\":5395:5404   */\n      sub\n        /* \"#utility.yul\":5387:5404   */\n      swap1\n      pop\n        /* \"#utility.yul\":5426:5427   */\n      dup2\n        /* \"#utility.yul\":5420:5424   */\n      dup2\n        /* \"#utility.yul\":5417:5428   */\n      gt\n        /* \"#utility.yul\":5414:5451   */\n      iszero\n      tag_129\n      jumpi\n        /* \"#utility.yul\":5431:5449   */\n      tag_130\n      tag_69\n      jump\t// in\n    tag_130:\n        /* \"#utility.yul\":5414:5451   */\n    tag_129:\n        /* \"#utility.yul\":5264:5458   */\n      swap3\n      swap2\n      pop\n      pop\n      jump\t// out\n        /* \"#utility.yul\":5464:5655   */\n    tag_48:\n        /* \"#utility.yul\":5504:5507   */\n      0x00\n        /* \"#utility.yul\":5523:5543   */\n      tag_132\n        /* \"#utility.yul\":5541:5542   */\n      dup3\n        /* \"#utility.yul\":5523:5543   */\n      tag_59\n      jump\t// in\n    tag_132:\n        /* \"#utility.yul\":5518:5543   */\n      swap2\n      pop\n        /* \"#utility.yul\":5557:5577   */\n      tag_133\n        /* \"#utility.yul\":5575:5576   */\n      dup4\n        /* \"#utility.yul\":5557:5577   */\n      tag_59\n      jump\t// in\n    tag_133:\n        /* \"#utility.yul\":5552:5577   */\n      swap3\n      pop\n        /* \"#utility.yul\":5600:5601   */\n      dup3\n        /* \"#utility.yul\":5597:5598   */\n      dup3\n        /* \"#utility.yul\":5593:5602   */\n      add\n        /* \"#utility.yul\":5586:5602   */\n      swap1\n      pop\n        /* \"#utility.yul\":5621:5624   */\n      dup1\n        /* \"#utility.yul\":5618:5619   */\n      dup3\n        /* \"#utility.yul\":5615:5625   */\n      gt\n        /* \"#utility.yul\":5612:5648   */\n      iszero\n      tag_134\n      jumpi\n        /* \"#utility.yul\":5628:5646   */\n      tag_135\n      tag_69\n      jump\t// in\n    tag_135:\n        /* \"#utility.yul\":5612:5648   */\n    tag_134:\n        /* \"#utility.yul\":5464:5655   */\n      swap3\n      swap2\n      pop\n      pop\n      jump\t// out\n\n    auxdata: 0xa2646970667358221220c13a5eb592eb1d769c8a389a369c159662c001855336c67d69e58ba59705211164736f6c63430008120033\n}\n",
				"bytecode": {
					"linkReferences": {},
					"object": "608060405234801561001057600080fd5b5061096c806100206000396000f3fe608060405234801561001057600080fd5b506004361061004c5760003560e01c8063095ea7b31461005157806323b872dd1461008157806370a08231146100b1578063a9059cbb146100e1575b600080fd5b61006b600480360381019061006691906106e2565b610111565b604051610078919061073d565b60405180910390f35b61009b60048036038101906100969190610758565b610297565b6040516100a8919061073d565b60405180910390f35b6100cb60048036038101906100c691906107ab565b610413565b6040516100d891906107e7565b60405180910390f35b6100fb60048036038101906100f691906106e2565b61045b565b604051610108919061073d565b60405180910390f35b600080600160003373ffffffffffffffffffffffffffffffffffffffff1673ffffffffffffffffffffffffffffffffffffffff16815260200190815260200160002060008573ffffffffffffffffffffffffffffffffffffffff1673ffffffffffffffffffffffffffffffffffffffff16815260200190815260200160002054146101d1576040517f08c379a00000000000000000000000000000000000000000000000000000000081526004016101c890610839565b60405180910390fd5b81600160003373ffffffffffffffffffffffffffffffffffffffff1673ffffffffffffffffffffffffffffffffffffffff16815260200190815260200160002060008573ffffffffffffffffffffffffffffffffffffffff1673ffffffffffffffffffffffffffffffffffffffff168152602001908152602001600020819055507f8c5be1e5ebec7d5bd14f71427d1e84f3dd0314c0f7b2291e5b200ac8c7c3b92533848460405161028593929190610868565b60405180910390a16001905092915050565b600081600160008673ffffffffffffffffffffffffffffffffffffffff1673ffffffffffffffffffffffffffffffffffffffff16815260200190815260200160002060003373ffffffffffffffffffffffffffffffffffffffff1673ffffffffffffffffffffffffffffffffffffffff16815260200190815260200160002054101561032257600080fd5b81600160008673ffffffffffffffffffffffffffffffffffffffff1673ffffffffffffffffffffffffffffffffffffffff16815260200190815260200160002060003373ffffffffffffffffffffffffffffffffffffffff1673ffffffffffffffffffffffffffffffffffffffff16815260200190815260200160002060008282546103ae91906108ce565b925050819055506103cd84848460006104ba909392919063ffffffff16565b7fddf252ad1be2c89b69c2b068fc378daa952ba7f163c4a11628f55a4df523b3ef84848460405161040093929190610868565b60405180910390a1600190509392505050565b60008060008373ffffffffffffffffffffffffffffffffffffffff1673ffffffffffffffffffffffffffffffffffffffff168152602001908152602001600020549050919050565b600061047533848460006104ba909392919063ffffffff16565b7fddf252ad1be2c89b69c2b068fc378daa952ba7f163c4a11628f55a4df523b3ef3384846040516104a893929190610868565b60405180910390a16001905092915050565b808460008573ffffffffffffffffffffffffffffffffffffffff1673ffffffffffffffffffffffffffffffffffffffff16815260200190815260200160002054101561050557600080fd5b8360008373ffffffffffffffffffffffffffffffffffffffff1673ffffffffffffffffffffffffffffffffffffffff16815260200190815260200160002054818560008573ffffffffffffffffffffffffffffffffffffffff1673ffffffffffffffffffffffffffffffffffffffff1681526020019081526020016000205461058e9190610902565b101561059957600080fd5b808460008573ffffffffffffffffffffffffffffffffffffffff1673ffffffffffffffffffffffffffffffffffffffff16815260200190815260200160002060008282546105e791906108ce565b92505081905550808460008473ffffffffffffffffffffffffffffffffffffffff1673ffffffffffffffffffffffffffffffffffffffff168152602001908152602001600020600082825461063c9190610902565b9250508190555050505050565b600080fd5b600073ffffffffffffffffffffffffffffffffffffffff82169050919050565b60006106798261064e565b9050919050565b6106898161066e565b811461069457600080fd5b50565b6000813590506106a681610680565b92915050565b6000819050919050565b6106bf816106ac565b81146106ca57600080fd5b50565b6000813590506106dc816106b6565b92915050565b600080604083850312156106f9576106f8610649565b5b600061070785828601610697565b9250506020610718858286016106cd565b9150509250929050565b60008115159050919050565b61073781610722565b82525050565b6000602082019050610752600083018461072e565b92915050565b60008060006060848603121561077157610770610649565b5b600061077f86828701610697565b935050602061079086828701610697565b92505060406107a1868287016106cd565b9150509250925092565b6000602082840312156107c1576107c0610649565b5b60006107cf84828501610697565b91505092915050565b6107e1816106ac565b82525050565b60006020820190506107fc60008301846107d8565b92915050565b600082825260208201905092915050565b50565b6000610823600083610802565b915061082e82610813565b600082019050919050565b6000602082019050818103600083015261085281610816565b9050919050565b6108628161066e565b82525050565b600060608201905061087d6000830186610859565b61088a6020830185610859565b61089760408301846107d8565b949350505050565b7f4e487b7100000000000000000000000000000000000000000000000000000000600052601160045260246000fd5b60006108d9826106ac565b91506108e4836106ac565b92508282039050818111156108fc576108fb61089f565b5b92915050565b600061090d826106ac565b9150610918836106ac565b92508282019050808211156109305761092f61089f565b5b9291505056fea2646970667358221220c13a5eb592eb1d769c8a389a369c159662c001855336c67d69e58ba59705211164736f6c63430008120033",
					"opcodes": "PUSH1 0x80 PUSH1 0x40 MSTORE CALLVALUE DUP1 ISZERO PUSH2 0x10 JUMPI PUSH1 0x0 DUP1 REVERT JUMPDEST POP PUSH2 0x96C DUP1 PUSH2 0x20 PUSH1 0x0 CODECOPY PUSH1 0x0 RETURN INVALID PUSH1 0x80 PUSH1 0x40 MSTORE CALLVALUE DUP1 ISZERO PUSH2 0x10 JUMPI PUSH1 0x0 DUP1 REVERT JUMPDEST POP PUSH1 0x4 CALLDATASIZE LT PUSH2 0x4C JUMPI PUSH1 0x0 CALLDATALOAD PUSH1 0xE0 SHR DUP1 PUSH4 0x95EA7B3 EQ PUSH2 0x51 JUMPI DUP1 PUSH4 0x23B872DD EQ PUSH2 0x81 JUMPI DUP1 PUSH4 0x70A08231 EQ PUSH2 0xB1 JUMPI DUP1 PUSH4 0xA9059CBB EQ PUSH2 0xE1 JUMPI JUMPDEST PUSH1 0x0 DUP1 REVERT JUMPDEST PUSH2 0x6B PUSH1 0x4 DUP1 CALLDATASIZE SUB DUP2 ADD SWAP1 PUSH2 0x66 SWAP2 SWAP1 PUSH2 0x6E2 JUMP JUMPDEST PUSH2 0x111 JUMP JUMPDEST PUSH1 0x40 MLOAD PUSH2 0x78 SWAP2 SWAP1 PUSH2 0x73D JUMP JUMPDEST PUSH1 0x40 MLOAD DUP1 SWAP2 SUB SWAP1 RETURN JUMPDEST PUSH2 0x9B PUSH1 0x4 DUP1 CALLDATASIZE SUB DUP2 ADD SWAP1 PUSH2 0x96 SWAP2 SWAP1 PUSH2 0x758 JUMP JUMPDEST PUSH2 0x297 JUMP JUMPDEST PUSH1 0x40 MLOAD PUSH2 0xA8 SWAP2 SWAP1 PUSH2 0x73D JUMP JUMPDEST PUSH1 0x40 MLOAD DUP1 SWAP2 SUB SWAP1 RETURN JUMPDEST PUSH2 0xCB PUSH1 0x4 DUP1 CALLDATASIZE SUB DUP2 ADD SWAP1 PUSH2 0xC6 SWAP2 SWAP1 PUSH2 0x7AB JUMP JUMPDEST PUSH2 0x413 JUMP JUMPDEST PUSH1 0x40 MLOAD PUSH2 0xD8 SWAP2 SWAP1 PUSH2 0x7E7 JUMP JUMPDEST PUSH1 0x40 MLOAD DUP1 SWAP2 SUB SWAP1 RETURN JUMPDEST PUSH2 0xFB PUSH1 0x4 DUP1 CALLDATASIZE SUB DUP2 ADD SWAP1 PUSH2 0xF6 SWAP2 SWAP1 PUSH2 0x6E2 JUMP JUMPDEST PUSH2 0x45B JUMP JUMPDEST PUSH1 0x40 MLOAD PUSH2 0x108 SWAP2 SWAP1 PUSH2 0x73D JUMP JUMPDEST PUSH1 0x40 MLOAD DUP1 SWAP2 SUB SWAP1 RETURN JUMPDEST PUSH1 0x0 DUP1 PUSH1 0x1 PUSH1 0x0 CALLER PUSH20 0xFFFFFFFFFFFFFFFFFFFFFFFFFFFFFFFFFFFFFFFF AND PUSH20 0xFFFFFFFFFFFFFFFFFFFFFFFFFFFFFFFFFFFFFFFF AND DUP2 MSTORE PUSH1 0x20 ADD SWAP1 DUP2 MSTORE PUSH1 0x20 ADD PUSH1 0x0 KECCAK256 PUSH1 0x0 DUP6 PUSH20 0xFFFFFFFFFFFFFFFFFFFFFFFFFFFFFFFFFFFFFFFF AND PUSH20 0xFFFFFFFFFFFFFFFFFFFFFFFFFFFFFFFFFFFFFFFF AND DUP2 MSTORE PUSH1 0x20 ADD SWAP1 DUP2 MSTORE PUSH1 0x20 ADD PUSH1 0x0 KECCAK256 SLOAD EQ PUSH2 0x1D1 JUMPI PUSH1 0x40 MLOAD PUSH32 0x8C379A000000000000000000000000000000000000000000000000000000000 DUP2 MSTORE PUSH1 0x4 ADD PUSH2 0x1C8 SWAP1 PUSH2 0x839 JUMP JUMPDEST PUSH1 0x40 MLOAD DUP1 SWAP2 SUB SWAP1 REVERT JUMPDEST DUP2 PUSH1 0x1 PUSH1 0x0 CALLER PUSH20 0xFFFFFFFFFFFFFFFFFFFFFFFFFFFFFFFFFFFFFFFF AND PUSH20 0xFFFFFFFFFFFFFFFFFFFFFFFFFFFFFFFFFFFFFFFF AND DUP2 MSTORE PUSH1 0x20 ADD SWAP1 DUP2 MSTORE PUSH1 0x20 ADD PUSH1 0x0 KECCAK256 PUSH1 0x0 DUP6 PUSH20 0xFFFFFFFFFFFFFFFFFFFFFFFFFFFFFFFFFFFFFFFF AND PUSH20 0xFFFFFFFFFFFFFFFFFFFFFFFFFFFFFFFFFFFFFFFF AND DUP2 MSTORE PUSH1 0x20 ADD SWAP1 DUP2 MSTORE PUSH1 0x20 ADD PUSH1 0x0 KECCAK256 DUP2 SWAP1 SSTORE POP PUSH32 0x8C5BE1E5EBEC7D5BD14F71427D1E84F3DD0314C0F7B2291E5B200AC8C7C3B925 CALLER DUP5 DUP5 PUSH1 0x40 MLOAD PUSH2 0x285 SWAP4 SWAP3 SWAP2 SWAP1 PUSH2 0x868 JUMP JUMPDEST PUSH1 0x40 MLOAD DUP1 SWAP2 SUB SWAP1 LOG1 PUSH1 0x1 SWAP1 POP SWAP3 SWAP2 POP POP JUMP JUMPDEST PUSH1 0x0 DUP2 PUSH1 0x1 PUSH1 0x0 DUP7 PUSH20 0xFFFFFFFFFFFFFFFFFFFFFFFFFFFFFFFFFFFFFFFF AND PUSH20 0xFFFFFFFFFFFFFFFFFFFFFFFFFFFFFFFFFFFFFFFF AND DUP2 MSTORE PUSH1 0x20 ADD SWAP1 DUP2 MSTORE PUSH1 0x20 ADD PUSH1 0x0 KECCAK256 PUSH1 0x0 CALLER PUSH20 0xFFFFFFFFFFFFFFFFFFFFFFFFFFFFFFFFFFFFFFFF AND PUSH20 0xFFFFFFFFFFFFFFFFFFFFFFFFFFFFFFFFFFFFFFFF AND DUP2 MSTORE PUSH1 0x20 ADD SWAP1 DUP2 MSTORE PUSH1 0x20 ADD PUSH1 0x0 KECCAK256 SLOAD LT ISZERO PUSH2 0x322 JUMPI PUSH1 0x0 DUP1 REVERT JUMPDEST DUP2 PUSH1 0x1 PUSH1 0x0 DUP7 PUSH20 0xFFFFFFFFFFFFFFFFFFFFFFFFFFFFFFFFFFFFFFFF AND PUSH20 0xFFFFFFFFFFFFFFFFFFFFFFFFFFFFFFFFFFFFFFFF AND DUP2 MSTORE PUSH1 0x20 ADD SWAP1 DUP2 MSTORE PUSH1 0x20 ADD PUSH1 0x0 KECCAK256 PUSH1 0x0 CALLER PUSH20 0xFFFFFFFFFFFFFFFFFFFFFFFFFFFFFFFFFFFFFFFF AND PUSH20 0xFFFFFFFFFFFFFFFFFFFFFFFFFFFFFFFFFFFFFFFF AND DUP2 MSTORE PUSH1 0x20 ADD SWAP1 DUP2 MSTORE PUSH1 0x20 ADD PUSH1 0x0 KECCAK256 PUSH1 0x0 DUP3 DUP3 SLOAD PUSH2 0x3AE SWAP2 SWAP1 PUSH2 0x8CE JUMP JUMPDEST SWAP3 POP POP DUP2 SWAP1 SSTORE POP PUSH2 0x3CD DUP5 DUP5 DUP5 PUSH1 0x0 PUSH2 0x4BA SWAP1 SWAP4 SWAP3 SWAP2 SWAP1 PUSH4 0xFFFFFFFF AND JUMP JUMPDEST PUSH32 0xDDF252AD1BE2C89B69C2B068FC378DAA952BA7F163C4A11628F55A4DF523B3EF DUP5 DUP5 DUP5 PUSH1 0x40 MLOAD PUSH2 0x400 SWAP4 SWAP3 SWAP2 SWAP1 PUSH2 0x868 JUMP JUMPDEST PUSH1 0x40 MLOAD DUP1 SWAP2 SUB SWAP1 LOG1 PUSH1 0x1 SWAP1 POP SWAP4 SWAP3 POP POP POP JUMP JUMPDEST PUSH1 0x0 DUP1 PUSH1 0x0 DUP4 PUSH20 0xFFFFFFFFFFFFFFFFFFFFFFFFFFFFFFFFFFFFFFFF AND PUSH20 0xFFFFFFFFFFFFFFFFFFFFFFFFFFFFFFFFFFFFFFFF AND DUP2 MSTORE PUSH1 0x20 ADD SWAP1 DUP2 MSTORE PUSH1 0x20 ADD PUSH1 0x0 KECCAK256 SLOAD SWAP1 POP SWAP2 SWAP1 POP JUMP JUMPDEST PUSH1 0x0 PUSH2 0x475 CALLER DUP5 DUP5 PUSH1 0x0 PUSH2 0x4BA SWAP1 SWAP4 SWAP3 SWAP2 SWAP1 PUSH4 0xFFFFFFFF AND JUMP JUMPDEST PUSH32 0xDDF252AD1BE2C89B69C2B068FC378DAA952BA7F163C4A11628F55A4DF523B3EF CALLER DUP5 DUP5 PUSH1 0x40 MLOAD PUSH2 0x4A8 SWAP4 SWAP3 SWAP2 SWAP1 PUSH2 0x868 JUMP JUMPDEST PUSH1 0x40 MLOAD DUP1 SWAP2 SUB SWAP1 LOG1 PUSH1 0x1 SWAP1 POP SWAP3 SWAP2 POP POP JUMP JUMPDEST DUP1 DUP5 PUSH1 0x0 DUP6 PUSH20 0xFFFFFFFFFFFFFFFFFFFFFFFFFFFFFFFFFFFFFFFF AND PUSH20 0xFFFFFFFFFFFFFFFFFFFFFFFFFFFFFFFFFFFFFFFF AND DUP2 MSTORE PUSH1 0x20 ADD SWAP1 DUP2 MSTORE PUSH1 0x20 ADD PUSH1 0x0 KECCAK256 SLOAD LT ISZERO PUSH2 0x505 JUMPI PUSH1 0x0 DUP1 REVERT JUMPDEST DUP4 PUSH1 0x0 DUP4 PUSH20 0xFFFFFFFFFFFFFFFFFFFFFFFFFFFFFFFFFFFFFFFF AND PUSH20 0xFFFFFFFFFFFFFFFFFFFFFFFFFFFFFFFFFFFFFFFF AND DUP2 MSTORE PUSH1 0x20 ADD SWAP1 DUP2 MSTORE PUSH1 0x20 ADD PUSH1 0x0 KECCAK256 SLOAD DUP2 DUP6 PUSH1 0x0 DUP6 PUSH20 0xFFFFFFFFFFFFFFFFFFFFFFFFFFFFFFFFFFFFFFFF AND PUSH20 0xFFFFFFFFFFFFFFFFFFFFFFFFFFFFFFFFFFFFFFFF AND DUP2 MSTORE PUSH1 0x20 ADD SWAP1 DUP2 MSTORE PUSH1 0x20 ADD PUSH1 0x0 KECCAK256 SLOAD PUSH2 0x58E SWAP2 SWAP1 PUSH2 0x902 JUMP JUMPDEST LT ISZERO PUSH2 0x599 JUMPI PUSH1 0x0 DUP1 REVERT JUMPDEST DUP1 DUP5 PUSH1 0x0 DUP6 PUSH20 0xFFFFFFFFFFFFFFFFFFFFFFFFFFFFFFFFFFFFFFFF AND PUSH20 0xFFFFFFFFFFFFFFFFFFFFFFFFFFFFFFFFFFFFFFFF AND DUP2 MSTORE PUSH1 0x20 ADD SWAP1 DUP2 MSTORE PUSH1 0x20 ADD PUSH1 0x0 KECCAK256 PUSH1 0x0 DUP3 DUP3 SLOAD PUSH2 0x5E7 SWAP2 SWAP1 PUSH2 0x8CE JUMP JUMPDEST SWAP3 POP POP DUP2 SWAP1 SSTORE POP DUP1 DUP5 PUSH1 0x0 DUP5 PUSH20 0xFFFFFFFFFFFFFFFFFFFFFFFFFFFFFFFFFFFFFFFF AND PUSH20 0xFFFFFFFFFFFFFFFFFFFFFFFFFFFFFFFFFFFFFFFF AND DUP2 MSTORE PUSH1 0x20 ADD SWAP1 DUP2 MSTORE PUSH1 0x20 ADD PUSH1 0x0 KECCAK256 PUSH1 0x0 DUP3 DUP3 SLOAD PUSH2 0x63C SWAP2 SWAP1 PUSH2 0x902 JUMP JUMPDEST SWAP3 POP POP DUP2 SWAP1 SSTORE POP POP POP POP POP JUMP JUMPDEST PUSH1 0x0 DUP1 REVERT JUMPDEST PUSH1 0x0 PUSH20 0xFFFFFFFFFFFFFFFFFFFFFFFFFFFFFFFFFFFFFFFF DUP3 AND SWAP1 POP SWAP2 SWAP1 POP JUMP JUMPDEST PUSH1 0x0 PUSH2 0x679 DUP3 PUSH2 0x64E JUMP JUMPDEST SWAP1 POP SWAP2 SWAP1 POP JUMP JUMPDEST PUSH2 0x689 DUP2 PUSH2 0x66E JUMP JUMPDEST DUP2 EQ PUSH2 0x694 JUMPI PUSH1 0x0 DUP1 REVERT JUMPDEST POP JUMP JUMPDEST PUSH1 0x0 DUP2 CALLDATALOAD SWAP1 POP PUSH2 0x6A6 DUP2 PUSH2 0x680 JUMP JUMPDEST SWAP3 SWAP2 POP POP JUMP JUMPDEST PUSH1 0x0 DUP2 SWAP1 POP SWAP2 SWAP1 POP JUMP JUMPDEST PUSH2 0x6BF DUP2 PUSH2 0x6AC JUMP JUMPDEST DUP2 EQ PUSH2 0x6CA JUMPI PUSH1 0x0 DUP1 REVERT JUMPDEST POP JUMP JUMPDEST PUSH1 0x0 DUP2 CALLDATALOAD SWAP1 POP PUSH2 0x6DC DUP2 PUSH2 0x6B6 JUMP JUMPDEST SWAP3 SWAP2 POP POP JUMP JUMPDEST PUSH1 0x0 DUP1 PUSH1 0x40 DUP4 DUP6 SUB SLT ISZERO PUSH2 0x6F9 JUMPI PUSH2 0x6F8 PUSH2 0x649 JUMP JUMPDEST JUMPDEST PUSH1 0x0 PUSH2 0x707 DUP6 DUP3 DUP7 ADD PUSH2 0x697 JUMP JUMPDEST SWAP3 POP POP PUSH1 0x20 PUSH2 0x718 DUP6 DUP3 DUP7 ADD PUSH2 0x6CD JUMP JUMPDEST SWAP2 POP POP SWAP3 POP SWAP3 SWAP1 POP JUMP JUMPDEST PUSH1 0x0 DUP2 ISZERO ISZERO SWAP1 POP SWAP2 SWAP1 POP JUMP JUMPDEST PUSH2 0x737 DUP2 PUSH2 0x722 JUMP JUMPDEST DUP3 MSTORE POP POP JUMP JUMPDEST PUSH1 0x0 PUSH1 0x20 DUP3 ADD SWAP1 POP PUSH2 0x752 PUSH1 0x0 DUP4 ADD DUP5 PUSH2 0x72E JUMP JUMPDEST SWAP3 SWAP2 POP POP JUMP JUMPDEST PUSH1 0x0 DUP1 PUSH1 0x0 PUSH1 0x60 DUP5 DUP7 SUB SLT ISZERO PUSH2 0x771 JUMPI PUSH2 0x770 PUSH2 0x649 JUMP JUMPDEST JUMPDEST PUSH1 0x0 PUSH2 0x77F DUP7 DUP3 DUP8 ADD PUSH2 0x697 JUMP JUMPDEST SWAP4 POP POP PUSH1 0x20 PUSH2 0x790 DUP7 DUP3 DUP8 ADD PUSH2 0x697 JUMP JUMPDEST SWAP3 POP POP PUSH1 0x40 PUSH2 0x7A1 DUP7 DUP3 DUP8 ADD PUSH2 0x6CD JUMP JUMPDEST SWAP2 POP POP SWAP3 POP SWAP3 POP SWAP3 JUMP JUMPDEST PUSH1 0x0 PUSH1 0x20 DUP3 DUP5 SUB SLT ISZERO PUSH2 0x7C1 JUMPI PUSH2 0x7C0 PUSH2 0x649 JUMP JUMPDEST JUMPDEST PUSH1 0x0 PUSH2 0x7CF DUP5 DUP3 DUP6 ADD PUSH2 0x697 JUMP JUMPDEST SWAP2 POP POP SWAP3 SWAP2 POP POP JUMP JUMPDEST PUSH2 0x7E1 DUP2 PUSH2 0x6AC JUMP JUMPDEST DUP3 MSTORE POP POP JUMP JUMPDEST PUSH1 0x0 PUSH1 0x20 DUP3 ADD SWAP1 POP PUSH2 0x7FC PUSH1 0x0 DUP4 ADD DUP5 PUSH2 0x7D8 JUMP JUMPDEST SWAP3 SWAP2 POP POP JUMP JUMPDEST PUSH1 0x0 DUP3 DUP3 MSTORE PUSH1 0x20 DUP3 ADD SWAP1 POP SWAP3 SWAP2 POP POP JUMP JUMPDEST POP JUMP JUMPDEST PUSH1 0x0 PUSH2 0x823 PUSH1 0x0 DUP4 PUSH2 0x802 JUMP JUMPDEST SWAP2 POP PUSH2 0x82E DUP3 PUSH2 0x813 JUMP JUMPDEST PUSH1 0x0 DUP3 ADD SWAP1 POP SWAP2 SWAP1 POP JUMP JUMPDEST PUSH1 0x0 PUSH1 0x20 DUP3 ADD SWAP1 POP DUP2 DUP2 SUB PUSH1 0x0 DUP4 ADD MSTORE PUSH2 0x852 DUP2 PUSH2 0x816 JUMP JUMPDEST SWAP1 POP SWAP2 SWAP1 POP JUMP JUMPDEST PUSH2 0x862 DUP2 PUSH2 0x66E JUMP JUMPDEST DUP3 MSTORE POP POP JUMP JUMPDEST PUSH1 0x0 PUSH1 0x60 DUP3 ADD SWAP1 POP PUSH2 0x87D PUSH1 0x0 DUP4 ADD DUP7 PUSH2 0x859 JUMP JUMPDEST PUSH2 0x88A PUSH1 0x20 DUP4 ADD DUP6 PUSH2 0x859 JUMP JUMPDEST PUSH2 0x897 PUSH1 0x40 DUP4 ADD DUP5 PUSH2 0x7D8 JUMP JUMPDEST SWAP5 SWAP4 POP POP POP POP JUMP JUMPDEST PUSH32 0x4E487B7100000000000000000000000000000000000000000000000000000000 PUSH1 0x0 MSTORE PUSH1 0x11 PUSH1 0x4 MSTORE PUSH1 0x24 PUSH1 0x0 REVERT JUMPDEST PUSH1 0x0 PUSH2 0x8D9 DUP3 PUSH2 0x6AC JUMP JUMPDEST SWAP2 POP PUSH2 0x8E4 DUP4 PUSH2 0x6AC JUMP JUMPDEST SWAP3 POP DUP3 DUP3 SUB SWAP1 POP DUP2 DUP2 GT ISZERO PUSH2 0x8FC JUMPI PUSH2 0x8FB PUSH2 0x89F JUMP JUMPDEST JUMPDEST SWAP3 SWAP2 POP POP JUMP JUMPDEST PUSH1 0x0 PUSH2 0x90D DUP3 PUSH2 0x6AC JUMP JUMPDEST SWAP2 POP PUSH2 0x918 DUP4 PUSH2 0x6AC JUMP JUMPDEST SWAP3 POP DUP3 DUP3 ADD SWAP1 POP DUP1 DUP3 GT ISZERO PUSH2 0x930 JUMPI PUSH2 0x92F PUSH2 0x89F JUMP JUMPDEST JUMPDEST SWAP3 SWAP2 POP POP JUMP INVALID LOG2 PUSH5 0x6970667358 0x22 SLT KECCAK256 0xC1 GASPRICE 0x5E 0xB5 SWAP3 0xEB SAR PUSH23 0x9C8A389A369C159662C001855336C67D69E58BA5970521 GT PUSH5 0x736F6C6343 STOP ADDMOD SLT STOP CALLER "
				},
				"gasEstimates": {
					"creation": {
						"codeDepositCost": "482400",
						"executionCost": "518",
						"totalCost": "482918"
					},
					"external": {
						"approve(address,uint256)": "infinite",
						"balanceOf(address)": "2863",
						"transfer(address,uint256)": "infinite",
						"transferFrom(address,address,uint256)": "infinite"
					}
				},
				"methodIdentifiers": {
					"approve(address,uint256)": "095ea7b3",
					"balanceOf(address)": "70a08231",
					"transfer(address,uint256)": "a9059cbb",
					"transferFrom(address,address,uint256)": "23b872dd"
				}
			},
			"storageLayout": {
				"storage": [
					{
						"astId": 52,
						"contract": "7.映射类型/LibraryExample.sol:Token",
						"label": "balances",
						"offset": 0,
						"slot": "0",
						"type": "t_mapping(t_address,t_uint256)"
					},
					{
						"astId": 60,
						"contract": "7.映射类型/LibraryExample.sol:Token",
						"label": "allowed",
						"offset": 0,
						"slot": "1",
						"type": "t_mapping(t_address,t_mapping(t_address,t_uint256))"
					}
				],
				"types": {
					"t_address": {
						"encoding": "inplace",
						"label": "address",
						"numberOfBytes": "20"
					},
					"t_mapping(t_address,t_mapping(t_address,t_uint256))": {
						"encoding": "mapping",
						"key": "t_address",
						"label": "mapping(address => mapping(address => uint256))",
						"numberOfBytes": "32",
						"value": "t_mapping(t_address,t_uint256)"
					},
					"t_mapping(t_address,t_uint256)": {
						"encoding": "mapping",
						"key": "t_address",
						"label": "mapping(address => uint256)",
						"numberOfBytes": "32",
						"value": "t_uint256"
					},
					"t_uint256": {
						"encoding": "inplace",
						"label": "uint256",
						"numberOfBytes": "32"
					}
				}
			},
			"userdoc": {
				"kind": "user",
				"methods": {},
				"version": 1
			}
		}
	}
}