{
	"8.变量初始值/InitialValue.sol": {
		"DeleteTest": {
			"abi": [
				{
					"inputs": [],
					"name": "_address",
					"outputs": [
						{
							"internalType": "address",
							"name": "",
							"type": "address"
						}
					],
					"stateMutability": "view",
					"type": "function"
				},
				{
					"inputs": [],
					"name": "_bool2",
					"outputs": [
						{
							"internalType": "bool",
							"name": "",
							"type": "bool"
						}
					],
					"stateMutability": "view",
					"type": "function"
				},
				{
					"inputs": [],
					"name": "_enum",
					"outputs": [
						{
							"internalType": "enum DeleteTest.ActionSet",
							"name": "",
							"type": "uint8"
						}
					],
					"stateMutability": "view",
					"type": "function"
				},
				{
					"inputs": [
						{
							"internalType": "uint256",
							"name": "",
							"type": "uint256"
						}
					],
					"name": "_staticArray",
					"outputs": [
						{
							"internalType": "uint256",
							"name": "",
							"type": "uint256"
						}
					],
					"stateMutability": "view",
					"type": "function"
				},
				{
					"inputs": [],
					"name": "d_address",
					"outputs": [],
					"stateMutability": "nonpayable",
					"type": "function"
				},
				{
					"inputs": [],
					"name": "d_bool",
					"outputs": [],
					"stateMutability": "nonpayable",
					"type": "function"
				},
				{
					"inputs": [],
					"name": "d_enum",
					"outputs": [],
					"stateMutability": "nonpayable",
					"type": "function"
				},
				{
					"inputs": [],
					"name": "d_staticArray",
					"outputs": [],
					"stateMutability": "nonpayable",
					"type": "function"
				},
				{
					"inputs": [],
					"name": "d_student",
					"outputs": [],
					"stateMutability": "nonpayable",
					"type": "function"
				},
				{
					"inputs": [],
					"name": "student",
					"outputs": [
						{
							"internalType": "uint256",
							"name": "id",
							"type": "uint256"
						},
						{
							"internalType": "uint256",
							"name": "score",
							"type": "uint256"
						}
					],
					"stateMutability": "view",
					"type": "function"
				}
			],
			"devdoc": {
				"kind": "dev",
				"methods": {},
				"version": 1
			},
			"evm": {
				"assembly": "    /* \"8.\\xe5\\x8f\\x98\\xe9\\x87\\x8f\\xe5\\x88\\x9d\\xe5\\xa7\\x8b\\xe5\\x80\\xbc/InitialValue.sol\":1204:2264  contract DeleteTest {... */\n  mstore(0x40, 0x80)\n    /* \"8.\\xe5\\x8f\\x98\\xe9\\x87\\x8f\\xe5\\x88\\x9d\\xe5\\xa7\\x8b\\xe5\\x80\\xbc/InitialValue.sol\":1277:1281  true */\n  0x01\n    /* \"8.\\xe5\\x8f\\x98\\xe9\\x87\\x8f\\xe5\\x88\\x9d\\xe5\\xa7\\x8b\\xe5\\x80\\xbc/InitialValue.sol\":1256:1281  bool public _bool2 = true */\n  0x00\n  dup1\n  0x0100\n  exp\n  dup2\n  sload\n  dup2\n  0xff\n  mul\n  not\n  and\n  swap1\n  dup4\n  iszero\n  iszero\n  mul\n  or\n  swap1\n  sstore\n  pop\n    /* \"8.\\xe5\\x8f\\x98\\xe9\\x87\\x8f\\xe5\\x88\\x9d\\xe5\\xa7\\x8b\\xe5\\x80\\xbc/InitialValue.sol\":1328:1329  1 */\n  0x01\n    /* \"8.\\xe5\\x8f\\x98\\xe9\\x87\\x8f\\xe5\\x88\\x9d\\xe5\\xa7\\x8b\\xe5\\x80\\xbc/InitialValue.sol\":1294:1330  address public _address = address(1) */\n  0x00\n  exp(0x0100, 0x01)\n  dup2\n  sload\n  dup2\n  0xffffffffffffffffffffffffffffffffffffffff\n  mul\n  not\n  and\n  swap1\n  dup4\n  0xffffffffffffffffffffffffffffffffffffffff\n  and\n  mul\n  or\n  swap1\n  sstore\n  pop\n    /* \"8.\\xe5\\x8f\\x98\\xe9\\x87\\x8f\\xe5\\x88\\x9d\\xe5\\xa7\\x8b\\xe5\\x80\\xbc/InitialValue.sol\":1403:1416  ActionSet.Buy */\n  0x00\n    /* \"8.\\xe5\\x8f\\x98\\xe9\\x87\\x8f\\xe5\\x88\\x9d\\xe5\\xa7\\x8b\\xe5\\x80\\xbc/InitialValue.sol\":1378:1416  ActionSet public _enum = ActionSet.Buy */\n  dup1\n  exp(0x0100, 0x15)\n  dup2\n  sload\n  dup2\n  0xff\n  mul\n  not\n  and\n  swap1\n  dup4\n  0x02\n  dup2\n  gt\n  iszero\n  tag_1\n  jumpi\n  tag_2\n  tag_3\n  jump\t// in\ntag_2:\ntag_1:\n  mul\n  or\n  swap1\n  sstore\n  pop\n    /* \"8.\\xe5\\x8f\\x98\\xe9\\x87\\x8f\\xe5\\x88\\x9d\\xe5\\xa7\\x8b\\xe5\\x80\\xbc/InitialValue.sol\":1523:1539  Student(10, 225) */\n  mload(0x40)\n  dup1\n  0x40\n  add\n  0x40\n  mstore\n  dup1\n    /* \"8.\\xe5\\x8f\\x98\\xe9\\x87\\x8f\\xe5\\x88\\x9d\\xe5\\xa7\\x8b\\xe5\\x80\\xbc/InitialValue.sol\":1531:1533  10 */\n  0x0a\n    /* \"8.\\xe5\\x8f\\x98\\xe9\\x87\\x8f\\xe5\\x88\\x9d\\xe5\\xa7\\x8b\\xe5\\x80\\xbc/InitialValue.sol\":1523:1539  Student(10, 225) */\n  dup2\n  mstore\n  0x20\n  add\n    /* \"8.\\xe5\\x8f\\x98\\xe9\\x87\\x8f\\xe5\\x88\\x9d\\xe5\\xa7\\x8b\\xe5\\x80\\xbc/InitialValue.sol\":1535:1538  225 */\n  0xe1\n    /* \"8.\\xe5\\x8f\\x98\\xe9\\x87\\x8f\\xe5\\x88\\x9d\\xe5\\xa7\\x8b\\xe5\\x80\\xbc/InitialValue.sol\":1523:1539  Student(10, 225) */\n  dup2\n  mstore\n  pop\n    /* \"8.\\xe5\\x8f\\x98\\xe9\\x87\\x8f\\xe5\\x88\\x9d\\xe5\\xa7\\x8b\\xe5\\x80\\xbc/InitialValue.sol\":1498:1539  Student public student = Student(10, 225) */\n  0x01\n  0x00\n  dup3\n  add\n  mload\n  dup2\n  0x00\n  add\n  sstore\n  0x20\n  dup3\n  add\n  mload\n  dup2\n  0x01\n  add\n  sstore\n  pop\n  pop\n    /* \"8.\\xe5\\x8f\\x98\\xe9\\x87\\x8f\\xe5\\x88\\x9d\\xe5\\xa7\\x8b\\xe5\\x80\\xbc/InitialValue.sol\":1553:1600  uint[8] public _staticArray = [1,2,3,4,5,6,7,8] */\n  mload(0x40)\n  dup1\n  0x0100\n  add\n  0x40\n  mstore\n  dup1\n    /* \"8.\\xe5\\x8f\\x98\\xe9\\x87\\x8f\\xe5\\x88\\x9d\\xe5\\xa7\\x8b\\xe5\\x80\\xbc/InitialValue.sol\":1584:1585  1 */\n  0x01\n    /* \"8.\\xe5\\x8f\\x98\\xe9\\x87\\x8f\\xe5\\x88\\x9d\\xe5\\xa7\\x8b\\xe5\\x80\\xbc/InitialValue.sol\":1553:1600  uint[8] public _staticArray = [1,2,3,4,5,6,7,8] */\n  0xff\n  and\n  dup2\n  mstore\n  0x20\n  add\n    /* \"8.\\xe5\\x8f\\x98\\xe9\\x87\\x8f\\xe5\\x88\\x9d\\xe5\\xa7\\x8b\\xe5\\x80\\xbc/InitialValue.sol\":1586:1587  2 */\n  0x02\n    /* \"8.\\xe5\\x8f\\x98\\xe9\\x87\\x8f\\xe5\\x88\\x9d\\xe5\\xa7\\x8b\\xe5\\x80\\xbc/InitialValue.sol\":1553:1600  uint[8] public _staticArray = [1,2,3,4,5,6,7,8] */\n  0xff\n  and\n  dup2\n  mstore\n  0x20\n  add\n    /* \"8.\\xe5\\x8f\\x98\\xe9\\x87\\x8f\\xe5\\x88\\x9d\\xe5\\xa7\\x8b\\xe5\\x80\\xbc/InitialValue.sol\":1588:1589  3 */\n  0x03\n    /* \"8.\\xe5\\x8f\\x98\\xe9\\x87\\x8f\\xe5\\x88\\x9d\\xe5\\xa7\\x8b\\xe5\\x80\\xbc/InitialValue.sol\":1553:1600  uint[8] public _staticArray = [1,2,3,4,5,6,7,8] */\n  0xff\n  and\n  dup2\n  mstore\n  0x20\n  add\n    /* \"8.\\xe5\\x8f\\x98\\xe9\\x87\\x8f\\xe5\\x88\\x9d\\xe5\\xa7\\x8b\\xe5\\x80\\xbc/InitialValue.sol\":1590:1591  4 */\n  0x04\n    /* \"8.\\xe5\\x8f\\x98\\xe9\\x87\\x8f\\xe5\\x88\\x9d\\xe5\\xa7\\x8b\\xe5\\x80\\xbc/InitialValue.sol\":1553:1600  uint[8] public _staticArray = [1,2,3,4,5,6,7,8] */\n  0xff\n  and\n  dup2\n  mstore\n  0x20\n  add\n    /* \"8.\\xe5\\x8f\\x98\\xe9\\x87\\x8f\\xe5\\x88\\x9d\\xe5\\xa7\\x8b\\xe5\\x80\\xbc/InitialValue.sol\":1592:1593  5 */\n  0x05\n    /* \"8.\\xe5\\x8f\\x98\\xe9\\x87\\x8f\\xe5\\x88\\x9d\\xe5\\xa7\\x8b\\xe5\\x80\\xbc/InitialValue.sol\":1553:1600  uint[8] public _staticArray = [1,2,3,4,5,6,7,8] */\n  0xff\n  and\n  dup2\n  mstore\n  0x20\n  add\n    /* \"8.\\xe5\\x8f\\x98\\xe9\\x87\\x8f\\xe5\\x88\\x9d\\xe5\\xa7\\x8b\\xe5\\x80\\xbc/InitialValue.sol\":1594:1595  6 */\n  0x06\n    /* \"8.\\xe5\\x8f\\x98\\xe9\\x87\\x8f\\xe5\\x88\\x9d\\xe5\\xa7\\x8b\\xe5\\x80\\xbc/InitialValue.sol\":1553:1600  uint[8] public _staticArray = [1,2,3,4,5,6,7,8] */\n  0xff\n  and\n  dup2\n  mstore\n  0x20\n  add\n    /* \"8.\\xe5\\x8f\\x98\\xe9\\x87\\x8f\\xe5\\x88\\x9d\\xe5\\xa7\\x8b\\xe5\\x80\\xbc/InitialValue.sol\":1596:1597  7 */\n  0x07\n    /* \"8.\\xe5\\x8f\\x98\\xe9\\x87\\x8f\\xe5\\x88\\x9d\\xe5\\xa7\\x8b\\xe5\\x80\\xbc/InitialValue.sol\":1553:1600  uint[8] public _staticArray = [1,2,3,4,5,6,7,8] */\n  0xff\n  and\n  dup2\n  mstore\n  0x20\n  add\n    /* \"8.\\xe5\\x8f\\x98\\xe9\\x87\\x8f\\xe5\\x88\\x9d\\xe5\\xa7\\x8b\\xe5\\x80\\xbc/InitialValue.sol\":1598:1599  8 */\n  0x08\n    /* \"8.\\xe5\\x8f\\x98\\xe9\\x87\\x8f\\xe5\\x88\\x9d\\xe5\\xa7\\x8b\\xe5\\x80\\xbc/InitialValue.sol\":1553:1600  uint[8] public _staticArray = [1,2,3,4,5,6,7,8] */\n  0xff\n  and\n  dup2\n  mstore\n  pop\n  0x03\n  swap1\n  0x08\n  tag_4\n  swap3\n  swap2\n  swap1\n  tag_5\n  jump\t// in\ntag_4:\n  pop\n    /* \"8.\\xe5\\x8f\\x98\\xe9\\x87\\x8f\\xe5\\x88\\x9d\\xe5\\xa7\\x8b\\xe5\\x80\\xbc/InitialValue.sol\":1204:2264  contract DeleteTest {... */\n  callvalue\n  dup1\n  iszero\n  tag_6\n  jumpi\n  0x00\n  dup1\n  revert\ntag_6:\n  pop\n  jump(tag_7)\ntag_5:\n  dup3\n  0x08\n  dup2\n  add\n  swap3\n  dup3\n  iszero\n  tag_8\n  jumpi\n  swap2\n  0x20\n  mul\n  dup3\n  add\ntag_9:\n  dup3\n  dup2\n  gt\n  iszero\n  tag_10\n  jumpi\n  dup3\n  mload\n  dup3\n  swap1\n  0xff\n  and\n  swap1\n  sstore\n  swap2\n  0x20\n  add\n  swap2\n  swap1\n  0x01\n  add\n  swap1\n  jump(tag_9)\ntag_10:\ntag_8:\n  pop\n  swap1\n  pop\n  tag_11\n  swap2\n  swap1\n  tag_12\n  jump\t// in\ntag_11:\n  pop\n  swap1\n  jump\t// out\ntag_12:\ntag_13:\n  dup1\n  dup3\n  gt\n  iszero\n  tag_14\n  jumpi\n  0x00\n  dup2\n  0x00\n  swap1\n  sstore\n  pop\n  0x01\n  add\n  jump(tag_13)\ntag_14:\n  pop\n  swap1\n  jump\t// out\n    /* \"#utility.yul\":7:187   */\ntag_3:\n    /* \"#utility.yul\":55:132   */\n  0x4e487b7100000000000000000000000000000000000000000000000000000000\n    /* \"#utility.yul\":52:53   */\n  0x00\n    /* \"#utility.yul\":45:133   */\n  mstore\n    /* \"#utility.yul\":152:156   */\n  0x21\n    /* \"#utility.yul\":149:150   */\n  0x04\n    /* \"#utility.yul\":142:157   */\n  mstore\n    /* \"#utility.yul\":176:180   */\n  0x24\n    /* \"#utility.yul\":173:174   */\n  0x00\n    /* \"#utility.yul\":166:181   */\n  revert\n    /* \"8.\\xe5\\x8f\\x98\\xe9\\x87\\x8f\\xe5\\x88\\x9d\\xe5\\xa7\\x8b\\xe5\\x80\\xbc/InitialValue.sol\":1204:2264  contract DeleteTest {... */\ntag_7:\n  dataSize(sub_0)\n  dup1\n  dataOffset(sub_0)\n  0x00\n  codecopy\n  0x00\n  return\nstop\n\nsub_0: assembly {\n        /* \"8.\\xe5\\x8f\\x98\\xe9\\x87\\x8f\\xe5\\x88\\x9d\\xe5\\xa7\\x8b\\xe5\\x80\\xbc/InitialValue.sol\":1204:2264  contract DeleteTest {... */\n      mstore(0x40, 0x80)\n      callvalue\n      dup1\n      iszero\n      tag_1\n      jumpi\n      0x00\n      dup1\n      revert\n    tag_1:\n      pop\n      jumpi(tag_2, lt(calldatasize, 0x04))\n      shr(0xe0, calldataload(0x00))\n      dup1\n      0x9c9b7469\n      gt\n      tag_13\n      jumpi\n      dup1\n      0x9c9b7469\n      eq\n      tag_8\n      jumpi\n      dup1\n      0xa2e7fe8a\n      eq\n      tag_9\n      jumpi\n      dup1\n      0xaad9781c\n      eq\n      tag_10\n      jumpi\n      dup1\n      0xae166f23\n      eq\n      tag_11\n      jumpi\n      dup1\n      0xca2a9b77\n      eq\n      tag_12\n      jumpi\n      jump(tag_2)\n    tag_13:\n      dup1\n      0x12b7b142\n      eq\n      tag_3\n      jumpi\n      dup1\n      0x18bad217\n      eq\n      tag_4\n      jumpi\n      dup1\n      0x30c0826f\n      eq\n      tag_5\n      jumpi\n      dup1\n      0x68b27217\n      eq\n      tag_6\n      jumpi\n      dup1\n      0x699450e8\n      eq\n      tag_7\n      jumpi\n    tag_2:\n      0x00\n      dup1\n      revert\n        /* \"8.\\xe5\\x8f\\x98\\xe9\\x87\\x8f\\xe5\\x88\\x9d\\xe5\\xa7\\x8b\\xe5\\x80\\xbc/InitialValue.sol\":1553:1600  uint[8] public _staticArray = [1,2,3,4,5,6,7,8] */\n    tag_3:\n      tag_14\n      0x04\n      dup1\n      calldatasize\n      sub\n      dup2\n      add\n      swap1\n      tag_15\n      swap2\n      swap1\n      tag_16\n      jump\t// in\n    tag_15:\n      tag_17\n      jump\t// in\n    tag_14:\n      mload(0x40)\n      tag_18\n      swap2\n      swap1\n      tag_19\n      jump\t// in\n    tag_18:\n      mload(0x40)\n      dup1\n      swap2\n      sub\n      swap1\n      return\n        /* \"8.\\xe5\\x8f\\x98\\xe9\\x87\\x8f\\xe5\\x88\\x9d\\xe5\\xa7\\x8b\\xe5\\x80\\xbc/InitialValue.sol\":1294:1330  address public _address = address(1) */\n    tag_4:\n      tag_20\n      tag_21\n      jump\t// in\n    tag_20:\n      mload(0x40)\n      tag_22\n      swap2\n      swap1\n      tag_23\n      jump\t// in\n    tag_22:\n      mload(0x40)\n      dup1\n      swap2\n      sub\n      swap1\n      return\n        /* \"8.\\xe5\\x8f\\x98\\xe9\\x87\\x8f\\xe5\\x88\\x9d\\xe5\\xa7\\x8b\\xe5\\x80\\xbc/InitialValue.sol\":1378:1416  ActionSet public _enum = ActionSet.Buy */\n    tag_5:\n      tag_24\n      tag_25\n      jump\t// in\n    tag_24:\n      mload(0x40)\n      tag_26\n      swap2\n      swap1\n      tag_27\n      jump\t// in\n    tag_26:\n      mload(0x40)\n      dup1\n      swap2\n      sub\n      swap1\n      return\n        /* \"8.\\xe5\\x8f\\x98\\xe9\\x87\\x8f\\xe5\\x88\\x9d\\xe5\\xa7\\x8b\\xe5\\x80\\xbc/InitialValue.sol\":1724:1843  function d_address() external {... */\n    tag_6:\n      tag_28\n      tag_29\n      jump\t// in\n    tag_28:\n      stop\n        /* \"8.\\xe5\\x8f\\x98\\xe9\\x87\\x8f\\xe5\\x88\\x9d\\xe5\\xa7\\x8b\\xe5\\x80\\xbc/InitialValue.sol\":1498:1539  Student public student = Student(10, 225) */\n    tag_7:\n      tag_30\n      tag_31\n      jump\t// in\n    tag_30:\n      mload(0x40)\n      tag_32\n      swap3\n      swap2\n      swap1\n      tag_33\n      jump\t// in\n    tag_32:\n      mload(0x40)\n      dup1\n      swap2\n      sub\n      swap1\n      return\n        /* \"8.\\xe5\\x8f\\x98\\xe9\\x87\\x8f\\xe5\\x88\\x9d\\xe5\\xa7\\x8b\\xe5\\x80\\xbc/InitialValue.sol\":1609:1716  function d_bool() external {... */\n    tag_8:\n      tag_34\n      tag_35\n      jump\t// in\n    tag_34:\n      stop\n        /* \"8.\\xe5\\x8f\\x98\\xe9\\x87\\x8f\\xe5\\x88\\x9d\\xe5\\xa7\\x8b\\xe5\\x80\\xbc/InitialValue.sol\":1256:1281  bool public _bool2 = true */\n    tag_9:\n      tag_36\n      tag_37\n      jump\t// in\n    tag_36:\n      mload(0x40)\n      tag_38\n      swap2\n      swap1\n      tag_39\n      jump\t// in\n    tag_38:\n      mload(0x40)\n      dup1\n      swap2\n      sub\n      swap1\n      return\n        /* \"8.\\xe5\\x8f\\x98\\xe9\\x87\\x8f\\xe5\\x88\\x9d\\xe5\\xa7\\x8b\\xe5\\x80\\xbc/InitialValue.sol\":1851:1984  function d_enum() external {... */\n    tag_10:\n      tag_40\n      tag_41\n      jump\t// in\n    tag_40:\n      stop\n        /* \"8.\\xe5\\x8f\\x98\\xe9\\x87\\x8f\\xe5\\x88\\x9d\\xe5\\xa7\\x8b\\xe5\\x80\\xbc/InitialValue.sol\":2119:2259  function d_staticArray() external {... */\n    tag_11:\n      tag_42\n      tag_43\n      jump\t// in\n    tag_42:\n      stop\n        /* \"8.\\xe5\\x8f\\x98\\xe9\\x87\\x8f\\xe5\\x88\\x9d\\xe5\\xa7\\x8b\\xe5\\x80\\xbc/InitialValue.sol\":1992:2111  function d_student() external {... */\n    tag_12:\n      tag_44\n      tag_45\n      jump\t// in\n    tag_44:\n      stop\n        /* \"8.\\xe5\\x8f\\x98\\xe9\\x87\\x8f\\xe5\\x88\\x9d\\xe5\\xa7\\x8b\\xe5\\x80\\xbc/InitialValue.sol\":1553:1600  uint[8] public _staticArray = [1,2,3,4,5,6,7,8] */\n    tag_17:\n      0x03\n      dup2\n      0x08\n      dup2\n      lt\n      tag_46\n      jumpi\n      0x00\n      dup1\n      revert\n    tag_46:\n      add\n      0x00\n      swap2\n      pop\n      swap1\n      pop\n      sload\n      dup2\n      jump\t// out\n        /* \"8.\\xe5\\x8f\\x98\\xe9\\x87\\x8f\\xe5\\x88\\x9d\\xe5\\xa7\\x8b\\xe5\\x80\\xbc/InitialValue.sol\":1294:1330  address public _address = address(1) */\n    tag_21:\n      0x00\n      0x01\n      swap1\n      sload\n      swap1\n      0x0100\n      exp\n      swap1\n      div\n      0xffffffffffffffffffffffffffffffffffffffff\n      and\n      dup2\n      jump\t// out\n        /* \"8.\\xe5\\x8f\\x98\\xe9\\x87\\x8f\\xe5\\x88\\x9d\\xe5\\xa7\\x8b\\xe5\\x80\\xbc/InitialValue.sol\":1378:1416  ActionSet public _enum = ActionSet.Buy */\n    tag_25:\n      0x00\n      0x15\n      swap1\n      sload\n      swap1\n      0x0100\n      exp\n      swap1\n      div\n      0xff\n      and\n      dup2\n      jump\t// out\n        /* \"8.\\xe5\\x8f\\x98\\xe9\\x87\\x8f\\xe5\\x88\\x9d\\xe5\\xa7\\x8b\\xe5\\x80\\xbc/InitialValue.sol\":1724:1843  function d_address() external {... */\n    tag_29:\n        /* \"8.\\xe5\\x8f\\x98\\xe9\\x87\\x8f\\xe5\\x88\\x9d\\xe5\\xa7\\x8b\\xe5\\x80\\xbc/InitialValue.sol\":1772:1780  _address */\n      0x00\n      0x01\n        /* \"8.\\xe5\\x8f\\x98\\xe9\\x87\\x8f\\xe5\\x88\\x9d\\xe5\\xa7\\x8b\\xe5\\x80\\xbc/InitialValue.sol\":1765:1780  delete _address */\n      0x0100\n      exp\n      dup2\n      sload\n      swap1\n      0xffffffffffffffffffffffffffffffffffffffff\n      mul\n      not\n      and\n      swap1\n      sstore\n        /* \"8.\\xe5\\x8f\\x98\\xe9\\x87\\x8f\\xe5\\x88\\x9d\\xe5\\xa7\\x8b\\xe5\\x80\\xbc/InitialValue.sol\":1724:1843  function d_address() external {... */\n      jump\t// out\n        /* \"8.\\xe5\\x8f\\x98\\xe9\\x87\\x8f\\xe5\\x88\\x9d\\xe5\\xa7\\x8b\\xe5\\x80\\xbc/InitialValue.sol\":1498:1539  Student public student = Student(10, 225) */\n    tag_31:\n      0x01\n      dup1\n      0x00\n      add\n      sload\n      swap1\n      dup1\n      0x01\n      add\n      sload\n      swap1\n      pop\n      dup3\n      jump\t// out\n        /* \"8.\\xe5\\x8f\\x98\\xe9\\x87\\x8f\\xe5\\x88\\x9d\\xe5\\xa7\\x8b\\xe5\\x80\\xbc/InitialValue.sol\":1609:1716  function d_bool() external {... */\n    tag_35:\n        /* \"8.\\xe5\\x8f\\x98\\xe9\\x87\\x8f\\xe5\\x88\\x9d\\xe5\\xa7\\x8b\\xe5\\x80\\xbc/InitialValue.sol\":1654:1660  _bool2 */\n      0x00\n      dup1\n        /* \"8.\\xe5\\x8f\\x98\\xe9\\x87\\x8f\\xe5\\x88\\x9d\\xe5\\xa7\\x8b\\xe5\\x80\\xbc/InitialValue.sol\":1647:1660  delete _bool2 */\n      0x0100\n      exp\n      dup2\n      sload\n      swap1\n      0xff\n      mul\n      not\n      and\n      swap1\n      sstore\n        /* \"8.\\xe5\\x8f\\x98\\xe9\\x87\\x8f\\xe5\\x88\\x9d\\xe5\\xa7\\x8b\\xe5\\x80\\xbc/InitialValue.sol\":1609:1716  function d_bool() external {... */\n      jump\t// out\n        /* \"8.\\xe5\\x8f\\x98\\xe9\\x87\\x8f\\xe5\\x88\\x9d\\xe5\\xa7\\x8b\\xe5\\x80\\xbc/InitialValue.sol\":1256:1281  bool public _bool2 = true */\n    tag_37:\n      0x00\n      dup1\n      sload\n      swap1\n      0x0100\n      exp\n      swap1\n      div\n      0xff\n      and\n      dup2\n      jump\t// out\n        /* \"8.\\xe5\\x8f\\x98\\xe9\\x87\\x8f\\xe5\\x88\\x9d\\xe5\\xa7\\x8b\\xe5\\x80\\xbc/InitialValue.sol\":1851:1984  function d_enum() external {... */\n    tag_41:\n        /* \"8.\\xe5\\x8f\\x98\\xe9\\x87\\x8f\\xe5\\x88\\x9d\\xe5\\xa7\\x8b\\xe5\\x80\\xbc/InitialValue.sol\":1896:1901  _enum */\n      0x00\n      0x15\n        /* \"8.\\xe5\\x8f\\x98\\xe9\\x87\\x8f\\xe5\\x88\\x9d\\xe5\\xa7\\x8b\\xe5\\x80\\xbc/InitialValue.sol\":1889:1901  delete _enum */\n      0x0100\n      exp\n      dup2\n      sload\n      swap1\n      0xff\n      mul\n      not\n      and\n      swap1\n      sstore\n        /* \"8.\\xe5\\x8f\\x98\\xe9\\x87\\x8f\\xe5\\x88\\x9d\\xe5\\xa7\\x8b\\xe5\\x80\\xbc/InitialValue.sol\":1851:1984  function d_enum() external {... */\n      jump\t// out\n        /* \"8.\\xe5\\x8f\\x98\\xe9\\x87\\x8f\\xe5\\x88\\x9d\\xe5\\xa7\\x8b\\xe5\\x80\\xbc/InitialValue.sol\":2119:2259  function d_staticArray() external {... */\n    tag_43:\n        /* \"8.\\xe5\\x8f\\x98\\xe9\\x87\\x8f\\xe5\\x88\\x9d\\xe5\\xa7\\x8b\\xe5\\x80\\xbc/InitialValue.sol\":2171:2183  _staticArray */\n      0x03\n      0x00\n        /* \"8.\\xe5\\x8f\\x98\\xe9\\x87\\x8f\\xe5\\x88\\x9d\\xe5\\xa7\\x8b\\xe5\\x80\\xbc/InitialValue.sol\":2164:2183  delete _staticArray */\n      tag_52\n      swap2\n      swap1\n      tag_53\n      jump\t// in\n    tag_52:\n        /* \"8.\\xe5\\x8f\\x98\\xe9\\x87\\x8f\\xe5\\x88\\x9d\\xe5\\xa7\\x8b\\xe5\\x80\\xbc/InitialValue.sol\":2119:2259  function d_staticArray() external {... */\n      jump\t// out\n        /* \"8.\\xe5\\x8f\\x98\\xe9\\x87\\x8f\\xe5\\x88\\x9d\\xe5\\xa7\\x8b\\xe5\\x80\\xbc/InitialValue.sol\":1992:2111  function d_student() external {... */\n    tag_45:\n        /* \"8.\\xe5\\x8f\\x98\\xe9\\x87\\x8f\\xe5\\x88\\x9d\\xe5\\xa7\\x8b\\xe5\\x80\\xbc/InitialValue.sol\":2040:2047  student */\n      0x01\n      0x00\n        /* \"8.\\xe5\\x8f\\x98\\xe9\\x87\\x8f\\xe5\\x88\\x9d\\xe5\\xa7\\x8b\\xe5\\x80\\xbc/InitialValue.sol\":2033:2047  delete student */\n      dup1\n      dup3\n      add\n      0x00\n      swap1\n      sstore\n      0x01\n      dup3\n      add\n      0x00\n      swap1\n      sstore\n      pop\n      pop\n        /* \"8.\\xe5\\x8f\\x98\\xe9\\x87\\x8f\\xe5\\x88\\x9d\\xe5\\xa7\\x8b\\xe5\\x80\\xbc/InitialValue.sol\":1992:2111  function d_student() external {... */\n      jump\t// out\n    tag_53:\n      pop\n      dup1\n      0x08\n      add\n      swap1\n      tag_55\n      swap2\n      swap1\n      tag_56\n      jump\t// in\n    tag_55:\n      pop\n      jump\t// out\n    tag_56:\n    tag_57:\n      dup1\n      dup3\n      gt\n      iszero\n      tag_58\n      jumpi\n      0x00\n      dup2\n      0x00\n      swap1\n      sstore\n      pop\n      0x01\n      add\n      jump(tag_57)\n    tag_58:\n      pop\n      swap1\n      jump\t// out\n        /* \"#utility.yul\":88:205   */\n    tag_60:\n        /* \"#utility.yul\":197:198   */\n      0x00\n        /* \"#utility.yul\":194:195   */\n      dup1\n        /* \"#utility.yul\":187:199   */\n      revert\n        /* \"#utility.yul\":334:411   */\n    tag_62:\n        /* \"#utility.yul\":371:378   */\n      0x00\n        /* \"#utility.yul\":400:405   */\n      dup2\n        /* \"#utility.yul\":389:405   */\n      swap1\n      pop\n        /* \"#utility.yul\":334:411   */\n      swap2\n      swap1\n      pop\n      jump\t// out\n        /* \"#utility.yul\":417:539   */\n    tag_63:\n        /* \"#utility.yul\":490:514   */\n      tag_82\n        /* \"#utility.yul\":508:513   */\n      dup2\n        /* \"#utility.yul\":490:514   */\n      tag_62\n      jump\t// in\n    tag_82:\n        /* \"#utility.yul\":483:488   */\n      dup2\n        /* \"#utility.yul\":480:515   */\n      eq\n        /* \"#utility.yul\":470:533   */\n      tag_83\n      jumpi\n        /* \"#utility.yul\":529:530   */\n      0x00\n        /* \"#utility.yul\":526:527   */\n      dup1\n        /* \"#utility.yul\":519:531   */\n      revert\n        /* \"#utility.yul\":470:533   */\n    tag_83:\n        /* \"#utility.yul\":417:539   */\n      pop\n      jump\t// out\n        /* \"#utility.yul\":545:684   */\n    tag_64:\n        /* \"#utility.yul\":591:596   */\n      0x00\n        /* \"#utility.yul\":629:635   */\n      dup2\n        /* \"#utility.yul\":616:636   */\n      calldataload\n        /* \"#utility.yul\":607:636   */\n      swap1\n      pop\n        /* \"#utility.yul\":645:678   */\n      tag_85\n        /* \"#utility.yul\":672:677   */\n      dup2\n        /* \"#utility.yul\":645:678   */\n      tag_63\n      jump\t// in\n    tag_85:\n        /* \"#utility.yul\":545:684   */\n      swap3\n      swap2\n      pop\n      pop\n      jump\t// out\n        /* \"#utility.yul\":690:1019   */\n    tag_16:\n        /* \"#utility.yul\":749:755   */\n      0x00\n        /* \"#utility.yul\":798:800   */\n      0x20\n        /* \"#utility.yul\":786:795   */\n      dup3\n        /* \"#utility.yul\":777:784   */\n      dup5\n        /* \"#utility.yul\":773:796   */\n      sub\n        /* \"#utility.yul\":769:801   */\n      slt\n        /* \"#utility.yul\":766:885   */\n      iszero\n      tag_87\n      jumpi\n        /* \"#utility.yul\":804:883   */\n      tag_88\n      tag_60\n      jump\t// in\n    tag_88:\n        /* \"#utility.yul\":766:885   */\n    tag_87:\n        /* \"#utility.yul\":924:925   */\n      0x00\n        /* \"#utility.yul\":949:1002   */\n      tag_89\n        /* \"#utility.yul\":994:1001   */\n      dup5\n        /* \"#utility.yul\":985:991   */\n      dup3\n        /* \"#utility.yul\":974:983   */\n      dup6\n        /* \"#utility.yul\":970:992   */\n      add\n        /* \"#utility.yul\":949:1002   */\n      tag_64\n      jump\t// in\n    tag_89:\n        /* \"#utility.yul\":939:1002   */\n      swap2\n      pop\n        /* \"#utility.yul\":895:1012   */\n      pop\n        /* \"#utility.yul\":690:1019   */\n      swap3\n      swap2\n      pop\n      pop\n      jump\t// out\n        /* \"#utility.yul\":1025:1143   */\n    tag_65:\n        /* \"#utility.yul\":1112:1136   */\n      tag_91\n        /* \"#utility.yul\":1130:1135   */\n      dup2\n        /* \"#utility.yul\":1112:1136   */\n      tag_62\n      jump\t// in\n    tag_91:\n        /* \"#utility.yul\":1107:1110   */\n      dup3\n        /* \"#utility.yul\":1100:1137   */\n      mstore\n        /* \"#utility.yul\":1025:1143   */\n      pop\n      pop\n      jump\t// out\n        /* \"#utility.yul\":1149:1371   */\n    tag_19:\n        /* \"#utility.yul\":1242:1246   */\n      0x00\n        /* \"#utility.yul\":1280:1282   */\n      0x20\n        /* \"#utility.yul\":1269:1278   */\n      dup3\n        /* \"#utility.yul\":1265:1283   */\n      add\n        /* \"#utility.yul\":1257:1283   */\n      swap1\n      pop\n        /* \"#utility.yul\":1293:1364   */\n      tag_93\n        /* \"#utility.yul\":1361:1362   */\n      0x00\n        /* \"#utility.yul\":1350:1359   */\n      dup4\n        /* \"#utility.yul\":1346:1363   */\n      add\n        /* \"#utility.yul\":1337:1343   */\n      dup5\n        /* \"#utility.yul\":1293:1364   */\n      tag_65\n      jump\t// in\n    tag_93:\n        /* \"#utility.yul\":1149:1371   */\n      swap3\n      swap2\n      pop\n      pop\n      jump\t// out\n        /* \"#utility.yul\":1377:1503   */\n    tag_66:\n        /* \"#utility.yul\":1414:1421   */\n      0x00\n        /* \"#utility.yul\":1454:1496   */\n      0xffffffffffffffffffffffffffffffffffffffff\n        /* \"#utility.yul\":1447:1452   */\n      dup3\n        /* \"#utility.yul\":1443:1497   */\n      and\n        /* \"#utility.yul\":1432:1497   */\n      swap1\n      pop\n        /* \"#utility.yul\":1377:1503   */\n      swap2\n      swap1\n      pop\n      jump\t// out\n        /* \"#utility.yul\":1509:1605   */\n    tag_67:\n        /* \"#utility.yul\":1546:1553   */\n      0x00\n        /* \"#utility.yul\":1575:1599   */\n      tag_96\n        /* \"#utility.yul\":1593:1598   */\n      dup3\n        /* \"#utility.yul\":1575:1599   */\n      tag_66\n      jump\t// in\n    tag_96:\n        /* \"#utility.yul\":1564:1599   */\n      swap1\n      pop\n        /* \"#utility.yul\":1509:1605   */\n      swap2\n      swap1\n      pop\n      jump\t// out\n        /* \"#utility.yul\":1611:1729   */\n    tag_68:\n        /* \"#utility.yul\":1698:1722   */\n      tag_98\n        /* \"#utility.yul\":1716:1721   */\n      dup2\n        /* \"#utility.yul\":1698:1722   */\n      tag_67\n      jump\t// in\n    tag_98:\n        /* \"#utility.yul\":1693:1696   */\n      dup3\n        /* \"#utility.yul\":1686:1723   */\n      mstore\n        /* \"#utility.yul\":1611:1729   */\n      pop\n      pop\n      jump\t// out\n        /* \"#utility.yul\":1735:1957   */\n    tag_23:\n        /* \"#utility.yul\":1828:1832   */\n      0x00\n        /* \"#utility.yul\":1866:1868   */\n      0x20\n        /* \"#utility.yul\":1855:1864   */\n      dup3\n        /* \"#utility.yul\":1851:1869   */\n      add\n        /* \"#utility.yul\":1843:1869   */\n      swap1\n      pop\n        /* \"#utility.yul\":1879:1950   */\n      tag_100\n        /* \"#utility.yul\":1947:1948   */\n      0x00\n        /* \"#utility.yul\":1936:1945   */\n      dup4\n        /* \"#utility.yul\":1932:1949   */\n      add\n        /* \"#utility.yul\":1923:1929   */\n      dup5\n        /* \"#utility.yul\":1879:1950   */\n      tag_68\n      jump\t// in\n    tag_100:\n        /* \"#utility.yul\":1735:1957   */\n      swap3\n      swap2\n      pop\n      pop\n      jump\t// out\n        /* \"#utility.yul\":1963:2143   */\n    tag_69:\n        /* \"#utility.yul\":2011:2088   */\n      0x4e487b7100000000000000000000000000000000000000000000000000000000\n        /* \"#utility.yul\":2008:2009   */\n      0x00\n        /* \"#utility.yul\":2001:2089   */\n      mstore\n        /* \"#utility.yul\":2108:2112   */\n      0x21\n        /* \"#utility.yul\":2105:2106   */\n      0x04\n        /* \"#utility.yul\":2098:2113   */\n      mstore\n        /* \"#utility.yul\":2132:2136   */\n      0x24\n        /* \"#utility.yul\":2129:2130   */\n      0x00\n        /* \"#utility.yul\":2122:2137   */\n      revert\n        /* \"#utility.yul\":2149:2266   */\n    tag_70:\n        /* \"#utility.yul\":2234:2235   */\n      0x03\n        /* \"#utility.yul\":2227:2232   */\n      dup2\n        /* \"#utility.yul\":2224:2236   */\n      lt\n        /* \"#utility.yul\":2214:2260   */\n      tag_103\n      jumpi\n        /* \"#utility.yul\":2240:2258   */\n      tag_104\n      tag_69\n      jump\t// in\n    tag_104:\n        /* \"#utility.yul\":2214:2260   */\n    tag_103:\n        /* \"#utility.yul\":2149:2266   */\n      pop\n      jump\t// out\n        /* \"#utility.yul\":2272:2407   */\n    tag_71:\n        /* \"#utility.yul\":2321:2328   */\n      0x00\n        /* \"#utility.yul\":2350:2355   */\n      dup2\n        /* \"#utility.yul\":2339:2355   */\n      swap1\n      pop\n        /* \"#utility.yul\":2356:2401   */\n      tag_106\n        /* \"#utility.yul\":2395:2400   */\n      dup3\n        /* \"#utility.yul\":2356:2401   */\n      tag_70\n      jump\t// in\n    tag_106:\n        /* \"#utility.yul\":2272:2407   */\n      swap2\n      swap1\n      pop\n      jump\t// out\n        /* \"#utility.yul\":2413:2548   */\n    tag_72:\n        /* \"#utility.yul\":2473:2482   */\n      0x00\n        /* \"#utility.yul\":2506:2542   */\n      tag_108\n        /* \"#utility.yul\":2536:2541   */\n      dup3\n        /* \"#utility.yul\":2506:2542   */\n      tag_71\n      jump\t// in\n    tag_108:\n        /* \"#utility.yul\":2493:2542   */\n      swap1\n      pop\n        /* \"#utility.yul\":2413:2548   */\n      swap2\n      swap1\n      pop\n      jump\t// out\n        /* \"#utility.yul\":2554:2705   */\n    tag_73:\n        /* \"#utility.yul\":2651:2698   */\n      tag_110\n        /* \"#utility.yul\":2692:2697   */\n      dup2\n        /* \"#utility.yul\":2651:2698   */\n      tag_72\n      jump\t// in\n    tag_110:\n        /* \"#utility.yul\":2646:2649   */\n      dup3\n        /* \"#utility.yul\":2639:2699   */\n      mstore\n        /* \"#utility.yul\":2554:2705   */\n      pop\n      pop\n      jump\t// out\n        /* \"#utility.yul\":2711:2953   */\n    tag_27:\n        /* \"#utility.yul\":2814:2818   */\n      0x00\n        /* \"#utility.yul\":2852:2854   */\n      0x20\n        /* \"#utility.yul\":2841:2850   */\n      dup3\n        /* \"#utility.yul\":2837:2855   */\n      add\n        /* \"#utility.yul\":2829:2855   */\n      swap1\n      pop\n        /* \"#utility.yul\":2865:2946   */\n      tag_112\n        /* \"#utility.yul\":2943:2944   */\n      0x00\n        /* \"#utility.yul\":2932:2941   */\n      dup4\n        /* \"#utility.yul\":2928:2945   */\n      add\n        /* \"#utility.yul\":2919:2925   */\n      dup5\n        /* \"#utility.yul\":2865:2946   */\n      tag_73\n      jump\t// in\n    tag_112:\n        /* \"#utility.yul\":2711:2953   */\n      swap3\n      swap2\n      pop\n      pop\n      jump\t// out\n        /* \"#utility.yul\":2959:3291   */\n    tag_33:\n        /* \"#utility.yul\":3080:3084   */\n      0x00\n        /* \"#utility.yul\":3118:3120   */\n      0x40\n        /* \"#utility.yul\":3107:3116   */\n      dup3\n        /* \"#utility.yul\":3103:3121   */\n      add\n        /* \"#utility.yul\":3095:3121   */\n      swap1\n      pop\n        /* \"#utility.yul\":3131:3202   */\n      tag_114\n        /* \"#utility.yul\":3199:3200   */\n      0x00\n        /* \"#utility.yul\":3188:3197   */\n      dup4\n        /* \"#utility.yul\":3184:3201   */\n      add\n        /* \"#utility.yul\":3175:3181   */\n      dup6\n        /* \"#utility.yul\":3131:3202   */\n      tag_65\n      jump\t// in\n    tag_114:\n        /* \"#utility.yul\":3212:3284   */\n      tag_115\n        /* \"#utility.yul\":3280:3282   */\n      0x20\n        /* \"#utility.yul\":3269:3278   */\n      dup4\n        /* \"#utility.yul\":3265:3283   */\n      add\n        /* \"#utility.yul\":3256:3262   */\n      dup5\n        /* \"#utility.yul\":3212:3284   */\n      tag_65\n      jump\t// in\n    tag_115:\n        /* \"#utility.yul\":2959:3291   */\n      swap4\n      swap3\n      pop\n      pop\n      pop\n      jump\t// out\n        /* \"#utility.yul\":3297:3387   */\n    tag_74:\n        /* \"#utility.yul\":3331:3338   */\n      0x00\n        /* \"#utility.yul\":3374:3379   */\n      dup2\n        /* \"#utility.yul\":3367:3380   */\n      iszero\n        /* \"#utility.yul\":3360:3381   */\n      iszero\n        /* \"#utility.yul\":3349:3381   */\n      swap1\n      pop\n        /* \"#utility.yul\":3297:3387   */\n      swap2\n      swap1\n      pop\n      jump\t// out\n        /* \"#utility.yul\":3393:3502   */\n    tag_75:\n        /* \"#utility.yul\":3474:3495   */\n      tag_118\n        /* \"#utility.yul\":3489:3494   */\n      dup2\n        /* \"#utility.yul\":3474:3495   */\n      tag_74\n      jump\t// in\n    tag_118:\n        /* \"#utility.yul\":3469:3472   */\n      dup3\n        /* \"#utility.yul\":3462:3496   */\n      mstore\n        /* \"#utility.yul\":3393:3502   */\n      pop\n      pop\n      jump\t// out\n        /* \"#utility.yul\":3508:3718   */\n    tag_39:\n        /* \"#utility.yul\":3595:3599   */\n      0x00\n        /* \"#utility.yul\":3633:3635   */\n      0x20\n        /* \"#utility.yul\":3622:3631   */\n      dup3\n        /* \"#utility.yul\":3618:3636   */\n      add\n        /* \"#utility.yul\":3610:3636   */\n      swap1\n      pop\n        /* \"#utility.yul\":3646:3711   */\n      tag_120\n        /* \"#utility.yul\":3708:3709   */\n      0x00\n        /* \"#utility.yul\":3697:3706   */\n      dup4\n        /* \"#utility.yul\":3693:3710   */\n      add\n        /* \"#utility.yul\":3684:3690   */\n      dup5\n        /* \"#utility.yul\":3646:3711   */\n      tag_75\n      jump\t// in\n    tag_120:\n        /* \"#utility.yul\":3508:3718   */\n      swap3\n      swap2\n      pop\n      pop\n      jump\t// out\n\n    auxdata: 0xa26469706673582212201045a725ced0a6afc16ff60de0ce7d2bf7b70ad7c2e8a74e674a5fdf7fda3abe64736f6c63430008120033\n}\n",
				"bytecode": {
					"linkReferences": {},
					"object": "608060405260016000806101000a81548160ff0219169083151502179055506001600060016101000a81548173ffffffffffffffffffffffffffffffffffffffff021916908373ffffffffffffffffffffffffffffffffffffffff16021790555060008060156101000a81548160ff0219169083600281111561008557610084610198565b5b02179055506040518060400160405280600a815260200160e1815250600160008201518160000155602082015181600101555050604051806101000160405280600160ff168152602001600260ff168152602001600360ff168152602001600460ff168152602001600560ff168152602001600660ff168152602001600760ff168152602001600860ff168152506003906008610123929190610136565b5034801561013057600080fd5b506101c7565b826008810192821561016a579160200282015b82811115610169578251829060ff16905591602001919060010190610149565b5b509050610177919061017b565b5090565b5b8082111561019457600081600090555060010161017c565b5090565b7f4e487b7100000000000000000000000000000000000000000000000000000000600052602160045260246000fd5b6104af806101d66000396000f3fe608060405234801561001057600080fd5b506004361061009e5760003560e01c80639c9b7469116100665780639c9b746914610138578063a2e7fe8a14610142578063aad9781c14610160578063ae166f231461016a578063ca2a9b77146101745761009e565b806312b7b142146100a357806318bad217146100d357806330c0826f146100f157806368b272171461010f578063699450e814610119575b600080fd5b6100bd60048036038101906100b891906102d5565b61017e565b6040516100ca9190610311565b60405180910390f35b6100db610199565b6040516100e8919061036d565b60405180910390f35b6100f96101bf565b60405161010691906103ff565b60405180910390f35b6101176101d2565b005b6101216101f9565b60405161012f92919061041a565b60405180910390f35b61014061020b565b005b61014a61021e565b604051610157919061045e565b60405180910390f35b61016861022f565b005b610172610243565b005b61017c610253565b005b6003816008811061018e57600080fd5b016000915090505481565b600060019054906101000a900473ffffffffffffffffffffffffffffffffffffffff1681565b600060159054906101000a900460ff1681565b600060016101000a81549073ffffffffffffffffffffffffffffffffffffffff0219169055565b60018060000154908060010154905082565b6000806101000a81549060ff0219169055565b60008054906101000a900460ff1681565b600060156101000a81549060ff0219169055565b60036000610251919061026a565b565b600160008082016000905560018201600090555050565b50806008019061027a919061027d565b50565b5b8082111561029657600081600090555060010161027e565b5090565b600080fd5b6000819050919050565b6102b28161029f565b81146102bd57600080fd5b50565b6000813590506102cf816102a9565b92915050565b6000602082840312156102eb576102ea61029a565b5b60006102f9848285016102c0565b91505092915050565b61030b8161029f565b82525050565b60006020820190506103266000830184610302565b92915050565b600073ffffffffffffffffffffffffffffffffffffffff82169050919050565b60006103578261032c565b9050919050565b6103678161034c565b82525050565b6000602082019050610382600083018461035e565b92915050565b7f4e487b7100000000000000000000000000000000000000000000000000000000600052602160045260246000fd5b600381106103c8576103c7610388565b5b50565b60008190506103d9826103b7565b919050565b60006103e9826103cb565b9050919050565b6103f9816103de565b82525050565b600060208201905061041460008301846103f0565b92915050565b600060408201905061042f6000830185610302565b61043c6020830184610302565b9392505050565b60008115159050919050565b61045881610443565b82525050565b6000602082019050610473600083018461044f565b9291505056fea26469706673582212201045a725ced0a6afc16ff60de0ce7d2bf7b70ad7c2e8a74e674a5fdf7fda3abe64736f6c63430008120033",
					"opcodes": "PUSH1 0x80 PUSH1 0x40 MSTORE PUSH1 0x1 PUSH1 0x0 DUP1 PUSH2 0x100 EXP DUP2 SLOAD DUP2 PUSH1 0xFF MUL NOT AND SWAP1 DUP4 ISZERO ISZERO MUL OR SWAP1 SSTORE POP PUSH1 0x1 PUSH1 0x0 PUSH1 0x1 PUSH2 0x100 EXP DUP2 SLOAD DUP2 PUSH20 0xFFFFFFFFFFFFFFFFFFFFFFFFFFFFFFFFFFFFFFFF MUL NOT AND SWAP1 DUP4 PUSH20 0xFFFFFFFFFFFFFFFFFFFFFFFFFFFFFFFFFFFFFFFF AND MUL OR SWAP1 SSTORE POP PUSH1 0x0 DUP1 PUSH1 0x15 PUSH2 0x100 EXP DUP2 SLOAD DUP2 PUSH1 0xFF MUL NOT AND SWAP1 DUP4 PUSH1 0x2 DUP2 GT ISZERO PUSH2 0x85 JUMPI PUSH2 0x84 PUSH2 0x198 JUMP JUMPDEST JUMPDEST MUL OR SWAP1 SSTORE POP PUSH1 0x40 MLOAD DUP1 PUSH1 0x40 ADD PUSH1 0x40 MSTORE DUP1 PUSH1 0xA DUP2 MSTORE PUSH1 0x20 ADD PUSH1 0xE1 DUP2 MSTORE POP PUSH1 0x1 PUSH1 0x0 DUP3 ADD MLOAD DUP2 PUSH1 0x0 ADD SSTORE PUSH1 0x20 DUP3 ADD MLOAD DUP2 PUSH1 0x1 ADD SSTORE POP POP PUSH1 0x40 MLOAD DUP1 PUSH2 0x100 ADD PUSH1 0x40 MSTORE DUP1 PUSH1 0x1 PUSH1 0xFF AND DUP2 MSTORE PUSH1 0x20 ADD PUSH1 0x2 PUSH1 0xFF AND DUP2 MSTORE PUSH1 0x20 ADD PUSH1 0x3 PUSH1 0xFF AND DUP2 MSTORE PUSH1 0x20 ADD PUSH1 0x4 PUSH1 0xFF AND DUP2 MSTORE PUSH1 0x20 ADD PUSH1 0x5 PUSH1 0xFF AND DUP2 MSTORE PUSH1 0x20 ADD PUSH1 0x6 PUSH1 0xFF AND DUP2 MSTORE PUSH1 0x20 ADD PUSH1 0x7 PUSH1 0xFF AND DUP2 MSTORE PUSH1 0x20 ADD PUSH1 0x8 PUSH1 0xFF AND DUP2 MSTORE POP PUSH1 0x3 SWAP1 PUSH1 0x8 PUSH2 0x123 SWAP3 SWAP2 SWAP1 PUSH2 0x136 JUMP JUMPDEST POP CALLVALUE DUP1 ISZERO PUSH2 0x130 JUMPI PUSH1 0x0 DUP1 REVERT JUMPDEST POP PUSH2 0x1C7 JUMP JUMPDEST DUP3 PUSH1 0x8 DUP2 ADD SWAP3 DUP3 ISZERO PUSH2 0x16A JUMPI SWAP2 PUSH1 0x20 MUL DUP3 ADD JUMPDEST DUP3 DUP2 GT ISZERO PUSH2 0x169 JUMPI DUP3 MLOAD DUP3 SWAP1 PUSH1 0xFF AND SWAP1 SSTORE SWAP2 PUSH1 0x20 ADD SWAP2 SWAP1 PUSH1 0x1 ADD SWAP1 PUSH2 0x149 JUMP JUMPDEST JUMPDEST POP SWAP1 POP PUSH2 0x177 SWAP2 SWAP1 PUSH2 0x17B JUMP JUMPDEST POP SWAP1 JUMP JUMPDEST JUMPDEST DUP1 DUP3 GT ISZERO PUSH2 0x194 JUMPI PUSH1 0x0 DUP2 PUSH1 0x0 SWAP1 SSTORE POP PUSH1 0x1 ADD PUSH2 0x17C JUMP JUMPDEST POP SWAP1 JUMP JUMPDEST PUSH32 0x4E487B7100000000000000000000000000000000000000000000000000000000 PUSH1 0x0 MSTORE PUSH1 0x21 PUSH1 0x4 MSTORE PUSH1 0x24 PUSH1 0x0 REVERT JUMPDEST PUSH2 0x4AF DUP1 PUSH2 0x1D6 PUSH1 0x0 CODECOPY PUSH1 0x0 RETURN INVALID PUSH1 0x80 PUSH1 0x40 MSTORE CALLVALUE DUP1 ISZERO PUSH2 0x10 JUMPI PUSH1 0x0 DUP1 REVERT JUMPDEST POP PUSH1 0x4 CALLDATASIZE LT PUSH2 0x9E JUMPI PUSH1 0x0 CALLDATALOAD PUSH1 0xE0 SHR DUP1 PUSH4 0x9C9B7469 GT PUSH2 0x66 JUMPI DUP1 PUSH4 0x9C9B7469 EQ PUSH2 0x138 JUMPI DUP1 PUSH4 0xA2E7FE8A EQ PUSH2 0x142 JUMPI DUP1 PUSH4 0xAAD9781C EQ PUSH2 0x160 JUMPI DUP1 PUSH4 0xAE166F23 EQ PUSH2 0x16A JUMPI DUP1 PUSH4 0xCA2A9B77 EQ PUSH2 0x174 JUMPI PUSH2 0x9E JUMP JUMPDEST DUP1 PUSH4 0x12B7B142 EQ PUSH2 0xA3 JUMPI DUP1 PUSH4 0x18BAD217 EQ PUSH2 0xD3 JUMPI DUP1 PUSH4 0x30C0826F EQ PUSH2 0xF1 JUMPI DUP1 PUSH4 0x68B27217 EQ PUSH2 0x10F JUMPI DUP1 PUSH4 0x699450E8 EQ PUSH2 0x119 JUMPI JUMPDEST PUSH1 0x0 DUP1 REVERT JUMPDEST PUSH2 0xBD PUSH1 0x4 DUP1 CALLDATASIZE SUB DUP2 ADD SWAP1 PUSH2 0xB8 SWAP2 SWAP1 PUSH2 0x2D5 JUMP JUMPDEST PUSH2 0x17E JUMP JUMPDEST PUSH1 0x40 MLOAD PUSH2 0xCA SWAP2 SWAP1 PUSH2 0x311 JUMP JUMPDEST PUSH1 0x40 MLOAD DUP1 SWAP2 SUB SWAP1 RETURN JUMPDEST PUSH2 0xDB PUSH2 0x199 JUMP JUMPDEST PUSH1 0x40 MLOAD PUSH2 0xE8 SWAP2 SWAP1 PUSH2 0x36D JUMP JUMPDEST PUSH1 0x40 MLOAD DUP1 SWAP2 SUB SWAP1 RETURN JUMPDEST PUSH2 0xF9 PUSH2 0x1BF JUMP JUMPDEST PUSH1 0x40 MLOAD PUSH2 0x106 SWAP2 SWAP1 PUSH2 0x3FF JUMP JUMPDEST PUSH1 0x40 MLOAD DUP1 SWAP2 SUB SWAP1 RETURN JUMPDEST PUSH2 0x117 PUSH2 0x1D2 JUMP JUMPDEST STOP JUMPDEST PUSH2 0x121 PUSH2 0x1F9 JUMP JUMPDEST PUSH1 0x40 MLOAD PUSH2 0x12F SWAP3 SWAP2 SWAP1 PUSH2 0x41A JUMP JUMPDEST PUSH1 0x40 MLOAD DUP1 SWAP2 SUB SWAP1 RETURN JUMPDEST PUSH2 0x140 PUSH2 0x20B JUMP JUMPDEST STOP JUMPDEST PUSH2 0x14A PUSH2 0x21E JUMP JUMPDEST PUSH1 0x40 MLOAD PUSH2 0x157 SWAP2 SWAP1 PUSH2 0x45E JUMP JUMPDEST PUSH1 0x40 MLOAD DUP1 SWAP2 SUB SWAP1 RETURN JUMPDEST PUSH2 0x168 PUSH2 0x22F JUMP JUMPDEST STOP JUMPDEST PUSH2 0x172 PUSH2 0x243 JUMP JUMPDEST STOP JUMPDEST PUSH2 0x17C PUSH2 0x253 JUMP JUMPDEST STOP JUMPDEST PUSH1 0x3 DUP2 PUSH1 0x8 DUP2 LT PUSH2 0x18E JUMPI PUSH1 0x0 DUP1 REVERT JUMPDEST ADD PUSH1 0x0 SWAP2 POP SWAP1 POP SLOAD DUP2 JUMP JUMPDEST PUSH1 0x0 PUSH1 0x1 SWAP1 SLOAD SWAP1 PUSH2 0x100 EXP SWAP1 DIV PUSH20 0xFFFFFFFFFFFFFFFFFFFFFFFFFFFFFFFFFFFFFFFF AND DUP2 JUMP JUMPDEST PUSH1 0x0 PUSH1 0x15 SWAP1 SLOAD SWAP1 PUSH2 0x100 EXP SWAP1 DIV PUSH1 0xFF AND DUP2 JUMP JUMPDEST PUSH1 0x0 PUSH1 0x1 PUSH2 0x100 EXP DUP2 SLOAD SWAP1 PUSH20 0xFFFFFFFFFFFFFFFFFFFFFFFFFFFFFFFFFFFFFFFF MUL NOT AND SWAP1 SSTORE JUMP JUMPDEST PUSH1 0x1 DUP1 PUSH1 0x0 ADD SLOAD SWAP1 DUP1 PUSH1 0x1 ADD SLOAD SWAP1 POP DUP3 JUMP JUMPDEST PUSH1 0x0 DUP1 PUSH2 0x100 EXP DUP2 SLOAD SWAP1 PUSH1 0xFF MUL NOT AND SWAP1 SSTORE JUMP JUMPDEST PUSH1 0x0 DUP1 SLOAD SWAP1 PUSH2 0x100 EXP SWAP1 DIV PUSH1 0xFF AND DUP2 JUMP JUMPDEST PUSH1 0x0 PUSH1 0x15 PUSH2 0x100 EXP DUP2 SLOAD SWAP1 PUSH1 0xFF MUL NOT AND SWAP1 SSTORE JUMP JUMPDEST PUSH1 0x3 PUSH1 0x0 PUSH2 0x251 SWAP2 SWAP1 PUSH2 0x26A JUMP JUMPDEST JUMP JUMPDEST PUSH1 0x1 PUSH1 0x0 DUP1 DUP3 ADD PUSH1 0x0 SWAP1 SSTORE PUSH1 0x1 DUP3 ADD PUSH1 0x0 SWAP1 SSTORE POP POP JUMP JUMPDEST POP DUP1 PUSH1 0x8 ADD SWAP1 PUSH2 0x27A SWAP2 SWAP1 PUSH2 0x27D JUMP JUMPDEST POP JUMP JUMPDEST JUMPDEST DUP1 DUP3 GT ISZERO PUSH2 0x296 JUMPI PUSH1 0x0 DUP2 PUSH1 0x0 SWAP1 SSTORE POP PUSH1 0x1 ADD PUSH2 0x27E JUMP JUMPDEST POP SWAP1 JUMP JUMPDEST PUSH1 0x0 DUP1 REVERT JUMPDEST PUSH1 0x0 DUP2 SWAP1 POP SWAP2 SWAP1 POP JUMP JUMPDEST PUSH2 0x2B2 DUP2 PUSH2 0x29F JUMP JUMPDEST DUP2 EQ PUSH2 0x2BD JUMPI PUSH1 0x0 DUP1 REVERT JUMPDEST POP JUMP JUMPDEST PUSH1 0x0 DUP2 CALLDATALOAD SWAP1 POP PUSH2 0x2CF DUP2 PUSH2 0x2A9 JUMP JUMPDEST SWAP3 SWAP2 POP POP JUMP JUMPDEST PUSH1 0x0 PUSH1 0x20 DUP3 DUP5 SUB SLT ISZERO PUSH2 0x2EB JUMPI PUSH2 0x2EA PUSH2 0x29A JUMP JUMPDEST JUMPDEST PUSH1 0x0 PUSH2 0x2F9 DUP5 DUP3 DUP6 ADD PUSH2 0x2C0 JUMP JUMPDEST SWAP2 POP POP SWAP3 SWAP2 POP POP JUMP JUMPDEST PUSH2 0x30B DUP2 PUSH2 0x29F JUMP JUMPDEST DUP3 MSTORE POP POP JUMP JUMPDEST PUSH1 0x0 PUSH1 0x20 DUP3 ADD SWAP1 POP PUSH2 0x326 PUSH1 0x0 DUP4 ADD DUP5 PUSH2 0x302 JUMP JUMPDEST SWAP3 SWAP2 POP POP JUMP JUMPDEST PUSH1 0x0 PUSH20 0xFFFFFFFFFFFFFFFFFFFFFFFFFFFFFFFFFFFFFFFF DUP3 AND SWAP1 POP SWAP2 SWAP1 POP JUMP JUMPDEST PUSH1 0x0 PUSH2 0x357 DUP3 PUSH2 0x32C JUMP JUMPDEST SWAP1 POP SWAP2 SWAP1 POP JUMP JUMPDEST PUSH2 0x367 DUP2 PUSH2 0x34C JUMP JUMPDEST DUP3 MSTORE POP POP JUMP JUMPDEST PUSH1 0x0 PUSH1 0x20 DUP3 ADD SWAP1 POP PUSH2 0x382 PUSH1 0x0 DUP4 ADD DUP5 PUSH2 0x35E JUMP JUMPDEST SWAP3 SWAP2 POP POP JUMP JUMPDEST PUSH32 0x4E487B7100000000000000000000000000000000000000000000000000000000 PUSH1 0x0 MSTORE PUSH1 0x21 PUSH1 0x4 MSTORE PUSH1 0x24 PUSH1 0x0 REVERT JUMPDEST PUSH1 0x3 DUP2 LT PUSH2 0x3C8 JUMPI PUSH2 0x3C7 PUSH2 0x388 JUMP JUMPDEST JUMPDEST POP JUMP JUMPDEST PUSH1 0x0 DUP2 SWAP1 POP PUSH2 0x3D9 DUP3 PUSH2 0x3B7 JUMP JUMPDEST SWAP2 SWAP1 POP JUMP JUMPDEST PUSH1 0x0 PUSH2 0x3E9 DUP3 PUSH2 0x3CB JUMP JUMPDEST SWAP1 POP SWAP2 SWAP1 POP JUMP JUMPDEST PUSH2 0x3F9 DUP2 PUSH2 0x3DE JUMP JUMPDEST DUP3 MSTORE POP POP JUMP JUMPDEST PUSH1 0x0 PUSH1 0x20 DUP3 ADD SWAP1 POP PUSH2 0x414 PUSH1 0x0 DUP4 ADD DUP5 PUSH2 0x3F0 JUMP JUMPDEST SWAP3 SWAP2 POP POP JUMP JUMPDEST PUSH1 0x0 PUSH1 0x40 DUP3 ADD SWAP1 POP PUSH2 0x42F PUSH1 0x0 DUP4 ADD DUP6 PUSH2 0x302 JUMP JUMPDEST PUSH2 0x43C PUSH1 0x20 DUP4 ADD DUP5 PUSH2 0x302 JUMP JUMPDEST SWAP4 SWAP3 POP POP POP JUMP JUMPDEST PUSH1 0x0 DUP2 ISZERO ISZERO SWAP1 POP SWAP2 SWAP1 POP JUMP JUMPDEST PUSH2 0x458 DUP2 PUSH2 0x443 JUMP JUMPDEST DUP3 MSTORE POP POP JUMP JUMPDEST PUSH1 0x0 PUSH1 0x20 DUP3 ADD SWAP1 POP PUSH2 0x473 PUSH1 0x0 DUP4 ADD DUP5 PUSH2 0x44F JUMP JUMPDEST SWAP3 SWAP2 POP POP JUMP INVALID LOG2 PUSH5 0x6970667358 0x22 SLT KECCAK256 LT GASLIMIT 0xA7 0x25 0xCE 0xD0 0xA6 0xAF 0xC1 PUSH16 0xF60DE0CE7D2BF7B70AD7C2E8A74E674A 0x5F 0xDF PUSH32 0xDA3ABE64736F6C63430008120033000000000000000000000000000000000000 "
				},
				"gasEstimates": {
					"creation": {
						"codeDepositCost": "239800",
						"executionCost": "infinite",
						"totalCost": "infinite"
					},
					"external": {
						"_address()": "2587",
						"_bool2()": "2490",
						"_enum()": "2655",
						"_staticArray(uint256)": "infinite",
						"d_address()": "24503",
						"d_bool()": "24386",
						"d_enum()": "24480",
						"d_staticArray()": "infinite",
						"d_student()": "10272",
						"student()": "infinite"
					}
				},
				"methodIdentifiers": {
					"_address()": "18bad217",
					"_bool2()": "a2e7fe8a",
					"_enum()": "30c0826f",
					"_staticArray(uint256)": "12b7b142",
					"d_address()": "68b27217",
					"d_bool()": "9c9b7469",
					"d_enum()": "aad9781c",
					"d_staticArray()": "ae166f23",
					"d_student()": "ca2a9b77",
					"student()": "699450e8"
				}
			},
			"storageLayout": {
				"storage": [
					{
						"astId": 63,
						"contract": "8.变量初始值/InitialValue.sol:DeleteTest",
						"label": "_bool2",
						"offset": 0,
						"slot": "0",
						"type": "t_bool"
					},
					{
						"astId": 69,
						"contract": "8.变量初始值/InitialValue.sol:DeleteTest",
						"label": "_address",
						"offset": 1,
						"slot": "0",
						"type": "t_address"
					},
					{
						"astId": 78,
						"contract": "8.变量初始值/InitialValue.sol:DeleteTest",
						"label": "_enum",
						"offset": 21,
						"slot": "0",
						"type": "t_enum(ActionSet)73"
					},
					{
						"astId": 90,
						"contract": "8.变量初始值/InitialValue.sol:DeleteTest",
						"label": "student",
						"offset": 0,
						"slot": "1",
						"type": "t_struct(Student)83_storage"
					},
					{
						"astId": 103,
						"contract": "8.变量初始值/InitialValue.sol:DeleteTest",
						"label": "_staticArray",
						"offset": 0,
						"slot": "3",
						"type": "t_array(t_uint256)8_storage"
					}
				],
				"types": {
					"t_address": {
						"encoding": "inplace",
						"label": "address",
						"numberOfBytes": "20"
					},
					"t_array(t_uint256)8_storage": {
						"base": "t_uint256",
						"encoding": "inplace",
						"label": "uint256[8]",
						"numberOfBytes": "256"
					},
					"t_bool": {
						"encoding": "inplace",
						"label": "bool",
						"numberOfBytes": "1"
					},
					"t_enum(ActionSet)73": {
						"encoding": "inplace",
						"label": "enum DeleteTest.ActionSet",
						"numberOfBytes": "1"
					},
					"t_struct(Student)83_storage": {
						"encoding": "inplace",
						"label": "struct DeleteTest.Student",
						"members": [
							{
								"astId": 80,
								"contract": "8.变量初始值/InitialValue.sol:DeleteTest",
								"label": "id",
								"offset": 0,
								"slot": "0",
								"type": "t_uint256"
							},
							{
								"astId": 82,
								"contract": "8.变量初始值/InitialValue.sol:DeleteTest",
								"label": "score",
								"offset": 0,
								"slot": "1",
								"type": "t_uint256"
							}
						],
						"numberOfBytes": "64"
					},
					"t_uint256": {
						"encoding": "inplace",
						"label": "uint256",
						"numberOfBytes": "32"
					}
				}
			},
			"userdoc": {
				"kind": "user",
				"methods": {},
				"version": 1
			}
		}
	}
}