{
	"8.变量初始值/InitialValue.sol": {
		"InitialValue": {
			"abi": [
				{
					"inputs": [],
					"name": "_address",
					"outputs": [
						{
							"internalType": "address",
							"name": "",
							"type": "address"
						}
					],
					"stateMutability": "view",
					"type": "function"
				},
				{
					"inputs": [],
					"name": "_bool",
					"outputs": [
						{
							"internalType": "bool",
							"name": "",
							"type": "bool"
						}
					],
					"stateMutability": "view",
					"type": "function"
				},
				{
					"inputs": [],
					"name": "_bool2",
					"outputs": [
						{
							"internalType": "bool",
							"name": "",
							"type": "bool"
						}
					],
					"stateMutability": "view",
					"type": "function"
				},
				{
					"inputs": [],
					"name": "_bytes",
					"outputs": [
						{
							"internalType": "bytes",
							"name": "",
							"type": "bytes"
						}
					],
					"stateMutability": "view",
					"type": "function"
				},
				{
					"inputs": [],
					"name": "_bytes1",
					"outputs": [
						{
							"internalType": "bytes1",
							"name": "",
							"type": "bytes1"
						}
					],
					"stateMutability": "view",
					"type": "function"
				},
				{
					"inputs": [
						{
							"internalType": "uint256",
							"name": "",
							"type": "uint256"
						}
					],
					"name": "_dynamicArray",
					"outputs": [
						{
							"internalType": "uint256",
							"name": "",
							"type": "uint256"
						}
					],
					"stateMutability": "view",
					"type": "function"
				},
				{
					"inputs": [],
					"name": "_enum",
					"outputs": [
						{
							"internalType": "enum InitialValue.ActionSet",
							"name": "",
							"type": "uint8"
						}
					],
					"stateMutability": "view",
					"type": "function"
				},
				{
					"inputs": [],
					"name": "_int",
					"outputs": [
						{
							"internalType": "int256",
							"name": "",
							"type": "int256"
						}
					],
					"stateMutability": "view",
					"type": "function"
				},
				{
					"inputs": [
						{
							"internalType": "uint256",
							"name": "",
							"type": "uint256"
						}
					],
					"name": "_mapping",
					"outputs": [
						{
							"internalType": "address",
							"name": "",
							"type": "address"
						}
					],
					"stateMutability": "view",
					"type": "function"
				},
				{
					"inputs": [
						{
							"internalType": "uint256",
							"name": "",
							"type": "uint256"
						}
					],
					"name": "_staticArray",
					"outputs": [
						{
							"internalType": "uint256",
							"name": "",
							"type": "uint256"
						}
					],
					"stateMutability": "view",
					"type": "function"
				},
				{
					"inputs": [],
					"name": "_string",
					"outputs": [
						{
							"internalType": "string",
							"name": "",
							"type": "string"
						}
					],
					"stateMutability": "view",
					"type": "function"
				},
				{
					"inputs": [],
					"name": "_uint",
					"outputs": [
						{
							"internalType": "uint256",
							"name": "",
							"type": "uint256"
						}
					],
					"stateMutability": "view",
					"type": "function"
				},
				{
					"inputs": [],
					"name": "d",
					"outputs": [],
					"stateMutability": "nonpayable",
					"type": "function"
				},
				{
					"inputs": [],
					"name": "fe",
					"outputs": [],
					"stateMutability": "nonpayable",
					"type": "function"
				},
				{
					"inputs": [],
					"name": "student",
					"outputs": [
						{
							"internalType": "uint256",
							"name": "id",
							"type": "uint256"
						},
						{
							"internalType": "uint256",
							"name": "score",
							"type": "uint256"
						}
					],
					"stateMutability": "view",
					"type": "function"
				}
			],
			"devdoc": {
				"kind": "dev",
				"methods": {},
				"version": 1
			},
			"evm": {
				"assembly": "    /* \"8.\\xe5\\x8f\\x98\\xe9\\x87\\x8f\\xe5\\x88\\x9d\\xe5\\xa7\\x8b\\xe5\\x80\\xbc/InitialValue.sol\":60:1200  contract InitialValue {... */\n  mstore(0x40, 0x80)\n    /* \"8.\\xe5\\x8f\\x98\\xe9\\x87\\x8f\\xe5\\x88\\x9d\\xe5\\xa7\\x8b\\xe5\\x80\\xbc/InitialValue.sol\":1082:1086  true */\n  0x01\n    /* \"8.\\xe5\\x8f\\x98\\xe9\\x87\\x8f\\xe5\\x88\\x9d\\xe5\\xa7\\x8b\\xe5\\x80\\xbc/InitialValue.sol\":1061:1086  bool public _bool2 = true */\n  0x13\n  exp(0x0100, 0x00)\n  dup2\n  sload\n  dup2\n  0xff\n  mul\n  not\n  and\n  swap1\n  dup4\n  iszero\n  iszero\n  mul\n  or\n  swap1\n  sstore\n  pop\n    /* \"8.\\xe5\\x8f\\x98\\xe9\\x87\\x8f\\xe5\\x88\\x9d\\xe5\\xa7\\x8b\\xe5\\x80\\xbc/InitialValue.sol\":60:1200  contract InitialValue {... */\n  callvalue\n  dup1\n  iszero\n  tag_1\n  jumpi\n  0x00\n  dup1\n  revert\ntag_1:\n  pop\n  dataSize(sub_0)\n  dup1\n  dataOffset(sub_0)\n  0x00\n  codecopy\n  0x00\n  return\nstop\n\nsub_0: assembly {\n        /* \"8.\\xe5\\x8f\\x98\\xe9\\x87\\x8f\\xe5\\x88\\x9d\\xe5\\xa7\\x8b\\xe5\\x80\\xbc/InitialValue.sol\":60:1200  contract InitialValue {... */\n      mstore(0x40, 0x80)\n      callvalue\n      dup1\n      iszero\n      tag_1\n      jumpi\n      0x00\n      dup1\n      revert\n    tag_1:\n      pop\n      jumpi(tag_2, lt(calldatasize, 0x04))\n      shr(0xe0, calldataload(0x00))\n      dup1\n      0x86ed6eac\n      gt\n      tag_18\n      jumpi\n      dup1\n      0xa2ba3ee4\n      gt\n      tag_19\n      jumpi\n      dup1\n      0xa2ba3ee4\n      eq\n      tag_14\n      jumpi\n      dup1\n      0xa2e7fe8a\n      eq\n      tag_15\n      jumpi\n      dup1\n      0xaf45869e\n      eq\n      tag_16\n      jumpi\n      dup1\n      0xea8e4fd1\n      eq\n      tag_17\n      jumpi\n      jump(tag_2)\n    tag_19:\n      dup1\n      0x86ed6eac\n      eq\n      tag_10\n      jumpi\n      dup1\n      0x8a054ac2\n      eq\n      tag_11\n      jumpi\n      dup1\n      0x9b267f09\n      eq\n      tag_12\n      jumpi\n      dup1\n      0x9e6ba9c2\n      eq\n      tag_13\n      jumpi\n      jump(tag_2)\n    tag_18:\n      dup1\n      0x29f789e9\n      gt\n      tag_20\n      jumpi\n      dup1\n      0x29f789e9\n      eq\n      tag_6\n      jumpi\n      dup1\n      0x30c0826f\n      eq\n      tag_7\n      jumpi\n      dup1\n      0x4f50ea8d\n      eq\n      tag_8\n      jumpi\n      dup1\n      0x699450e8\n      eq\n      tag_9\n      jumpi\n      jump(tag_2)\n    tag_20:\n      dup1\n      0x12b7b142\n      eq\n      tag_3\n      jumpi\n      dup1\n      0x18bad217\n      eq\n      tag_4\n      jumpi\n      dup1\n      0x2543135b\n      eq\n      tag_5\n      jumpi\n    tag_2:\n      0x00\n      dup1\n      revert\n        /* \"8.\\xe5\\x8f\\x98\\xe9\\x87\\x8f\\xe5\\x88\\x9d\\xe5\\xa7\\x8b\\xe5\\x80\\xbc/InitialValue.sol\":630:657  uint[8] public _staticArray */\n    tag_3:\n      tag_21\n      0x04\n      dup1\n      calldatasize\n      sub\n      dup2\n      add\n      swap1\n      tag_22\n      swap2\n      swap1\n      tag_23\n      jump\t// in\n    tag_22:\n      tag_24\n      jump\t// in\n    tag_21:\n      mload(0x40)\n      tag_25\n      swap2\n      swap1\n      tag_26\n      jump\t// in\n    tag_25:\n      mload(0x40)\n      dup1\n      swap2\n      sub\n      swap1\n      return\n        /* \"8.\\xe5\\x8f\\x98\\xe9\\x87\\x8f\\xe5\\x88\\x9d\\xe5\\xa7\\x8b\\xe5\\x80\\xbc/InitialValue.sol\":243:266  address public _address */\n    tag_4:\n      tag_27\n      tag_28\n      jump\t// in\n    tag_27:\n      mload(0x40)\n      tag_29\n      swap2\n      swap1\n      tag_30\n      jump\t// in\n    tag_29:\n      mload(0x40)\n      dup1\n      swap2\n      sub\n      swap1\n      return\n        /* \"8.\\xe5\\x8f\\x98\\xe9\\x87\\x8f\\xe5\\x88\\x9d\\xe5\\xa7\\x8b\\xe5\\x80\\xbc/InitialValue.sol\":212:229  uint public _uint */\n    tag_5:\n      tag_31\n      tag_32\n      jump\t// in\n    tag_31:\n      mload(0x40)\n      tag_33\n      swap2\n      swap1\n      tag_26\n      jump\t// in\n    tag_33:\n      mload(0x40)\n      dup1\n      swap2\n      sub\n      swap1\n      return\n        /* \"8.\\xe5\\x8f\\x98\\xe9\\x87\\x8f\\xe5\\x88\\x9d\\xe5\\xa7\\x8b\\xe5\\x80\\xbc/InitialValue.sol\":366:387  bytes1 public _bytes1 */\n    tag_6:\n      tag_34\n      tag_35\n      jump\t// in\n    tag_34:\n      mload(0x40)\n      tag_36\n      swap2\n      swap1\n      tag_37\n      jump\t// in\n    tag_36:\n      mload(0x40)\n      dup1\n      swap2\n      sub\n      swap1\n      return\n        /* \"8.\\xe5\\x8f\\x98\\xe9\\x87\\x8f\\xe5\\x88\\x9d\\xe5\\xa7\\x8b\\xe5\\x80\\xbc/InitialValue.sol\":435:457  ActionSet public _enum */\n    tag_7:\n      tag_38\n      tag_39\n      jump\t// in\n    tag_38:\n      mload(0x40)\n      tag_40\n      swap2\n      swap1\n      tag_41\n      jump\t// in\n    tag_40:\n      mload(0x40)\n      dup1\n      swap2\n      sub\n      swap1\n      return\n        /* \"8.\\xe5\\x8f\\x98\\xe9\\x87\\x8f\\xe5\\x88\\x9d\\xe5\\xa7\\x8b\\xe5\\x80\\xbc/InitialValue.sol\":340:359  bytes public _bytes */\n    tag_8:\n      tag_42\n      tag_43\n      jump\t// in\n    tag_42:\n      mload(0x40)\n      tag_44\n      swap2\n      swap1\n      tag_45\n      jump\t// in\n    tag_44:\n      mload(0x40)\n      dup1\n      swap2\n      sub\n      swap1\n      return\n        /* \"8.\\xe5\\x8f\\x98\\xe9\\x87\\x8f\\xe5\\x88\\x9d\\xe5\\xa7\\x8b\\xe5\\x80\\xbc/InitialValue.sol\":1005:1027  Student public student */\n    tag_9:\n      tag_46\n      tag_47\n      jump\t// in\n    tag_46:\n      mload(0x40)\n      tag_48\n      swap3\n      swap2\n      swap1\n      tag_49\n      jump\t// in\n    tag_48:\n      mload(0x40)\n      dup1\n      swap2\n      sub\n      swap1\n      return\n        /* \"8.\\xe5\\x8f\\x98\\xe9\\x87\\x8f\\xe5\\x88\\x9d\\xe5\\xa7\\x8b\\xe5\\x80\\xbc/InitialValue.sol\":546:571  function fe() external {} */\n    tag_10:\n      tag_50\n      tag_51\n      jump\t// in\n    tag_50:\n      stop\n        /* \"8.\\xe5\\x8f\\x98\\xe9\\x87\\x8f\\xe5\\x88\\x9d\\xe5\\xa7\\x8b\\xe5\\x80\\xbc/InitialValue.sol\":1093:1195  function d() external {... */\n    tag_11:\n      tag_52\n      tag_53\n      jump\t// in\n    tag_52:\n      stop\n        /* \"8.\\xe5\\x8f\\x98\\xe9\\x87\\x8f\\xe5\\x88\\x9d\\xe5\\xa7\\x8b\\xe5\\x80\\xbc/InitialValue.sol\":145:166  string public _string */\n    tag_12:\n      tag_54\n      tag_55\n      jump\t// in\n    tag_54:\n      mload(0x40)\n      tag_56\n      swap2\n      swap1\n      tag_57\n      jump\t// in\n    tag_56:\n      mload(0x40)\n      dup1\n      swap2\n      sub\n      swap1\n      return\n        /* \"8.\\xe5\\x8f\\x98\\xe9\\x87\\x8f\\xe5\\x88\\x9d\\xe5\\xa7\\x8b\\xe5\\x80\\xbc/InitialValue.sol\":110:127  bool public _bool */\n    tag_13:\n      tag_58\n      tag_59\n      jump\t// in\n    tag_58:\n      mload(0x40)\n      tag_60\n      swap2\n      swap1\n      tag_61\n      jump\t// in\n    tag_60:\n      mload(0x40)\n      dup1\n      swap2\n      sub\n      swap1\n      return\n        /* \"8.\\xe5\\x8f\\x98\\xe9\\x87\\x8f\\xe5\\x88\\x9d\\xe5\\xa7\\x8b\\xe5\\x80\\xbc/InitialValue.sol\":780:820  mapping(uint => address) public _mapping */\n    tag_14:\n      tag_62\n      0x04\n      dup1\n      calldatasize\n      sub\n      dup2\n      add\n      swap1\n      tag_63\n      swap2\n      swap1\n      tag_23\n      jump\t// in\n    tag_63:\n      tag_64\n      jump\t// in\n    tag_62:\n      mload(0x40)\n      tag_65\n      swap2\n      swap1\n      tag_30\n      jump\t// in\n    tag_65:\n      mload(0x40)\n      dup1\n      swap2\n      sub\n      swap1\n      return\n        /* \"8.\\xe5\\x8f\\x98\\xe9\\x87\\x8f\\xe5\\x88\\x9d\\xe5\\xa7\\x8b\\xe5\\x80\\xbc/InitialValue.sol\":1061:1086  bool public _bool2 = true */\n    tag_15:\n      tag_66\n      tag_67\n      jump\t// in\n    tag_66:\n      mload(0x40)\n      tag_68\n      swap2\n      swap1\n      tag_61\n      jump\t// in\n    tag_68:\n      mload(0x40)\n      dup1\n      swap2\n      sub\n      swap1\n      return\n        /* \"8.\\xe5\\x8f\\x98\\xe9\\x87\\x8f\\xe5\\x88\\x9d\\xe5\\xa7\\x8b\\xe5\\x80\\xbc/InitialValue.sol\":181:196  int public _int */\n    tag_16:\n      tag_69\n      tag_70\n      jump\t// in\n    tag_69:\n      mload(0x40)\n      tag_71\n      swap2\n      swap1\n      tag_72\n      jump\t// in\n    tag_71:\n      mload(0x40)\n      dup1\n      swap2\n      sub\n      swap1\n      return\n        /* \"8.\\xe5\\x8f\\x98\\xe9\\x87\\x8f\\xe5\\x88\\x9d\\xe5\\xa7\\x8b\\xe5\\x80\\xbc/InitialValue.sol\":734:761  uint[] public _dynamicArray */\n    tag_17:\n      tag_73\n      0x04\n      dup1\n      calldatasize\n      sub\n      dup2\n      add\n      swap1\n      tag_74\n      swap2\n      swap1\n      tag_23\n      jump\t// in\n    tag_74:\n      tag_75\n      jump\t// in\n    tag_73:\n      mload(0x40)\n      tag_76\n      swap2\n      swap1\n      tag_26\n      jump\t// in\n    tag_76:\n      mload(0x40)\n      dup1\n      swap2\n      sub\n      swap1\n      return\n        /* \"8.\\xe5\\x8f\\x98\\xe9\\x87\\x8f\\xe5\\x88\\x9d\\xe5\\xa7\\x8b\\xe5\\x80\\xbc/InitialValue.sol\":630:657  uint[8] public _staticArray */\n    tag_24:\n      0x07\n      dup2\n      0x08\n      dup2\n      lt\n      tag_77\n      jumpi\n      0x00\n      dup1\n      revert\n    tag_77:\n      add\n      0x00\n      swap2\n      pop\n      swap1\n      pop\n      sload\n      dup2\n      jump\t// out\n        /* \"8.\\xe5\\x8f\\x98\\xe9\\x87\\x8f\\xe5\\x88\\x9d\\xe5\\xa7\\x8b\\xe5\\x80\\xbc/InitialValue.sol\":243:266  address public _address */\n    tag_28:\n      0x04\n      0x00\n      swap1\n      sload\n      swap1\n      0x0100\n      exp\n      swap1\n      div\n      0xffffffffffffffffffffffffffffffffffffffff\n      and\n      dup2\n      jump\t// out\n        /* \"8.\\xe5\\x8f\\x98\\xe9\\x87\\x8f\\xe5\\x88\\x9d\\xe5\\xa7\\x8b\\xe5\\x80\\xbc/InitialValue.sol\":212:229  uint public _uint */\n    tag_32:\n      sload(0x03)\n      dup2\n      jump\t// out\n        /* \"8.\\xe5\\x8f\\x98\\xe9\\x87\\x8f\\xe5\\x88\\x9d\\xe5\\xa7\\x8b\\xe5\\x80\\xbc/InitialValue.sol\":366:387  bytes1 public _bytes1 */\n    tag_35:\n      0x06\n      0x00\n      swap1\n      sload\n      swap1\n      0x0100\n      exp\n      swap1\n      div\n      0xf8\n      shl\n      dup2\n      jump\t// out\n        /* \"8.\\xe5\\x8f\\x98\\xe9\\x87\\x8f\\xe5\\x88\\x9d\\xe5\\xa7\\x8b\\xe5\\x80\\xbc/InitialValue.sol\":435:457  ActionSet public _enum */\n    tag_39:\n      0x06\n      0x01\n      swap1\n      sload\n      swap1\n      0x0100\n      exp\n      swap1\n      div\n      0xff\n      and\n      dup2\n      jump\t// out\n        /* \"8.\\xe5\\x8f\\x98\\xe9\\x87\\x8f\\xe5\\x88\\x9d\\xe5\\xa7\\x8b\\xe5\\x80\\xbc/InitialValue.sol\":340:359  bytes public _bytes */\n    tag_43:\n      0x05\n      dup1\n      sload\n      tag_79\n      swap1\n      tag_80\n      jump\t// in\n    tag_79:\n      dup1\n      0x1f\n      add\n      0x20\n      dup1\n      swap2\n      div\n      mul\n      0x20\n      add\n      mload(0x40)\n      swap1\n      dup2\n      add\n      0x40\n      mstore\n      dup1\n      swap3\n      swap2\n      swap1\n      dup2\n      dup2\n      mstore\n      0x20\n      add\n      dup3\n      dup1\n      sload\n      tag_81\n      swap1\n      tag_80\n      jump\t// in\n    tag_81:\n      dup1\n      iszero\n      tag_82\n      jumpi\n      dup1\n      0x1f\n      lt\n      tag_83\n      jumpi\n      0x0100\n      dup1\n      dup4\n      sload\n      div\n      mul\n      dup4\n      mstore\n      swap2\n      0x20\n      add\n      swap2\n      jump(tag_82)\n    tag_83:\n      dup3\n      add\n      swap2\n      swap1\n      0x00\n      mstore\n      keccak256(0x00, 0x20)\n      swap1\n    tag_84:\n      dup2\n      sload\n      dup2\n      mstore\n      swap1\n      0x01\n      add\n      swap1\n      0x20\n      add\n      dup1\n      dup4\n      gt\n      tag_84\n      jumpi\n      dup3\n      swap1\n      sub\n      0x1f\n      and\n      dup3\n      add\n      swap2\n    tag_82:\n      pop\n      pop\n      pop\n      pop\n      pop\n      dup2\n      jump\t// out\n        /* \"8.\\xe5\\x8f\\x98\\xe9\\x87\\x8f\\xe5\\x88\\x9d\\xe5\\xa7\\x8b\\xe5\\x80\\xbc/InitialValue.sol\":1005:1027  Student public student */\n    tag_47:\n      0x11\n      dup1\n      0x00\n      add\n      sload\n      swap1\n      dup1\n      0x01\n      add\n      sload\n      swap1\n      pop\n      dup3\n      jump\t// out\n        /* \"8.\\xe5\\x8f\\x98\\xe9\\x87\\x8f\\xe5\\x88\\x9d\\xe5\\xa7\\x8b\\xe5\\x80\\xbc/InitialValue.sol\":546:571  function fe() external {} */\n    tag_51:\n      jump\t// out\n        /* \"8.\\xe5\\x8f\\x98\\xe9\\x87\\x8f\\xe5\\x88\\x9d\\xe5\\xa7\\x8b\\xe5\\x80\\xbc/InitialValue.sol\":1093:1195  function d() external {... */\n    tag_53:\n        /* \"8.\\xe5\\x8f\\x98\\xe9\\x87\\x8f\\xe5\\x88\\x9d\\xe5\\xa7\\x8b\\xe5\\x80\\xbc/InitialValue.sol\":1133:1139  _bool2 */\n      0x13\n      0x00\n        /* \"8.\\xe5\\x8f\\x98\\xe9\\x87\\x8f\\xe5\\x88\\x9d\\xe5\\xa7\\x8b\\xe5\\x80\\xbc/InitialValue.sol\":1126:1139  delete _bool2 */\n      0x0100\n      exp\n      dup2\n      sload\n      swap1\n      0xff\n      mul\n      not\n      and\n      swap1\n      sstore\n        /* \"8.\\xe5\\x8f\\x98\\xe9\\x87\\x8f\\xe5\\x88\\x9d\\xe5\\xa7\\x8b\\xe5\\x80\\xbc/InitialValue.sol\":1093:1195  function d() external {... */\n      jump\t// out\n        /* \"8.\\xe5\\x8f\\x98\\xe9\\x87\\x8f\\xe5\\x88\\x9d\\xe5\\xa7\\x8b\\xe5\\x80\\xbc/InitialValue.sol\":145:166  string public _string */\n    tag_55:\n      0x01\n      dup1\n      sload\n      tag_87\n      swap1\n      tag_80\n      jump\t// in\n    tag_87:\n      dup1\n      0x1f\n      add\n      0x20\n      dup1\n      swap2\n      div\n      mul\n      0x20\n      add\n      mload(0x40)\n      swap1\n      dup2\n      add\n      0x40\n      mstore\n      dup1\n      swap3\n      swap2\n      swap1\n      dup2\n      dup2\n      mstore\n      0x20\n      add\n      dup3\n      dup1\n      sload\n      tag_88\n      swap1\n      tag_80\n      jump\t// in\n    tag_88:\n      dup1\n      iszero\n      tag_89\n      jumpi\n      dup1\n      0x1f\n      lt\n      tag_90\n      jumpi\n      0x0100\n      dup1\n      dup4\n      sload\n      div\n      mul\n      dup4\n      mstore\n      swap2\n      0x20\n      add\n      swap2\n      jump(tag_89)\n    tag_90:\n      dup3\n      add\n      swap2\n      swap1\n      0x00\n      mstore\n      keccak256(0x00, 0x20)\n      swap1\n    tag_91:\n      dup2\n      sload\n      dup2\n      mstore\n      swap1\n      0x01\n      add\n      swap1\n      0x20\n      add\n      dup1\n      dup4\n      gt\n      tag_91\n      jumpi\n      dup3\n      swap1\n      sub\n      0x1f\n      and\n      dup3\n      add\n      swap2\n    tag_89:\n      pop\n      pop\n      pop\n      pop\n      pop\n      dup2\n      jump\t// out\n        /* \"8.\\xe5\\x8f\\x98\\xe9\\x87\\x8f\\xe5\\x88\\x9d\\xe5\\xa7\\x8b\\xe5\\x80\\xbc/InitialValue.sol\":110:127  bool public _bool */\n    tag_59:\n      0x00\n      dup1\n      sload\n      swap1\n      0x0100\n      exp\n      swap1\n      div\n      0xff\n      and\n      dup2\n      jump\t// out\n        /* \"8.\\xe5\\x8f\\x98\\xe9\\x87\\x8f\\xe5\\x88\\x9d\\xe5\\xa7\\x8b\\xe5\\x80\\xbc/InitialValue.sol\":780:820  mapping(uint => address) public _mapping */\n    tag_64:\n      mstore(0x20, 0x10)\n      dup1\n      0x00\n      mstore\n      keccak256(0x00, 0x40)\n      0x00\n      swap2\n      pop\n      sload\n      swap1\n      0x0100\n      exp\n      swap1\n      div\n      0xffffffffffffffffffffffffffffffffffffffff\n      and\n      dup2\n      jump\t// out\n        /* \"8.\\xe5\\x8f\\x98\\xe9\\x87\\x8f\\xe5\\x88\\x9d\\xe5\\xa7\\x8b\\xe5\\x80\\xbc/InitialValue.sol\":1061:1086  bool public _bool2 = true */\n    tag_67:\n      0x13\n      0x00\n      swap1\n      sload\n      swap1\n      0x0100\n      exp\n      swap1\n      div\n      0xff\n      and\n      dup2\n      jump\t// out\n        /* \"8.\\xe5\\x8f\\x98\\xe9\\x87\\x8f\\xe5\\x88\\x9d\\xe5\\xa7\\x8b\\xe5\\x80\\xbc/InitialValue.sol\":181:196  int public _int */\n    tag_70:\n      sload(0x02)\n      dup2\n      jump\t// out\n        /* \"8.\\xe5\\x8f\\x98\\xe9\\x87\\x8f\\xe5\\x88\\x9d\\xe5\\xa7\\x8b\\xe5\\x80\\xbc/InitialValue.sol\":734:761  uint[] public _dynamicArray */\n    tag_75:\n      0x0f\n      dup2\n      dup2\n      sload\n      dup2\n      lt\n      tag_92\n      jumpi\n      0x00\n      dup1\n      revert\n    tag_92:\n      swap1\n      0x00\n      mstore\n      keccak256(0x00, 0x20)\n      add\n      0x00\n      swap2\n      pop\n      swap1\n      pop\n      sload\n      dup2\n      jump\t// out\n        /* \"#utility.yul\":88:205   */\n    tag_95:\n        /* \"#utility.yul\":197:198   */\n      0x00\n        /* \"#utility.yul\":194:195   */\n      dup1\n        /* \"#utility.yul\":187:199   */\n      revert\n        /* \"#utility.yul\":334:411   */\n    tag_97:\n        /* \"#utility.yul\":371:378   */\n      0x00\n        /* \"#utility.yul\":400:405   */\n      dup2\n        /* \"#utility.yul\":389:405   */\n      swap1\n      pop\n        /* \"#utility.yul\":334:411   */\n      swap2\n      swap1\n      pop\n      jump\t// out\n        /* \"#utility.yul\":417:539   */\n    tag_98:\n        /* \"#utility.yul\":490:514   */\n      tag_130\n        /* \"#utility.yul\":508:513   */\n      dup2\n        /* \"#utility.yul\":490:514   */\n      tag_97\n      jump\t// in\n    tag_130:\n        /* \"#utility.yul\":483:488   */\n      dup2\n        /* \"#utility.yul\":480:515   */\n      eq\n        /* \"#utility.yul\":470:533   */\n      tag_131\n      jumpi\n        /* \"#utility.yul\":529:530   */\n      0x00\n        /* \"#utility.yul\":526:527   */\n      dup1\n        /* \"#utility.yul\":519:531   */\n      revert\n        /* \"#utility.yul\":470:533   */\n    tag_131:\n        /* \"#utility.yul\":417:539   */\n      pop\n      jump\t// out\n        /* \"#utility.yul\":545:684   */\n    tag_99:\n        /* \"#utility.yul\":591:596   */\n      0x00\n        /* \"#utility.yul\":629:635   */\n      dup2\n        /* \"#utility.yul\":616:636   */\n      calldataload\n        /* \"#utility.yul\":607:636   */\n      swap1\n      pop\n        /* \"#utility.yul\":645:678   */\n      tag_133\n        /* \"#utility.yul\":672:677   */\n      dup2\n        /* \"#utility.yul\":645:678   */\n      tag_98\n      jump\t// in\n    tag_133:\n        /* \"#utility.yul\":545:684   */\n      swap3\n      swap2\n      pop\n      pop\n      jump\t// out\n        /* \"#utility.yul\":690:1019   */\n    tag_23:\n        /* \"#utility.yul\":749:755   */\n      0x00\n        /* \"#utility.yul\":798:800   */\n      0x20\n        /* \"#utility.yul\":786:795   */\n      dup3\n        /* \"#utility.yul\":777:784   */\n      dup5\n        /* \"#utility.yul\":773:796   */\n      sub\n        /* \"#utility.yul\":769:801   */\n      slt\n        /* \"#utility.yul\":766:885   */\n      iszero\n      tag_135\n      jumpi\n        /* \"#utility.yul\":804:883   */\n      tag_136\n      tag_95\n      jump\t// in\n    tag_136:\n        /* \"#utility.yul\":766:885   */\n    tag_135:\n        /* \"#utility.yul\":924:925   */\n      0x00\n        /* \"#utility.yul\":949:1002   */\n      tag_137\n        /* \"#utility.yul\":994:1001   */\n      dup5\n        /* \"#utility.yul\":985:991   */\n      dup3\n        /* \"#utility.yul\":974:983   */\n      dup6\n        /* \"#utility.yul\":970:992   */\n      add\n        /* \"#utility.yul\":949:1002   */\n      tag_99\n      jump\t// in\n    tag_137:\n        /* \"#utility.yul\":939:1002   */\n      swap2\n      pop\n        /* \"#utility.yul\":895:1012   */\n      pop\n        /* \"#utility.yul\":690:1019   */\n      swap3\n      swap2\n      pop\n      pop\n      jump\t// out\n        /* \"#utility.yul\":1025:1143   */\n    tag_100:\n        /* \"#utility.yul\":1112:1136   */\n      tag_139\n        /* \"#utility.yul\":1130:1135   */\n      dup2\n        /* \"#utility.yul\":1112:1136   */\n      tag_97\n      jump\t// in\n    tag_139:\n        /* \"#utility.yul\":1107:1110   */\n      dup3\n        /* \"#utility.yul\":1100:1137   */\n      mstore\n        /* \"#utility.yul\":1025:1143   */\n      pop\n      pop\n      jump\t// out\n        /* \"#utility.yul\":1149:1371   */\n    tag_26:\n        /* \"#utility.yul\":1242:1246   */\n      0x00\n        /* \"#utility.yul\":1280:1282   */\n      0x20\n        /* \"#utility.yul\":1269:1278   */\n      dup3\n        /* \"#utility.yul\":1265:1283   */\n      add\n        /* \"#utility.yul\":1257:1283   */\n      swap1\n      pop\n        /* \"#utility.yul\":1293:1364   */\n      tag_141\n        /* \"#utility.yul\":1361:1362   */\n      0x00\n        /* \"#utility.yul\":1350:1359   */\n      dup4\n        /* \"#utility.yul\":1346:1363   */\n      add\n        /* \"#utility.yul\":1337:1343   */\n      dup5\n        /* \"#utility.yul\":1293:1364   */\n      tag_100\n      jump\t// in\n    tag_141:\n        /* \"#utility.yul\":1149:1371   */\n      swap3\n      swap2\n      pop\n      pop\n      jump\t// out\n        /* \"#utility.yul\":1377:1503   */\n    tag_101:\n        /* \"#utility.yul\":1414:1421   */\n      0x00\n        /* \"#utility.yul\":1454:1496   */\n      0xffffffffffffffffffffffffffffffffffffffff\n        /* \"#utility.yul\":1447:1452   */\n      dup3\n        /* \"#utility.yul\":1443:1497   */\n      and\n        /* \"#utility.yul\":1432:1497   */\n      swap1\n      pop\n        /* \"#utility.yul\":1377:1503   */\n      swap2\n      swap1\n      pop\n      jump\t// out\n        /* \"#utility.yul\":1509:1605   */\n    tag_102:\n        /* \"#utility.yul\":1546:1553   */\n      0x00\n        /* \"#utility.yul\":1575:1599   */\n      tag_144\n        /* \"#utility.yul\":1593:1598   */\n      dup3\n        /* \"#utility.yul\":1575:1599   */\n      tag_101\n      jump\t// in\n    tag_144:\n        /* \"#utility.yul\":1564:1599   */\n      swap1\n      pop\n        /* \"#utility.yul\":1509:1605   */\n      swap2\n      swap1\n      pop\n      jump\t// out\n        /* \"#utility.yul\":1611:1729   */\n    tag_103:\n        /* \"#utility.yul\":1698:1722   */\n      tag_146\n        /* \"#utility.yul\":1716:1721   */\n      dup2\n        /* \"#utility.yul\":1698:1722   */\n      tag_102\n      jump\t// in\n    tag_146:\n        /* \"#utility.yul\":1693:1696   */\n      dup3\n        /* \"#utility.yul\":1686:1723   */\n      mstore\n        /* \"#utility.yul\":1611:1729   */\n      pop\n      pop\n      jump\t// out\n        /* \"#utility.yul\":1735:1957   */\n    tag_30:\n        /* \"#utility.yul\":1828:1832   */\n      0x00\n        /* \"#utility.yul\":1866:1868   */\n      0x20\n        /* \"#utility.yul\":1855:1864   */\n      dup3\n        /* \"#utility.yul\":1851:1869   */\n      add\n        /* \"#utility.yul\":1843:1869   */\n      swap1\n      pop\n        /* \"#utility.yul\":1879:1950   */\n      tag_148\n        /* \"#utility.yul\":1947:1948   */\n      0x00\n        /* \"#utility.yul\":1936:1945   */\n      dup4\n        /* \"#utility.yul\":1932:1949   */\n      add\n        /* \"#utility.yul\":1923:1929   */\n      dup5\n        /* \"#utility.yul\":1879:1950   */\n      tag_103\n      jump\t// in\n    tag_148:\n        /* \"#utility.yul\":1735:1957   */\n      swap3\n      swap2\n      pop\n      pop\n      jump\t// out\n        /* \"#utility.yul\":1963:2112   */\n    tag_104:\n        /* \"#utility.yul\":1999:2006   */\n      0x00\n        /* \"#utility.yul\":2039:2105   */\n      0xff00000000000000000000000000000000000000000000000000000000000000\n        /* \"#utility.yul\":2032:2037   */\n      dup3\n        /* \"#utility.yul\":2028:2106   */\n      and\n        /* \"#utility.yul\":2017:2106   */\n      swap1\n      pop\n        /* \"#utility.yul\":1963:2112   */\n      swap2\n      swap1\n      pop\n      jump\t// out\n        /* \"#utility.yul\":2118:2233   */\n    tag_105:\n        /* \"#utility.yul\":2203:2226   */\n      tag_151\n        /* \"#utility.yul\":2220:2225   */\n      dup2\n        /* \"#utility.yul\":2203:2226   */\n      tag_104\n      jump\t// in\n    tag_151:\n        /* \"#utility.yul\":2198:2201   */\n      dup3\n        /* \"#utility.yul\":2191:2227   */\n      mstore\n        /* \"#utility.yul\":2118:2233   */\n      pop\n      pop\n      jump\t// out\n        /* \"#utility.yul\":2239:2457   */\n    tag_37:\n        /* \"#utility.yul\":2330:2334   */\n      0x00\n        /* \"#utility.yul\":2368:2370   */\n      0x20\n        /* \"#utility.yul\":2357:2366   */\n      dup3\n        /* \"#utility.yul\":2353:2371   */\n      add\n        /* \"#utility.yul\":2345:2371   */\n      swap1\n      pop\n        /* \"#utility.yul\":2381:2450   */\n      tag_153\n        /* \"#utility.yul\":2447:2448   */\n      0x00\n        /* \"#utility.yul\":2436:2445   */\n      dup4\n        /* \"#utility.yul\":2432:2449   */\n      add\n        /* \"#utility.yul\":2423:2429   */\n      dup5\n        /* \"#utility.yul\":2381:2450   */\n      tag_105\n      jump\t// in\n    tag_153:\n        /* \"#utility.yul\":2239:2457   */\n      swap3\n      swap2\n      pop\n      pop\n      jump\t// out\n        /* \"#utility.yul\":2463:2643   */\n    tag_106:\n        /* \"#utility.yul\":2511:2588   */\n      0x4e487b7100000000000000000000000000000000000000000000000000000000\n        /* \"#utility.yul\":2508:2509   */\n      0x00\n        /* \"#utility.yul\":2501:2589   */\n      mstore\n        /* \"#utility.yul\":2608:2612   */\n      0x21\n        /* \"#utility.yul\":2605:2606   */\n      0x04\n        /* \"#utility.yul\":2598:2613   */\n      mstore\n        /* \"#utility.yul\":2632:2636   */\n      0x24\n        /* \"#utility.yul\":2629:2630   */\n      0x00\n        /* \"#utility.yul\":2622:2637   */\n      revert\n        /* \"#utility.yul\":2649:2766   */\n    tag_107:\n        /* \"#utility.yul\":2734:2735   */\n      0x03\n        /* \"#utility.yul\":2727:2732   */\n      dup2\n        /* \"#utility.yul\":2724:2736   */\n      lt\n        /* \"#utility.yul\":2714:2760   */\n      tag_156\n      jumpi\n        /* \"#utility.yul\":2740:2758   */\n      tag_157\n      tag_106\n      jump\t// in\n    tag_157:\n        /* \"#utility.yul\":2714:2760   */\n    tag_156:\n        /* \"#utility.yul\":2649:2766   */\n      pop\n      jump\t// out\n        /* \"#utility.yul\":2772:2907   */\n    tag_108:\n        /* \"#utility.yul\":2821:2828   */\n      0x00\n        /* \"#utility.yul\":2850:2855   */\n      dup2\n        /* \"#utility.yul\":2839:2855   */\n      swap1\n      pop\n        /* \"#utility.yul\":2856:2901   */\n      tag_159\n        /* \"#utility.yul\":2895:2900   */\n      dup3\n        /* \"#utility.yul\":2856:2901   */\n      tag_107\n      jump\t// in\n    tag_159:\n        /* \"#utility.yul\":2772:2907   */\n      swap2\n      swap1\n      pop\n      jump\t// out\n        /* \"#utility.yul\":2913:3048   */\n    tag_109:\n        /* \"#utility.yul\":2973:2982   */\n      0x00\n        /* \"#utility.yul\":3006:3042   */\n      tag_161\n        /* \"#utility.yul\":3036:3041   */\n      dup3\n        /* \"#utility.yul\":3006:3042   */\n      tag_108\n      jump\t// in\n    tag_161:\n        /* \"#utility.yul\":2993:3042   */\n      swap1\n      pop\n        /* \"#utility.yul\":2913:3048   */\n      swap2\n      swap1\n      pop\n      jump\t// out\n        /* \"#utility.yul\":3054:3205   */\n    tag_110:\n        /* \"#utility.yul\":3151:3198   */\n      tag_163\n        /* \"#utility.yul\":3192:3197   */\n      dup2\n        /* \"#utility.yul\":3151:3198   */\n      tag_109\n      jump\t// in\n    tag_163:\n        /* \"#utility.yul\":3146:3149   */\n      dup3\n        /* \"#utility.yul\":3139:3199   */\n      mstore\n        /* \"#utility.yul\":3054:3205   */\n      pop\n      pop\n      jump\t// out\n        /* \"#utility.yul\":3211:3453   */\n    tag_41:\n        /* \"#utility.yul\":3314:3318   */\n      0x00\n        /* \"#utility.yul\":3352:3354   */\n      0x20\n        /* \"#utility.yul\":3341:3350   */\n      dup3\n        /* \"#utility.yul\":3337:3355   */\n      add\n        /* \"#utility.yul\":3329:3355   */\n      swap1\n      pop\n        /* \"#utility.yul\":3365:3446   */\n      tag_165\n        /* \"#utility.yul\":3443:3444   */\n      0x00\n        /* \"#utility.yul\":3432:3441   */\n      dup4\n        /* \"#utility.yul\":3428:3445   */\n      add\n        /* \"#utility.yul\":3419:3425   */\n      dup5\n        /* \"#utility.yul\":3365:3446   */\n      tag_110\n      jump\t// in\n    tag_165:\n        /* \"#utility.yul\":3211:3453   */\n      swap3\n      swap2\n      pop\n      pop\n      jump\t// out\n        /* \"#utility.yul\":3459:3557   */\n    tag_111:\n        /* \"#utility.yul\":3510:3516   */\n      0x00\n        /* \"#utility.yul\":3544:3549   */\n      dup2\n        /* \"#utility.yul\":3538:3550   */\n      mload\n        /* \"#utility.yul\":3528:3550   */\n      swap1\n      pop\n        /* \"#utility.yul\":3459:3557   */\n      swap2\n      swap1\n      pop\n      jump\t// out\n        /* \"#utility.yul\":3563:3731   */\n    tag_112:\n        /* \"#utility.yul\":3646:3657   */\n      0x00\n        /* \"#utility.yul\":3680:3686   */\n      dup3\n        /* \"#utility.yul\":3675:3678   */\n      dup3\n        /* \"#utility.yul\":3668:3687   */\n      mstore\n        /* \"#utility.yul\":3720:3724   */\n      0x20\n        /* \"#utility.yul\":3715:3718   */\n      dup3\n        /* \"#utility.yul\":3711:3725   */\n      add\n        /* \"#utility.yul\":3696:3725   */\n      swap1\n      pop\n        /* \"#utility.yul\":3563:3731   */\n      swap3\n      swap2\n      pop\n      pop\n      jump\t// out\n        /* \"#utility.yul\":3737:3983   */\n    tag_113:\n        /* \"#utility.yul\":3818:3819   */\n      0x00\n        /* \"#utility.yul\":3828:3941   */\n    tag_169:\n        /* \"#utility.yul\":3842:3848   */\n      dup4\n        /* \"#utility.yul\":3839:3840   */\n      dup2\n        /* \"#utility.yul\":3836:3849   */\n      lt\n        /* \"#utility.yul\":3828:3941   */\n      iszero\n      tag_171\n      jumpi\n        /* \"#utility.yul\":3927:3928   */\n      dup1\n        /* \"#utility.yul\":3922:3925   */\n      dup3\n        /* \"#utility.yul\":3918:3929   */\n      add\n        /* \"#utility.yul\":3912:3930   */\n      mload\n        /* \"#utility.yul\":3908:3909   */\n      dup2\n        /* \"#utility.yul\":3903:3906   */\n      dup5\n        /* \"#utility.yul\":3899:3910   */\n      add\n        /* \"#utility.yul\":3892:3931   */\n      mstore\n        /* \"#utility.yul\":3864:3866   */\n      0x20\n        /* \"#utility.yul\":3861:3862   */\n      dup2\n        /* \"#utility.yul\":3857:3867   */\n      add\n        /* \"#utility.yul\":3852:3867   */\n      swap1\n      pop\n        /* \"#utility.yul\":3828:3941   */\n      jump(tag_169)\n    tag_171:\n        /* \"#utility.yul\":3975:3976   */\n      0x00\n        /* \"#utility.yul\":3966:3972   */\n      dup5\n        /* \"#utility.yul\":3961:3964   */\n      dup5\n        /* \"#utility.yul\":3957:3973   */\n      add\n        /* \"#utility.yul\":3950:3977   */\n      mstore\n        /* \"#utility.yul\":3799:3983   */\n      pop\n        /* \"#utility.yul\":3737:3983   */\n      pop\n      pop\n      pop\n      jump\t// out\n        /* \"#utility.yul\":3989:4091   */\n    tag_114:\n        /* \"#utility.yul\":4030:4036   */\n      0x00\n        /* \"#utility.yul\":4081:4083   */\n      0x1f\n        /* \"#utility.yul\":4077:4084   */\n      not\n        /* \"#utility.yul\":4072:4074   */\n      0x1f\n        /* \"#utility.yul\":4065:4070   */\n      dup4\n        /* \"#utility.yul\":4061:4075   */\n      add\n        /* \"#utility.yul\":4057:4085   */\n      and\n        /* \"#utility.yul\":4047:4085   */\n      swap1\n      pop\n        /* \"#utility.yul\":3989:4091   */\n      swap2\n      swap1\n      pop\n      jump\t// out\n        /* \"#utility.yul\":4097:4470   */\n    tag_115:\n        /* \"#utility.yul\":4183:4186   */\n      0x00\n        /* \"#utility.yul\":4211:4249   */\n      tag_174\n        /* \"#utility.yul\":4243:4248   */\n      dup3\n        /* \"#utility.yul\":4211:4249   */\n      tag_111\n      jump\t// in\n    tag_174:\n        /* \"#utility.yul\":4265:4335   */\n      tag_175\n        /* \"#utility.yul\":4328:4334   */\n      dup2\n        /* \"#utility.yul\":4323:4326   */\n      dup6\n        /* \"#utility.yul\":4265:4335   */\n      tag_112\n      jump\t// in\n    tag_175:\n        /* \"#utility.yul\":4258:4335   */\n      swap4\n      pop\n        /* \"#utility.yul\":4344:4409   */\n      tag_176\n        /* \"#utility.yul\":4402:4408   */\n      dup2\n        /* \"#utility.yul\":4397:4400   */\n      dup6\n        /* \"#utility.yul\":4390:4394   */\n      0x20\n        /* \"#utility.yul\":4383:4388   */\n      dup7\n        /* \"#utility.yul\":4379:4395   */\n      add\n        /* \"#utility.yul\":4344:4409   */\n      tag_113\n      jump\t// in\n    tag_176:\n        /* \"#utility.yul\":4434:4463   */\n      tag_177\n        /* \"#utility.yul\":4456:4462   */\n      dup2\n        /* \"#utility.yul\":4434:4463   */\n      tag_114\n      jump\t// in\n    tag_177:\n        /* \"#utility.yul\":4429:4432   */\n      dup5\n        /* \"#utility.yul\":4425:4464   */\n      add\n        /* \"#utility.yul\":4418:4464   */\n      swap2\n      pop\n        /* \"#utility.yul\":4187:4470   */\n      pop\n        /* \"#utility.yul\":4097:4470   */\n      swap3\n      swap2\n      pop\n      pop\n      jump\t// out\n        /* \"#utility.yul\":4476:4785   */\n    tag_45:\n        /* \"#utility.yul\":4587:4591   */\n      0x00\n        /* \"#utility.yul\":4625:4627   */\n      0x20\n        /* \"#utility.yul\":4614:4623   */\n      dup3\n        /* \"#utility.yul\":4610:4628   */\n      add\n        /* \"#utility.yul\":4602:4628   */\n      swap1\n      pop\n        /* \"#utility.yul\":4674:4683   */\n      dup2\n        /* \"#utility.yul\":4668:4672   */\n      dup2\n        /* \"#utility.yul\":4664:4684   */\n      sub\n        /* \"#utility.yul\":4660:4661   */\n      0x00\n        /* \"#utility.yul\":4649:4658   */\n      dup4\n        /* \"#utility.yul\":4645:4662   */\n      add\n        /* \"#utility.yul\":4638:4685   */\n      mstore\n        /* \"#utility.yul\":4702:4778   */\n      tag_179\n        /* \"#utility.yul\":4773:4777   */\n      dup2\n        /* \"#utility.yul\":4764:4770   */\n      dup5\n        /* \"#utility.yul\":4702:4778   */\n      tag_115\n      jump\t// in\n    tag_179:\n        /* \"#utility.yul\":4694:4778   */\n      swap1\n      pop\n        /* \"#utility.yul\":4476:4785   */\n      swap3\n      swap2\n      pop\n      pop\n      jump\t// out\n        /* \"#utility.yul\":4791:5123   */\n    tag_49:\n        /* \"#utility.yul\":4912:4916   */\n      0x00\n        /* \"#utility.yul\":4950:4952   */\n      0x40\n        /* \"#utility.yul\":4939:4948   */\n      dup3\n        /* \"#utility.yul\":4935:4953   */\n      add\n        /* \"#utility.yul\":4927:4953   */\n      swap1\n      pop\n        /* \"#utility.yul\":4963:5034   */\n      tag_181\n        /* \"#utility.yul\":5031:5032   */\n      0x00\n        /* \"#utility.yul\":5020:5029   */\n      dup4\n        /* \"#utility.yul\":5016:5033   */\n      add\n        /* \"#utility.yul\":5007:5013   */\n      dup6\n        /* \"#utility.yul\":4963:5034   */\n      tag_100\n      jump\t// in\n    tag_181:\n        /* \"#utility.yul\":5044:5116   */\n      tag_182\n        /* \"#utility.yul\":5112:5114   */\n      0x20\n        /* \"#utility.yul\":5101:5110   */\n      dup4\n        /* \"#utility.yul\":5097:5115   */\n      add\n        /* \"#utility.yul\":5088:5094   */\n      dup5\n        /* \"#utility.yul\":5044:5116   */\n      tag_100\n      jump\t// in\n    tag_182:\n        /* \"#utility.yul\":4791:5123   */\n      swap4\n      swap3\n      pop\n      pop\n      pop\n      jump\t// out\n        /* \"#utility.yul\":5129:5228   */\n    tag_116:\n        /* \"#utility.yul\":5181:5187   */\n      0x00\n        /* \"#utility.yul\":5215:5220   */\n      dup2\n        /* \"#utility.yul\":5209:5221   */\n      mload\n        /* \"#utility.yul\":5199:5221   */\n      swap1\n      pop\n        /* \"#utility.yul\":5129:5228   */\n      swap2\n      swap1\n      pop\n      jump\t// out\n        /* \"#utility.yul\":5234:5403   */\n    tag_117:\n        /* \"#utility.yul\":5318:5329   */\n      0x00\n        /* \"#utility.yul\":5352:5358   */\n      dup3\n        /* \"#utility.yul\":5347:5350   */\n      dup3\n        /* \"#utility.yul\":5340:5359   */\n      mstore\n        /* \"#utility.yul\":5392:5396   */\n      0x20\n        /* \"#utility.yul\":5387:5390   */\n      dup3\n        /* \"#utility.yul\":5383:5397   */\n      add\n        /* \"#utility.yul\":5368:5397   */\n      swap1\n      pop\n        /* \"#utility.yul\":5234:5403   */\n      swap3\n      swap2\n      pop\n      pop\n      jump\t// out\n        /* \"#utility.yul\":5409:5786   */\n    tag_118:\n        /* \"#utility.yul\":5497:5500   */\n      0x00\n        /* \"#utility.yul\":5525:5564   */\n      tag_186\n        /* \"#utility.yul\":5558:5563   */\n      dup3\n        /* \"#utility.yul\":5525:5564   */\n      tag_116\n      jump\t// in\n    tag_186:\n        /* \"#utility.yul\":5580:5651   */\n      tag_187\n        /* \"#utility.yul\":5644:5650   */\n      dup2\n        /* \"#utility.yul\":5639:5642   */\n      dup6\n        /* \"#utility.yul\":5580:5651   */\n      tag_117\n      jump\t// in\n    tag_187:\n        /* \"#utility.yul\":5573:5651   */\n      swap4\n      pop\n        /* \"#utility.yul\":5660:5725   */\n      tag_188\n        /* \"#utility.yul\":5718:5724   */\n      dup2\n        /* \"#utility.yul\":5713:5716   */\n      dup6\n        /* \"#utility.yul\":5706:5710   */\n      0x20\n        /* \"#utility.yul\":5699:5704   */\n      dup7\n        /* \"#utility.yul\":5695:5711   */\n      add\n        /* \"#utility.yul\":5660:5725   */\n      tag_113\n      jump\t// in\n    tag_188:\n        /* \"#utility.yul\":5750:5779   */\n      tag_189\n        /* \"#utility.yul\":5772:5778   */\n      dup2\n        /* \"#utility.yul\":5750:5779   */\n      tag_114\n      jump\t// in\n    tag_189:\n        /* \"#utility.yul\":5745:5748   */\n      dup5\n        /* \"#utility.yul\":5741:5780   */\n      add\n        /* \"#utility.yul\":5734:5780   */\n      swap2\n      pop\n        /* \"#utility.yul\":5501:5786   */\n      pop\n        /* \"#utility.yul\":5409:5786   */\n      swap3\n      swap2\n      pop\n      pop\n      jump\t// out\n        /* \"#utility.yul\":5792:6105   */\n    tag_57:\n        /* \"#utility.yul\":5905:5909   */\n      0x00\n        /* \"#utility.yul\":5943:5945   */\n      0x20\n        /* \"#utility.yul\":5932:5941   */\n      dup3\n        /* \"#utility.yul\":5928:5946   */\n      add\n        /* \"#utility.yul\":5920:5946   */\n      swap1\n      pop\n        /* \"#utility.yul\":5992:6001   */\n      dup2\n        /* \"#utility.yul\":5986:5990   */\n      dup2\n        /* \"#utility.yul\":5982:6002   */\n      sub\n        /* \"#utility.yul\":5978:5979   */\n      0x00\n        /* \"#utility.yul\":5967:5976   */\n      dup4\n        /* \"#utility.yul\":5963:5980   */\n      add\n        /* \"#utility.yul\":5956:6003   */\n      mstore\n        /* \"#utility.yul\":6020:6098   */\n      tag_191\n        /* \"#utility.yul\":6093:6097   */\n      dup2\n        /* \"#utility.yul\":6084:6090   */\n      dup5\n        /* \"#utility.yul\":6020:6098   */\n      tag_118\n      jump\t// in\n    tag_191:\n        /* \"#utility.yul\":6012:6098   */\n      swap1\n      pop\n        /* \"#utility.yul\":5792:6105   */\n      swap3\n      swap2\n      pop\n      pop\n      jump\t// out\n        /* \"#utility.yul\":6111:6201   */\n    tag_119:\n        /* \"#utility.yul\":6145:6152   */\n      0x00\n        /* \"#utility.yul\":6188:6193   */\n      dup2\n        /* \"#utility.yul\":6181:6194   */\n      iszero\n        /* \"#utility.yul\":6174:6195   */\n      iszero\n        /* \"#utility.yul\":6163:6195   */\n      swap1\n      pop\n        /* \"#utility.yul\":6111:6201   */\n      swap2\n      swap1\n      pop\n      jump\t// out\n        /* \"#utility.yul\":6207:6316   */\n    tag_120:\n        /* \"#utility.yul\":6288:6309   */\n      tag_194\n        /* \"#utility.yul\":6303:6308   */\n      dup2\n        /* \"#utility.yul\":6288:6309   */\n      tag_119\n      jump\t// in\n    tag_194:\n        /* \"#utility.yul\":6283:6286   */\n      dup3\n        /* \"#utility.yul\":6276:6310   */\n      mstore\n        /* \"#utility.yul\":6207:6316   */\n      pop\n      pop\n      jump\t// out\n        /* \"#utility.yul\":6322:6532   */\n    tag_61:\n        /* \"#utility.yul\":6409:6413   */\n      0x00\n        /* \"#utility.yul\":6447:6449   */\n      0x20\n        /* \"#utility.yul\":6436:6445   */\n      dup3\n        /* \"#utility.yul\":6432:6450   */\n      add\n        /* \"#utility.yul\":6424:6450   */\n      swap1\n      pop\n        /* \"#utility.yul\":6460:6525   */\n      tag_196\n        /* \"#utility.yul\":6522:6523   */\n      0x00\n        /* \"#utility.yul\":6511:6520   */\n      dup4\n        /* \"#utility.yul\":6507:6524   */\n      add\n        /* \"#utility.yul\":6498:6504   */\n      dup5\n        /* \"#utility.yul\":6460:6525   */\n      tag_120\n      jump\t// in\n    tag_196:\n        /* \"#utility.yul\":6322:6532   */\n      swap3\n      swap2\n      pop\n      pop\n      jump\t// out\n        /* \"#utility.yul\":6538:6614   */\n    tag_121:\n        /* \"#utility.yul\":6574:6581   */\n      0x00\n        /* \"#utility.yul\":6603:6608   */\n      dup2\n        /* \"#utility.yul\":6592:6608   */\n      swap1\n      pop\n        /* \"#utility.yul\":6538:6614   */\n      swap2\n      swap1\n      pop\n      jump\t// out\n        /* \"#utility.yul\":6620:6735   */\n    tag_122:\n        /* \"#utility.yul\":6705:6728   */\n      tag_199\n        /* \"#utility.yul\":6722:6727   */\n      dup2\n        /* \"#utility.yul\":6705:6728   */\n      tag_121\n      jump\t// in\n    tag_199:\n        /* \"#utility.yul\":6700:6703   */\n      dup3\n        /* \"#utility.yul\":6693:6729   */\n      mstore\n        /* \"#utility.yul\":6620:6735   */\n      pop\n      pop\n      jump\t// out\n        /* \"#utility.yul\":6741:6959   */\n    tag_72:\n        /* \"#utility.yul\":6832:6836   */\n      0x00\n        /* \"#utility.yul\":6870:6872   */\n      0x20\n        /* \"#utility.yul\":6859:6868   */\n      dup3\n        /* \"#utility.yul\":6855:6873   */\n      add\n        /* \"#utility.yul\":6847:6873   */\n      swap1\n      pop\n        /* \"#utility.yul\":6883:6952   */\n      tag_201\n        /* \"#utility.yul\":6949:6950   */\n      0x00\n        /* \"#utility.yul\":6938:6947   */\n      dup4\n        /* \"#utility.yul\":6934:6951   */\n      add\n        /* \"#utility.yul\":6925:6931   */\n      dup5\n        /* \"#utility.yul\":6883:6952   */\n      tag_122\n      jump\t// in\n    tag_201:\n        /* \"#utility.yul\":6741:6959   */\n      swap3\n      swap2\n      pop\n      pop\n      jump\t// out\n        /* \"#utility.yul\":6965:7145   */\n    tag_123:\n        /* \"#utility.yul\":7013:7090   */\n      0x4e487b7100000000000000000000000000000000000000000000000000000000\n        /* \"#utility.yul\":7010:7011   */\n      0x00\n        /* \"#utility.yul\":7003:7091   */\n      mstore\n        /* \"#utility.yul\":7110:7114   */\n      0x22\n        /* \"#utility.yul\":7107:7108   */\n      0x04\n        /* \"#utility.yul\":7100:7115   */\n      mstore\n        /* \"#utility.yul\":7134:7138   */\n      0x24\n        /* \"#utility.yul\":7131:7132   */\n      0x00\n        /* \"#utility.yul\":7124:7139   */\n      revert\n        /* \"#utility.yul\":7151:7471   */\n    tag_80:\n        /* \"#utility.yul\":7195:7201   */\n      0x00\n        /* \"#utility.yul\":7232:7233   */\n      0x02\n        /* \"#utility.yul\":7226:7230   */\n      dup3\n        /* \"#utility.yul\":7222:7234   */\n      div\n        /* \"#utility.yul\":7212:7234   */\n      swap1\n      pop\n        /* \"#utility.yul\":7279:7280   */\n      0x01\n        /* \"#utility.yul\":7273:7277   */\n      dup3\n        /* \"#utility.yul\":7269:7281   */\n      and\n        /* \"#utility.yul\":7300:7318   */\n      dup1\n        /* \"#utility.yul\":7290:7371   */\n      tag_204\n      jumpi\n        /* \"#utility.yul\":7356:7360   */\n      0x7f\n        /* \"#utility.yul\":7348:7354   */\n      dup3\n        /* \"#utility.yul\":7344:7361   */\n      and\n        /* \"#utility.yul\":7334:7361   */\n      swap2\n      pop\n        /* \"#utility.yul\":7290:7371   */\n    tag_204:\n        /* \"#utility.yul\":7418:7420   */\n      0x20\n        /* \"#utility.yul\":7410:7416   */\n      dup3\n        /* \"#utility.yul\":7407:7421   */\n      lt\n        /* \"#utility.yul\":7387:7405   */\n      dup2\n        /* \"#utility.yul\":7384:7422   */\n      sub\n        /* \"#utility.yul\":7381:7465   */\n      tag_205\n      jumpi\n        /* \"#utility.yul\":7437:7455   */\n      tag_206\n      tag_123\n      jump\t// in\n    tag_206:\n        /* \"#utility.yul\":7381:7465   */\n    tag_205:\n        /* \"#utility.yul\":7202:7471   */\n      pop\n        /* \"#utility.yul\":7151:7471   */\n      swap2\n      swap1\n      pop\n      jump\t// out\n\n    auxdata: 0xa26469706673582212200d257e10d2b2c653d3f191a52500d414fc7cfb1065e6ed8228e4163c835f975764736f6c63430008120033\n}\n",
				"bytecode": {
					"linkReferences": {},
					"object": "60806040526001601360006101000a81548160ff02191690831515021790555034801561002b57600080fd5b506109258061003b6000396000f3fe608060405234801561001057600080fd5b50600436106100f55760003560e01c806386ed6eac11610097578063a2ba3ee411610066578063a2ba3ee41461022f578063a2e7fe8a1461025f578063af45869e1461027d578063ea8e4fd11461029b576100f5565b806386ed6eac146101df5780638a054ac2146101e95780639b267f09146101f35780639e6ba9c214610211576100f5565b806329f789e9116100d357806329f789e91461016657806330c0826f146101845780634f50ea8d146101a2578063699450e8146101c0576100f5565b806312b7b142146100fa57806318bad2171461012a5780632543135b14610148575b600080fd5b610114600480360381019061010f9190610538565b6102cb565b6040516101219190610574565b60405180910390f35b6101326102e6565b60405161013f91906105d0565b60405180910390f35b61015061030c565b60405161015d9190610574565b60405180910390f35b61016e610312565b60405161017b9190610626565b60405180910390f35b61018c610325565b60405161019991906106b8565b60405180910390f35b6101aa610338565b6040516101b79190610763565b60405180910390f35b6101c86103c6565b6040516101d6929190610785565b60405180910390f35b6101e76103d8565b005b6101f16103da565b005b6101fb6103ee565b6040516102089190610803565b60405180910390f35b61021961047c565b6040516102269190610840565b60405180910390f35b61024960048036038101906102449190610538565b61048d565b60405161025691906105d0565b60405180910390f35b6102676104c0565b6040516102749190610840565b60405180910390f35b6102856104d3565b6040516102929190610874565b60405180910390f35b6102b560048036038101906102b09190610538565b6104d9565b6040516102c29190610574565b60405180910390f35b600781600881106102db57600080fd5b016000915090505481565b600460009054906101000a900473ffffffffffffffffffffffffffffffffffffffff1681565b60035481565b600660009054906101000a900460f81b81565b600660019054906101000a900460ff1681565b60058054610345906108be565b80601f0160208091040260200160405190810160405280929190818152602001828054610371906108be565b80156103be5780601f10610393576101008083540402835291602001916103be565b820191906000526020600020905b8154815290600101906020018083116103a157829003601f168201915b505050505081565b60118060000154908060010154905082565b565b601360006101000a81549060ff0219169055565b600180546103fb906108be565b80601f0160208091040260200160405190810160405280929190818152602001828054610427906108be565b80156104745780601f1061044957610100808354040283529160200191610474565b820191906000526020600020905b81548152906001019060200180831161045757829003601f168201915b505050505081565b60008054906101000a900460ff1681565b60106020528060005260406000206000915054906101000a900473ffffffffffffffffffffffffffffffffffffffff1681565b601360009054906101000a900460ff1681565b60025481565b600f81815481106104e957600080fd5b906000526020600020016000915090505481565b600080fd5b6000819050919050565b61051581610502565b811461052057600080fd5b50565b6000813590506105328161050c565b92915050565b60006020828403121561054e5761054d6104fd565b5b600061055c84828501610523565b91505092915050565b61056e81610502565b82525050565b60006020820190506105896000830184610565565b92915050565b600073ffffffffffffffffffffffffffffffffffffffff82169050919050565b60006105ba8261058f565b9050919050565b6105ca816105af565b82525050565b60006020820190506105e560008301846105c1565b92915050565b60007fff0000000000000000000000000000000000000000000000000000000000000082169050919050565b610620816105eb565b82525050565b600060208201905061063b6000830184610617565b92915050565b7f4e487b7100000000000000000000000000000000000000000000000000000000600052602160045260246000fd5b6003811061068157610680610641565b5b50565b600081905061069282610670565b919050565b60006106a282610684565b9050919050565b6106b281610697565b82525050565b60006020820190506106cd60008301846106a9565b92915050565b600081519050919050565b600082825260208201905092915050565b60005b8381101561070d5780820151818401526020810190506106f2565b60008484015250505050565b6000601f19601f8301169050919050565b6000610735826106d3565b61073f81856106de565b935061074f8185602086016106ef565b61075881610719565b840191505092915050565b6000602082019050818103600083015261077d818461072a565b905092915050565b600060408201905061079a6000830185610565565b6107a76020830184610565565b9392505050565b600081519050919050565b600082825260208201905092915050565b60006107d5826107ae565b6107df81856107b9565b93506107ef8185602086016106ef565b6107f881610719565b840191505092915050565b6000602082019050818103600083015261081d81846107ca565b905092915050565b60008115159050919050565b61083a81610825565b82525050565b60006020820190506108556000830184610831565b92915050565b6000819050919050565b61086e8161085b565b82525050565b60006020820190506108896000830184610865565b92915050565b7f4e487b7100000000000000000000000000000000000000000000000000000000600052602260045260246000fd5b600060028204905060018216806108d657607f821691505b6020821081036108e9576108e861088f565b5b5091905056fea26469706673582212200d257e10d2b2c653d3f191a52500d414fc7cfb1065e6ed8228e4163c835f975764736f6c63430008120033",
					"opcodes": "PUSH1 0x80 PUSH1 0x40 MSTORE PUSH1 0x1 PUSH1 0x13 PUSH1 0x0 PUSH2 0x100 EXP DUP2 SLOAD DUP2 PUSH1 0xFF MUL NOT AND SWAP1 DUP4 ISZERO ISZERO MUL OR SWAP1 SSTORE POP CALLVALUE DUP1 ISZERO PUSH2 0x2B JUMPI PUSH1 0x0 DUP1 REVERT JUMPDEST POP PUSH2 0x925 DUP1 PUSH2 0x3B PUSH1 0x0 CODECOPY PUSH1 0x0 RETURN INVALID PUSH1 0x80 PUSH1 0x40 MSTORE CALLVALUE DUP1 ISZERO PUSH2 0x10 JUMPI PUSH1 0x0 DUP1 REVERT JUMPDEST POP PUSH1 0x4 CALLDATASIZE LT PUSH2 0xF5 JUMPI PUSH1 0x0 CALLDATALOAD PUSH1 0xE0 SHR DUP1 PUSH4 0x86ED6EAC GT PUSH2 0x97 JUMPI DUP1 PUSH4 0xA2BA3EE4 GT PUSH2 0x66 JUMPI DUP1 PUSH4 0xA2BA3EE4 EQ PUSH2 0x22F JUMPI DUP1 PUSH4 0xA2E7FE8A EQ PUSH2 0x25F JUMPI DUP1 PUSH4 0xAF45869E EQ PUSH2 0x27D JUMPI DUP1 PUSH4 0xEA8E4FD1 EQ PUSH2 0x29B JUMPI PUSH2 0xF5 JUMP JUMPDEST DUP1 PUSH4 0x86ED6EAC EQ PUSH2 0x1DF JUMPI DUP1 PUSH4 0x8A054AC2 EQ PUSH2 0x1E9 JUMPI DUP1 PUSH4 0x9B267F09 EQ PUSH2 0x1F3 JUMPI DUP1 PUSH4 0x9E6BA9C2 EQ PUSH2 0x211 JUMPI PUSH2 0xF5 JUMP JUMPDEST DUP1 PUSH4 0x29F789E9 GT PUSH2 0xD3 JUMPI DUP1 PUSH4 0x29F789E9 EQ PUSH2 0x166 JUMPI DUP1 PUSH4 0x30C0826F EQ PUSH2 0x184 JUMPI DUP1 PUSH4 0x4F50EA8D EQ PUSH2 0x1A2 JUMPI DUP1 PUSH4 0x699450E8 EQ PUSH2 0x1C0 JUMPI PUSH2 0xF5 JUMP JUMPDEST DUP1 PUSH4 0x12B7B142 EQ PUSH2 0xFA JUMPI DUP1 PUSH4 0x18BAD217 EQ PUSH2 0x12A JUMPI DUP1 PUSH4 0x2543135B EQ PUSH2 0x148 JUMPI JUMPDEST PUSH1 0x0 DUP1 REVERT JUMPDEST PUSH2 0x114 PUSH1 0x4 DUP1 CALLDATASIZE SUB DUP2 ADD SWAP1 PUSH2 0x10F SWAP2 SWAP1 PUSH2 0x538 JUMP JUMPDEST PUSH2 0x2CB JUMP JUMPDEST PUSH1 0x40 MLOAD PUSH2 0x121 SWAP2 SWAP1 PUSH2 0x574 JUMP JUMPDEST PUSH1 0x40 MLOAD DUP1 SWAP2 SUB SWAP1 RETURN JUMPDEST PUSH2 0x132 PUSH2 0x2E6 JUMP JUMPDEST PUSH1 0x40 MLOAD PUSH2 0x13F SWAP2 SWAP1 PUSH2 0x5D0 JUMP JUMPDEST PUSH1 0x40 MLOAD DUP1 SWAP2 SUB SWAP1 RETURN JUMPDEST PUSH2 0x150 PUSH2 0x30C JUMP JUMPDEST PUSH1 0x40 MLOAD PUSH2 0x15D SWAP2 SWAP1 PUSH2 0x574 JUMP JUMPDEST PUSH1 0x40 MLOAD DUP1 SWAP2 SUB SWAP1 RETURN JUMPDEST PUSH2 0x16E PUSH2 0x312 JUMP JUMPDEST PUSH1 0x40 MLOAD PUSH2 0x17B SWAP2 SWAP1 PUSH2 0x626 JUMP JUMPDEST PUSH1 0x40 MLOAD DUP1 SWAP2 SUB SWAP1 RETURN JUMPDEST PUSH2 0x18C PUSH2 0x325 JUMP JUMPDEST PUSH1 0x40 MLOAD PUSH2 0x199 SWAP2 SWAP1 PUSH2 0x6B8 JUMP JUMPDEST PUSH1 0x40 MLOAD DUP1 SWAP2 SUB SWAP1 RETURN JUMPDEST PUSH2 0x1AA PUSH2 0x338 JUMP JUMPDEST PUSH1 0x40 MLOAD PUSH2 0x1B7 SWAP2 SWAP1 PUSH2 0x763 JUMP JUMPDEST PUSH1 0x40 MLOAD DUP1 SWAP2 SUB SWAP1 RETURN JUMPDEST PUSH2 0x1C8 PUSH2 0x3C6 JUMP JUMPDEST PUSH1 0x40 MLOAD PUSH2 0x1D6 SWAP3 SWAP2 SWAP1 PUSH2 0x785 JUMP JUMPDEST PUSH1 0x40 MLOAD DUP1 SWAP2 SUB SWAP1 RETURN JUMPDEST PUSH2 0x1E7 PUSH2 0x3D8 JUMP JUMPDEST STOP JUMPDEST PUSH2 0x1F1 PUSH2 0x3DA JUMP JUMPDEST STOP JUMPDEST PUSH2 0x1FB PUSH2 0x3EE JUMP JUMPDEST PUSH1 0x40 MLOAD PUSH2 0x208 SWAP2 SWAP1 PUSH2 0x803 JUMP JUMPDEST PUSH1 0x40 MLOAD DUP1 SWAP2 SUB SWAP1 RETURN JUMPDEST PUSH2 0x219 PUSH2 0x47C JUMP JUMPDEST PUSH1 0x40 MLOAD PUSH2 0x226 SWAP2 SWAP1 PUSH2 0x840 JUMP JUMPDEST PUSH1 0x40 MLOAD DUP1 SWAP2 SUB SWAP1 RETURN JUMPDEST PUSH2 0x249 PUSH1 0x4 DUP1 CALLDATASIZE SUB DUP2 ADD SWAP1 PUSH2 0x244 SWAP2 SWAP1 PUSH2 0x538 JUMP JUMPDEST PUSH2 0x48D JUMP JUMPDEST PUSH1 0x40 MLOAD PUSH2 0x256 SWAP2 SWAP1 PUSH2 0x5D0 JUMP JUMPDEST PUSH1 0x40 MLOAD DUP1 SWAP2 SUB SWAP1 RETURN JUMPDEST PUSH2 0x267 PUSH2 0x4C0 JUMP JUMPDEST PUSH1 0x40 MLOAD PUSH2 0x274 SWAP2 SWAP1 PUSH2 0x840 JUMP JUMPDEST PUSH1 0x40 MLOAD DUP1 SWAP2 SUB SWAP1 RETURN JUMPDEST PUSH2 0x285 PUSH2 0x4D3 JUMP JUMPDEST PUSH1 0x40 MLOAD PUSH2 0x292 SWAP2 SWAP1 PUSH2 0x874 JUMP JUMPDEST PUSH1 0x40 MLOAD DUP1 SWAP2 SUB SWAP1 RETURN JUMPDEST PUSH2 0x2B5 PUSH1 0x4 DUP1 CALLDATASIZE SUB DUP2 ADD SWAP1 PUSH2 0x2B0 SWAP2 SWAP1 PUSH2 0x538 JUMP JUMPDEST PUSH2 0x4D9 JUMP JUMPDEST PUSH1 0x40 MLOAD PUSH2 0x2C2 SWAP2 SWAP1 PUSH2 0x574 JUMP JUMPDEST PUSH1 0x40 MLOAD DUP1 SWAP2 SUB SWAP1 RETURN JUMPDEST PUSH1 0x7 DUP2 PUSH1 0x8 DUP2 LT PUSH2 0x2DB JUMPI PUSH1 0x0 DUP1 REVERT JUMPDEST ADD PUSH1 0x0 SWAP2 POP SWAP1 POP SLOAD DUP2 JUMP JUMPDEST PUSH1 0x4 PUSH1 0x0 SWAP1 SLOAD SWAP1 PUSH2 0x100 EXP SWAP1 DIV PUSH20 0xFFFFFFFFFFFFFFFFFFFFFFFFFFFFFFFFFFFFFFFF AND DUP2 JUMP JUMPDEST PUSH1 0x3 SLOAD DUP2 JUMP JUMPDEST PUSH1 0x6 PUSH1 0x0 SWAP1 SLOAD SWAP1 PUSH2 0x100 EXP SWAP1 DIV PUSH1 0xF8 SHL DUP2 JUMP JUMPDEST PUSH1 0x6 PUSH1 0x1 SWAP1 SLOAD SWAP1 PUSH2 0x100 EXP SWAP1 DIV PUSH1 0xFF AND DUP2 JUMP JUMPDEST PUSH1 0x5 DUP1 SLOAD PUSH2 0x345 SWAP1 PUSH2 0x8BE JUMP JUMPDEST DUP1 PUSH1 0x1F ADD PUSH1 0x20 DUP1 SWAP2 DIV MUL PUSH1 0x20 ADD PUSH1 0x40 MLOAD SWAP1 DUP2 ADD PUSH1 0x40 MSTORE DUP1 SWAP3 SWAP2 SWAP1 DUP2 DUP2 MSTORE PUSH1 0x20 ADD DUP3 DUP1 SLOAD PUSH2 0x371 SWAP1 PUSH2 0x8BE JUMP JUMPDEST DUP1 ISZERO PUSH2 0x3BE JUMPI DUP1 PUSH1 0x1F LT PUSH2 0x393 JUMPI PUSH2 0x100 DUP1 DUP4 SLOAD DIV MUL DUP4 MSTORE SWAP2 PUSH1 0x20 ADD SWAP2 PUSH2 0x3BE JUMP JUMPDEST DUP3 ADD SWAP2 SWAP1 PUSH1 0x0 MSTORE PUSH1 0x20 PUSH1 0x0 KECCAK256 SWAP1 JUMPDEST DUP2 SLOAD DUP2 MSTORE SWAP1 PUSH1 0x1 ADD SWAP1 PUSH1 0x20 ADD DUP1 DUP4 GT PUSH2 0x3A1 JUMPI DUP3 SWAP1 SUB PUSH1 0x1F AND DUP3 ADD SWAP2 JUMPDEST POP POP POP POP POP DUP2 JUMP JUMPDEST PUSH1 0x11 DUP1 PUSH1 0x0 ADD SLOAD SWAP1 DUP1 PUSH1 0x1 ADD SLOAD SWAP1 POP DUP3 JUMP JUMPDEST JUMP JUMPDEST PUSH1 0x13 PUSH1 0x0 PUSH2 0x100 EXP DUP2 SLOAD SWAP1 PUSH1 0xFF MUL NOT AND SWAP1 SSTORE JUMP JUMPDEST PUSH1 0x1 DUP1 SLOAD PUSH2 0x3FB SWAP1 PUSH2 0x8BE JUMP JUMPDEST DUP1 PUSH1 0x1F ADD PUSH1 0x20 DUP1 SWAP2 DIV MUL PUSH1 0x20 ADD PUSH1 0x40 MLOAD SWAP1 DUP2 ADD PUSH1 0x40 MSTORE DUP1 SWAP3 SWAP2 SWAP1 DUP2 DUP2 MSTORE PUSH1 0x20 ADD DUP3 DUP1 SLOAD PUSH2 0x427 SWAP1 PUSH2 0x8BE JUMP JUMPDEST DUP1 ISZERO PUSH2 0x474 JUMPI DUP1 PUSH1 0x1F LT PUSH2 0x449 JUMPI PUSH2 0x100 DUP1 DUP4 SLOAD DIV MUL DUP4 MSTORE SWAP2 PUSH1 0x20 ADD SWAP2 PUSH2 0x474 JUMP JUMPDEST DUP3 ADD SWAP2 SWAP1 PUSH1 0x0 MSTORE PUSH1 0x20 PUSH1 0x0 KECCAK256 SWAP1 JUMPDEST DUP2 SLOAD DUP2 MSTORE SWAP1 PUSH1 0x1 ADD SWAP1 PUSH1 0x20 ADD DUP1 DUP4 GT PUSH2 0x457 JUMPI DUP3 SWAP1 SUB PUSH1 0x1F AND DUP3 ADD SWAP2 JUMPDEST POP POP POP POP POP DUP2 JUMP JUMPDEST PUSH1 0x0 DUP1 SLOAD SWAP1 PUSH2 0x100 EXP SWAP1 DIV PUSH1 0xFF AND DUP2 JUMP JUMPDEST PUSH1 0x10 PUSH1 0x20 MSTORE DUP1 PUSH1 0x0 MSTORE PUSH1 0x40 PUSH1 0x0 KECCAK256 PUSH1 0x0 SWAP2 POP SLOAD SWAP1 PUSH2 0x100 EXP SWAP1 DIV PUSH20 0xFFFFFFFFFFFFFFFFFFFFFFFFFFFFFFFFFFFFFFFF AND DUP2 JUMP JUMPDEST PUSH1 0x13 PUSH1 0x0 SWAP1 SLOAD SWAP1 PUSH2 0x100 EXP SWAP1 DIV PUSH1 0xFF AND DUP2 JUMP JUMPDEST PUSH1 0x2 SLOAD DUP2 JUMP JUMPDEST PUSH1 0xF DUP2 DUP2 SLOAD DUP2 LT PUSH2 0x4E9 JUMPI PUSH1 0x0 DUP1 REVERT JUMPDEST SWAP1 PUSH1 0x0 MSTORE PUSH1 0x20 PUSH1 0x0 KECCAK256 ADD PUSH1 0x0 SWAP2 POP SWAP1 POP SLOAD DUP2 JUMP JUMPDEST PUSH1 0x0 DUP1 REVERT JUMPDEST PUSH1 0x0 DUP2 SWAP1 POP SWAP2 SWAP1 POP JUMP JUMPDEST PUSH2 0x515 DUP2 PUSH2 0x502 JUMP JUMPDEST DUP2 EQ PUSH2 0x520 JUMPI PUSH1 0x0 DUP1 REVERT JUMPDEST POP JUMP JUMPDEST PUSH1 0x0 DUP2 CALLDATALOAD SWAP1 POP PUSH2 0x532 DUP2 PUSH2 0x50C JUMP JUMPDEST SWAP3 SWAP2 POP POP JUMP JUMPDEST PUSH1 0x0 PUSH1 0x20 DUP3 DUP5 SUB SLT ISZERO PUSH2 0x54E JUMPI PUSH2 0x54D PUSH2 0x4FD JUMP JUMPDEST JUMPDEST PUSH1 0x0 PUSH2 0x55C DUP5 DUP3 DUP6 ADD PUSH2 0x523 JUMP JUMPDEST SWAP2 POP POP SWAP3 SWAP2 POP POP JUMP JUMPDEST PUSH2 0x56E DUP2 PUSH2 0x502 JUMP JUMPDEST DUP3 MSTORE POP POP JUMP JUMPDEST PUSH1 0x0 PUSH1 0x20 DUP3 ADD SWAP1 POP PUSH2 0x589 PUSH1 0x0 DUP4 ADD DUP5 PUSH2 0x565 JUMP JUMPDEST SWAP3 SWAP2 POP POP JUMP JUMPDEST PUSH1 0x0 PUSH20 0xFFFFFFFFFFFFFFFFFFFFFFFFFFFFFFFFFFFFFFFF DUP3 AND SWAP1 POP SWAP2 SWAP1 POP JUMP JUMPDEST PUSH1 0x0 PUSH2 0x5BA DUP3 PUSH2 0x58F JUMP JUMPDEST SWAP1 POP SWAP2 SWAP1 POP JUMP JUMPDEST PUSH2 0x5CA DUP2 PUSH2 0x5AF JUMP JUMPDEST DUP3 MSTORE POP POP JUMP JUMPDEST PUSH1 0x0 PUSH1 0x20 DUP3 ADD SWAP1 POP PUSH2 0x5E5 PUSH1 0x0 DUP4 ADD DUP5 PUSH2 0x5C1 JUMP JUMPDEST SWAP3 SWAP2 POP POP JUMP JUMPDEST PUSH1 0x0 PUSH32 0xFF00000000000000000000000000000000000000000000000000000000000000 DUP3 AND SWAP1 POP SWAP2 SWAP1 POP JUMP JUMPDEST PUSH2 0x620 DUP2 PUSH2 0x5EB JUMP JUMPDEST DUP3 MSTORE POP POP JUMP JUMPDEST PUSH1 0x0 PUSH1 0x20 DUP3 ADD SWAP1 POP PUSH2 0x63B PUSH1 0x0 DUP4 ADD DUP5 PUSH2 0x617 JUMP JUMPDEST SWAP3 SWAP2 POP POP JUMP JUMPDEST PUSH32 0x4E487B7100000000000000000000000000000000000000000000000000000000 PUSH1 0x0 MSTORE PUSH1 0x21 PUSH1 0x4 MSTORE PUSH1 0x24 PUSH1 0x0 REVERT JUMPDEST PUSH1 0x3 DUP2 LT PUSH2 0x681 JUMPI PUSH2 0x680 PUSH2 0x641 JUMP JUMPDEST JUMPDEST POP JUMP JUMPDEST PUSH1 0x0 DUP2 SWAP1 POP PUSH2 0x692 DUP3 PUSH2 0x670 JUMP JUMPDEST SWAP2 SWAP1 POP JUMP JUMPDEST PUSH1 0x0 PUSH2 0x6A2 DUP3 PUSH2 0x684 JUMP JUMPDEST SWAP1 POP SWAP2 SWAP1 POP JUMP JUMPDEST PUSH2 0x6B2 DUP2 PUSH2 0x697 JUMP JUMPDEST DUP3 MSTORE POP POP JUMP JUMPDEST PUSH1 0x0 PUSH1 0x20 DUP3 ADD SWAP1 POP PUSH2 0x6CD PUSH1 0x0 DUP4 ADD DUP5 PUSH2 0x6A9 JUMP JUMPDEST SWAP3 SWAP2 POP POP JUMP JUMPDEST PUSH1 0x0 DUP2 MLOAD SWAP1 POP SWAP2 SWAP1 POP JUMP JUMPDEST PUSH1 0x0 DUP3 DUP3 MSTORE PUSH1 0x20 DUP3 ADD SWAP1 POP SWAP3 SWAP2 POP POP JUMP JUMPDEST PUSH1 0x0 JUMPDEST DUP4 DUP2 LT ISZERO PUSH2 0x70D JUMPI DUP1 DUP3 ADD MLOAD DUP2 DUP5 ADD MSTORE PUSH1 0x20 DUP2 ADD SWAP1 POP PUSH2 0x6F2 JUMP JUMPDEST PUSH1 0x0 DUP5 DUP5 ADD MSTORE POP POP POP POP JUMP JUMPDEST PUSH1 0x0 PUSH1 0x1F NOT PUSH1 0x1F DUP4 ADD AND SWAP1 POP SWAP2 SWAP1 POP JUMP JUMPDEST PUSH1 0x0 PUSH2 0x735 DUP3 PUSH2 0x6D3 JUMP JUMPDEST PUSH2 0x73F DUP2 DUP6 PUSH2 0x6DE JUMP JUMPDEST SWAP4 POP PUSH2 0x74F DUP2 DUP6 PUSH1 0x20 DUP7 ADD PUSH2 0x6EF JUMP JUMPDEST PUSH2 0x758 DUP2 PUSH2 0x719 JUMP JUMPDEST DUP5 ADD SWAP2 POP POP SWAP3 SWAP2 POP POP JUMP JUMPDEST PUSH1 0x0 PUSH1 0x20 DUP3 ADD SWAP1 POP DUP2 DUP2 SUB PUSH1 0x0 DUP4 ADD MSTORE PUSH2 0x77D DUP2 DUP5 PUSH2 0x72A JUMP JUMPDEST SWAP1 POP SWAP3 SWAP2 POP POP JUMP JUMPDEST PUSH1 0x0 PUSH1 0x40 DUP3 ADD SWAP1 POP PUSH2 0x79A PUSH1 0x0 DUP4 ADD DUP6 PUSH2 0x565 JUMP JUMPDEST PUSH2 0x7A7 PUSH1 0x20 DUP4 ADD DUP5 PUSH2 0x565 JUMP JUMPDEST SWAP4 SWAP3 POP POP POP JUMP JUMPDEST PUSH1 0x0 DUP2 MLOAD SWAP1 POP SWAP2 SWAP1 POP JUMP JUMPDEST PUSH1 0x0 DUP3 DUP3 MSTORE PUSH1 0x20 DUP3 ADD SWAP1 POP SWAP3 SWAP2 POP POP JUMP JUMPDEST PUSH1 0x0 PUSH2 0x7D5 DUP3 PUSH2 0x7AE JUMP JUMPDEST PUSH2 0x7DF DUP2 DUP6 PUSH2 0x7B9 JUMP JUMPDEST SWAP4 POP PUSH2 0x7EF DUP2 DUP6 PUSH1 0x20 DUP7 ADD PUSH2 0x6EF JUMP JUMPDEST PUSH2 0x7F8 DUP2 PUSH2 0x719 JUMP JUMPDEST DUP5 ADD SWAP2 POP POP SWAP3 SWAP2 POP POP JUMP JUMPDEST PUSH1 0x0 PUSH1 0x20 DUP3 ADD SWAP1 POP DUP2 DUP2 SUB PUSH1 0x0 DUP4 ADD MSTORE PUSH2 0x81D DUP2 DUP5 PUSH2 0x7CA JUMP JUMPDEST SWAP1 POP SWAP3 SWAP2 POP POP JUMP JUMPDEST PUSH1 0x0 DUP2 ISZERO ISZERO SWAP1 POP SWAP2 SWAP1 POP JUMP JUMPDEST PUSH2 0x83A DUP2 PUSH2 0x825 JUMP JUMPDEST DUP3 MSTORE POP POP JUMP JUMPDEST PUSH1 0x0 PUSH1 0x20 DUP3 ADD SWAP1 POP PUSH2 0x855 PUSH1 0x0 DUP4 ADD DUP5 PUSH2 0x831 JUMP JUMPDEST SWAP3 SWAP2 POP POP JUMP JUMPDEST PUSH1 0x0 DUP2 SWAP1 POP SWAP2 SWAP1 POP JUMP JUMPDEST PUSH2 0x86E DUP2 PUSH2 0x85B JUMP JUMPDEST DUP3 MSTORE POP POP JUMP JUMPDEST PUSH1 0x0 PUSH1 0x20 DUP3 ADD SWAP1 POP PUSH2 0x889 PUSH1 0x0 DUP4 ADD DUP5 PUSH2 0x865 JUMP JUMPDEST SWAP3 SWAP2 POP POP JUMP JUMPDEST PUSH32 0x4E487B7100000000000000000000000000000000000000000000000000000000 PUSH1 0x0 MSTORE PUSH1 0x22 PUSH1 0x4 MSTORE PUSH1 0x24 PUSH1 0x0 REVERT JUMPDEST PUSH1 0x0 PUSH1 0x2 DUP3 DIV SWAP1 POP PUSH1 0x1 DUP3 AND DUP1 PUSH2 0x8D6 JUMPI PUSH1 0x7F DUP3 AND SWAP2 POP JUMPDEST PUSH1 0x20 DUP3 LT DUP2 SUB PUSH2 0x8E9 JUMPI PUSH2 0x8E8 PUSH2 0x88F JUMP JUMPDEST JUMPDEST POP SWAP2 SWAP1 POP JUMP INVALID LOG2 PUSH5 0x6970667358 0x22 SLT KECCAK256 0xD 0x25 PUSH31 0x10D2B2C653D3F191A52500D414FC7CFB1065E6ED8228E4163C835F97576473 PUSH16 0x6C634300081200330000000000000000 "
				},
				"gasEstimates": {
					"creation": {
						"codeDepositCost": "468200",
						"executionCost": "24772",
						"totalCost": "492972"
					},
					"external": {
						"_address()": "2560",
						"_bool()": "2557",
						"_bool2()": "2515",
						"_bytes()": "infinite",
						"_bytes1()": "2494",
						"_dynamicArray(uint256)": "infinite",
						"_enum()": "2655",
						"_int()": "2495",
						"_mapping(uint256)": "2861",
						"_staticArray(uint256)": "infinite",
						"_string()": "infinite",
						"_uint()": "2497",
						"d()": "24431",
						"fe()": "167",
						"student()": "infinite"
					},
					"internal": {
						"fi()": "infinite"
					}
				},
				"methodIdentifiers": {
					"_address()": "18bad217",
					"_bool()": "9e6ba9c2",
					"_bool2()": "a2e7fe8a",
					"_bytes()": "4f50ea8d",
					"_bytes1()": "29f789e9",
					"_dynamicArray(uint256)": "ea8e4fd1",
					"_enum()": "30c0826f",
					"_int()": "af45869e",
					"_mapping(uint256)": "a2ba3ee4",
					"_staticArray(uint256)": "12b7b142",
					"_string()": "9b267f09",
					"_uint()": "2543135b",
					"d()": "8a054ac2",
					"fe()": "86ed6eac",
					"student()": "699450e8"
				}
			},
			"storageLayout": {
				"storage": [
					{
						"astId": 3,
						"contract": "8.变量初始值/InitialValue.sol:InitialValue",
						"label": "_bool",
						"offset": 0,
						"slot": "0",
						"type": "t_bool"
					},
					{
						"astId": 5,
						"contract": "8.变量初始值/InitialValue.sol:InitialValue",
						"label": "_string",
						"offset": 0,
						"slot": "1",
						"type": "t_string_storage"
					},
					{
						"astId": 7,
						"contract": "8.变量初始值/InitialValue.sol:InitialValue",
						"label": "_int",
						"offset": 0,
						"slot": "2",
						"type": "t_int256"
					},
					{
						"astId": 9,
						"contract": "8.变量初始值/InitialValue.sol:InitialValue",
						"label": "_uint",
						"offset": 0,
						"slot": "3",
						"type": "t_uint256"
					},
					{
						"astId": 11,
						"contract": "8.变量初始值/InitialValue.sol:InitialValue",
						"label": "_address",
						"offset": 0,
						"slot": "4",
						"type": "t_address"
					},
					{
						"astId": 13,
						"contract": "8.变量初始值/InitialValue.sol:InitialValue",
						"label": "_bytes",
						"offset": 0,
						"slot": "5",
						"type": "t_bytes_storage"
					},
					{
						"astId": 15,
						"contract": "8.变量初始值/InitialValue.sol:InitialValue",
						"label": "_bytes1",
						"offset": 0,
						"slot": "6",
						"type": "t_bytes1"
					},
					{
						"astId": 22,
						"contract": "8.变量初始值/InitialValue.sol:InitialValue",
						"label": "_enum",
						"offset": 1,
						"slot": "6",
						"type": "t_enum(ActionSet)19"
					},
					{
						"astId": 34,
						"contract": "8.变量初始值/InitialValue.sol:InitialValue",
						"label": "_staticArray",
						"offset": 0,
						"slot": "7",
						"type": "t_array(t_uint256)8_storage"
					},
					{
						"astId": 37,
						"contract": "8.变量初始值/InitialValue.sol:InitialValue",
						"label": "_dynamicArray",
						"offset": 0,
						"slot": "15",
						"type": "t_array(t_uint256)dyn_storage"
					},
					{
						"astId": 41,
						"contract": "8.变量初始值/InitialValue.sol:InitialValue",
						"label": "_mapping",
						"offset": 0,
						"slot": "16",
						"type": "t_mapping(t_uint256,t_address)"
					},
					{
						"astId": 49,
						"contract": "8.变量初始值/InitialValue.sol:InitialValue",
						"label": "student",
						"offset": 0,
						"slot": "17",
						"type": "t_struct(Student)46_storage"
					},
					{
						"astId": 52,
						"contract": "8.变量初始值/InitialValue.sol:InitialValue",
						"label": "_bool2",
						"offset": 0,
						"slot": "19",
						"type": "t_bool"
					}
				],
				"types": {
					"t_address": {
						"encoding": "inplace",
						"label": "address",
						"numberOfBytes": "20"
					},
					"t_array(t_uint256)8_storage": {
						"base": "t_uint256",
						"encoding": "inplace",
						"label": "uint256[8]",
						"numberOfBytes": "256"
					},
					"t_array(t_uint256)dyn_storage": {
						"base": "t_uint256",
						"encoding": "dynamic_array",
						"label": "uint256[]",
						"numberOfBytes": "32"
					},
					"t_bool": {
						"encoding": "inplace",
						"label": "bool",
						"numberOfBytes": "1"
					},
					"t_bytes1": {
						"encoding": "inplace",
						"label": "bytes1",
						"numberOfBytes": "1"
					},
					"t_bytes_storage": {
						"encoding": "bytes",
						"label": "bytes",
						"numberOfBytes": "32"
					},
					"t_enum(ActionSet)19": {
						"encoding": "inplace",
						"label": "enum InitialValue.ActionSet",
						"numberOfBytes": "1"
					},
					"t_int256": {
						"encoding": "inplace",
						"label": "int256",
						"numberOfBytes": "32"
					},
					"t_mapping(t_uint256,t_address)": {
						"encoding": "mapping",
						"key": "t_uint256",
						"label": "mapping(uint256 => address)",
						"numberOfBytes": "32",
						"value": "t_address"
					},
					"t_string_storage": {
						"encoding": "bytes",
						"label": "string",
						"numberOfBytes": "32"
					},
					"t_struct(Student)46_storage": {
						"encoding": "inplace",
						"label": "struct InitialValue.Student",
						"members": [
							{
								"astId": 43,
								"contract": "8.变量初始值/InitialValue.sol:InitialValue",
								"label": "id",
								"offset": 0,
								"slot": "0",
								"type": "t_uint256"
							},
							{
								"astId": 45,
								"contract": "8.变量初始值/InitialValue.sol:InitialValue",
								"label": "score",
								"offset": 0,
								"slot": "1",
								"type": "t_uint256"
							}
						],
						"numberOfBytes": "64"
					},
					"t_uint256": {
						"encoding": "inplace",
						"label": "uint256",
						"numberOfBytes": "32"
					}
				}
			},
			"userdoc": {
				"kind": "user",
				"methods": {},
				"version": 1
			}
		}
	}
}