{
	"data": {
		"bytecode": {
			"linkReferences": {},
			"object": "6080604052600160005534801561001557600080fd5b50610b04806100256000396000f3fe608060405234801561001057600080fd5b50600436106100ea5760003560e01c8063a05f99061161008c578063c298557811610066578063c29855781461021d578063c5d7802e14610227578063cc97e23814610245578063febb0f7e14610263576100ea565b8063a05f9906146101c1578063a56dfe4a146101e1578063b932d448146101ff576100ea565b80632da422fe116100c85780632da422fe1461014957806339ab09a714610167578063556b90b2146101855780636ee41262146101a3576100ea565b80630c55699c146100ef57806322d05d601461010d578063230042381461012b575b600080fd5b6100f7610281565b604051610104919061058e565b60405180910390f35b610115610287565b604051610122919061058e565b60405180910390f35b6101336102c7565b604051610140919061058e565b60405180910390f35b6101516102f5565b60405161015e919061058e565b60405180910390f35b61016f610320565b60405161017c919061058e565b60405180910390f35b61018d610354565b60405161019a919061058e565b60405180910390f35b6101ab610385565b6040516101b8919061058e565b60405180910390f35b6101c961039f565b6040516101d89392919061067a565b60405180910390f35b6101e9610408565b6040516101f6919061058e565b60405180910390f35b61020761040e565b604051610214919061058e565b60405180910390f35b610225610439565b005b61022f610490565b60405161023c919061070d565b60405180910390f35b61024d61051e565b60405161025a919061058e565b60405180910390f35b61026b61054f565b604051610278919061058e565b60405180910390f35b60005481565b6000670de0b6b3a764000080146102a1576102a061072f565b5b670de0b6b3a764000080146102b9576102b861072f565b5b670de0b6b3a7640000905090565b6000610e1080146102db576102da61072f565b5b610e1080146102ed576102ec61072f565b5b610e10905090565b6000600180146103085761030761072f565b5b600180146103195761031861072f565b5b6001905090565b6000633b9aca0080146103365761033561072f565b5b633b9aca00801461034a5761034961072f565b5b633b9aca00905090565b600062093a8080146103695761036861072f565b5b62093a80801461037c5761037b61072f565b5b62093a80905090565b6000600180146103985761039761072f565b5b6001905090565b600080606060003390506000439050600080368080601f016020809104026020016040519081016040528093929190818152602001838380828437600081840152601f19601f820116905080830192505050505050509050828282955095509550505050909192565b60015481565b6000603c80146104215761042061072f565b5b603c80146104325761043161072f565b5b603c905090565b600560008190555060026001819055506040518060400160405280600481526020017f30783542000000000000000000000000000000000000000000000000000000008152506002908161048d9190610999565b50565b6002805461049d906107bc565b80601f01602080910402602001604051908101604052809291908181526020018280546104c9906107bc565b80156105165780601f106104eb57610100808354040283529160200191610516565b820191906000526020600020905b8154815290600101906020018083116104f957829003601f168201915b505050505081565b60006201518080146105335761053261072f565b5b6201518080146105465761054561072f565b5b62015180905090565b600080600190506000600390506000818361056a9190610a9a565b905080935050505090565b6000819050919050565b61058881610575565b82525050565b60006020820190506105a3600083018461057f565b92915050565b600073ffffffffffffffffffffffffffffffffffffffff82169050919050565b60006105d4826105a9565b9050919050565b6105e4816105c9565b82525050565b600081519050919050565b600082825260208201905092915050565b60005b83811015610624578082015181840152602081019050610609565b60008484015250505050565b6000601f19601f8301169050919050565b600061064c826105ea565b61065681856105f5565b9350610666818560208601610606565b61066f81610630565b840191505092915050565b600060608201905061068f60008301866105db565b61069c602083018561057f565b81810360408301526106ae8184610641565b9050949350505050565b600081519050919050565b600082825260208201905092915050565b60006106df826106b8565b6106e981856106c3565b93506106f9818560208601610606565b61070281610630565b840191505092915050565b6000602082019050818103600083015261072781846106d4565b905092915050565b7f4e487b7100000000000000000000000000000000000000000000000000000000600052600160045260246000fd5b7f4e487b7100000000000000000000000000000000000000000000000000000000600052604160045260246000fd5b7f4e487b7100000000000000000000000000000000000000000000000000000000600052602260045260246000fd5b600060028204905060018216806107d457607f821691505b6020821081036107e7576107e661078d565b5b50919050565b60008190508160005260206000209050919050565b60006020601f8301049050919050565b600082821b905092915050565b60006008830261084f7fffffffffffffffffffffffffffffffffffffffffffffffffffffffffffffffff82610812565b6108598683610812565b95508019841693508086168417925050509392505050565b6000819050919050565b600061089661089161088c84610575565b610871565b610575565b9050919050565b6000819050919050565b6108b08361087b565b6108c46108bc8261089d565b84845461081f565b825550505050565b600090565b6108d96108cc565b6108e48184846108a7565b505050565b5b81811015610908576108fd6000826108d1565b6001810190506108ea565b5050565b601f82111561094d5761091e816107ed565b61092784610802565b81016020851015610936578190505b61094a61094285610802565b8301826108e9565b50505b505050565b600082821c905092915050565b600061097060001984600802610952565b1980831691505092915050565b6000610989838361095f565b9150826002028217905092915050565b6109a2826106b8565b67ffffffffffffffff8111156109bb576109ba61075e565b5b6109c582546107bc565b6109d082828561090c565b600060209050601f831160018114610a0357600084156109f1578287015190505b6109fb858261097d565b865550610a63565b601f198416610a11866107ed565b60005b82811015610a3957848901518255600182019150602085019450602081019050610a14565b86831015610a565784890151610a52601f89168261095f565b8355505b6001600288020188555050505b505050505050565b7f4e487b7100000000000000000000000000000000000000000000000000000000600052601160045260246000fd5b6000610aa582610575565b9150610ab083610575565b9250828201905080821115610ac857610ac7610a6b565b5b9291505056fea2646970667358221220772bf8a59dc237d0bc350f6388dda4269fe98be226191b8b91c829abaa7296d464736f6c63430008120033",
			"opcodes": "PUSH1 0x80 PUSH1 0x40 MSTORE PUSH1 0x1 PUSH1 0x0 SSTORE CALLVALUE DUP1 ISZERO PUSH2 0x15 JUMPI PUSH1 0x0 DUP1 REVERT JUMPDEST POP PUSH2 0xB04 DUP1 PUSH2 0x25 PUSH1 0x0 CODECOPY PUSH1 0x0 RETURN INVALID PUSH1 0x80 PUSH1 0x40 MSTORE CALLVALUE DUP1 ISZERO PUSH2 0x10 JUMPI PUSH1 0x0 DUP1 REVERT JUMPDEST POP PUSH1 0x4 CALLDATASIZE LT PUSH2 0xEA JUMPI PUSH1 0x0 CALLDATALOAD PUSH1 0xE0 SHR DUP1 PUSH4 0xA05F9906 GT PUSH2 0x8C JUMPI DUP1 PUSH4 0xC2985578 GT PUSH2 0x66 JUMPI DUP1 PUSH4 0xC2985578 EQ PUSH2 0x21D JUMPI DUP1 PUSH4 0xC5D7802E EQ PUSH2 0x227 JUMPI DUP1 PUSH4 0xCC97E238 EQ PUSH2 0x245 JUMPI DUP1 PUSH4 0xFEBB0F7E EQ PUSH2 0x263 JUMPI PUSH2 0xEA JUMP JUMPDEST DUP1 PUSH4 0xA05F9906 EQ PUSH2 0x1C1 JUMPI DUP1 PUSH4 0xA56DFE4A EQ PUSH2 0x1E1 JUMPI DUP1 PUSH4 0xB932D448 EQ PUSH2 0x1FF JUMPI PUSH2 0xEA JUMP JUMPDEST DUP1 PUSH4 0x2DA422FE GT PUSH2 0xC8 JUMPI DUP1 PUSH4 0x2DA422FE EQ PUSH2 0x149 JUMPI DUP1 PUSH4 0x39AB09A7 EQ PUSH2 0x167 JUMPI DUP1 PUSH4 0x556B90B2 EQ PUSH2 0x185 JUMPI DUP1 PUSH4 0x6EE41262 EQ PUSH2 0x1A3 JUMPI PUSH2 0xEA JUMP JUMPDEST DUP1 PUSH4 0xC55699C EQ PUSH2 0xEF JUMPI DUP1 PUSH4 0x22D05D60 EQ PUSH2 0x10D JUMPI DUP1 PUSH4 0x23004238 EQ PUSH2 0x12B JUMPI JUMPDEST PUSH1 0x0 DUP1 REVERT JUMPDEST PUSH2 0xF7 PUSH2 0x281 JUMP JUMPDEST PUSH1 0x40 MLOAD PUSH2 0x104 SWAP2 SWAP1 PUSH2 0x58E JUMP JUMPDEST PUSH1 0x40 MLOAD DUP1 SWAP2 SUB SWAP1 RETURN JUMPDEST PUSH2 0x115 PUSH2 0x287 JUMP JUMPDEST PUSH1 0x40 MLOAD PUSH2 0x122 SWAP2 SWAP1 PUSH2 0x58E JUMP JUMPDEST PUSH1 0x40 MLOAD DUP1 SWAP2 SUB SWAP1 RETURN JUMPDEST PUSH2 0x133 PUSH2 0x2C7 JUMP JUMPDEST PUSH1 0x40 MLOAD PUSH2 0x140 SWAP2 SWAP1 PUSH2 0x58E JUMP JUMPDEST PUSH1 0x40 MLOAD DUP1 SWAP2 SUB SWAP1 RETURN JUMPDEST PUSH2 0x151 PUSH2 0x2F5 JUMP JUMPDEST PUSH1 0x40 MLOAD PUSH2 0x15E SWAP2 SWAP1 PUSH2 0x58E JUMP JUMPDEST PUSH1 0x40 MLOAD DUP1 SWAP2 SUB SWAP1 RETURN JUMPDEST PUSH2 0x16F PUSH2 0x320 JUMP JUMPDEST PUSH1 0x40 MLOAD PUSH2 0x17C SWAP2 SWAP1 PUSH2 0x58E JUMP JUMPDEST PUSH1 0x40 MLOAD DUP1 SWAP2 SUB SWAP1 RETURN JUMPDEST PUSH2 0x18D PUSH2 0x354 JUMP JUMPDEST PUSH1 0x40 MLOAD PUSH2 0x19A SWAP2 SWAP1 PUSH2 0x58E JUMP JUMPDEST PUSH1 0x40 MLOAD DUP1 SWAP2 SUB SWAP1 RETURN JUMPDEST PUSH2 0x1AB PUSH2 0x385 JUMP JUMPDEST PUSH1 0x40 MLOAD PUSH2 0x1B8 SWAP2 SWAP1 PUSH2 0x58E JUMP JUMPDEST PUSH1 0x40 MLOAD DUP1 SWAP2 SUB SWAP1 RETURN JUMPDEST PUSH2 0x1C9 PUSH2 0x39F JUMP JUMPDEST PUSH1 0x40 MLOAD PUSH2 0x1D8 SWAP4 SWAP3 SWAP2 SWAP1 PUSH2 0x67A JUMP JUMPDEST PUSH1 0x40 MLOAD DUP1 SWAP2 SUB SWAP1 RETURN JUMPDEST PUSH2 0x1E9 PUSH2 0x408 JUMP JUMPDEST PUSH1 0x40 MLOAD PUSH2 0x1F6 SWAP2 SWAP1 PUSH2 0x58E JUMP JUMPDEST PUSH1 0x40 MLOAD DUP1 SWAP2 SUB SWAP1 RETURN JUMPDEST PUSH2 0x207 PUSH2 0x40E JUMP JUMPDEST PUSH1 0x40 MLOAD PUSH2 0x214 SWAP2 SWAP1 PUSH2 0x58E JUMP JUMPDEST PUSH1 0x40 MLOAD DUP1 SWAP2 SUB SWAP1 RETURN JUMPDEST PUSH2 0x225 PUSH2 0x439 JUMP JUMPDEST STOP JUMPDEST PUSH2 0x22F PUSH2 0x490 JUMP JUMPDEST PUSH1 0x40 MLOAD PUSH2 0x23C SWAP2 SWAP1 PUSH2 0x70D JUMP JUMPDEST PUSH1 0x40 MLOAD DUP1 SWAP2 SUB SWAP1 RETURN JUMPDEST PUSH2 0x24D PUSH2 0x51E JUMP JUMPDEST PUSH1 0x40 MLOAD PUSH2 0x25A SWAP2 SWAP1 PUSH2 0x58E JUMP JUMPDEST PUSH1 0x40 MLOAD DUP1 SWAP2 SUB SWAP1 RETURN JUMPDEST PUSH2 0x26B PUSH2 0x54F JUMP JUMPDEST PUSH1 0x40 MLOAD PUSH2 0x278 SWAP2 SWAP1 PUSH2 0x58E JUMP JUMPDEST PUSH1 0x40 MLOAD DUP1 SWAP2 SUB SWAP1 RETURN JUMPDEST PUSH1 0x0 SLOAD DUP2 JUMP JUMPDEST PUSH1 0x0 PUSH8 0xDE0B6B3A7640000 DUP1 EQ PUSH2 0x2A1 JUMPI PUSH2 0x2A0 PUSH2 0x72F JUMP JUMPDEST JUMPDEST PUSH8 0xDE0B6B3A7640000 DUP1 EQ PUSH2 0x2B9 JUMPI PUSH2 0x2B8 PUSH2 0x72F JUMP JUMPDEST JUMPDEST PUSH8 0xDE0B6B3A7640000 SWAP1 POP SWAP1 JUMP JUMPDEST PUSH1 0x0 PUSH2 0xE10 DUP1 EQ PUSH2 0x2DB JUMPI PUSH2 0x2DA PUSH2 0x72F JUMP JUMPDEST JUMPDEST PUSH2 0xE10 DUP1 EQ PUSH2 0x2ED JUMPI PUSH2 0x2EC PUSH2 0x72F JUMP JUMPDEST JUMPDEST PUSH2 0xE10 SWAP1 POP SWAP1 JUMP JUMPDEST PUSH1 0x0 PUSH1 0x1 DUP1 EQ PUSH2 0x308 JUMPI PUSH2 0x307 PUSH2 0x72F JUMP JUMPDEST JUMPDEST PUSH1 0x1 DUP1 EQ PUSH2 0x319 JUMPI PUSH2 0x318 PUSH2 0x72F JUMP JUMPDEST JUMPDEST PUSH1 0x1 SWAP1 POP SWAP1 JUMP JUMPDEST PUSH1 0x0 PUSH4 0x3B9ACA00 DUP1 EQ PUSH2 0x336 JUMPI PUSH2 0x335 PUSH2 0x72F JUMP JUMPDEST JUMPDEST PUSH4 0x3B9ACA00 DUP1 EQ PUSH2 0x34A JUMPI PUSH2 0x349 PUSH2 0x72F JUMP JUMPDEST JUMPDEST PUSH4 0x3B9ACA00 SWAP1 POP SWAP1 JUMP JUMPDEST PUSH1 0x0 PUSH3 0x93A80 DUP1 EQ PUSH2 0x369 JUMPI PUSH2 0x368 PUSH2 0x72F JUMP JUMPDEST JUMPDEST PUSH3 0x93A80 DUP1 EQ PUSH2 0x37C JUMPI PUSH2 0x37B PUSH2 0x72F JUMP JUMPDEST JUMPDEST PUSH3 0x93A80 SWAP1 POP SWAP1 JUMP JUMPDEST PUSH1 0x0 PUSH1 0x1 DUP1 EQ PUSH2 0x398 JUMPI PUSH2 0x397 PUSH2 0x72F JUMP JUMPDEST JUMPDEST PUSH1 0x1 SWAP1 POP SWAP1 JUMP JUMPDEST PUSH1 0x0 DUP1 PUSH1 0x60 PUSH1 0x0 CALLER SWAP1 POP PUSH1 0x0 NUMBER SWAP1 POP PUSH1 0x0 DUP1 CALLDATASIZE DUP1 DUP1 PUSH1 0x1F ADD PUSH1 0x20 DUP1 SWAP2 DIV MUL PUSH1 0x20 ADD PUSH1 0x40 MLOAD SWAP1 DUP2 ADD PUSH1 0x40 MSTORE DUP1 SWAP4 SWAP3 SWAP2 SWAP1 DUP2 DUP2 MSTORE PUSH1 0x20 ADD DUP4 DUP4 DUP1 DUP3 DUP5 CALLDATACOPY PUSH1 0x0 DUP2 DUP5 ADD MSTORE PUSH1 0x1F NOT PUSH1 0x1F DUP3 ADD AND SWAP1 POP DUP1 DUP4 ADD SWAP3 POP POP POP POP POP POP POP SWAP1 POP DUP3 DUP3 DUP3 SWAP6 POP SWAP6 POP SWAP6 POP POP POP POP SWAP1 SWAP2 SWAP3 JUMP JUMPDEST PUSH1 0x1 SLOAD DUP2 JUMP JUMPDEST PUSH1 0x0 PUSH1 0x3C DUP1 EQ PUSH2 0x421 JUMPI PUSH2 0x420 PUSH2 0x72F JUMP JUMPDEST JUMPDEST PUSH1 0x3C DUP1 EQ PUSH2 0x432 JUMPI PUSH2 0x431 PUSH2 0x72F JUMP JUMPDEST JUMPDEST PUSH1 0x3C SWAP1 POP SWAP1 JUMP JUMPDEST PUSH1 0x5 PUSH1 0x0 DUP2 SWAP1 SSTORE POP PUSH1 0x2 PUSH1 0x1 DUP2 SWAP1 SSTORE POP PUSH1 0x40 MLOAD DUP1 PUSH1 0x40 ADD PUSH1 0x40 MSTORE DUP1 PUSH1 0x4 DUP2 MSTORE PUSH1 0x20 ADD PUSH32 0x3078354200000000000000000000000000000000000000000000000000000000 DUP2 MSTORE POP PUSH1 0x2 SWAP1 DUP2 PUSH2 0x48D SWAP2 SWAP1 PUSH2 0x999 JUMP JUMPDEST POP JUMP JUMPDEST PUSH1 0x2 DUP1 SLOAD PUSH2 0x49D SWAP1 PUSH2 0x7BC JUMP JUMPDEST DUP1 PUSH1 0x1F ADD PUSH1 0x20 DUP1 SWAP2 DIV MUL PUSH1 0x20 ADD PUSH1 0x40 MLOAD SWAP1 DUP2 ADD PUSH1 0x40 MSTORE DUP1 SWAP3 SWAP2 SWAP1 DUP2 DUP2 MSTORE PUSH1 0x20 ADD DUP3 DUP1 SLOAD PUSH2 0x4C9 SWAP1 PUSH2 0x7BC JUMP JUMPDEST DUP1 ISZERO PUSH2 0x516 JUMPI DUP1 PUSH1 0x1F LT PUSH2 0x4EB JUMPI PUSH2 0x100 DUP1 DUP4 SLOAD DIV MUL DUP4 MSTORE SWAP2 PUSH1 0x20 ADD SWAP2 PUSH2 0x516 JUMP JUMPDEST DUP3 ADD SWAP2 SWAP1 PUSH1 0x0 MSTORE PUSH1 0x20 PUSH1 0x0 KECCAK256 SWAP1 JUMPDEST DUP2 SLOAD DUP2 MSTORE SWAP1 PUSH1 0x1 ADD SWAP1 PUSH1 0x20 ADD DUP1 DUP4 GT PUSH2 0x4F9 JUMPI DUP3 SWAP1 SUB PUSH1 0x1F AND DUP3 ADD SWAP2 JUMPDEST POP POP POP POP POP DUP2 JUMP JUMPDEST PUSH1 0x0 PUSH3 0x15180 DUP1 EQ PUSH2 0x533 JUMPI PUSH2 0x532 PUSH2 0x72F JUMP JUMPDEST JUMPDEST PUSH3 0x15180 DUP1 EQ PUSH2 0x546 JUMPI PUSH2 0x545 PUSH2 0x72F JUMP JUMPDEST JUMPDEST PUSH3 0x15180 SWAP1 POP SWAP1 JUMP JUMPDEST PUSH1 0x0 DUP1 PUSH1 0x1 SWAP1 POP PUSH1 0x0 PUSH1 0x3 SWAP1 POP PUSH1 0x0 DUP2 DUP4 PUSH2 0x56A SWAP2 SWAP1 PUSH2 0xA9A JUMP JUMPDEST SWAP1 POP DUP1 SWAP4 POP POP POP POP SWAP1 JUMP JUMPDEST PUSH1 0x0 DUP2 SWAP1 POP SWAP2 SWAP1 POP JUMP JUMPDEST PUSH2 0x588 DUP2 PUSH2 0x575 JUMP JUMPDEST DUP3 MSTORE POP POP JUMP JUMPDEST PUSH1 0x0 PUSH1 0x20 DUP3 ADD SWAP1 POP PUSH2 0x5A3 PUSH1 0x0 DUP4 ADD DUP5 PUSH2 0x57F JUMP JUMPDEST SWAP3 SWAP2 POP POP JUMP JUMPDEST PUSH1 0x0 PUSH20 0xFFFFFFFFFFFFFFFFFFFFFFFFFFFFFFFFFFFFFFFF DUP3 AND SWAP1 POP SWAP2 SWAP1 POP JUMP JUMPDEST PUSH1 0x0 PUSH2 0x5D4 DUP3 PUSH2 0x5A9 JUMP JUMPDEST SWAP1 POP SWAP2 SWAP1 POP JUMP JUMPDEST PUSH2 0x5E4 DUP2 PUSH2 0x5C9 JUMP JUMPDEST DUP3 MSTORE POP POP JUMP JUMPDEST PUSH1 0x0 DUP2 MLOAD SWAP1 POP SWAP2 SWAP1 POP JUMP JUMPDEST PUSH1 0x0 DUP3 DUP3 MSTORE PUSH1 0x20 DUP3 ADD SWAP1 POP SWAP3 SWAP2 POP POP JUMP JUMPDEST PUSH1 0x0 JUMPDEST DUP4 DUP2 LT ISZERO PUSH2 0x624 JUMPI DUP1 DUP3 ADD MLOAD DUP2 DUP5 ADD MSTORE PUSH1 0x20 DUP2 ADD SWAP1 POP PUSH2 0x609 JUMP JUMPDEST PUSH1 0x0 DUP5 DUP5 ADD MSTORE POP POP POP POP JUMP JUMPDEST PUSH1 0x0 PUSH1 0x1F NOT PUSH1 0x1F DUP4 ADD AND SWAP1 POP SWAP2 SWAP1 POP JUMP JUMPDEST PUSH1 0x0 PUSH2 0x64C DUP3 PUSH2 0x5EA JUMP JUMPDEST PUSH2 0x656 DUP2 DUP6 PUSH2 0x5F5 JUMP JUMPDEST SWAP4 POP PUSH2 0x666 DUP2 DUP6 PUSH1 0x20 DUP7 ADD PUSH2 0x606 JUMP JUMPDEST PUSH2 0x66F DUP2 PUSH2 0x630 JUMP JUMPDEST DUP5 ADD SWAP2 POP POP SWAP3 SWAP2 POP POP JUMP JUMPDEST PUSH1 0x0 PUSH1 0x60 DUP3 ADD SWAP1 POP PUSH2 0x68F PUSH1 0x0 DUP4 ADD DUP7 PUSH2 0x5DB JUMP JUMPDEST PUSH2 0x69C PUSH1 0x20 DUP4 ADD DUP6 PUSH2 0x57F JUMP JUMPDEST DUP2 DUP2 SUB PUSH1 0x40 DUP4 ADD MSTORE PUSH2 0x6AE DUP2 DUP5 PUSH2 0x641 JUMP JUMPDEST SWAP1 POP SWAP5 SWAP4 POP POP POP POP JUMP JUMPDEST PUSH1 0x0 DUP2 MLOAD SWAP1 POP SWAP2 SWAP1 POP JUMP JUMPDEST PUSH1 0x0 DUP3 DUP3 MSTORE PUSH1 0x20 DUP3 ADD SWAP1 POP SWAP3 SWAP2 POP POP JUMP JUMPDEST PUSH1 0x0 PUSH2 0x6DF DUP3 PUSH2 0x6B8 JUMP JUMPDEST PUSH2 0x6E9 DUP2 DUP6 PUSH2 0x6C3 JUMP JUMPDEST SWAP4 POP PUSH2 0x6F9 DUP2 DUP6 PUSH1 0x20 DUP7 ADD PUSH2 0x606 JUMP JUMPDEST PUSH2 0x702 DUP2 PUSH2 0x630 JUMP JUMPDEST DUP5 ADD SWAP2 POP POP SWAP3 SWAP2 POP POP JUMP JUMPDEST PUSH1 0x0 PUSH1 0x20 DUP3 ADD SWAP1 POP DUP2 DUP2 SUB PUSH1 0x0 DUP4 ADD MSTORE PUSH2 0x727 DUP2 DUP5 PUSH2 0x6D4 JUMP JUMPDEST SWAP1 POP SWAP3 SWAP2 POP POP JUMP JUMPDEST PUSH32 0x4E487B7100000000000000000000000000000000000000000000000000000000 PUSH1 0x0 MSTORE PUSH1 0x1 PUSH1 0x4 MSTORE PUSH1 0x24 PUSH1 0x0 REVERT JUMPDEST PUSH32 0x4E487B7100000000000000000000000000000000000000000000000000000000 PUSH1 0x0 MSTORE PUSH1 0x41 PUSH1 0x4 MSTORE PUSH1 0x24 PUSH1 0x0 REVERT JUMPDEST PUSH32 0x4E487B7100000000000000000000000000000000000000000000000000000000 PUSH1 0x0 MSTORE PUSH1 0x22 PUSH1 0x4 MSTORE PUSH1 0x24 PUSH1 0x0 REVERT JUMPDEST PUSH1 0x0 PUSH1 0x2 DUP3 DIV SWAP1 POP PUSH1 0x1 DUP3 AND DUP1 PUSH2 0x7D4 JUMPI PUSH1 0x7F DUP3 AND SWAP2 POP JUMPDEST PUSH1 0x20 DUP3 LT DUP2 SUB PUSH2 0x7E7 JUMPI PUSH2 0x7E6 PUSH2 0x78D JUMP JUMPDEST JUMPDEST POP SWAP2 SWAP1 POP JUMP JUMPDEST PUSH1 0x0 DUP2 SWAP1 POP DUP2 PUSH1 0x0 MSTORE PUSH1 0x20 PUSH1 0x0 KECCAK256 SWAP1 POP SWAP2 SWAP1 POP JUMP JUMPDEST PUSH1 0x0 PUSH1 0x20 PUSH1 0x1F DUP4 ADD DIV SWAP1 POP SWAP2 SWAP1 POP JUMP JUMPDEST PUSH1 0x0 DUP3 DUP3 SHL SWAP1 POP SWAP3 SWAP2 POP POP JUMP JUMPDEST PUSH1 0x0 PUSH1 0x8 DUP4 MUL PUSH2 0x84F PUSH32 0xFFFFFFFFFFFFFFFFFFFFFFFFFFFFFFFFFFFFFFFFFFFFFFFFFFFFFFFFFFFFFFFF DUP3 PUSH2 0x812 JUMP JUMPDEST PUSH2 0x859 DUP7 DUP4 PUSH2 0x812 JUMP JUMPDEST SWAP6 POP DUP1 NOT DUP5 AND SWAP4 POP DUP1 DUP7 AND DUP5 OR SWAP3 POP POP POP SWAP4 SWAP3 POP POP POP JUMP JUMPDEST PUSH1 0x0 DUP2 SWAP1 POP SWAP2 SWAP1 POP JUMP JUMPDEST PUSH1 0x0 PUSH2 0x896 PUSH2 0x891 PUSH2 0x88C DUP5 PUSH2 0x575 JUMP JUMPDEST PUSH2 0x871 JUMP JUMPDEST PUSH2 0x575 JUMP JUMPDEST SWAP1 POP SWAP2 SWAP1 POP JUMP JUMPDEST PUSH1 0x0 DUP2 SWAP1 POP SWAP2 SWAP1 POP JUMP JUMPDEST PUSH2 0x8B0 DUP4 PUSH2 0x87B JUMP JUMPDEST PUSH2 0x8C4 PUSH2 0x8BC DUP3 PUSH2 0x89D JUMP JUMPDEST DUP5 DUP5 SLOAD PUSH2 0x81F JUMP JUMPDEST DUP3 SSTORE POP POP POP POP JUMP JUMPDEST PUSH1 0x0 SWAP1 JUMP JUMPDEST PUSH2 0x8D9 PUSH2 0x8CC JUMP JUMPDEST PUSH2 0x8E4 DUP2 DUP5 DUP5 PUSH2 0x8A7 JUMP JUMPDEST POP POP POP JUMP JUMPDEST JUMPDEST DUP2 DUP2 LT ISZERO PUSH2 0x908 JUMPI PUSH2 0x8FD PUSH1 0x0 DUP3 PUSH2 0x8D1 JUMP JUMPDEST PUSH1 0x1 DUP2 ADD SWAP1 POP PUSH2 0x8EA JUMP JUMPDEST POP POP JUMP JUMPDEST PUSH1 0x1F DUP3 GT ISZERO PUSH2 0x94D JUMPI PUSH2 0x91E DUP2 PUSH2 0x7ED JUMP JUMPDEST PUSH2 0x927 DUP5 PUSH2 0x802 JUMP JUMPDEST DUP2 ADD PUSH1 0x20 DUP6 LT ISZERO PUSH2 0x936 JUMPI DUP2 SWAP1 POP JUMPDEST PUSH2 0x94A PUSH2 0x942 DUP6 PUSH2 0x802 JUMP JUMPDEST DUP4 ADD DUP3 PUSH2 0x8E9 JUMP JUMPDEST POP POP JUMPDEST POP POP POP JUMP JUMPDEST PUSH1 0x0 DUP3 DUP3 SHR SWAP1 POP SWAP3 SWAP2 POP POP JUMP JUMPDEST PUSH1 0x0 PUSH2 0x970 PUSH1 0x0 NOT DUP5 PUSH1 0x8 MUL PUSH2 0x952 JUMP JUMPDEST NOT DUP1 DUP4 AND SWAP2 POP POP SWAP3 SWAP2 POP POP JUMP JUMPDEST PUSH1 0x0 PUSH2 0x989 DUP4 DUP4 PUSH2 0x95F JUMP JUMPDEST SWAP2 POP DUP3 PUSH1 0x2 MUL DUP3 OR SWAP1 POP SWAP3 SWAP2 POP POP JUMP JUMPDEST PUSH2 0x9A2 DUP3 PUSH2 0x6B8 JUMP JUMPDEST PUSH8 0xFFFFFFFFFFFFFFFF DUP2 GT ISZERO PUSH2 0x9BB JUMPI PUSH2 0x9BA PUSH2 0x75E JUMP JUMPDEST JUMPDEST PUSH2 0x9C5 DUP3 SLOAD PUSH2 0x7BC JUMP JUMPDEST PUSH2 0x9D0 DUP3 DUP3 DUP6 PUSH2 0x90C JUMP JUMPDEST PUSH1 0x0 PUSH1 0x20 SWAP1 POP PUSH1 0x1F DUP4 GT PUSH1 0x1 DUP2 EQ PUSH2 0xA03 JUMPI PUSH1 0x0 DUP5 ISZERO PUSH2 0x9F1 JUMPI DUP3 DUP8 ADD MLOAD SWAP1 POP JUMPDEST PUSH2 0x9FB DUP6 DUP3 PUSH2 0x97D JUMP JUMPDEST DUP7 SSTORE POP PUSH2 0xA63 JUMP JUMPDEST PUSH1 0x1F NOT DUP5 AND PUSH2 0xA11 DUP7 PUSH2 0x7ED JUMP JUMPDEST PUSH1 0x0 JUMPDEST DUP3 DUP2 LT ISZERO PUSH2 0xA39 JUMPI DUP5 DUP10 ADD MLOAD DUP3 SSTORE PUSH1 0x1 DUP3 ADD SWAP2 POP PUSH1 0x20 DUP6 ADD SWAP5 POP PUSH1 0x20 DUP2 ADD SWAP1 POP PUSH2 0xA14 JUMP JUMPDEST DUP7 DUP4 LT ISZERO PUSH2 0xA56 JUMPI DUP5 DUP10 ADD MLOAD PUSH2 0xA52 PUSH1 0x1F DUP10 AND DUP3 PUSH2 0x95F JUMP JUMPDEST DUP4 SSTORE POP JUMPDEST PUSH1 0x1 PUSH1 0x2 DUP9 MUL ADD DUP9 SSTORE POP POP POP JUMPDEST POP POP POP POP POP POP JUMP JUMPDEST PUSH32 0x4E487B7100000000000000000000000000000000000000000000000000000000 PUSH1 0x0 MSTORE PUSH1 0x11 PUSH1 0x4 MSTORE PUSH1 0x24 PUSH1 0x0 REVERT JUMPDEST PUSH1 0x0 PUSH2 0xAA5 DUP3 PUSH2 0x575 JUMP JUMPDEST SWAP2 POP PUSH2 0xAB0 DUP4 PUSH2 0x575 JUMP JUMPDEST SWAP3 POP DUP3 DUP3 ADD SWAP1 POP DUP1 DUP3 GT ISZERO PUSH2 0xAC8 JUMPI PUSH2 0xAC7 PUSH2 0xA6B JUMP JUMPDEST JUMPDEST SWAP3 SWAP2 POP POP JUMP INVALID LOG2 PUSH5 0x6970667358 0x22 SLT KECCAK256 PUSH24 0x2BF8A59DC237D0BC350F6388DDA4269FE98BE226191B8B91 0xC8 0x29 0xAB 0xAA PUSH19 0x96D464736F6C63430008120033000000000000 "
		},
		"gasEstimates": {
			"creation": {
				"codeDepositCost": "564000",
				"executionCost": "22706",
				"totalCost": "586706"
			},
			"external": {
				"bar()": "infinite",
				"daysUint()": "449",
				"etherUint()": "429",
				"foo()": "infinite",
				"global()": "infinite",
				"gweiUint()": "428",
				"hoursUint()": "451",
				"minutesUint()": "450",
				"secondsUint()": "449",
				"weeksUint()": "450",
				"weiUint()": "406",
				"x()": "2453",
				"y()": "2474",
				"z()": "infinite"
			}
		},
		"methodIdentifiers": {
			"bar()": "febb0f7e",
			"daysUint()": "cc97e238",
			"etherUint()": "22d05d60",
			"foo()": "c2985578",
			"global()": "a05f9906",
			"gweiUint()": "39ab09a7",
			"hoursUint()": "23004238",
			"minutesUint()": "b932d448",
			"secondsUint()": "6ee41262",
			"weeksUint()": "556b90b2",
			"weiUint()": "2da422fe",
			"x()": "0c55699c",
			"y()": "a56dfe4a",
			"z()": "c5d7802e"
		}
	},
	"abi": [
		{
			"inputs": [],
			"name": "bar",
			"outputs": [
				{
					"internalType": "uint256",
					"name": "",
					"type": "uint256"
				}
			],
			"stateMutability": "pure",
			"type": "function"
		},
		{
			"inputs": [],
			"name": "daysUint",
			"outputs": [
				{
					"internalType": "uint256",
					"name": "",
					"type": "uint256"
				}
			],
			"stateMutability": "pure",
			"type": "function"
		},
		{
			"inputs": [],
			"name": "etherUint",
			"outputs": [
				{
					"internalType": "uint256",
					"name": "",
					"type": "uint256"
				}
			],
			"stateMutability": "pure",
			"type": "function"
		},
		{
			"inputs": [],
			"name": "foo",
			"outputs": [],
			"stateMutability": "nonpayable",
			"type": "function"
		},
		{
			"inputs": [],
			"name": "global",
			"outputs": [
				{
					"internalType": "address",
					"name": "",
					"type": "address"
				},
				{
					"internalType": "uint256",
					"name": "",
					"type": "uint256"
				},
				{
					"internalType": "bytes",
					"name": "",
					"type": "bytes"
				}
			],
			"stateMutability": "view",
			"type": "function"
		},
		{
			"inputs": [],
			"name": "gweiUint",
			"outputs": [
				{
					"internalType": "uint256",
					"name": "",
					"type": "uint256"
				}
			],
			"stateMutability": "pure",
			"type": "function"
		},
		{
			"inputs": [],
			"name": "hoursUint",
			"outputs": [
				{
					"internalType": "uint256",
					"name": "",
					"type": "uint256"
				}
			],
			"stateMutability": "pure",
			"type": "function"
		},
		{
			"inputs": [],
			"name": "minutesUint",
			"outputs": [
				{
					"internalType": "uint256",
					"name": "",
					"type": "uint256"
				}
			],
			"stateMutability": "pure",
			"type": "function"
		},
		{
			"inputs": [],
			"name": "secondsUint",
			"outputs": [
				{
					"internalType": "uint256",
					"name": "",
					"type": "uint256"
				}
			],
			"stateMutability": "pure",
			"type": "function"
		},
		{
			"inputs": [],
			"name": "weeksUint",
			"outputs": [
				{
					"internalType": "uint256",
					"name": "",
					"type": "uint256"
				}
			],
			"stateMutability": "pure",
			"type": "function"
		},
		{
			"inputs": [],
			"name": "weiUint",
			"outputs": [
				{
					"internalType": "uint256",
					"name": "",
					"type": "uint256"
				}
			],
			"stateMutability": "pure",
			"type": "function"
		},
		{
			"inputs": [],
			"name": "x",
			"outputs": [
				{
					"internalType": "uint256",
					"name": "",
					"type": "uint256"
				}
			],
			"stateMutability": "view",
			"type": "function"
		},
		{
			"inputs": [],
			"name": "y",
			"outputs": [
				{
					"internalType": "uint256",
					"name": "",
					"type": "uint256"
				}
			],
			"stateMutability": "view",
			"type": "function"
		},
		{
			"inputs": [],
			"name": "z",
			"outputs": [
				{
					"internalType": "string",
					"name": "",
					"type": "string"
				}
			],
			"stateMutability": "view",
			"type": "function"
		}
	]
}