{
	"data": {
		"bytecode": {
			"linkReferences": {},
			"object": "608060405234801561001057600080fd5b506101bf806100206000396000f3fe608060405234801561001057600080fd5b50600436106100575760003560e01c80631a8d7dc31461005c5780635a4236b114610066578063699450e8146100705780639ebb8d201461008f578063a8b63e6f14610099575b600080fd5b6100646100a3565b005b61006e6100ba565b005b6100786100eb565b604051610086929190610160565b60405180910390f35b6100976100fd565b005b6100a161012e565b005b600160008001819055506050600060010181905550565b604051806040016040528060038152602001605a815250600080820151816000015560208201518160010155905050565b60008060000154908060010154905082565b604051806040016040528060048152602001603c815250600080820151816000015560208201518160010155905050565b6000600b81600001819055506064816001018190555050565b6000819050919050565b61015a81610147565b82525050565b60006040820190506101756000830185610151565b6101826020830184610151565b939250505056fea2646970667358221220e9e705aa82b2cd9ac5a9e83f8dea72380adec65e1f0dedd237e63e08cc46597764736f6c63430008120033",
			"opcodes": "PUSH1 0x80 PUSH1 0x40 MSTORE CALLVALUE DUP1 ISZERO PUSH2 0x10 JUMPI PUSH1 0x0 DUP1 REVERT JUMPDEST POP PUSH2 0x1BF DUP1 PUSH2 0x20 PUSH1 0x0 CODECOPY PUSH1 0x0 RETURN INVALID PUSH1 0x80 PUSH1 0x40 MSTORE CALLVALUE DUP1 ISZERO PUSH2 0x10 JUMPI PUSH1 0x0 DUP1 REVERT JUMPDEST POP PUSH1 0x4 CALLDATASIZE LT PUSH2 0x57 JUMPI PUSH1 0x0 CALLDATALOAD PUSH1 0xE0 SHR DUP1 PUSH4 0x1A8D7DC3 EQ PUSH2 0x5C JUMPI DUP1 PUSH4 0x5A4236B1 EQ PUSH2 0x66 JUMPI DUP1 PUSH4 0x699450E8 EQ PUSH2 0x70 JUMPI DUP1 PUSH4 0x9EBB8D20 EQ PUSH2 0x8F JUMPI DUP1 PUSH4 0xA8B63E6F EQ PUSH2 0x99 JUMPI JUMPDEST PUSH1 0x0 DUP1 REVERT JUMPDEST PUSH2 0x64 PUSH2 0xA3 JUMP JUMPDEST STOP JUMPDEST PUSH2 0x6E PUSH2 0xBA JUMP JUMPDEST STOP JUMPDEST PUSH2 0x78 PUSH2 0xEB JUMP JUMPDEST PUSH1 0x40 MLOAD PUSH2 0x86 SWAP3 SWAP2 SWAP1 PUSH2 0x160 JUMP JUMPDEST PUSH1 0x40 MLOAD DUP1 SWAP2 SUB SWAP1 RETURN JUMPDEST PUSH2 0x97 PUSH2 0xFD JUMP JUMPDEST STOP JUMPDEST PUSH2 0xA1 PUSH2 0x12E JUMP JUMPDEST STOP JUMPDEST PUSH1 0x1 PUSH1 0x0 DUP1 ADD DUP2 SWAP1 SSTORE POP PUSH1 0x50 PUSH1 0x0 PUSH1 0x1 ADD DUP2 SWAP1 SSTORE POP JUMP JUMPDEST PUSH1 0x40 MLOAD DUP1 PUSH1 0x40 ADD PUSH1 0x40 MSTORE DUP1 PUSH1 0x3 DUP2 MSTORE PUSH1 0x20 ADD PUSH1 0x5A DUP2 MSTORE POP PUSH1 0x0 DUP1 DUP3 ADD MLOAD DUP2 PUSH1 0x0 ADD SSTORE PUSH1 0x20 DUP3 ADD MLOAD DUP2 PUSH1 0x1 ADD SSTORE SWAP1 POP POP JUMP JUMPDEST PUSH1 0x0 DUP1 PUSH1 0x0 ADD SLOAD SWAP1 DUP1 PUSH1 0x1 ADD SLOAD SWAP1 POP DUP3 JUMP JUMPDEST PUSH1 0x40 MLOAD DUP1 PUSH1 0x40 ADD PUSH1 0x40 MSTORE DUP1 PUSH1 0x4 DUP2 MSTORE PUSH1 0x20 ADD PUSH1 0x3C DUP2 MSTORE POP PUSH1 0x0 DUP1 DUP3 ADD MLOAD DUP2 PUSH1 0x0 ADD SSTORE PUSH1 0x20 DUP3 ADD MLOAD DUP2 PUSH1 0x1 ADD SSTORE SWAP1 POP POP JUMP JUMPDEST PUSH1 0x0 PUSH1 0xB DUP2 PUSH1 0x0 ADD DUP2 SWAP1 SSTORE POP PUSH1 0x64 DUP2 PUSH1 0x1 ADD DUP2 SWAP1 SSTORE POP POP JUMP JUMPDEST PUSH1 0x0 DUP2 SWAP1 POP SWAP2 SWAP1 POP JUMP JUMPDEST PUSH2 0x15A DUP2 PUSH2 0x147 JUMP JUMPDEST DUP3 MSTORE POP POP JUMP JUMPDEST PUSH1 0x0 PUSH1 0x40 DUP3 ADD SWAP1 POP PUSH2 0x175 PUSH1 0x0 DUP4 ADD DUP6 PUSH2 0x151 JUMP JUMPDEST PUSH2 0x182 PUSH1 0x20 DUP4 ADD DUP5 PUSH2 0x151 JUMP JUMPDEST SWAP4 SWAP3 POP POP POP JUMP INVALID LOG2 PUSH5 0x6970667358 0x22 SLT KECCAK256 0xE9 0xE7 SDIV 0xAA DUP3 0xB2 0xCD SWAP11 0xC5 0xA9 0xE8 EXTCODEHASH DUP14 0xEA PUSH19 0x380ADEC65E1F0DEDD237E63E08CC4659776473 PUSH16 0x6C634300081200330000000000000000 "
		},
		"gasEstimates": {
			"creation": {
				"codeDepositCost": "89400",
				"executionCost": "135",
				"totalCost": "89535"
			},
			"external": {
				"initStudent1()": "44455",
				"initStudent2()": "44362",
				"initStudent3()": "44455",
				"initStudent4()": "44499",
				"student()": "infinite"
			}
		},
		"methodIdentifiers": {
			"initStudent1()": "a8b63e6f",
			"initStudent2()": "1a8d7dc3",
			"initStudent3()": "5a4236b1",
			"initStudent4()": "9ebb8d20",
			"student()": "699450e8"
		}
	},
	"abi": [
		{
			"inputs": [],
			"name": "initStudent1",
			"outputs": [],
			"stateMutability": "nonpayable",
			"type": "function"
		},
		{
			"inputs": [],
			"name": "initStudent2",
			"outputs": [],
			"stateMutability": "nonpayable",
			"type": "function"
		},
		{
			"inputs": [],
			"name": "initStudent3",
			"outputs": [],
			"stateMutability": "nonpayable",
			"type": "function"
		},
		{
			"inputs": [],
			"name": "initStudent4",
			"outputs": [],
			"stateMutability": "nonpayable",
			"type": "function"
		},
		{
			"inputs": [],
			"name": "student",
			"outputs": [
				{
					"internalType": "uint256",
					"name": "id",
					"type": "uint256"
				},
				{
					"internalType": "uint256",
					"name": "score",
					"type": "uint256"
				}
			],
			"stateMutability": "view",
			"type": "function"
		}
	]
}